{
  "address": "0x47fA6E9F717c9eB081c4734FfB5a1EcD70508891",
  "abi": [
    {
      "inputs": [
        {
          "internalType": "address",
          "name": "accessControlManager_",
          "type": "address"
        }
      ],
      "stateMutability": "nonpayable",
      "type": "constructor"
    },
    {
      "inputs": [
        {
          "internalType": "address",
          "name": "user",
          "type": "address"
        }
      ],
      "name": "AccountBlacklisted",
      "type": "error"
    },
    {
      "inputs": [],
      "name": "AddressesMustDiffer",
      "type": "error"
    },
    {
      "inputs": [],
      "name": "MintLimitExceed",
      "type": "error"
    },
    {
      "inputs": [],
      "name": "MintedAmountExceed",
      "type": "error"
    },
    {
      "inputs": [],
      "name": "NewCapNotGreaterThanMintedTokens",
      "type": "error"
    },
    {
      "inputs": [],
      "name": "Unauthorized",
      "type": "error"
    },
    {
      "inputs": [],
      "name": "ZeroAddressNotAllowed",
      "type": "error"
    },
    {
      "anonymous": false,
      "inputs": [
        {
          "indexed": true,
          "internalType": "address",
          "name": "owner",
          "type": "address"
        },
        {
          "indexed": true,
          "internalType": "address",
          "name": "spender",
          "type": "address"
        },
        {
          "indexed": false,
          "internalType": "uint256",
          "name": "value",
          "type": "uint256"
        }
      ],
      "name": "Approval",
      "type": "event"
    },
    {
      "anonymous": false,
      "inputs": [
        {
          "indexed": true,
          "internalType": "address",
          "name": "user",
          "type": "address"
        },
        {
          "indexed": false,
          "internalType": "bool",
          "name": "value",
          "type": "bool"
        }
      ],
      "name": "BlacklistUpdated",
      "type": "event"
    },
    {
      "anonymous": false,
      "inputs": [
        {
          "indexed": true,
          "internalType": "address",
          "name": "minter",
          "type": "address"
        },
        {
          "indexed": false,
          "internalType": "uint256",
          "name": "amount",
          "type": "uint256"
        }
      ],
      "name": "MintCapChanged",
      "type": "event"
    },
    {
      "anonymous": false,
      "inputs": [
        {
          "indexed": true,
          "internalType": "address",
          "name": "minter",
          "type": "address"
        },
        {
          "indexed": false,
          "internalType": "uint256",
          "name": "newLimit",
          "type": "uint256"
        }
      ],
      "name": "MintLimitDecreased",
      "type": "event"
    },
    {
      "anonymous": false,
      "inputs": [
        {
          "indexed": true,
          "internalType": "address",
          "name": "minter",
          "type": "address"
        },
        {
          "indexed": false,
          "internalType": "uint256",
          "name": "newLimit",
          "type": "uint256"
        }
      ],
      "name": "MintLimitIncreased",
      "type": "event"
    },
    {
      "anonymous": false,
      "inputs": [
        {
          "indexed": true,
          "internalType": "address",
          "name": "source",
          "type": "address"
        },
        {
          "indexed": true,
          "internalType": "address",
          "name": "destination",
          "type": "address"
        }
      ],
      "name": "MintedTokensMigrated",
      "type": "event"
    },
    {
      "anonymous": false,
      "inputs": [
        {
          "indexed": true,
          "internalType": "address",
          "name": "oldAccessControlManager",
          "type": "address"
        },
        {
          "indexed": true,
          "internalType": "address",
          "name": "newAccessControlManager",
          "type": "address"
        }
      ],
      "name": "NewAccessControlManager",
      "type": "event"
    },
    {
      "anonymous": false,
      "inputs": [
        {
          "indexed": true,
          "internalType": "address",
          "name": "previousOwner",
          "type": "address"
        },
        {
          "indexed": true,
          "internalType": "address",
          "name": "newOwner",
          "type": "address"
        }
      ],
      "name": "OwnershipTransferred",
      "type": "event"
    },
    {
      "anonymous": false,
      "inputs": [
        {
          "indexed": false,
          "internalType": "address",
          "name": "account",
          "type": "address"
        }
      ],
      "name": "Paused",
      "type": "event"
    },
    {
      "anonymous": false,
      "inputs": [
        {
          "indexed": true,
          "internalType": "address",
          "name": "from",
          "type": "address"
        },
        {
          "indexed": true,
          "internalType": "address",
          "name": "to",
          "type": "address"
        },
        {
          "indexed": false,
          "internalType": "uint256",
          "name": "value",
          "type": "uint256"
        }
      ],
      "name": "Transfer",
      "type": "event"
    },
    {
      "anonymous": false,
      "inputs": [
        {
          "indexed": false,
          "internalType": "address",
          "name": "account",
          "type": "address"
        }
      ],
      "name": "Unpaused",
      "type": "event"
    },
    {
      "inputs": [],
      "name": "accessControlManager",
      "outputs": [
        {
          "internalType": "address",
          "name": "",
          "type": "address"
        }
      ],
      "stateMutability": "view",
      "type": "function"
    },
    {
      "inputs": [
        {
          "internalType": "address",
          "name": "owner",
          "type": "address"
        },
        {
          "internalType": "address",
          "name": "spender",
          "type": "address"
        }
      ],
      "name": "allowance",
      "outputs": [
        {
          "internalType": "uint256",
          "name": "",
          "type": "uint256"
        }
      ],
      "stateMutability": "view",
      "type": "function"
    },
    {
      "inputs": [
        {
          "internalType": "address",
          "name": "spender",
          "type": "address"
        },
        {
          "internalType": "uint256",
          "name": "amount",
          "type": "uint256"
        }
      ],
      "name": "approve",
      "outputs": [
        {
          "internalType": "bool",
          "name": "",
          "type": "bool"
        }
      ],
      "stateMutability": "nonpayable",
      "type": "function"
    },
    {
      "inputs": [
        {
          "internalType": "address",
          "name": "account",
          "type": "address"
        }
      ],
      "name": "balanceOf",
      "outputs": [
        {
          "internalType": "uint256",
          "name": "",
          "type": "uint256"
        }
      ],
      "stateMutability": "view",
      "type": "function"
    },
    {
      "inputs": [
        {
          "internalType": "address",
          "name": "account_",
          "type": "address"
        },
        {
          "internalType": "uint256",
          "name": "amount_",
          "type": "uint256"
        }
      ],
      "name": "burn",
      "outputs": [],
      "stateMutability": "nonpayable",
      "type": "function"
    },
    {
      "inputs": [],
      "name": "decimals",
      "outputs": [
        {
          "internalType": "uint8",
          "name": "",
          "type": "uint8"
        }
      ],
      "stateMutability": "view",
      "type": "function"
    },
    {
      "inputs": [
        {
          "internalType": "address",
          "name": "spender",
          "type": "address"
        },
        {
          "internalType": "uint256",
          "name": "subtractedValue",
          "type": "uint256"
        }
      ],
      "name": "decreaseAllowance",
      "outputs": [
        {
          "internalType": "bool",
          "name": "",
          "type": "bool"
        }
      ],
      "stateMutability": "nonpayable",
      "type": "function"
    },
    {
      "inputs": [
        {
          "internalType": "address",
          "name": "spender",
          "type": "address"
        },
        {
          "internalType": "uint256",
          "name": "addedValue",
          "type": "uint256"
        }
      ],
      "name": "increaseAllowance",
      "outputs": [
        {
          "internalType": "bool",
          "name": "",
          "type": "bool"
        }
      ],
      "stateMutability": "nonpayable",
      "type": "function"
    },
    {
      "inputs": [
        {
          "internalType": "address",
          "name": "user_",
          "type": "address"
        }
      ],
      "name": "isBlackListed",
      "outputs": [
        {
          "internalType": "bool",
          "name": "",
          "type": "bool"
        }
      ],
      "stateMutability": "view",
      "type": "function"
    },
    {
      "inputs": [
        {
          "internalType": "address",
          "name": "source_",
          "type": "address"
        },
        {
          "internalType": "address",
          "name": "destination_",
          "type": "address"
        }
      ],
      "name": "migrateMinterTokens",
      "outputs": [],
      "stateMutability": "nonpayable",
      "type": "function"
    },
    {
      "inputs": [
        {
          "internalType": "address",
          "name": "account_",
          "type": "address"
        },
        {
          "internalType": "uint256",
          "name": "amount_",
          "type": "uint256"
        }
      ],
      "name": "mint",
      "outputs": [],
      "stateMutability": "nonpayable",
      "type": "function"
    },
    {
      "inputs": [
        {
          "internalType": "address",
          "name": "",
          "type": "address"
        }
      ],
      "name": "minterToCap",
      "outputs": [
        {
          "internalType": "uint256",
          "name": "",
          "type": "uint256"
        }
      ],
      "stateMutability": "view",
      "type": "function"
    },
    {
      "inputs": [
        {
          "internalType": "address",
          "name": "",
          "type": "address"
        }
      ],
      "name": "minterToMintedAmount",
      "outputs": [
        {
          "internalType": "uint256",
          "name": "",
          "type": "uint256"
        }
      ],
      "stateMutability": "view",
      "type": "function"
    },
    {
      "inputs": [],
      "name": "name",
      "outputs": [
        {
          "internalType": "string",
          "name": "",
          "type": "string"
        }
      ],
      "stateMutability": "view",
      "type": "function"
    },
    {
      "inputs": [],
      "name": "owner",
      "outputs": [
        {
          "internalType": "address",
          "name": "",
          "type": "address"
        }
      ],
      "stateMutability": "view",
      "type": "function"
    },
    {
      "inputs": [],
      "name": "pause",
      "outputs": [],
      "stateMutability": "nonpayable",
      "type": "function"
    },
    {
      "inputs": [],
      "name": "paused",
      "outputs": [
        {
          "internalType": "bool",
          "name": "",
          "type": "bool"
        }
      ],
      "stateMutability": "view",
      "type": "function"
    },
    {
      "inputs": [],
      "name": "renounceOwnership",
      "outputs": [],
      "stateMutability": "nonpayable",
      "type": "function"
    },
    {
      "inputs": [
        {
          "internalType": "address",
          "name": "newAccessControlAddress_",
          "type": "address"
        }
      ],
      "name": "setAccessControlManager",
      "outputs": [],
      "stateMutability": "nonpayable",
      "type": "function"
    },
    {
      "inputs": [
        {
          "internalType": "address",
          "name": "minter_",
          "type": "address"
        },
        {
          "internalType": "uint256",
          "name": "amount_",
          "type": "uint256"
        }
      ],
      "name": "setMintCap",
      "outputs": [],
      "stateMutability": "nonpayable",
      "type": "function"
    },
    {
      "inputs": [],
      "name": "symbol",
      "outputs": [
        {
          "internalType": "string",
          "name": "",
          "type": "string"
        }
      ],
      "stateMutability": "view",
      "type": "function"
    },
    {
      "inputs": [],
      "name": "totalSupply",
      "outputs": [
        {
          "internalType": "uint256",
          "name": "",
          "type": "uint256"
        }
      ],
      "stateMutability": "view",
      "type": "function"
    },
    {
      "inputs": [
        {
          "internalType": "address",
          "name": "to",
          "type": "address"
        },
        {
          "internalType": "uint256",
          "name": "amount",
          "type": "uint256"
        }
      ],
      "name": "transfer",
      "outputs": [
        {
          "internalType": "bool",
          "name": "",
          "type": "bool"
        }
      ],
      "stateMutability": "nonpayable",
      "type": "function"
    },
    {
      "inputs": [
        {
          "internalType": "address",
          "name": "from",
          "type": "address"
        },
        {
          "internalType": "address",
          "name": "to",
          "type": "address"
        },
        {
          "internalType": "uint256",
          "name": "amount",
          "type": "uint256"
        }
      ],
      "name": "transferFrom",
      "outputs": [
        {
          "internalType": "bool",
          "name": "",
          "type": "bool"
        }
      ],
      "stateMutability": "nonpayable",
      "type": "function"
    },
    {
      "inputs": [
        {
          "internalType": "address",
          "name": "newOwner",
          "type": "address"
        }
      ],
      "name": "transferOwnership",
      "outputs": [],
      "stateMutability": "nonpayable",
      "type": "function"
    },
    {
      "inputs": [],
      "name": "unpause",
      "outputs": [],
      "stateMutability": "nonpayable",
      "type": "function"
    },
    {
      "inputs": [
        {
          "internalType": "address",
          "name": "user_",
          "type": "address"
        },
        {
          "internalType": "bool",
          "name": "value_",
          "type": "bool"
        }
      ],
      "name": "updateBlacklist",
      "outputs": [],
      "stateMutability": "nonpayable",
      "type": "function"
    }
  ],
  "transactionHash": "0x8f6f0164031904dac588c17a82a178bf480d95a4054ac385fccffda339d93356",
  "args": [
    "0xa36AD96441cB931D8dFEAAaC97D3FaB4B39E590F"
  ],
  "numDeployments": 1,
  "solcInputHash": "f2046c3ab03975d1be43bca1cf657398",
  "bytecode": "0x60806040523480156200001157600080fd5b50604051620019e4380380620019e483398101604081905262000034916200021b565b604080518082018252600981526856656e75732058565360b81b6020808301918252835180850190945260038085526258565360e81b91850191909152825185949262000082929162000175565b5080516200009890600490602084019062000175565b505050620000b5620000af620000f460201b60201c565b620000f8565b6005805460ff60a01b19169055620000cd816200014a565b600680546001600160a01b0319166001600160a01b03929092169190911790555062000289565b3390565b600580546001600160a01b038381166001600160a01b0319831681179093556040519116919082907f8be0079c531659141344cd1fd0a4f28419497f9722a3daafe3b4186f6b6457e090600090a35050565b6001600160a01b03811662000172576040516342bcdf7f60e11b815260040160405180910390fd5b50565b82805462000183906200024d565b90600052602060002090601f016020900481019282620001a75760008555620001f2565b82601f10620001c257805160ff1916838001178555620001f2565b82800160010185558215620001f2579182015b82811115620001f2578251825591602001919060010190620001d5565b506200020092915062000204565b5090565b5b8082111562000200576000815560010162000205565b6000602082840312156200022e57600080fd5b81516001600160a01b03811681146200024657600080fd5b9392505050565b600181811c908216806200026257607f821691505b6020821081036200028357634e487b7160e01b600052602260045260246000fd5b50919050565b61174b80620002996000396000f3fe608060405234801561001057600080fd5b50600436106101a95760003560e01c80637b517334116100f9578063a9059cbb11610097578063d89e2dac11610071578063d89e2dac14610390578063dd62ed3e146103a3578063e47d6060146103b6578063f2fde38b146103e257600080fd5b8063a9059cbb14610357578063b4a0bdf31461036a578063c06abe771461037d57600080fd5b80639155e083116100d35780639155e0831461031657806395d89b41146103295780639dc29fac14610331578063a457c2d71461034457600080fd5b80637b517334146102c95780638456cb59146102e95780638da5cb5b146102f157600080fd5b8063391efe121161016657806340c10f191161014057806340c10f19146102735780635c975abb1461028657806370a0823114610298578063715018a6146102c157600080fd5b8063391efe121461023857806339509351146102585780633f4ba83a1461026b57600080fd5b806306fdde03146101ae578063095ea7b3146101cc5780630e32cb86146101ef57806318160ddd1461020457806323b872dd14610216578063313ce56714610229575b600080fd5b6101b66103f5565b6040516101c391906114fa565b60405180910390f35b6101df6101da366004611530565b610487565b60405190151581526020016101c3565b6102026101fd36600461155a565b61049f565b005b6002545b6040519081526020016101c3565b6101df610224366004611575565b61050c565b604051601281526020016101c3565b61020861024636600461155a565b60086020526000908152604090205481565b6101df610266366004611530565b610530565b610202610552565b610202610281366004611530565b610586565b600554600160a01b900460ff166101df565b6102086102a636600461155a565b6001600160a01b031660009081526020819052604090205490565b6102026105dd565b6102086102d736600461155a565b60096020526000908152604090205481565b6102026105ef565b6005546001600160a01b03165b6040516001600160a01b0390911681526020016101c3565b6102026103243660046115bf565b61061f565b6101b66106bd565b61020261033f366004611530565b6106cc565b6101df610352366004611530565b61071e565b6101df610365366004611530565b61079e565b6006546102fe906001600160a01b031681565b61020261038b366004611530565b6107ac565b61020261039e3660046115f6565b610870565b6102086103b13660046115f6565b610a18565b6101df6103c436600461155a565b6001600160a01b031660009081526007602052604090205460ff1690565b6102026103f036600461155a565b610a43565b60606003805461040490611629565b80601f016020809104026020016040519081016040528092919081815260200182805461043090611629565b801561047d5780601f106104525761010080835404028352916020019161047d565b820191906000526020600020905b81548152906001019060200180831161046057829003601f168201915b5050505050905090565b600033610495818585610abc565b5060019392505050565b6104a7610be1565b6104b081610c3b565b6006546040516001600160a01b038084169216907f66fd58e82f7b31a2a5c30e0888f3093efe4e111b00cd2b0c31fe014601293aa090600090a3600680546001600160a01b0319166001600160a01b0392909216919091179055565b60003361051a858285610c62565b610525858585610cdc565b506001949350505050565b6000336104958185856105438383610a18565b61054d9190611679565b610abc565b61057c60405180604001604052806009815260200168756e7061757365282960b81b815250610e8b565b610584610f1a565b565b61058e610f6f565b6105c4604051806040016040528060158152602001746d696e7428616464726573732c75696e743235362960581b815250610e8b565b6105cf338383610fbc565b6105d98282611072565b5050565b6105e5610be1565b610584600061113d565b610617604051806040016040528060078152602001667061757365282960c81b815250610e8b565b61058461118f565b61065d6040518060400160405280601d81526020017f757064617465426c61636b6c69737428616464726573732c626f6f6c29000000815250610e8b565b6001600160a01b038216600081815260076020908152604091829020805460ff191685151590811790915591519182527f6a12b3df6cba4203bd7fd06b816789f87de8c594299aed5717ae070fac781bac91015b60405180910390a25050565b60606004805461040490611629565b6106d4610f6f565b61070a604051806040016040528060158152602001746275726e28616464726573732c75696e743235362960581b815250610e8b565b61071482826111d2565b6105d9338261130d565b6000338161072c8286610a18565b9050838110156107915760405162461bcd60e51b815260206004820152602560248201527f45524332303a2064656372656173656420616c6c6f77616e63652062656c6f77604482015264207a65726f60d81b60648201526084015b60405180910390fd5b6105258286868403610abc565b600033610495818585610cdc565b6107ea6040518060400160405280601b81526020017f7365744d696e7443617028616464726573732c75696e74323536290000000000815250610e8b565b6001600160a01b0382166000908152600960205260409020548110156108235760405163ce89973d60e01b815260040160405180910390fd5b6001600160a01b03821660008181526008602052604090819020839055517f01a85f4ecff52e70907e25b863010bca98a9458d9f2fe9b3efb4c47d197e6448906106b19084815260200190565b6108916040518060600160405280602481526020016116f260249139610e8b565b806001600160a01b0316826001600160a01b0316036108c3576040516380ae98f560e01b815260040160405180910390fd5b6001600160a01b038083166000818152600860209081526040808320549486168084528184205494845260099092528083205491835282205490916109088383611679565b90508381111561092b57604051634f2dbd1d60e01b815260040160405180910390fd5b6001600160a01b038781166000908152600960209081526040808320839055928916808352918390208490559151838703808252927fbe214d1fa2403a39be9a36c9f4b45125eba30bf27a8b56a619baf00493ad3e61910160405180910390a2876001600160a01b03167f0831a8ba59684daef8a957d2bd2d943e233993771429e9a17b71ddb1cea35cdb876040516109c691815260200190565b60405180910390a2866001600160a01b0316886001600160a01b03167f63ce671e4a37975f0a9e340f6f72320c617a5f728b83e3860b03aa847dc26ebb60405160405180910390a35050505050505050565b6001600160a01b03918216600090815260016020908152604080832093909416825291909152205490565b610a4b610be1565b6001600160a01b038116610ab05760405162461bcd60e51b815260206004820152602660248201527f4f776e61626c653a206e6577206f776e657220697320746865207a65726f206160448201526564647265737360d01b6064820152608401610788565b610ab98161113d565b50565b6001600160a01b038316610b1e5760405162461bcd60e51b8152602060048201526024808201527f45524332303a20617070726f76652066726f6d20746865207a65726f206164646044820152637265737360e01b6064820152608401610788565b6001600160a01b038216610b7f5760405162461bcd60e51b815260206004820152602260248201527f45524332303a20617070726f766520746f20746865207a65726f206164647265604482015261737360f01b6064820152608401610788565b6001600160a01b0383811660008181526001602090815260408083209487168084529482529182902085905590518481527f8c5be1e5ebec7d5bd14f71427d1e84f3dd0314c0f7b2291e5b200ac8c7c3b92591015b60405180910390a3505050565b6005546001600160a01b031633146105845760405162461bcd60e51b815260206004820181905260248201527f4f776e61626c653a2063616c6c6572206973206e6f7420746865206f776e65726044820152606401610788565b6001600160a01b038116610ab9576040516342bcdf7f60e11b815260040160405180910390fd5b6000610c6e8484610a18565b90506000198114610cd65781811015610cc95760405162461bcd60e51b815260206004820152601d60248201527f45524332303a20696e73756666696369656e7420616c6c6f77616e63650000006044820152606401610788565b610cd68484848403610abc565b50505050565b6001600160a01b038316610d405760405162461bcd60e51b815260206004820152602560248201527f45524332303a207472616e736665722066726f6d20746865207a65726f206164604482015264647265737360d81b6064820152608401610788565b6001600160a01b038216610da25760405162461bcd60e51b815260206004820152602360248201527f45524332303a207472616e7366657220746f20746865207a65726f206164647260448201526265737360e81b6064820152608401610788565b610dad8383836113cb565b6001600160a01b03831660009081526020819052604090205481811015610e255760405162461bcd60e51b815260206004820152602660248201527f45524332303a207472616e7366657220616d6f756e7420657863656564732062604482015265616c616e636560d01b6064820152608401610788565b6001600160a01b03848116600081815260208181526040808320878703905593871680835291849020805487019055925185815290927fddf252ad1be2c89b69c2b068fc378daa952ba7f163c4a11628f55a4df523b3ef910160405180910390a3610cd6565b6006546040516318c5e8ab60e01b81526001600160a01b03909116906318c5e8ab90610ebd9033908590600401611691565b602060405180830381865afa158015610eda573d6000803e3d6000fd5b505050506040513d601f19601f82011682018060405250810190610efe91906116bd565b610ab9576040516282b42960e81b815260040160405180910390fd5b610f2261145d565b6005805460ff60a01b191690557f5db9ee0a495bf2e6ff9c91a7834c1ba4fdd244a5e8aa4e537bd38aeae4b073aa335b6040516001600160a01b03909116815260200160405180910390a1565b600554600160a01b900460ff16156105845760405162461bcd60e51b815260206004820152601060248201526f14185d5cd8589b194e881c185d5cd95960821b6044820152606401610788565b6001600160a01b03831660009081526008602090815260408083205460099092528220549091610fec8483611679565b90508281111561100f57604051634f2dbd1d60e01b815260040160405180910390fd5b6001600160a01b038616600081815260096020526040908190208390555182850391907fbe214d1fa2403a39be9a36c9f4b45125eba30bf27a8b56a619baf00493ad3e61906110619084815260200190565b60405180910390a250505050505050565b6001600160a01b0382166110c85760405162461bcd60e51b815260206004820152601f60248201527f45524332303a206d696e7420746f20746865207a65726f2061646472657373006044820152606401610788565b6110d4600083836113cb565b80600260008282546110e69190611679565b90915550506001600160a01b038216600081815260208181526040808320805486019055518481527fddf252ad1be2c89b69c2b068fc378daa952ba7f163c4a11628f55a4df523b3ef910160405180910390a35050565b600580546001600160a01b038381166001600160a01b0319831681179093556040519116919082907f8be0079c531659141344cd1fd0a4f28419497f9722a3daafe3b4186f6b6457e090600090a35050565b611197610f6f565b6005805460ff60a01b1916600160a01b1790557f62e78cea01bee320cd4e420270b5ea74000d11b0c9f74754ebdbfc544b05a258610f523390565b6001600160a01b0382166112325760405162461bcd60e51b815260206004820152602160248201527f45524332303a206275726e2066726f6d20746865207a65726f206164647265736044820152607360f81b6064820152608401610788565b61123e826000836113cb565b6001600160a01b038216600090815260208190526040902054818110156112b25760405162461bcd60e51b815260206004820152602260248201527f45524332303a206275726e20616d6f756e7420657863656564732062616c616e604482015261636560f01b6064820152608401610788565b6001600160a01b0383166000818152602081815260408083208686039055600280548790039055518581529192917fddf252ad1be2c89b69c2b068fc378daa952ba7f163c4a11628f55a4df523b3ef9101610bd4565b505050565b6001600160a01b03821660009081526009602052604090205481811015611347576040516348af2f2960e11b815260040160405180910390fd5b6001600160a01b038316600090815260096020908152604080832085850390819055600890925282205490919061137f9083906116da565b9050846001600160a01b03167f0831a8ba59684daef8a957d2bd2d943e233993771429e9a17b71ddb1cea35cdb826040516113bc91815260200190565b60405180910390a25050505050565b6113d3610f6f565b6001600160a01b03821660009081526007602052604090205460ff16156114185760405163571f7b4960e01b81526001600160a01b0383166004820152602401610788565b6001600160a01b03831660009081526007602052604090205460ff16156113085760405163571f7b4960e01b81526001600160a01b0384166004820152602401610788565b600554600160a01b900460ff166105845760405162461bcd60e51b815260206004820152601460248201527314185d5cd8589b194e881b9bdd081c185d5cd95960621b6044820152606401610788565b6000815180845260005b818110156114d3576020818501810151868301820152016114b7565b818111156114e5576000602083870101525b50601f01601f19169290920160200192915050565b60208152600061150d60208301846114ad565b9392505050565b80356001600160a01b038116811461152b57600080fd5b919050565b6000806040838503121561154357600080fd5b61154c83611514565b946020939093013593505050565b60006020828403121561156c57600080fd5b61150d82611514565b60008060006060848603121561158a57600080fd5b61159384611514565b92506115a160208501611514565b9150604084013590509250925092565b8015158114610ab957600080fd5b600080604083850312156115d257600080fd5b6115db83611514565b915060208301356115eb816115b1565b809150509250929050565b6000806040838503121561160957600080fd5b61161283611514565b915061162060208401611514565b90509250929050565b600181811c9082168061163d57607f821691505b60208210810361165d57634e487b7160e01b600052602260045260246000fd5b50919050565b634e487b7160e01b600052601160045260246000fd5b6000821982111561168c5761168c611663565b500190565b6001600160a01b03831681526040602082018190526000906116b5908301846114ad565b949350505050565b6000602082840312156116cf57600080fd5b815161150d816115b1565b6000828210156116ec576116ec611663565b50039056fe6d6967726174654d696e746572546f6b656e7328616464726573732c6164647265737329a26469706673582212202dd502ad7f111f919097342862e006098fd7d7236fbb113e5b8a2648ff94916664736f6c634300080d0033",
  "devdoc": {
    "author": "Venus",
    "kind": "dev",
    "methods": {
      "allowance(address,address)": {
        "details": "See {IERC20-allowance}."
      },
      "approve(address,uint256)": {
        "details": "See {IERC20-approve}. NOTE: If `amount` is the maximum `uint256`, the allowance is not updated on `transferFrom`. This is semantically equivalent to an infinite approval. Requirements: - `spender` cannot be the zero address."
      },
      "balanceOf(address)": {
        "details": "See {IERC20-balanceOf}."
      },
      "burn(address,uint256)": {
        "custom:access": "Controlled by AccessControlManager.",
        "custom:event": "Emits MintLimitIncreased with new available limit.",
        "params": {
          "account_": "Address from which tokens be destroyed.",
          "amount_": "Amount of tokens to be destroyed."
        }
      },
      "decimals()": {
        "details": "Returns the number of decimals used to get its user representation. For example, if `decimals` equals `2`, a balance of `505` tokens should be displayed to a user as `5.05` (`505 / 10 ** 2`). Tokens usually opt for a value of 18, imitating the relationship between Ether and Wei. This is the default value returned by this function, unless it's overridden. NOTE: This information is only used for _display_ purposes: it in no way affects any of the arithmetic of the contract, including {IERC20-balanceOf} and {IERC20-transfer}."
      },
      "decreaseAllowance(address,uint256)": {
        "details": "Atomically decreases the allowance granted to `spender` by the caller. This is an alternative to {approve} that can be used as a mitigation for problems described in {IERC20-approve}. Emits an {Approval} event indicating the updated allowance. Requirements: - `spender` cannot be the zero address. - `spender` must have allowance for the caller of at least `subtractedValue`."
      },
      "increaseAllowance(address,uint256)": {
        "details": "Atomically increases the allowance granted to `spender` by the caller. This is an alternative to {approve} that can be used as a mitigation for problems described in {IERC20-approve}. Emits an {Approval} event indicating the updated allowance. Requirements: - `spender` cannot be the zero address."
      },
      "isBlackListed(address)": {
        "params": {
          "user_": "Address of user to check blacklist status."
        },
        "returns": {
          "_0": "bool status of blacklist."
        }
      },
      "migrateMinterTokens(address,address)": {
        "custom:access": "Controlled by AccessControlManager.",
        "custom:error": "MintLimitExceed is thrown when the minting limit exceeds the cap after migration.AddressesMustDiffer is thrown when the source_ and destination_ addresses are the same.",
        "custom:event": "Emits MintLimitIncreased and MintLimitDecreased events for 'source' and 'destination'.Emits MintedTokensMigrated.",
        "params": {
          "destination_": "Minter address to migrate tokens to.",
          "source_": "Minter address to migrate tokens from."
        }
      },
      "mint(address,uint256)": {
        "custom:access": "Controlled by AccessControlManager.",
        "custom:error": "MintLimitExceed is thrown when minting amount exceeds the maximum cap.",
        "custom:event": "Emits MintLimitDecreased with new available limit.",
        "params": {
          "account_": "Address to which tokens are assigned.",
          "amount_": "Amount of tokens to be assigned."
        }
      },
      "name()": {
        "details": "Returns the name of the token."
      },
      "owner()": {
        "details": "Returns the address of the current owner."
      },
      "pause()": {
        "custom:access": "Controlled by AccessControlManager."
      },
      "paused()": {
        "details": "Returns true if the contract is paused, and false otherwise."
      },
      "renounceOwnership()": {
        "details": "Leaves the contract without owner. It will not be possible to call `onlyOwner` functions. Can only be called by the current owner. NOTE: Renouncing ownership will leave the contract without an owner, thereby disabling any functionality that is only available to the owner."
      },
      "setAccessControlManager(address)": {
        "custom:access": "Only owner.",
        "custom:error": "ZeroAddressNotAllowed is thrown when newAccessControlAddress_ contract address is zero.",
        "custom:event": "Emits NewAccessControlManager.",
        "details": "Admin function to set the access control address.",
        "params": {
          "newAccessControlAddress_": "New address for the access control."
        }
      },
      "setMintCap(address,uint256)": {
        "custom:access": "Controlled by AccessControlManager.",
        "custom:event": "Emits MintCapChanged.",
        "params": {
          "amount_": "Cap for the minter.",
          "minter_": "Minter address."
        }
      },
      "symbol()": {
        "details": "Returns the symbol of the token, usually a shorter version of the name."
      },
      "totalSupply()": {
        "details": "See {IERC20-totalSupply}."
      },
      "transfer(address,uint256)": {
        "details": "See {IERC20-transfer}. Requirements: - `to` cannot be the zero address. - the caller must have a balance of at least `amount`."
      },
      "transferFrom(address,address,uint256)": {
        "details": "See {IERC20-transferFrom}. Emits an {Approval} event indicating the updated allowance. This is not required by the EIP. See the note at the beginning of {ERC20}. NOTE: Does not update the allowance if the current allowance is the maximum `uint256`. Requirements: - `from` and `to` cannot be the zero address. - `from` must have a balance of at least `amount`. - the caller must have allowance for ``from``'s tokens of at least `amount`."
      },
      "transferOwnership(address)": {
        "details": "Transfers ownership of the contract to a new account (`newOwner`). Can only be called by the current owner."
      },
      "unpause()": {
        "custom:access": "Controlled by AccessControlManager."
      },
      "updateBlacklist(address,bool)": {
        "custom:access": "Controlled by AccessControlManager.",
        "custom:event": "Emits BlacklistUpdated event.",
        "params": {
          "user_": "User address to be affected.",
          "value_": "Boolean to toggle value."
        }
      }
    },
    "title": "XVS",
    "version": 1
  },
  "userdoc": {
    "errors": {
      "AccountBlacklisted(address)": [
        {
          "notice": "This error is used to indicate that `mint` `burn` and `transfer` actions are not allowed for the user address."
        }
      ],
      "AddressesMustDiffer()": [
        {
          "notice": "This error is used to indicate that the addresses must be different."
        }
      ],
      "MintLimitExceed()": [
        {
          "notice": "This error is used to indicate that the minting limit has been exceeded. It is typically thrown when a minting operation would surpass the defined cap."
        }
      ],
      "MintedAmountExceed()": [
        {
          "notice": "This error is used to indicate that the minter did not mint the required amount of tokens."
        }
      ],
      "NewCapNotGreaterThanMintedTokens()": [
        {
          "notice": "This error is used to indicate that the new cap is greater than the previously minted tokens for the minter."
        }
      ],
      "Unauthorized()": [
        {
          "notice": "This error is used to indicate that sender is not allowed to perform this action."
        }
      ],
      "ZeroAddressNotAllowed()": [
        {
          "notice": "Thrown if the supplied address is a zero address where it is not allowed"
        }
      ]
    },
    "events": {
      "BlacklistUpdated(address,bool)": {
        "notice": "Emitted when the blacklist status of a user is updated."
      },
      "MintCapChanged(address,uint256)": {
        "notice": "Emitted when the minting cap for a minter is changed."
      },
      "MintLimitDecreased(address,uint256)": {
        "notice": "Emitted when the minting limit for a minter is decreased."
      },
      "MintLimitIncreased(address,uint256)": {
        "notice": "Emitted when the minting limit for a minter is increased."
      },
      "MintedTokensMigrated(address,address)": {
        "notice": "Emitted when all minted tokens are migrated from one minter to another."
      },
      "NewAccessControlManager(address,address)": {
        "notice": "Emitted when the address of the access control manager of the contract is updated."
      }
    },
    "kind": "user",
    "methods": {
      "accessControlManager()": {
        "notice": "Access control manager contract address."
      },
      "burn(address,uint256)": {
        "notice": "Destroys `amount_` tokens from `account_`, reducing the total supply. Checks access and eligibility."
      },
      "isBlackListed(address)": {
        "notice": "Returns the blacklist status of the address."
      },
      "migrateMinterTokens(address,address)": {
        "notice": "Migrates all minted tokens from one minter to another. This function is useful when we want to permanent take down a bridge."
      },
      "mint(address,uint256)": {
        "notice": "Creates `amount_` tokens and assigns them to `account_`, increasing the total supply. Checks access and eligibility."
      },
      "minterToCap(address)": {
        "notice": "A mapping is used to keep track of the maximum amount a minter is permitted to mint."
      },
      "minterToMintedAmount(address)": {
        "notice": "A Mapping used to keep track of the amount i.e already minted by minter."
      },
      "pause()": {
        "notice": "Pauses Token"
      },
      "setAccessControlManager(address)": {
        "notice": "Sets the address of the access control manager of this contract."
      },
      "setMintCap(address,uint256)": {
        "notice": "Sets the minting cap for minter."
      },
      "unpause()": {
        "notice": "Resumes Token"
      },
      "updateBlacklist(address,bool)": {
        "notice": "Function to update blacklist."
      }
    },
    "notice": "XVS contract serves as a customized ERC-20 token with additional minting and burning functionality.  It also incorporates access control features provided by the \"TokenController\" contract to ensure proper governance and restrictions on minting and burning operations.",
    "version": 1
  },
  "storageLayout": {
    "storage": [
      {
        "astId": 5612,
        "contract": "contracts/Bridge/token/XVS.sol:XVS",
        "label": "_balances",
        "offset": 0,
        "slot": "0",
        "type": "t_mapping(t_address,t_uint256)"
      },
      {
        "astId": 5618,
        "contract": "contracts/Bridge/token/XVS.sol:XVS",
        "label": "_allowances",
        "offset": 0,
        "slot": "1",
        "type": "t_mapping(t_address,t_mapping(t_address,t_uint256))"
      },
      {
        "astId": 5620,
        "contract": "contracts/Bridge/token/XVS.sol:XVS",
        "label": "_totalSupply",
        "offset": 0,
        "slot": "2",
        "type": "t_uint256"
      },
      {
        "astId": 5622,
        "contract": "contracts/Bridge/token/XVS.sol:XVS",
        "label": "_name",
        "offset": 0,
        "slot": "3",
        "type": "t_string_storage"
      },
      {
        "astId": 5624,
        "contract": "contracts/Bridge/token/XVS.sol:XVS",
        "label": "_symbol",
        "offset": 0,
        "slot": "4",
        "type": "t_string_storage"
      },
      {
        "astId": 5383,
        "contract": "contracts/Bridge/token/XVS.sol:XVS",
        "label": "_owner",
        "offset": 0,
        "slot": "5",
        "type": "t_address"
      },
      {
        "astId": 5506,
        "contract": "contracts/Bridge/token/XVS.sol:XVS",
        "label": "_paused",
        "offset": 20,
        "slot": "5",
        "type": "t_bool"
      },
      {
        "astId": 11266,
        "contract": "contracts/Bridge/token/XVS.sol:XVS",
        "label": "accessControlManager",
        "offset": 0,
        "slot": "6",
        "type": "t_address"
      },
      {
        "astId": 11271,
        "contract": "contracts/Bridge/token/XVS.sol:XVS",
        "label": "_blacklist",
        "offset": 0,
        "slot": "7",
        "type": "t_mapping(t_address,t_bool)"
      },
      {
        "astId": 11276,
        "contract": "contracts/Bridge/token/XVS.sol:XVS",
        "label": "minterToCap",
        "offset": 0,
        "slot": "8",
        "type": "t_mapping(t_address,t_uint256)"
      },
      {
        "astId": 11281,
        "contract": "contracts/Bridge/token/XVS.sol:XVS",
        "label": "minterToMintedAmount",
        "offset": 0,
        "slot": "9",
        "type": "t_mapping(t_address,t_uint256)"
      }
    ],
    "types": {
      "t_address": {
        "encoding": "inplace",
        "label": "address",
        "numberOfBytes": "20"
      },
      "t_bool": {
        "encoding": "inplace",
        "label": "bool",
        "numberOfBytes": "1"
      },
      "t_mapping(t_address,t_bool)": {
        "encoding": "mapping",
        "key": "t_address",
        "label": "mapping(address => bool)",
        "numberOfBytes": "32",
        "value": "t_bool"
      },
      "t_mapping(t_address,t_mapping(t_address,t_uint256))": {
        "encoding": "mapping",
        "key": "t_address",
        "label": "mapping(address => mapping(address => uint256))",
        "numberOfBytes": "32",
        "value": "t_mapping(t_address,t_uint256)"
      },
      "t_mapping(t_address,t_uint256)": {
        "encoding": "mapping",
        "key": "t_address",
        "label": "mapping(address => uint256)",
        "numberOfBytes": "32",
        "value": "t_uint256"
      },
      "t_string_storage": {
        "encoding": "bytes",
        "label": "string",
        "numberOfBytes": "32"
      },
      "t_uint256": {
        "encoding": "inplace",
        "label": "uint256",
        "numberOfBytes": "32"
      }
    }
  }
}