{
  "address": "0x72647735Fe106277f6765b19B063B0e13C272133",
  "abi": [
    {
      "inputs": [
        {
          "internalType": "address",
          "name": "XVSBridge_",
          "type": "address"
        }
      ],
      "stateMutability": "nonpayable",
      "type": "constructor"
    },
    {
      "inputs": [
        {
          "internalType": "address",
          "name": "sender",
          "type": "address"
        },
        {
          "internalType": "address",
          "name": "calledContract",
          "type": "address"
        },
        {
          "internalType": "string",
          "name": "methodSignature",
          "type": "string"
        }
      ],
      "name": "Unauthorized",
      "type": "error"
    },
    {
      "inputs": [],
      "name": "ZeroAddressNotAllowed",
      "type": "error"
    },
    {
      "anonymous": false,
      "inputs": [
        {
          "indexed": false,
          "internalType": "string",
          "name": "signature",
          "type": "string"
        },
        {
          "indexed": false,
          "internalType": "bool",
          "name": "active",
          "type": "bool"
        }
      ],
      "name": "FunctionRegistryChanged",
      "type": "event"
    },
    {
      "anonymous": false,
      "inputs": [
        {
          "indexed": false,
          "internalType": "uint8",
          "name": "version",
          "type": "uint8"
        }
      ],
      "name": "Initialized",
      "type": "event"
    },
    {
      "anonymous": false,
      "inputs": [
        {
          "indexed": false,
          "internalType": "address",
          "name": "oldAccessControlManager",
          "type": "address"
        },
        {
          "indexed": false,
          "internalType": "address",
          "name": "newAccessControlManager",
          "type": "address"
        }
      ],
      "name": "NewAccessControlManager",
      "type": "event"
    },
    {
      "anonymous": false,
      "inputs": [
        {
          "indexed": true,
          "internalType": "address",
          "name": "previousOwner",
          "type": "address"
        },
        {
          "indexed": true,
          "internalType": "address",
          "name": "newOwner",
          "type": "address"
        }
      ],
      "name": "OwnershipTransferStarted",
      "type": "event"
    },
    {
      "anonymous": false,
      "inputs": [
        {
          "indexed": true,
          "internalType": "address",
          "name": "previousOwner",
          "type": "address"
        },
        {
          "indexed": true,
          "internalType": "address",
          "name": "newOwner",
          "type": "address"
        }
      ],
      "name": "OwnershipTransferred",
      "type": "event"
    },
    {
      "stateMutability": "nonpayable",
      "type": "fallback"
    },
    {
      "inputs": [],
      "name": "XVSBridge",
      "outputs": [
        {
          "internalType": "contract IXVSProxyOFT",
          "name": "",
          "type": "address"
        }
      ],
      "stateMutability": "view",
      "type": "function"
    },
    {
      "inputs": [],
      "name": "acceptOwnership",
      "outputs": [],
      "stateMutability": "nonpayable",
      "type": "function"
    },
    {
      "inputs": [],
      "name": "accessControlManager",
      "outputs": [
        {
          "internalType": "contract IAccessControlManagerV8",
          "name": "",
          "type": "address"
        }
      ],
      "stateMutability": "view",
      "type": "function"
    },
    {
      "inputs": [
        {
          "internalType": "bytes4",
          "name": "",
          "type": "bytes4"
        }
      ],
      "name": "functionRegistry",
      "outputs": [
        {
          "internalType": "string",
          "name": "",
          "type": "string"
        }
      ],
      "stateMutability": "view",
      "type": "function"
    },
    {
      "inputs": [
        {
          "internalType": "address",
          "name": "accessControlManager_",
          "type": "address"
        }
      ],
      "name": "initialize",
      "outputs": [],
      "stateMutability": "nonpayable",
      "type": "function"
    },
    {
      "inputs": [
        {
          "internalType": "uint16",
          "name": "remoteChainId_",
          "type": "uint16"
        },
        {
          "internalType": "bytes",
          "name": "remoteAddress_",
          "type": "bytes"
        }
      ],
      "name": "isTrustedRemote",
      "outputs": [
        {
          "internalType": "bool",
          "name": "",
          "type": "bool"
        }
      ],
      "stateMutability": "nonpayable",
      "type": "function"
    },
    {
      "inputs": [],
      "name": "owner",
      "outputs": [
        {
          "internalType": "address",
          "name": "",
          "type": "address"
        }
      ],
      "stateMutability": "view",
      "type": "function"
    },
    {
      "inputs": [],
      "name": "pendingOwner",
      "outputs": [
        {
          "internalType": "address",
          "name": "",
          "type": "address"
        }
      ],
      "stateMutability": "view",
      "type": "function"
    },
    {
      "inputs": [],
      "name": "renounceOwnership",
      "outputs": [],
      "stateMutability": "nonpayable",
      "type": "function"
    },
    {
      "inputs": [
        {
          "internalType": "address",
          "name": "accessControlManager_",
          "type": "address"
        }
      ],
      "name": "setAccessControlManager",
      "outputs": [],
      "stateMutability": "nonpayable",
      "type": "function"
    },
    {
      "inputs": [
        {
          "internalType": "uint16",
          "name": "remoteChainId_",
          "type": "uint16"
        },
        {
          "internalType": "bytes",
          "name": "remoteAddress_",
          "type": "bytes"
        }
      ],
      "name": "setTrustedRemoteAddress",
      "outputs": [],
      "stateMutability": "nonpayable",
      "type": "function"
    },
    {
      "inputs": [
        {
          "internalType": "address",
          "name": "newOwner_",
          "type": "address"
        }
      ],
      "name": "transferBridgeOwnership",
      "outputs": [],
      "stateMutability": "nonpayable",
      "type": "function"
    },
    {
      "inputs": [
        {
          "internalType": "address",
          "name": "newOwner",
          "type": "address"
        }
      ],
      "name": "transferOwnership",
      "outputs": [],
      "stateMutability": "nonpayable",
      "type": "function"
    },
    {
      "inputs": [
        {
          "internalType": "string[]",
          "name": "signatures_",
          "type": "string[]"
        },
        {
          "internalType": "bool[]",
          "name": "active_",
          "type": "bool[]"
        }
      ],
      "name": "upsertSignature",
      "outputs": [],
      "stateMutability": "nonpayable",
      "type": "function"
    }
  ],
  "transactionHash": "0x2c9b2bc5e94cd17fb655f9120c9f05731267ac3e8fc7ada51da509a3163af7bc",
  "args": [
    "0x4112841798c1bD6a237B1A078810ac3C876FdD25"
  ],
  "numDeployments": 1,
  "solcInputHash": "26217047c141188ac086240fba7f2835",
  "bytecode": "0x60a060405234801561001057600080fd5b5060405161173838038061173883398101604081905261002f9161013c565b61003881610053565b6001600160a01b03811660805261004d61007d565b5061016c565b6001600160a01b03811661007a576040516342bcdf7f60e11b815260040160405180910390fd5b50565b600054610100900460ff16156100e95760405162461bcd60e51b815260206004820152602760248201527f496e697469616c697a61626c653a20636f6e747261637420697320696e697469604482015266616c697a696e6760c81b606482015260840160405180910390fd5b60005460ff9081161461013a576000805460ff191660ff9081179091556040519081527f7f26b83ff96e1f2b6a682f133852f6798a09c465da95921460cefb38474024989060200160405180910390a15b565b60006020828403121561014e57600080fd5b81516001600160a01b038116811461016557600080fd5b9392505050565b6080516115956101a3600039600081816101610152818161026c015281816105d6015281816106b70152610b2b01526115956000f3fe608060405234801561001057600080fd5b50600436106100ea5760003560e01c806379ba50971161008c578063b4a0bdf311610066578063b4a0bdf31461031b578063c4d66de81461032c578063e30c39781461033f578063f2fde38b14610350576100ea565b806379ba5097146102ef5780638da5cb5b146102f7578063a6c3d16514610308576100ea565b80633d8b38f6116100c85780633d8b38f6146102a65780633f90b540146102c95780634bb7453e146102dc578063715018a61461023c576100ea565b80630e32cb8614610229578063180d295c1461023e57806327a020ef14610267575b600036606060006101066000356001600160e01b031916610363565b905080516000036101535760405162461bcd60e51b8152602060048201526012602482015271119d5b98dd1a5bdb881b9bdd08199bdd5b9960721b60448201526064015b60405180910390fd5b61015c81610410565b6000807f00000000000000000000000000000000000000000000000000000000000000006001600160a01b03168686604051610199929190610feb565b6000604051808303816000865af19150503d80600081146101d6576040519150601f19603f3d011682016040523d82523d6000602084013e6101db565b606091505b50915091508161021b5760405162461bcd60e51b815260206004820152600b60248201526a18d85b1b0819985a5b195960aa1b604482015260640161014a565b805195506020019350505050f35b61023c610237366004610ffb565b6104ae565b005b61025161024c36600461102b565b6104c2565b60405161025e919061109b565b60405180910390f35b61028e7f000000000000000000000000000000000000000000000000000000000000000081565b6040516001600160a01b03909116815260200161025e565b6102b96102b43660046110ae565b61055c565b604051901515815260200161025e565b61023c6102d7366004610ffb565b61065a565b61023c6102ea366004611186565b610716565b61023c610a20565b6033546001600160a01b031661028e565b61023c6103163660046110ae565b610a97565b6097546001600160a01b031661028e565b61023c61033a366004610ffb565b610b9b565b6065546001600160a01b031661028e565b61023c61035e366004610ffb565b610cae565b6001600160e01b03198116600090815260c96020526040902080546060919061038b906111f2565b80601f01602080910402602001604051908101604052809291908181526020018280546103b7906111f2565b80156104045780601f106103d957610100808354040283529160200191610404565b820191906000526020600020905b8154815290600101906020018083116103e757829003601f168201915b50505050509050919050565b6097546040516318c5e8ab60e01b81526000916001600160a01b0316906318c5e8ab90610443903390869060040161122c565b602060405180830381865afa158015610460573d6000803e3d6000fd5b505050506040513d601f19601f82011682018060405250810190610484919061125e565b9050806104aa57333083604051634a3fa29360e01b815260040161014a9392919061127b565b5050565b6104b6610d1f565b6104bf81610d79565b50565b60c960205260009081526040902080546104db906111f2565b80601f0160208091040260200160405190810160405280929190818152602001828054610507906111f2565b80156105545780601f1061052957610100808354040283529160200191610554565b820191906000526020600020905b81548152906001019060200180831161053757829003601f168201915b505050505081565b60008361ffff166000036105ad5760405162461bcd60e51b8152602060048201526018602482015277436861696e4964206d757374206e6f74206265207a65726f60401b604482015260640161014a565b6105bf6105ba8484610e37565b610e4d565b604051631ec59c7b60e11b81526001600160a01b037f00000000000000000000000000000000000000000000000000000000000000001690633d8b38f69061060f908790879087906004016112d9565b6020604051808303816000875af115801561062e573d6000803e3d6000fd5b505050506040513d601f19601f82011682018060405250810190610652919061125e565b949350505050565b6106986040518060400160405280602081526020017f7472616e736665724272696467654f776e657273686970286164647265737329815250610410565b60405163f2fde38b60e01b81526001600160a01b0382811660048301527f0000000000000000000000000000000000000000000000000000000000000000169063f2fde38b90602401600060405180830381600087803b1580156106fb57600080fd5b505af115801561070f573d6000803e3d6000fd5b5050505050565b61071e610d1f565b8281811461077d5760405162461bcd60e51b815260206004820152602660248201527f496e70757420617272617973206d7573742068617665207468652073616d65206044820152650d8cadccee8d60d31b606482015260840161014a565b60005b81811015610a1657600086868381811061079c5761079c6112f7565b90506020028101906107ae919061130d565b6040516107bc929190610feb565b60408051918290039091206001600160e01b03198116600090815260c96020529182208054919350906107ee906111f2565b80601f016020809104026020016040519081016040528092919081815260200182805461081a906111f2565b80156108675780601f1061083c57610100808354040283529160200191610867565b820191906000526020600020905b81548152906001019060200180831161084a57829003601f168201915b50505050509050858584818110610880576108806112f7565b90506020020160208101906108959190611354565b80156108a057508051155b15610952578787848181106108b7576108b76112f7565b90506020028101906108c9919061130d565b6001600160e01b03198416600090815260c960205260409020916108ee9190836113d4565b507f9d424e54f4d851aabd288f6cc4946e5726d6b5c0e66ea4ef159a3c40bcc470fa888885818110610922576109226112f7565b9050602002810190610934919061130d565b600160405161094593929190611494565b60405180910390a1610a0c565b858584818110610964576109646112f7565b90506020020160208101906109799190611354565b1580156109865750805115155b15610a0c576001600160e01b03198216600090815260c9602052604081206109ad91610f9d565b7f9d424e54f4d851aabd288f6cc4946e5726d6b5c0e66ea4ef159a3c40bcc470fa8888858181106109e0576109e06112f7565b90506020028101906109f2919061130d565b6000604051610a0393929190611494565b60405180910390a15b5050600101610780565b505050505050565b565b60655433906001600160a01b03168114610a8e5760405162461bcd60e51b815260206004820152602960248201527f4f776e61626c6532537465703a2063616c6c6572206973206e6f7420746865206044820152683732bb9037bbb732b960b91b606482015260840161014a565b6104bf81610e74565b610ab860405180606001604052806025815260200161153b60259139610410565b8261ffff16600003610b075760405162461bcd60e51b8152602060048201526018602482015277436861696e4964206d757374206e6f74206265207a65726f60401b604482015260640161014a565b610b146105ba8383610e37565b60405163a6c3d16560e01b81526001600160a01b037f0000000000000000000000000000000000000000000000000000000000000000169063a6c3d16590610b64908690869086906004016112d9565b600060405180830381600087803b158015610b7e57600080fd5b505af1158015610b92573d6000803e3d6000fd5b50505050505050565b600054610100900460ff1615808015610bbb5750600054600160ff909116105b80610bd55750303b158015610bd5575060005460ff166001145b610c385760405162461bcd60e51b815260206004820152602e60248201527f496e697469616c697a61626c653a20636f6e747261637420697320616c72656160448201526d191e481a5b9a5d1a585b1a5e995960921b606482015260840161014a565b6000805460ff191660011790558015610c5b576000805461ff0019166101001790555b610c6482610e8d565b80156104aa576000805461ff0019169055604051600181527f7f26b83ff96e1f2b6a682f133852f6798a09c465da95921460cefb3847402498906020015b60405180910390a15050565b610cb6610d1f565b606580546001600160a01b0383166001600160a01b03199091168117909155610ce76033546001600160a01b031690565b6001600160a01b03167f38d16b8cac22d99fc7c124b9cd0de2d3fa1faef420bfe791d8c362d765e2270060405160405180910390a350565b6033546001600160a01b03163314610a1e5760405162461bcd60e51b815260206004820181905260248201527f4f776e61626c653a2063616c6c6572206973206e6f7420746865206f776e6572604482015260640161014a565b6001600160a01b038116610ddd5760405162461bcd60e51b815260206004820152602560248201527f696e76616c696420616365737320636f6e74726f6c206d616e61676572206164604482015264647265737360d81b606482015260840161014a565b609780546001600160a01b038381166001600160a01b031983168117909355604080519190921680825260208201939093527f66fd58e82f7b31a2a5c30e0888f3093efe4e111b00cd2b0c31fe014601293aa09101610ca2565b6000610e4382846114ba565b60601c9392505050565b6001600160a01b0381166104bf576040516342bcdf7f60e11b815260040160405180910390fd5b606580546001600160a01b03191690556104bf81610ec5565b600054610100900460ff16610eb45760405162461bcd60e51b815260040161014a906114ef565b610ebc610f17565b6104bf81610f46565b603380546001600160a01b038381166001600160a01b0319831681179093556040519116919082907f8be0079c531659141344cd1fd0a4f28419497f9722a3daafe3b4186f6b6457e090600090a35050565b600054610100900460ff16610f3e5760405162461bcd60e51b815260040161014a906114ef565b610a1e610f6d565b600054610100900460ff166104b65760405162461bcd60e51b815260040161014a906114ef565b600054610100900460ff16610f945760405162461bcd60e51b815260040161014a906114ef565b610a1e33610e74565b508054610fa9906111f2565b6000825580601f10610fb9575050565b601f0160209004906000526020600020908101906104bf91905b80821115610fe75760008155600101610fd3565b5090565b8183823760009101908152919050565b60006020828403121561100d57600080fd5b81356001600160a01b038116811461102457600080fd5b9392505050565b60006020828403121561103d57600080fd5b81356001600160e01b03198116811461102457600080fd5b6000815180845260005b8181101561107b5760208185018101518683018201520161105f565b506000602082860101526020601f19601f83011685010191505092915050565b6020815260006110246020830184611055565b6000806000604084860312156110c357600080fd5b833561ffff811681146110d557600080fd5b9250602084013567ffffffffffffffff808211156110f257600080fd5b818601915086601f83011261110657600080fd5b81358181111561111557600080fd5b87602082850101111561112757600080fd5b6020830194508093505050509250925092565b60008083601f84011261114c57600080fd5b50813567ffffffffffffffff81111561116457600080fd5b6020830191508360208260051b850101111561117f57600080fd5b9250929050565b6000806000806040858703121561119c57600080fd5b843567ffffffffffffffff808211156111b457600080fd5b6111c08883890161113a565b909650945060208701359150808211156111d957600080fd5b506111e68782880161113a565b95989497509550505050565b600181811c9082168061120657607f821691505b60208210810361122657634e487b7160e01b600052602260045260246000fd5b50919050565b6001600160a01b038316815260406020820181905260009061065290830184611055565b80151581146104bf57600080fd5b60006020828403121561127057600080fd5b815161102481611250565b6001600160a01b038481168252831660208201526060604082018190526000906112a790830184611055565b95945050505050565b81835281816020850137506000828201602090810191909152601f909101601f19169091010190565b61ffff841681526040602082015260006112a76040830184866112b0565b634e487b7160e01b600052603260045260246000fd5b6000808335601e1984360301811261132457600080fd5b83018035915067ffffffffffffffff82111561133f57600080fd5b60200191503681900382131561117f57600080fd5b60006020828403121561136657600080fd5b813561102481611250565b634e487b7160e01b600052604160045260246000fd5b601f8211156113cf576000816000526020600020601f850160051c810160208610156113b05750805b601f850160051c820191505b81811015610a16578281556001016113bc565b505050565b67ffffffffffffffff8311156113ec576113ec611371565b611400836113fa83546111f2565b83611387565b6000601f841160018114611434576000851561141c5750838201355b600019600387901b1c1916600186901b17835561070f565b600083815260209020601f19861690835b828110156114655786850135825560209485019460019092019101611445565b50868210156114825760001960f88860031b161c19848701351681555b505060018560011b0183555050505050565b6040815260006114a86040830185876112b0565b90508215156020830152949350505050565b6bffffffffffffffffffffffff1981358181169160148510156114e75780818660140360031b1b83161692505b505092915050565b6020808252602b908201527f496e697469616c697a61626c653a20636f6e7472616374206973206e6f74206960408201526a6e697469616c697a696e6760a81b60608201526080019056fe7365745472757374656452656d6f7465416464726573732875696e7431362c627974657329a264697066735822122071305fbafcd92775815df4985c46a13c15aabb4d1b88605c4f0e967df9f657df64736f6c63430008190033",
  "devdoc": {
    "author": "Venus",
    "events": {
      "Initialized(uint8)": {
        "details": "Triggered when the contract has been initialized or reinitialized."
      }
    },
    "kind": "dev",
    "methods": {
      "acceptOwnership()": {
        "details": "The new owner accepts the ownership transfer."
      },
      "constructor": {
        "custom:oz-upgrades-unsafe-allow": "constructor"
      },
      "initialize(address)": {
        "params": {
          "accessControlManager_": "Address of access control manager contract."
        }
      },
      "isTrustedRemote(uint16,bytes)": {
        "custom:error": "ZeroAddressNotAllowed is thrown when remoteAddress_ contract address is zero.",
        "params": {
          "remoteAddress_": "Address of the destination bridge.",
          "remoteChainId_": "Chain Id of the destination chain."
        },
        "returns": {
          "_0": "Bool indicating whether the remote chain is trusted or not."
        }
      },
      "owner()": {
        "details": "Returns the address of the current owner."
      },
      "pendingOwner()": {
        "details": "Returns the address of the pending owner."
      },
      "setAccessControlManager(address)": {
        "custom:access": "Only Governance",
        "custom:event": "Emits NewAccessControlManager event",
        "details": "Admin function to set address of AccessControlManager",
        "params": {
          "accessControlManager_": "The new address of the AccessControlManager"
        }
      },
      "setTrustedRemoteAddress(uint16,bytes)": {
        "custom:access": "Controlled by AccessControlManager.",
        "custom:error": "ZeroAddressNotAllowed is thrown when remoteAddress_ contract address is zero.",
        "params": {
          "remoteAddress_": "Address of the destination bridge.",
          "remoteChainId_": "Chain Id of the destination chain."
        }
      },
      "transferBridgeOwnership(address)": {
        "custom:access": "Controlled by AccessControlManager.",
        "params": {
          "newOwner_": "New owner of the XVS Bridge."
        }
      },
      "transferOwnership(address)": {
        "details": "Starts the ownership transfer of the contract to a new account. Replaces the pending transfer if there is one. Can only be called by the current owner."
      },
      "upsertSignature(string[],bool[])": {
        "custom:access": "Only owner.",
        "custom:event": "Emits FunctionRegistryChanged if bool value of function changes.",
        "params": {
          "active_": "bool value, should be true to add function.",
          "signatures_": "Function signature to be added or removed."
        }
      }
    },
    "stateVariables": {
      "XVSBridge": {
        "custom:oz-upgrades-unsafe-allow": "state-variable-immutable"
      }
    },
    "title": "XVSBridgeAdmin",
    "version": 1
  },
  "userdoc": {
    "errors": {
      "Unauthorized(address,address,string)": [
        {
          "notice": "Thrown when the action is prohibited by AccessControlManager"
        }
      ],
      "ZeroAddressNotAllowed()": [
        {
          "notice": "Thrown if the supplied address is a zero address where it is not allowed"
        }
      ]
    },
    "events": {
      "FunctionRegistryChanged(string,bool)": {
        "notice": "emitted when function registry updated"
      },
      "NewAccessControlManager(address,address)": {
        "notice": "Emitted when access control manager contract address is changed"
      }
    },
    "kind": "user",
    "methods": {
      "accessControlManager()": {
        "notice": "Returns the address of the access control manager contract"
      },
      "functionRegistry(bytes4)": {
        "notice": "A mapping keeps track of function signature associated with function name string."
      },
      "isTrustedRemote(uint16,bytes)": {
        "notice": "Returns true if remote address is trustedRemote corresponds to chainId_."
      },
      "renounceOwnership()": {
        "notice": "Empty implementation of renounce ownership to avoid any mishappening."
      },
      "setAccessControlManager(address)": {
        "notice": "Sets the address of AccessControlManager"
      },
      "setTrustedRemoteAddress(uint16,bytes)": {
        "notice": "Sets trusted remote on particular chain."
      },
      "transferBridgeOwnership(address)": {
        "notice": "This function transfers the ownership of the bridge from this contract to new owner."
      },
      "upsertSignature(string[],bool[])": {
        "notice": "A setter for the registry of functions that are allowed to be executed from proposals."
      }
    },
    "notice": "The XVSBridgeAdmin contract extends a parent contract AccessControlledV8 for access control, and it manages an external contract called XVSProxyOFT. It maintains a registry of function signatures and names, allowing for dynamic function handling i.e checking of access control of interaction with only owner functions.",
    "version": 1
  },
  "storageLayout": {
    "storage": [
      {
        "astId": 4452,
        "contract": "contracts/Bridge/XVSBridgeAdmin.sol:XVSBridgeAdmin",
        "label": "_initialized",
        "offset": 0,
        "slot": "0",
        "type": "t_uint8"
      },
      {
        "astId": 4455,
        "contract": "contracts/Bridge/XVSBridgeAdmin.sol:XVSBridgeAdmin",
        "label": "_initializing",
        "offset": 1,
        "slot": "0",
        "type": "t_bool"
      },
      {
        "astId": 4985,
        "contract": "contracts/Bridge/XVSBridgeAdmin.sol:XVSBridgeAdmin",
        "label": "__gap",
        "offset": 0,
        "slot": "1",
        "type": "t_array(t_uint256)50_storage"
      },
      {
        "astId": 4324,
        "contract": "contracts/Bridge/XVSBridgeAdmin.sol:XVSBridgeAdmin",
        "label": "_owner",
        "offset": 0,
        "slot": "51",
        "type": "t_address"
      },
      {
        "astId": 4444,
        "contract": "contracts/Bridge/XVSBridgeAdmin.sol:XVSBridgeAdmin",
        "label": "__gap",
        "offset": 0,
        "slot": "52",
        "type": "t_array(t_uint256)49_storage"
      },
      {
        "astId": 4233,
        "contract": "contracts/Bridge/XVSBridgeAdmin.sol:XVSBridgeAdmin",
        "label": "_pendingOwner",
        "offset": 0,
        "slot": "101",
        "type": "t_address"
      },
      {
        "astId": 4312,
        "contract": "contracts/Bridge/XVSBridgeAdmin.sol:XVSBridgeAdmin",
        "label": "__gap",
        "offset": 0,
        "slot": "102",
        "type": "t_array(t_uint256)49_storage"
      },
      {
        "astId": 8479,
        "contract": "contracts/Bridge/XVSBridgeAdmin.sol:XVSBridgeAdmin",
        "label": "_accessControlManager",
        "offset": 0,
        "slot": "151",
        "type": "t_contract(IAccessControlManagerV8)8664"
      },
      {
        "astId": 8484,
        "contract": "contracts/Bridge/XVSBridgeAdmin.sol:XVSBridgeAdmin",
        "label": "__gap",
        "offset": 0,
        "slot": "152",
        "type": "t_array(t_uint256)49_storage"
      },
      {
        "astId": 10442,
        "contract": "contracts/Bridge/XVSBridgeAdmin.sol:XVSBridgeAdmin",
        "label": "functionRegistry",
        "offset": 0,
        "slot": "201",
        "type": "t_mapping(t_bytes4,t_string_storage)"
      }
    ],
    "types": {
      "t_address": {
        "encoding": "inplace",
        "label": "address",
        "numberOfBytes": "20"
      },
      "t_array(t_uint256)49_storage": {
        "base": "t_uint256",
        "encoding": "inplace",
        "label": "uint256[49]",
        "numberOfBytes": "1568"
      },
      "t_array(t_uint256)50_storage": {
        "base": "t_uint256",
        "encoding": "inplace",
        "label": "uint256[50]",
        "numberOfBytes": "1600"
      },
      "t_bool": {
        "encoding": "inplace",
        "label": "bool",
        "numberOfBytes": "1"
      },
      "t_bytes4": {
        "encoding": "inplace",
        "label": "bytes4",
        "numberOfBytes": "4"
      },
      "t_contract(IAccessControlManagerV8)8664": {
        "encoding": "inplace",
        "label": "contract IAccessControlManagerV8",
        "numberOfBytes": "20"
      },
      "t_mapping(t_bytes4,t_string_storage)": {
        "encoding": "mapping",
        "key": "t_bytes4",
        "label": "mapping(bytes4 => string)",
        "numberOfBytes": "32",
        "value": "t_string_storage"
      },
      "t_string_storage": {
        "encoding": "bytes",
        "label": "string",
        "numberOfBytes": "32"
      },
      "t_uint256": {
        "encoding": "inplace",
        "label": "uint256",
        "numberOfBytes": "32"
      },
      "t_uint8": {
        "encoding": "inplace",
        "label": "uint8",
        "numberOfBytes": "1"
      }
    }
  }
}