{
  "address": "0xf8F46791E3dB29a029Ec6c9d946226f3c613e854",
  "abi": [
    {
      "inputs": [
        {
          "internalType": "address",
          "name": "tokenAddress_",
          "type": "address"
        },
        {
          "internalType": "uint8",
          "name": "sharedDecimals_",
          "type": "uint8"
        },
        {
          "internalType": "address",
          "name": "lzEndpoint_",
          "type": "address"
        },
        {
          "internalType": "address",
          "name": "oracle_",
          "type": "address"
        }
      ],
      "stateMutability": "nonpayable",
      "type": "constructor"
    },
    {
      "inputs": [
        {
          "internalType": "uint256",
          "name": "sweepAmount",
          "type": "uint256"
        },
        {
          "internalType": "uint256",
          "name": "balance",
          "type": "uint256"
        }
      ],
      "name": "InsufficientBalance",
      "type": "error"
    },
    {
      "inputs": [],
      "name": "ZeroAddressNotAllowed",
      "type": "error"
    },
    {
      "anonymous": false,
      "inputs": [
        {
          "indexed": true,
          "internalType": "uint16",
          "name": "_srcChainId",
          "type": "uint16"
        },
        {
          "indexed": false,
          "internalType": "bytes",
          "name": "_srcAddress",
          "type": "bytes"
        },
        {
          "indexed": false,
          "internalType": "uint64",
          "name": "_nonce",
          "type": "uint64"
        },
        {
          "indexed": false,
          "internalType": "bytes32",
          "name": "_hash",
          "type": "bytes32"
        }
      ],
      "name": "CallOFTReceivedSuccess",
      "type": "event"
    },
    {
      "anonymous": false,
      "inputs": [
        {
          "indexed": false,
          "internalType": "uint16",
          "name": "srcChainId",
          "type": "uint16"
        },
        {
          "indexed": true,
          "internalType": "bytes",
          "name": "srcAddress",
          "type": "bytes"
        },
        {
          "indexed": false,
          "internalType": "uint64",
          "name": "nonce",
          "type": "uint64"
        }
      ],
      "name": "DropFailedMessage",
      "type": "event"
    },
    {
      "anonymous": false,
      "inputs": [
        {
          "indexed": true,
          "internalType": "address",
          "name": "from",
          "type": "address"
        },
        {
          "indexed": false,
          "internalType": "uint256",
          "name": "amount_",
          "type": "uint256"
        }
      ],
      "name": "FallbackDeposit",
      "type": "event"
    },
    {
      "anonymous": false,
      "inputs": [
        {
          "indexed": true,
          "internalType": "address",
          "name": "to",
          "type": "address"
        },
        {
          "indexed": false,
          "internalType": "uint256",
          "name": "amount",
          "type": "uint256"
        }
      ],
      "name": "FallbackWithdraw",
      "type": "event"
    },
    {
      "anonymous": false,
      "inputs": [
        {
          "indexed": true,
          "internalType": "address",
          "name": "innerToken",
          "type": "address"
        }
      ],
      "name": "InnerTokenAdded",
      "type": "event"
    },
    {
      "anonymous": false,
      "inputs": [
        {
          "indexed": false,
          "internalType": "uint16",
          "name": "_srcChainId",
          "type": "uint16"
        },
        {
          "indexed": false,
          "internalType": "bytes",
          "name": "_srcAddress",
          "type": "bytes"
        },
        {
          "indexed": false,
          "internalType": "uint64",
          "name": "_nonce",
          "type": "uint64"
        },
        {
          "indexed": false,
          "internalType": "bytes",
          "name": "_payload",
          "type": "bytes"
        },
        {
          "indexed": false,
          "internalType": "bytes",
          "name": "_reason",
          "type": "bytes"
        }
      ],
      "name": "MessageFailed",
      "type": "event"
    },
    {
      "anonymous": false,
      "inputs": [
        {
          "indexed": false,
          "internalType": "address",
          "name": "_address",
          "type": "address"
        }
      ],
      "name": "NonContractAddress",
      "type": "event"
    },
    {
      "anonymous": false,
      "inputs": [
        {
          "indexed": true,
          "internalType": "address",
          "name": "oldOracle",
          "type": "address"
        },
        {
          "indexed": true,
          "internalType": "address",
          "name": "newOracle",
          "type": "address"
        }
      ],
      "name": "OracleChanged",
      "type": "event"
    },
    {
      "anonymous": false,
      "inputs": [
        {
          "indexed": true,
          "internalType": "address",
          "name": "previousOwner",
          "type": "address"
        },
        {
          "indexed": true,
          "internalType": "address",
          "name": "newOwner",
          "type": "address"
        }
      ],
      "name": "OwnershipTransferred",
      "type": "event"
    },
    {
      "anonymous": false,
      "inputs": [
        {
          "indexed": false,
          "internalType": "address",
          "name": "account",
          "type": "address"
        }
      ],
      "name": "Paused",
      "type": "event"
    },
    {
      "anonymous": false,
      "inputs": [
        {
          "indexed": true,
          "internalType": "uint16",
          "name": "_srcChainId",
          "type": "uint16"
        },
        {
          "indexed": true,
          "internalType": "address",
          "name": "_to",
          "type": "address"
        },
        {
          "indexed": false,
          "internalType": "uint256",
          "name": "_amount",
          "type": "uint256"
        }
      ],
      "name": "ReceiveFromChain",
      "type": "event"
    },
    {
      "anonymous": false,
      "inputs": [
        {
          "indexed": false,
          "internalType": "uint16",
          "name": "_srcChainId",
          "type": "uint16"
        },
        {
          "indexed": false,
          "internalType": "bytes",
          "name": "_srcAddress",
          "type": "bytes"
        },
        {
          "indexed": false,
          "internalType": "uint64",
          "name": "_nonce",
          "type": "uint64"
        },
        {
          "indexed": false,
          "internalType": "bytes32",
          "name": "_payloadHash",
          "type": "bytes32"
        }
      ],
      "name": "RetryMessageSuccess",
      "type": "event"
    },
    {
      "anonymous": false,
      "inputs": [
        {
          "indexed": true,
          "internalType": "uint16",
          "name": "_dstChainId",
          "type": "uint16"
        },
        {
          "indexed": true,
          "internalType": "address",
          "name": "_from",
          "type": "address"
        },
        {
          "indexed": true,
          "internalType": "bytes32",
          "name": "_toAddress",
          "type": "bytes32"
        },
        {
          "indexed": false,
          "internalType": "uint256",
          "name": "_amount",
          "type": "uint256"
        }
      ],
      "name": "SendToChain",
      "type": "event"
    },
    {
      "anonymous": false,
      "inputs": [
        {
          "indexed": false,
          "internalType": "uint16",
          "name": "chainId",
          "type": "uint16"
        },
        {
          "indexed": false,
          "internalType": "uint256",
          "name": "oldMaxLimit",
          "type": "uint256"
        },
        {
          "indexed": false,
          "internalType": "uint256",
          "name": "newMaxLimit",
          "type": "uint256"
        }
      ],
      "name": "SetMaxDailyLimit",
      "type": "event"
    },
    {
      "anonymous": false,
      "inputs": [
        {
          "indexed": false,
          "internalType": "uint16",
          "name": "chainId",
          "type": "uint16"
        },
        {
          "indexed": false,
          "internalType": "uint256",
          "name": "oldMaxLimit",
          "type": "uint256"
        },
        {
          "indexed": false,
          "internalType": "uint256",
          "name": "newMaxLimit",
          "type": "uint256"
        }
      ],
      "name": "SetMaxDailyReceiveLimit",
      "type": "event"
    },
    {
      "anonymous": false,
      "inputs": [
        {
          "indexed": false,
          "internalType": "uint16",
          "name": "chainId",
          "type": "uint16"
        },
        {
          "indexed": false,
          "internalType": "uint256",
          "name": "oldMaxLimit",
          "type": "uint256"
        },
        {
          "indexed": false,
          "internalType": "uint256",
          "name": "newMaxLimit",
          "type": "uint256"
        }
      ],
      "name": "SetMaxSingleReceiveTransactionLimit",
      "type": "event"
    },
    {
      "anonymous": false,
      "inputs": [
        {
          "indexed": false,
          "internalType": "uint16",
          "name": "chainId",
          "type": "uint16"
        },
        {
          "indexed": false,
          "internalType": "uint256",
          "name": "oldMaxLimit",
          "type": "uint256"
        },
        {
          "indexed": false,
          "internalType": "uint256",
          "name": "newMaxLimit",
          "type": "uint256"
        }
      ],
      "name": "SetMaxSingleTransactionLimit",
      "type": "event"
    },
    {
      "anonymous": false,
      "inputs": [
        {
          "indexed": false,
          "internalType": "uint16",
          "name": "_dstChainId",
          "type": "uint16"
        },
        {
          "indexed": false,
          "internalType": "uint16",
          "name": "_type",
          "type": "uint16"
        },
        {
          "indexed": false,
          "internalType": "uint256",
          "name": "_minDstGas",
          "type": "uint256"
        }
      ],
      "name": "SetMinDstGas",
      "type": "event"
    },
    {
      "anonymous": false,
      "inputs": [
        {
          "indexed": false,
          "internalType": "address",
          "name": "precrime",
          "type": "address"
        }
      ],
      "name": "SetPrecrime",
      "type": "event"
    },
    {
      "anonymous": false,
      "inputs": [
        {
          "indexed": false,
          "internalType": "uint16",
          "name": "_remoteChainId",
          "type": "uint16"
        },
        {
          "indexed": false,
          "internalType": "bytes",
          "name": "_path",
          "type": "bytes"
        }
      ],
      "name": "SetTrustedRemote",
      "type": "event"
    },
    {
      "anonymous": false,
      "inputs": [
        {
          "indexed": false,
          "internalType": "uint16",
          "name": "_remoteChainId",
          "type": "uint16"
        },
        {
          "indexed": false,
          "internalType": "bytes",
          "name": "_remoteAddress",
          "type": "bytes"
        }
      ],
      "name": "SetTrustedRemoteAddress",
      "type": "event"
    },
    {
      "anonymous": false,
      "inputs": [
        {
          "indexed": true,
          "internalType": "address",
          "name": "addr",
          "type": "address"
        },
        {
          "indexed": false,
          "internalType": "bool",
          "name": "isWhitelist",
          "type": "bool"
        }
      ],
      "name": "SetWhitelist",
      "type": "event"
    },
    {
      "anonymous": false,
      "inputs": [
        {
          "indexed": true,
          "internalType": "address",
          "name": "token",
          "type": "address"
        },
        {
          "indexed": true,
          "internalType": "address",
          "name": "to",
          "type": "address"
        },
        {
          "indexed": false,
          "internalType": "uint256",
          "name": "sweepAmount",
          "type": "uint256"
        }
      ],
      "name": "SweepToken",
      "type": "event"
    },
    {
      "anonymous": false,
      "inputs": [
        {
          "indexed": false,
          "internalType": "uint16",
          "name": "chainId",
          "type": "uint16"
        }
      ],
      "name": "TrustedRemoteRemoved",
      "type": "event"
    },
    {
      "anonymous": false,
      "inputs": [
        {
          "indexed": false,
          "internalType": "address",
          "name": "account",
          "type": "address"
        }
      ],
      "name": "Unpaused",
      "type": "event"
    },
    {
      "anonymous": false,
      "inputs": [
        {
          "indexed": true,
          "internalType": "bool",
          "name": "enabled",
          "type": "bool"
        }
      ],
      "name": "UpdateSendAndCallEnabled",
      "type": "event"
    },
    {
      "inputs": [],
      "name": "DEFAULT_PAYLOAD_SIZE_LIMIT",
      "outputs": [
        {
          "internalType": "uint256",
          "name": "",
          "type": "uint256"
        }
      ],
      "stateMutability": "view",
      "type": "function"
    },
    {
      "inputs": [],
      "name": "NO_EXTRA_GAS",
      "outputs": [
        {
          "internalType": "uint256",
          "name": "",
          "type": "uint256"
        }
      ],
      "stateMutability": "view",
      "type": "function"
    },
    {
      "inputs": [],
      "name": "PT_SEND",
      "outputs": [
        {
          "internalType": "uint8",
          "name": "",
          "type": "uint8"
        }
      ],
      "stateMutability": "view",
      "type": "function"
    },
    {
      "inputs": [],
      "name": "PT_SEND_AND_CALL",
      "outputs": [
        {
          "internalType": "uint8",
          "name": "",
          "type": "uint8"
        }
      ],
      "stateMutability": "view",
      "type": "function"
    },
    {
      "inputs": [
        {
          "internalType": "uint16",
          "name": "_srcChainId",
          "type": "uint16"
        },
        {
          "internalType": "bytes",
          "name": "_srcAddress",
          "type": "bytes"
        },
        {
          "internalType": "uint64",
          "name": "_nonce",
          "type": "uint64"
        },
        {
          "internalType": "bytes32",
          "name": "_from",
          "type": "bytes32"
        },
        {
          "internalType": "address",
          "name": "_to",
          "type": "address"
        },
        {
          "internalType": "uint256",
          "name": "_amount",
          "type": "uint256"
        },
        {
          "internalType": "bytes",
          "name": "_payload",
          "type": "bytes"
        },
        {
          "internalType": "uint256",
          "name": "_gasForCall",
          "type": "uint256"
        }
      ],
      "name": "callOnOFTReceived",
      "outputs": [],
      "stateMutability": "nonpayable",
      "type": "function"
    },
    {
      "inputs": [
        {
          "internalType": "uint16",
          "name": "",
          "type": "uint16"
        }
      ],
      "name": "chainIdToLast24HourReceiveWindowStart",
      "outputs": [
        {
          "internalType": "uint256",
          "name": "",
          "type": "uint256"
        }
      ],
      "stateMutability": "view",
      "type": "function"
    },
    {
      "inputs": [
        {
          "internalType": "uint16",
          "name": "",
          "type": "uint16"
        }
      ],
      "name": "chainIdToLast24HourReceived",
      "outputs": [
        {
          "internalType": "uint256",
          "name": "",
          "type": "uint256"
        }
      ],
      "stateMutability": "view",
      "type": "function"
    },
    {
      "inputs": [
        {
          "internalType": "uint16",
          "name": "",
          "type": "uint16"
        }
      ],
      "name": "chainIdToLast24HourTransferred",
      "outputs": [
        {
          "internalType": "uint256",
          "name": "",
          "type": "uint256"
        }
      ],
      "stateMutability": "view",
      "type": "function"
    },
    {
      "inputs": [
        {
          "internalType": "uint16",
          "name": "",
          "type": "uint16"
        }
      ],
      "name": "chainIdToLast24HourWindowStart",
      "outputs": [
        {
          "internalType": "uint256",
          "name": "",
          "type": "uint256"
        }
      ],
      "stateMutability": "view",
      "type": "function"
    },
    {
      "inputs": [
        {
          "internalType": "uint16",
          "name": "",
          "type": "uint16"
        }
      ],
      "name": "chainIdToMaxDailyLimit",
      "outputs": [
        {
          "internalType": "uint256",
          "name": "",
          "type": "uint256"
        }
      ],
      "stateMutability": "view",
      "type": "function"
    },
    {
      "inputs": [
        {
          "internalType": "uint16",
          "name": "",
          "type": "uint16"
        }
      ],
      "name": "chainIdToMaxDailyReceiveLimit",
      "outputs": [
        {
          "internalType": "uint256",
          "name": "",
          "type": "uint256"
        }
      ],
      "stateMutability": "view",
      "type": "function"
    },
    {
      "inputs": [
        {
          "internalType": "uint16",
          "name": "",
          "type": "uint16"
        }
      ],
      "name": "chainIdToMaxSingleReceiveTransactionLimit",
      "outputs": [
        {
          "internalType": "uint256",
          "name": "",
          "type": "uint256"
        }
      ],
      "stateMutability": "view",
      "type": "function"
    },
    {
      "inputs": [
        {
          "internalType": "uint16",
          "name": "",
          "type": "uint16"
        }
      ],
      "name": "chainIdToMaxSingleTransactionLimit",
      "outputs": [
        {
          "internalType": "uint256",
          "name": "",
          "type": "uint256"
        }
      ],
      "stateMutability": "view",
      "type": "function"
    },
    {
      "inputs": [],
      "name": "circulatingSupply",
      "outputs": [
        {
          "internalType": "uint256",
          "name": "",
          "type": "uint256"
        }
      ],
      "stateMutability": "view",
      "type": "function"
    },
    {
      "inputs": [
        {
          "internalType": "uint16",
          "name": "",
          "type": "uint16"
        },
        {
          "internalType": "bytes",
          "name": "",
          "type": "bytes"
        },
        {
          "internalType": "uint64",
          "name": "",
          "type": "uint64"
        }
      ],
      "name": "creditedPackets",
      "outputs": [
        {
          "internalType": "bool",
          "name": "",
          "type": "bool"
        }
      ],
      "stateMutability": "view",
      "type": "function"
    },
    {
      "inputs": [
        {
          "internalType": "uint16",
          "name": "srcChainId_",
          "type": "uint16"
        },
        {
          "internalType": "bytes",
          "name": "srcAddress_",
          "type": "bytes"
        },
        {
          "internalType": "uint64",
          "name": "nonce_",
          "type": "uint64"
        }
      ],
      "name": "dropFailedMessage",
      "outputs": [],
      "stateMutability": "nonpayable",
      "type": "function"
    },
    {
      "inputs": [
        {
          "internalType": "uint16",
          "name": "_dstChainId",
          "type": "uint16"
        },
        {
          "internalType": "bytes32",
          "name": "_toAddress",
          "type": "bytes32"
        },
        {
          "internalType": "uint256",
          "name": "_amount",
          "type": "uint256"
        },
        {
          "internalType": "bytes",
          "name": "_payload",
          "type": "bytes"
        },
        {
          "internalType": "uint64",
          "name": "_dstGasForCall",
          "type": "uint64"
        },
        {
          "internalType": "bool",
          "name": "_useZro",
          "type": "bool"
        },
        {
          "internalType": "bytes",
          "name": "_adapterParams",
          "type": "bytes"
        }
      ],
      "name": "estimateSendAndCallFee",
      "outputs": [
        {
          "internalType": "uint256",
          "name": "nativeFee",
          "type": "uint256"
        },
        {
          "internalType": "uint256",
          "name": "zroFee",
          "type": "uint256"
        }
      ],
      "stateMutability": "view",
      "type": "function"
    },
    {
      "inputs": [
        {
          "internalType": "uint16",
          "name": "_dstChainId",
          "type": "uint16"
        },
        {
          "internalType": "bytes32",
          "name": "_toAddress",
          "type": "bytes32"
        },
        {
          "internalType": "uint256",
          "name": "_amount",
          "type": "uint256"
        },
        {
          "internalType": "bool",
          "name": "_useZro",
          "type": "bool"
        },
        {
          "internalType": "bytes",
          "name": "_adapterParams",
          "type": "bytes"
        }
      ],
      "name": "estimateSendFee",
      "outputs": [
        {
          "internalType": "uint256",
          "name": "nativeFee",
          "type": "uint256"
        },
        {
          "internalType": "uint256",
          "name": "zroFee",
          "type": "uint256"
        }
      ],
      "stateMutability": "view",
      "type": "function"
    },
    {
      "inputs": [
        {
          "internalType": "uint16",
          "name": "",
          "type": "uint16"
        },
        {
          "internalType": "bytes",
          "name": "",
          "type": "bytes"
        },
        {
          "internalType": "uint64",
          "name": "",
          "type": "uint64"
        }
      ],
      "name": "failedMessages",
      "outputs": [
        {
          "internalType": "bytes32",
          "name": "",
          "type": "bytes32"
        }
      ],
      "stateMutability": "view",
      "type": "function"
    },
    {
      "inputs": [
        {
          "internalType": "address",
          "name": "depositor_",
          "type": "address"
        },
        {
          "internalType": "uint256",
          "name": "amount_",
          "type": "uint256"
        }
      ],
      "name": "fallbackDeposit",
      "outputs": [],
      "stateMutability": "nonpayable",
      "type": "function"
    },
    {
      "inputs": [
        {
          "internalType": "address",
          "name": "to_",
          "type": "address"
        },
        {
          "internalType": "uint256",
          "name": "amount_",
          "type": "uint256"
        }
      ],
      "name": "fallbackWithdraw",
      "outputs": [],
      "stateMutability": "nonpayable",
      "type": "function"
    },
    {
      "inputs": [
        {
          "internalType": "uint16",
          "name": "_srcChainId",
          "type": "uint16"
        },
        {
          "internalType": "bytes",
          "name": "_srcAddress",
          "type": "bytes"
        }
      ],
      "name": "forceResumeReceive",
      "outputs": [],
      "stateMutability": "nonpayable",
      "type": "function"
    },
    {
      "inputs": [
        {
          "internalType": "uint16",
          "name": "_version",
          "type": "uint16"
        },
        {
          "internalType": "uint16",
          "name": "_chainId",
          "type": "uint16"
        },
        {
          "internalType": "address",
          "name": "",
          "type": "address"
        },
        {
          "internalType": "uint256",
          "name": "_configType",
          "type": "uint256"
        }
      ],
      "name": "getConfig",
      "outputs": [
        {
          "internalType": "bytes",
          "name": "",
          "type": "bytes"
        }
      ],
      "stateMutability": "view",
      "type": "function"
    },
    {
      "inputs": [
        {
          "internalType": "uint16",
          "name": "_remoteChainId",
          "type": "uint16"
        }
      ],
      "name": "getTrustedRemoteAddress",
      "outputs": [
        {
          "internalType": "bytes",
          "name": "",
          "type": "bytes"
        }
      ],
      "stateMutability": "view",
      "type": "function"
    },
    {
      "inputs": [
        {
          "internalType": "address",
          "name": "from_",
          "type": "address"
        },
        {
          "internalType": "uint16",
          "name": "dstChainId_",
          "type": "uint16"
        },
        {
          "internalType": "uint256",
          "name": "amount_",
          "type": "uint256"
        }
      ],
      "name": "isEligibleToSend",
      "outputs": [
        {
          "internalType": "bool",
          "name": "eligibleToSend",
          "type": "bool"
        },
        {
          "internalType": "uint256",
          "name": "maxSingleTransactionLimit",
          "type": "uint256"
        },
        {
          "internalType": "uint256",
          "name": "maxDailyLimit",
          "type": "uint256"
        },
        {
          "internalType": "uint256",
          "name": "amountInUsd",
          "type": "uint256"
        },
        {
          "internalType": "uint256",
          "name": "transferredInWindow",
          "type": "uint256"
        },
        {
          "internalType": "uint256",
          "name": "last24HourWindowStart",
          "type": "uint256"
        },
        {
          "internalType": "bool",
          "name": "isWhiteListedUser",
          "type": "bool"
        }
      ],
      "stateMutability": "view",
      "type": "function"
    },
    {
      "inputs": [
        {
          "internalType": "uint16",
          "name": "_srcChainId",
          "type": "uint16"
        },
        {
          "internalType": "bytes",
          "name": "_srcAddress",
          "type": "bytes"
        }
      ],
      "name": "isTrustedRemote",
      "outputs": [
        {
          "internalType": "bool",
          "name": "",
          "type": "bool"
        }
      ],
      "stateMutability": "view",
      "type": "function"
    },
    {
      "inputs": [],
      "name": "lzEndpoint",
      "outputs": [
        {
          "internalType": "contract ILayerZeroEndpoint",
          "name": "",
          "type": "address"
        }
      ],
      "stateMutability": "view",
      "type": "function"
    },
    {
      "inputs": [
        {
          "internalType": "uint16",
          "name": "_srcChainId",
          "type": "uint16"
        },
        {
          "internalType": "bytes",
          "name": "_srcAddress",
          "type": "bytes"
        },
        {
          "internalType": "uint64",
          "name": "_nonce",
          "type": "uint64"
        },
        {
          "internalType": "bytes",
          "name": "_payload",
          "type": "bytes"
        }
      ],
      "name": "lzReceive",
      "outputs": [],
      "stateMutability": "nonpayable",
      "type": "function"
    },
    {
      "inputs": [
        {
          "internalType": "uint16",
          "name": "",
          "type": "uint16"
        },
        {
          "internalType": "uint16",
          "name": "",
          "type": "uint16"
        }
      ],
      "name": "minDstGasLookup",
      "outputs": [
        {
          "internalType": "uint256",
          "name": "",
          "type": "uint256"
        }
      ],
      "stateMutability": "view",
      "type": "function"
    },
    {
      "inputs": [
        {
          "internalType": "uint16",
          "name": "_srcChainId",
          "type": "uint16"
        },
        {
          "internalType": "bytes",
          "name": "_srcAddress",
          "type": "bytes"
        },
        {
          "internalType": "uint64",
          "name": "_nonce",
          "type": "uint64"
        },
        {
          "internalType": "bytes",
          "name": "_payload",
          "type": "bytes"
        }
      ],
      "name": "nonblockingLzReceive",
      "outputs": [],
      "stateMutability": "nonpayable",
      "type": "function"
    },
    {
      "inputs": [],
      "name": "oracle",
      "outputs": [
        {
          "internalType": "contract ResilientOracleInterface",
          "name": "",
          "type": "address"
        }
      ],
      "stateMutability": "view",
      "type": "function"
    },
    {
      "inputs": [],
      "name": "outboundAmount",
      "outputs": [
        {
          "internalType": "uint256",
          "name": "",
          "type": "uint256"
        }
      ],
      "stateMutability": "view",
      "type": "function"
    },
    {
      "inputs": [],
      "name": "owner",
      "outputs": [
        {
          "internalType": "address",
          "name": "",
          "type": "address"
        }
      ],
      "stateMutability": "view",
      "type": "function"
    },
    {
      "inputs": [],
      "name": "pause",
      "outputs": [],
      "stateMutability": "nonpayable",
      "type": "function"
    },
    {
      "inputs": [],
      "name": "paused",
      "outputs": [
        {
          "internalType": "bool",
          "name": "",
          "type": "bool"
        }
      ],
      "stateMutability": "view",
      "type": "function"
    },
    {
      "inputs": [
        {
          "internalType": "uint16",
          "name": "",
          "type": "uint16"
        }
      ],
      "name": "payloadSizeLimitLookup",
      "outputs": [
        {
          "internalType": "uint256",
          "name": "",
          "type": "uint256"
        }
      ],
      "stateMutability": "view",
      "type": "function"
    },
    {
      "inputs": [],
      "name": "precrime",
      "outputs": [
        {
          "internalType": "address",
          "name": "",
          "type": "address"
        }
      ],
      "stateMutability": "view",
      "type": "function"
    },
    {
      "inputs": [
        {
          "internalType": "uint16",
          "name": "remoteChainId_",
          "type": "uint16"
        }
      ],
      "name": "removeTrustedRemote",
      "outputs": [],
      "stateMutability": "nonpayable",
      "type": "function"
    },
    {
      "inputs": [],
      "name": "renounceOwnership",
      "outputs": [],
      "stateMutability": "nonpayable",
      "type": "function"
    },
    {
      "inputs": [
        {
          "internalType": "uint16",
          "name": "_srcChainId",
          "type": "uint16"
        },
        {
          "internalType": "bytes",
          "name": "_srcAddress",
          "type": "bytes"
        },
        {
          "internalType": "uint64",
          "name": "_nonce",
          "type": "uint64"
        },
        {
          "internalType": "bytes",
          "name": "_payload",
          "type": "bytes"
        }
      ],
      "name": "retryMessage",
      "outputs": [],
      "stateMutability": "payable",
      "type": "function"
    },
    {
      "inputs": [
        {
          "internalType": "address",
          "name": "from_",
          "type": "address"
        },
        {
          "internalType": "uint16",
          "name": "dstChainId_",
          "type": "uint16"
        },
        {
          "internalType": "bytes32",
          "name": "toAddress_",
          "type": "bytes32"
        },
        {
          "internalType": "uint256",
          "name": "amount_",
          "type": "uint256"
        },
        {
          "internalType": "bytes",
          "name": "payload_",
          "type": "bytes"
        },
        {
          "internalType": "uint64",
          "name": "dstGasForCall_",
          "type": "uint64"
        },
        {
          "components": [
            {
              "internalType": "address payable",
              "name": "refundAddress",
              "type": "address"
            },
            {
              "internalType": "address",
              "name": "zroPaymentAddress",
              "type": "address"
            },
            {
              "internalType": "bytes",
              "name": "adapterParams",
              "type": "bytes"
            }
          ],
          "internalType": "struct ICommonOFT.LzCallParams",
          "name": "callparams_",
          "type": "tuple"
        }
      ],
      "name": "sendAndCall",
      "outputs": [],
      "stateMutability": "payable",
      "type": "function"
    },
    {
      "inputs": [],
      "name": "sendAndCallEnabled",
      "outputs": [
        {
          "internalType": "bool",
          "name": "",
          "type": "bool"
        }
      ],
      "stateMutability": "view",
      "type": "function"
    },
    {
      "inputs": [
        {
          "internalType": "address",
          "name": "_from",
          "type": "address"
        },
        {
          "internalType": "uint16",
          "name": "_dstChainId",
          "type": "uint16"
        },
        {
          "internalType": "bytes32",
          "name": "_toAddress",
          "type": "bytes32"
        },
        {
          "internalType": "uint256",
          "name": "_amount",
          "type": "uint256"
        },
        {
          "components": [
            {
              "internalType": "address payable",
              "name": "refundAddress",
              "type": "address"
            },
            {
              "internalType": "address",
              "name": "zroPaymentAddress",
              "type": "address"
            },
            {
              "internalType": "bytes",
              "name": "adapterParams",
              "type": "bytes"
            }
          ],
          "internalType": "struct ICommonOFT.LzCallParams",
          "name": "_callParams",
          "type": "tuple"
        }
      ],
      "name": "sendFrom",
      "outputs": [],
      "stateMutability": "payable",
      "type": "function"
    },
    {
      "inputs": [
        {
          "internalType": "uint16",
          "name": "_version",
          "type": "uint16"
        },
        {
          "internalType": "uint16",
          "name": "_chainId",
          "type": "uint16"
        },
        {
          "internalType": "uint256",
          "name": "_configType",
          "type": "uint256"
        },
        {
          "internalType": "bytes",
          "name": "_config",
          "type": "bytes"
        }
      ],
      "name": "setConfig",
      "outputs": [],
      "stateMutability": "nonpayable",
      "type": "function"
    },
    {
      "inputs": [
        {
          "internalType": "uint16",
          "name": "chainId_",
          "type": "uint16"
        },
        {
          "internalType": "uint256",
          "name": "limit_",
          "type": "uint256"
        }
      ],
      "name": "setMaxDailyLimit",
      "outputs": [],
      "stateMutability": "nonpayable",
      "type": "function"
    },
    {
      "inputs": [
        {
          "internalType": "uint16",
          "name": "chainId_",
          "type": "uint16"
        },
        {
          "internalType": "uint256",
          "name": "limit_",
          "type": "uint256"
        }
      ],
      "name": "setMaxDailyReceiveLimit",
      "outputs": [],
      "stateMutability": "nonpayable",
      "type": "function"
    },
    {
      "inputs": [
        {
          "internalType": "uint16",
          "name": "chainId_",
          "type": "uint16"
        },
        {
          "internalType": "uint256",
          "name": "limit_",
          "type": "uint256"
        }
      ],
      "name": "setMaxSingleReceiveTransactionLimit",
      "outputs": [],
      "stateMutability": "nonpayable",
      "type": "function"
    },
    {
      "inputs": [
        {
          "internalType": "uint16",
          "name": "chainId_",
          "type": "uint16"
        },
        {
          "internalType": "uint256",
          "name": "limit_",
          "type": "uint256"
        }
      ],
      "name": "setMaxSingleTransactionLimit",
      "outputs": [],
      "stateMutability": "nonpayable",
      "type": "function"
    },
    {
      "inputs": [
        {
          "internalType": "uint16",
          "name": "_dstChainId",
          "type": "uint16"
        },
        {
          "internalType": "uint16",
          "name": "_packetType",
          "type": "uint16"
        },
        {
          "internalType": "uint256",
          "name": "_minGas",
          "type": "uint256"
        }
      ],
      "name": "setMinDstGas",
      "outputs": [],
      "stateMutability": "nonpayable",
      "type": "function"
    },
    {
      "inputs": [
        {
          "internalType": "address",
          "name": "oracleAddress_",
          "type": "address"
        }
      ],
      "name": "setOracle",
      "outputs": [],
      "stateMutability": "nonpayable",
      "type": "function"
    },
    {
      "inputs": [
        {
          "internalType": "uint16",
          "name": "_dstChainId",
          "type": "uint16"
        },
        {
          "internalType": "uint256",
          "name": "_size",
          "type": "uint256"
        }
      ],
      "name": "setPayloadSizeLimit",
      "outputs": [],
      "stateMutability": "nonpayable",
      "type": "function"
    },
    {
      "inputs": [
        {
          "internalType": "address",
          "name": "_precrime",
          "type": "address"
        }
      ],
      "name": "setPrecrime",
      "outputs": [],
      "stateMutability": "nonpayable",
      "type": "function"
    },
    {
      "inputs": [
        {
          "internalType": "uint16",
          "name": "_version",
          "type": "uint16"
        }
      ],
      "name": "setReceiveVersion",
      "outputs": [],
      "stateMutability": "nonpayable",
      "type": "function"
    },
    {
      "inputs": [
        {
          "internalType": "uint16",
          "name": "_version",
          "type": "uint16"
        }
      ],
      "name": "setSendVersion",
      "outputs": [],
      "stateMutability": "nonpayable",
      "type": "function"
    },
    {
      "inputs": [
        {
          "internalType": "uint16",
          "name": "_remoteChainId",
          "type": "uint16"
        },
        {
          "internalType": "bytes",
          "name": "_path",
          "type": "bytes"
        }
      ],
      "name": "setTrustedRemote",
      "outputs": [],
      "stateMutability": "nonpayable",
      "type": "function"
    },
    {
      "inputs": [
        {
          "internalType": "uint16",
          "name": "_remoteChainId",
          "type": "uint16"
        },
        {
          "internalType": "bytes",
          "name": "_remoteAddress",
          "type": "bytes"
        }
      ],
      "name": "setTrustedRemoteAddress",
      "outputs": [],
      "stateMutability": "nonpayable",
      "type": "function"
    },
    {
      "inputs": [
        {
          "internalType": "address",
          "name": "user_",
          "type": "address"
        },
        {
          "internalType": "bool",
          "name": "val_",
          "type": "bool"
        }
      ],
      "name": "setWhitelist",
      "outputs": [],
      "stateMutability": "nonpayable",
      "type": "function"
    },
    {
      "inputs": [],
      "name": "sharedDecimals",
      "outputs": [
        {
          "internalType": "uint8",
          "name": "",
          "type": "uint8"
        }
      ],
      "stateMutability": "view",
      "type": "function"
    },
    {
      "inputs": [
        {
          "internalType": "bytes4",
          "name": "interfaceId",
          "type": "bytes4"
        }
      ],
      "name": "supportsInterface",
      "outputs": [
        {
          "internalType": "bool",
          "name": "",
          "type": "bool"
        }
      ],
      "stateMutability": "view",
      "type": "function"
    },
    {
      "inputs": [
        {
          "internalType": "contract IERC20",
          "name": "token_",
          "type": "address"
        },
        {
          "internalType": "address",
          "name": "to_",
          "type": "address"
        },
        {
          "internalType": "uint256",
          "name": "amount_",
          "type": "uint256"
        }
      ],
      "name": "sweepToken",
      "outputs": [],
      "stateMutability": "nonpayable",
      "type": "function"
    },
    {
      "inputs": [],
      "name": "token",
      "outputs": [
        {
          "internalType": "address",
          "name": "",
          "type": "address"
        }
      ],
      "stateMutability": "view",
      "type": "function"
    },
    {
      "inputs": [
        {
          "internalType": "address",
          "name": "newOwner",
          "type": "address"
        }
      ],
      "name": "transferOwnership",
      "outputs": [],
      "stateMutability": "nonpayable",
      "type": "function"
    },
    {
      "inputs": [
        {
          "internalType": "uint16",
          "name": "",
          "type": "uint16"
        }
      ],
      "name": "trustedRemoteLookup",
      "outputs": [
        {
          "internalType": "bytes",
          "name": "",
          "type": "bytes"
        }
      ],
      "stateMutability": "view",
      "type": "function"
    },
    {
      "inputs": [],
      "name": "unpause",
      "outputs": [],
      "stateMutability": "nonpayable",
      "type": "function"
    },
    {
      "inputs": [
        {
          "internalType": "bool",
          "name": "enabled_",
          "type": "bool"
        }
      ],
      "name": "updateSendAndCallEnabled",
      "outputs": [],
      "stateMutability": "nonpayable",
      "type": "function"
    },
    {
      "inputs": [
        {
          "internalType": "address",
          "name": "",
          "type": "address"
        }
      ],
      "name": "whitelist",
      "outputs": [
        {
          "internalType": "bool",
          "name": "",
          "type": "bool"
        }
      ],
      "stateMutability": "view",
      "type": "function"
    }
  ],
  "transactionHash": "0xd56e0205884497c2ede55f923e1499b486c4be26ed11f34f9347bad44e87ed63",
  "args": [
    "0xcF6BB5389c92Bdda8a3747Ddb454cB7a64626C63",
    8,
    "0x3c2269811836af69497E5F486A85D7316753cf62",
    "0x6592b5DE802159F3E74B2486b091D11a8256ab8A"
  ],
  "numDeployments": 1,
  "solcInputHash": "48b09203ff3b22f478f0c56ebee586c8",
  "bytecode": "0x6101006040523480156200001257600080fd5b5060405162005cc438038062005cc4833981016040819052620000359162000379565b6000805460ff19169055838383838282818180806200005433620002c6565b6001600160a01b0316608052505060ff1660a05250620000769050846200031f565b62000081826200031f565b6200008c816200031f565b6001600160a01b03841660c081905260408051600481526024810182526020810180516001600160e01b031663313ce56760e01b179052905160009283929091620000d89190620003d6565b600060405180830381855afa9150503d806000811462000115576040519150601f19603f3d011682016040523d82523d6000602084013e6200011a565b606091505b509150915081620001815760405162461bcd60e51b815260206004820152602660248201527f50726f78794f46543a206661696c656420746f2067657420746f6b656e20646560448201526563696d616c7360d01b60648201526084015b60405180910390fd5b60008180602001905181019062000199919062000414565b90508060ff168660ff161115620002085760405162461bcd60e51b815260206004820152602c60248201527f50726f78794f46543a20736861726564446563696d616c73206d75737420626560448201526b203c3d20646563696d616c7360a01b606482015260840162000178565b6200021486826200044f565b6200022190600a62000574565b60e0526040516001600160a01b038816907f0b673f021ff9a27bbe58f282908695869e130b3103029190387b83650806c2c390600090a26040516001600160a01b038516906000907f05cd89403c6bdeac21c2ff33de395121a31fa1bc2bf3adf4825f1f86e79969dd908290a35050600780546001600160a01b0390931661010002610100600160a81b03199093169290921790915550620005859650505050505050565b600080546001600160a01b03838116610100818102610100600160a81b0319851617855560405193049190911692909183917f8be0079c531659141344cd1fd0a4f28419497f9722a3daafe3b4186f6b6457e091a35050565b6001600160a01b03811662000347576040516342bcdf7f60e11b815260040160405180910390fd5b50565b80516001600160a01b03811681146200036257600080fd5b919050565b805160ff811681146200036257600080fd5b600080600080608085870312156200039057600080fd5b6200039b856200034a565b9350620003ab6020860162000367565b9250620003bb604086016200034a565b9150620003cb606086016200034a565b905092959194509250565b6000825160005b81811015620003f95760208186018101518583015201620003dd565b8181111562000409576000828501525b509190910192915050565b6000602082840312156200042757600080fd5b620004328262000367565b9392505050565b634e487b7160e01b600052601160045260246000fd5b600060ff821660ff8416808210156200046c576200046c62000439565b90039392505050565b600181815b80851115620004b65781600019048211156200049a576200049a62000439565b80851615620004a857918102915b93841c93908002906200047a565b509250929050565b600082620004cf575060016200056e565b81620004de575060006200056e565b8160018114620004f75760028114620005025762000522565b60019150506200056e565b60ff84111562000516576200051662000439565b50506001821b6200056e565b5060208310610133831016604e8410600b841016171562000547575081810a6200056e565b62000553838362000475565b80600019048211156200056a576200056a62000439565b0290505b92915050565b60006200043260ff841683620004be565b60805160a05160c05160e0516156806200064460003960008181612a5001528181612a8f0152613352015260008181610d18015281816110df01528181611dad015281816128ba015281816129460152818161297f015281816129c801528181613f4801526143780152600061091f015260008181610b3501528181610d6c01528181610fb30152818161105b0152818161149e015281816120e2015281816125d5015281816127b001528181612edd0152613b4301526156806000f3fe6080604052600436106103d85760003560e01c80637dc0d1d0116101fd578063b353aaa711610118578063d708a468116100ab578063eb8d72b71161007a578063eb8d72b714610ca9578063f2fde38b14610cc9578063f5ecbdbc14610ce9578063fc0c546a14610d09578063fdff235b14610d3c57600080fd5b8063d708a46814610c27578063df2a5b3b14610c54578063e6a20ae614610c74578063eaffd49a14610c8957600080fd5b8063cbed8b9c116100e7578063cbed8b9c14610ba7578063cc01e9b614610bc7578063cc7015ae14610be7578063d1deba1f14610c1457600080fd5b8063b353aaa714610b23578063baf3292d14610b57578063c1e9132e14610b77578063c446183414610b9157600080fd5b806393a61d6c116101905780639bdb98121161015f5780639bdb981214610a715780639f38369a14610ac3578063a4c51df514610ae3578063a6c3d16514610b0357600080fd5b806393a61d6c146109de578063950c8a7414610a0b5780639689cb0514610a2b5780639b19251a14610a4157600080fd5b80638cfd8f5c116101cc5780638cfd8f5c146109415780638da5cb5b14610979578063904365671461099c5780639358928b146109c957600080fd5b80637dc0d1d01461089b5780638456cb59146108d857806384e69c69146108ed578063857749b01461090d57600080fd5b80634be66720116102f85780635c975abb1161028b57806369c1e7b81161025a57806369c1e7b81461080f578063715018a61461082f5780637533d7881461083b57806376203b48146108685780637adbf9731461087b57600080fd5b80635c975abb146107a457806364aff9ec146107bc57806366ad5c8a146107dc578063695ef6bf146107fc57600080fd5b80634f4ba0f4116102c75780634f4ba0f4146106e857806353489d6c1461071557806353d6fd59146107355780635b8c41e61461075557600080fd5b80634be66720146106545780634c42899a146106745780634cec62561461069b5780634ed2c662146106c857600080fd5b8063365260b4116103705780633f4ba83a1161033f5780633f4ba83a146105ea57806342d65a8d146105ff578063447705151461061f57806348e4a04a1461063457600080fd5b8063365260b41461052d5780633c4ec39b146105625780633d8b38f61461059d5780633f1f4fa4146105bd57600080fd5b806310ddb137116103ac57806310ddb13714610474578063182b4b89146104945780632488eec8146104ed5780632dbbec081461050d57600080fd5b80621d3567146103dd57806301ffc9a7146103ff57806307e0db17146104345780630df3748314610454575b600080fd5b3480156103e957600080fd5b506103fd6103f8366004614801565b610d69565b005b34801561040b57600080fd5b5061041f61041a366004614894565b610f5b565b60405190151581526020015b60405180910390f35b34801561044057600080fd5b506103fd61044f3660046148be565b610f92565b34801561046057600080fd5b506103fd61046f3660046148d9565b61101b565b34801561048057600080fd5b506103fd61048f3660046148be565b61103a565b3480156104a057600080fd5b506104b46104af366004614918565b611092565b6040805197151588526020880196909652948601939093526060850191909152608084015260a0830152151560c082015260e00161042b565b3480156104f957600080fd5b506103fd6105083660046148d9565b611208565b34801561051957600080fd5b506103fd6105283660046148be565b6112ec565b34801561053957600080fd5b5061054d610548366004614964565b61134b565b6040805192835260208301919091520161042b565b34801561056e57600080fd5b5061058f61057d3660046148be565b600d6020526000908152604090205481565b60405190815260200161042b565b3480156105a957600080fd5b5061041f6105b83660046149cb565b6113a0565b3480156105c957600080fd5b5061058f6105d83660046148be565b60036020526000908152604090205481565b3480156105f657600080fd5b506103fd61146d565b34801561060b57600080fd5b506103fd61061a3660046149cb565b61147f565b34801561062b57600080fd5b5061058f600081565b34801561064057600080fd5b506103fd61064f366004614a1d565b611505565b34801561066057600080fd5b506103fd61066f366004614a1d565b6115d7565b34801561068057600080fd5b50610689600081565b60405160ff909116815260200161042b565b3480156106a757600080fd5b5061058f6106b63660046148be565b600a6020526000908152604090205481565b3480156106d457600080fd5b506103fd6106e3366004614a3b565b611690565b3480156106f457600080fd5b5061058f6107033660046148be565b60096020526000908152604090205481565b34801561072157600080fd5b506103fd6107303660046148d9565b6116d5565b34801561074157600080fd5b506103fd610750366004614a58565b6117b9565b34801561076157600080fd5b5061058f610770366004614afe565b6005602090815260009384526040808520845180860184018051928152908401958401959095209452929052825290205481565b3480156107b057600080fd5b5060005460ff1661041f565b3480156107c857600080fd5b506103fd6107d7366004614b9e565b611831565b3480156107e857600080fd5b506103fd6107f7366004614801565b611938565b6103fd61080a366004614bf7565b611a14565b34801561081b57600080fd5b506103fd61082a3660046148d9565b611a7f565b3480156103fd57600080fd5b34801561084757600080fd5b5061085b6108563660046148be565b611b6b565b60405161042b9190614cc2565b6103fd610876366004614cd5565b611c05565b34801561088757600080fd5b506103fd610896366004614d87565b611c71565b3480156108a757600080fd5b506007546108c09061010090046001600160a01b031681565b6040516001600160a01b03909116815260200161042b565b3480156108e457600080fd5b506103fd611ce9565b3480156108f957600080fd5b506103fd610908366004614afe565b611cf9565b34801561091957600080fd5b506106897f000000000000000000000000000000000000000000000000000000000000000081565b34801561094d57600080fd5b5061058f61095c366004614da4565b600260209081526000928352604080842090915290825290205481565b34801561098557600080fd5b5060005461010090046001600160a01b03166108c0565b3480156109a857600080fd5b5061058f6109b73660046148be565b600c6020526000908152604090205481565b3480156109d557600080fd5b5061058f611da6565b3480156109ea57600080fd5b5061058f6109f93660046148be565b600b6020526000908152604090205481565b348015610a1757600080fd5b506004546108c0906001600160a01b031681565b348015610a3757600080fd5b5061058f60115481565b348015610a4d57600080fd5b5061041f610a5c366004614d87565b60106020526000908152604090205460ff1681565b348015610a7d57600080fd5b5061041f610a8c366004614afe565b6006602090815260009384526040808520845180860184018051928152908401958401959095209452929052825290205460ff1681565b348015610acf57600080fd5b5061085b610ade3660046148be565b611e3c565b348015610aef57600080fd5b5061054d610afe366004614dd7565b611f4b565b348015610b0f57600080fd5b506103fd610b1e3660046149cb565b611fda565b348015610b2f57600080fd5b506108c07f000000000000000000000000000000000000000000000000000000000000000081565b348015610b6357600080fd5b506103fd610b72366004614d87565b61206d565b348015610b8357600080fd5b5060075461041f9060ff1681565b348015610b9d57600080fd5b5061058f61271081565b348015610bb357600080fd5b506103fd610bc2366004614e94565b6120c3565b348015610bd357600080fd5b506103fd610be23660046148d9565b612158565b348015610bf357600080fd5b5061058f610c023660046148be565b60086020526000908152604090205481565b6103fd610c22366004614801565b612244565b348015610c3357600080fd5b5061058f610c423660046148be565b600e6020526000908152604090205481565b348015610c6057600080fd5b506103fd610c6f366004614f02565b612348565b348015610c8057600080fd5b50610689600181565b348015610c9557600080fd5b506103fd610ca4366004614f20565b6123b2565b348015610cb557600080fd5b506103fd610cc43660046149cb565b6124d1565b348015610cd557600080fd5b506103fd610ce4366004614d87565b61252b565b348015610cf557600080fd5b5061085b610d04366004614fe8565b6125a4565b348015610d1557600080fd5b507f00000000000000000000000000000000000000000000000000000000000000006108c0565b348015610d4857600080fd5b5061058f610d573660046148be565b600f6020526000908152604090205481565b337f00000000000000000000000000000000000000000000000000000000000000006001600160a01b031614610de65760405162461bcd60e51b815260206004820152601e60248201527f4c7a4170703a20696e76616c696420656e64706f696e742063616c6c6572000060448201526064015b60405180910390fd5b61ffff861660009081526001602052604081208054610e0490615035565b80601f0160208091040260200160405190810160405280929190818152602001828054610e3090615035565b8015610e7d5780601f10610e5257610100808354040283529160200191610e7d565b820191906000526020600020905b815481529060010190602001808311610e6057829003601f168201915b50505050509050805186869050148015610e98575060008151115b8015610ec0575080516020820120604051610eb69088908890615069565b6040518091039020145b610edc5760405162461bcd60e51b8152600401610ddd90615079565b610f528787878080601f01602080910402602001604051908101604052809392919081815260200183838082843760009201919091525050604080516020601f8a018190048102820181019092528881528a93509150889088908190840183828082843760009201919091525061265792505050565b50505050505050565b60006001600160e01b03198216631f7ecdf760e01b1480610f8c57506301ffc9a760e01b6001600160e01b03198316145b92915050565b610f9a6126d0565b6040516307e0db1760e01b815261ffff821660048201527f00000000000000000000000000000000000000000000000000000000000000006001600160a01b0316906307e0db17906024015b600060405180830381600087803b15801561100057600080fd5b505af1158015611014573d6000803e3d6000fd5b5050505050565b6110236126d0565b61ffff909116600090815260036020526040902055565b6110426126d0565b6040516310ddb13760e01b815261ffff821660048201527f00000000000000000000000000000000000000000000000000000000000000006001600160a01b0316906310ddb13790602401610fe6565b6001600160a01b03838116600090815260106020908152604080832054815192830190915260075492938493849384938493849360ff909216928492909182916101009004166341976e097f00000000000000000000000000000000000000000000000000000000000000006040516001600160e01b031960e084901b1681526001600160a01b039091166004820152602401602060405180830381865afa158015611142573d6000803e3d6000fd5b505050506040513d601f19601f8201168201806040525081019061116691906150bf565b90529050611174818a612730565b61ffff8b166000908152600b6020908152604080832054600a835281842054600884528285205460099094529190932054919a50909850919650909450925042620151806111c285836150ee565b11156111d3578594508093506111e0565b6111dd8686615105565b94505b82806111f757508786111580156111f75750868511155b985050509397509397509397909450565b6112106126d0565b61ffff82166000908152600860205260409020548110156112825760405162461bcd60e51b815260206004820152602660248201527f4461696c79206c696d6974203c2073696e676c65207472616e73616374696f6e604482015265081b1a5b5a5d60d21b6064820152608401610ddd565b61ffff82166000818152600960209081526040918290205482519384529083015281018290527f4dd31065e259d5284e44d1f9265710da72eafcf78dc925e3881189fc3b71f6939060600160405180910390a161ffff909116600090815260096020526040902055565b6112f46126d0565b61ffff8116600090815260016020526040812061131091614644565b60405161ffff821681527f6d5075c81d4d9e75bec6052f4e44f58f8a8cf1327544addbbf015fb06f83bd37906020015b60405180910390a150565b6000806113918888888888888080601f01602080910402602001604051908101604052809392919081815260200183838082843760009201919091525061274892505050565b91509150965096945050505050565b61ffff8316600090815260016020526040812080548291906113c190615035565b80601f01602080910402602001604051908101604052809291908181526020018280546113ed90615035565b801561143a5780601f1061140f5761010080835404028352916020019161143a565b820191906000526020600020905b81548152906001019060200180831161141d57829003601f168201915b505050505090508383604051611451929190615069565b60405180910390208180519060200120149150505b9392505050565b6114756126d0565b61147d61283c565b565b6114876126d0565b6040516342d65a8d60e01b81526001600160a01b037f000000000000000000000000000000000000000000000000000000000000000016906342d65a8d906114d790869086908690600401615146565b600060405180830381600087803b1580156114f157600080fd5b505af1158015610f52573d6000803e3d6000fd5b61150d6126d0565b80601154101561157b5760405162461bcd60e51b815260206004820152603360248201527f576974686472617720616d6f756e742073686f756c64206265206c65737320746044820152721a185b881bdd5d189bdd5b9908185b5bdd5b9d606a1b6064820152608401610ddd565b60118054829003905561158f30838361288e565b50816001600160a01b03167f22fe8e8ead80ad0961d77107e806ba9bcf9ca3b175a9d446145646d39c36ab96826040516115cb91815260200190565b60405180910390a25050565b6115df6126d0565b60006115ea82612a48565b50905080601160008282546115ff9190615105565b90915550600090506116176001600160401b03612a88565b905060115481101561163b5760405162461bcd60e51b8152600401610ddd90615164565b61164684308461288e565b50836001600160a01b03167f5e6172210489e8382b0281a3e17233598e143c96f8ac1f90923540b554cea1128360405161168291815260200190565b60405180910390a250505050565b6116986126d0565b6007805460ff19168215159081179091556040517fe628f01c6f4e6340598d3a2913390db68e8859379eebff349e170f2b16baed0090600090a250565b6116dd6126d0565b61ffff821660009081526009602052604090205481111561174f5760405162461bcd60e51b815260206004820152602660248201527f53696e676c65207472616e73616374696f6e206c696d6974203e204461696c79604482015265081b1a5b5a5d60d21b6064820152608401610ddd565b61ffff82166000818152600860209081526040918290205482519384529083015281018290527f7babeac42ccbb33537ee421fedc4db7b5f251b5d2a3fa5c0ff4b35b2d783be879060600160405180910390a161ffff909116600090815260086020526040902055565b6117c16126d0565b816001600160a01b03167ff6019ec0a78d156d249a1ec7579e2321f6ac7521d6e1d2eacf90ba4a184dcceb826040516117fe911515815260200190565b60405180910390a26001600160a01b03919091166000908152601060205260409020805460ff1916911515919091179055565b6118396126d0565b6040516370a0823160e01b81523060048201526000906001600160a01b038516906370a0823190602401602060405180830381865afa158015611880573d6000803e3d6000fd5b505050506040513d601f19601f820116820180604052508101906118a491906150bf565b9050808211156118d15760405163cf47918160e01b81526004810183905260248101829052604401610ddd565b826001600160a01b0316846001600160a01b03167f6d25be279134f4ecaa4770aff0c3d916d9e7c5ef37b65ed95dbdba411f5d54d58460405161191691815260200190565b60405180910390a36119326001600160a01b0385168484612abd565b50505050565b3330146119965760405162461bcd60e51b815260206004820152602660248201527f4e6f6e626c6f636b696e674c7a4170703a2063616c6c6572206d7573742062656044820152650204c7a4170760d41b6064820152608401610ddd565b611a0c8686868080601f01602080910402602001604051908101604052809392919081815260200183838082843760009201919091525050604080516020601f890181900481028201810190925287815289935091508790879081908401838280828437600092019190915250612b2592505050565b505050505050565b611a0c85858585611a286020870187614d87565b611a386040880160208901614d87565b611a4560408901896151a5565b8080601f016020809104026020016040519081016040528093929190818152602001838380828437600092019190915250612bac92505050565b611a876126d0565b61ffff82166000908152600c6020526040902054811015611b015760405162461bcd60e51b815260206004820152602e60248201527f4461696c79206c696d6974203c2073696e676c6520726563656976652074726160448201526d1b9cd858dd1a5bdb881b1a5b5a5d60921b6064820152608401610ddd565b61ffff82166000818152600d60209081526040918290205482519384529083015281018290527f95dc51094cd27cf4ee3fd0dbb50cf96f8df1629c822f5434c4a34d7eb03c97249060600160405180910390a161ffff9091166000908152600d6020526040902055565b60016020526000908152604090208054611b8490615035565b80601f0160208091040260200160405190810160405280929190818152602001828054611bb090615035565b8015611bfd5780601f10611bd257610100808354040283529160200191611bfd565b820191906000526020600020905b815481529060010190602001808311611be057829003601f168201915b505050505081565b60075460ff16611c575760405162461bcd60e51b815260206004820152601760248201527f73656e64416e6443616c6c2069732064697361626c65640000000000000000006044820152606401610ddd565b611c678888888888888888612c94565b5050505050505050565b611c796126d0565b611c8281612d38565b6007546040516001600160a01b0380841692610100900416907f05cd89403c6bdeac21c2ff33de395121a31fa1bc2bf3adf4825f1f86e79969dd90600090a3600780546001600160a01b0390921661010002610100600160a81b0319909216919091179055565b611cf16126d0565b61147d612d5f565b611d016126d0565b61ffff83166000908152600560205260408082209051611d229085906151eb565b9081526040805191829003602090810183206001600160401b038616600090815291522091909155611d559083906151eb565b6040805191829003822061ffff861683526001600160401b0384166020840152917f48a980eea4ea1c540209e2f9f32a4c2edf51fab37b1d21f453868301ecb6e2ee910160405180910390a2505050565b60006011547f00000000000000000000000000000000000000000000000000000000000000006001600160a01b03166318160ddd6040518163ffffffff1660e01b8152600401602060405180830381865afa158015611e09573d6000803e3d6000fd5b505050506040513d601f19601f82011682018060405250810190611e2d91906150bf565b611e3791906150ee565b905090565b61ffff8116600090815260016020526040812080546060929190611e5f90615035565b80601f0160208091040260200160405190810160405280929190818152602001828054611e8b90615035565b8015611ed85780601f10611ead57610100808354040283529160200191611ed8565b820191906000526020600020905b815481529060010190602001808311611ebb57829003601f168201915b505050505090508051600003611f305760405162461bcd60e51b815260206004820152601d60248201527f4c7a4170703a206e6f20747275737465642070617468207265636f72640000006044820152606401610ddd565b611466600060148351611f4391906150ee565b839190612d9c565b600080611fc88b8b8b8b8b8080601f01602080910402602001604051908101604052809392919081815260200183838082843760009201919091525050604080516020601f8d018190048102820181019092528b81528e93508d9250908c908c9081908401838280828437600092019190915250612ea992505050565b91509150995099975050505050505050565b611fe26126d0565b818130604051602001611ff793929190615207565b60408051601f1981840301815291815261ffff8516600090815260016020908152919020825161202c9391929091019061467e565b507f8c0400cfe2d1199b1a725c78960bcc2a344d869b80590d0f2bd005db15a572ce83838360405161206093929190615146565b60405180910390a1505050565b6120756126d0565b600480546001600160a01b0319166001600160a01b0383169081179091556040519081527f5db758e995a17ec1ad84bdef7e8c3293a0bd6179bcce400dff5d4c3d87db726b90602001611340565b6120cb6126d0565b6040516332fb62e760e21b81526001600160a01b037f0000000000000000000000000000000000000000000000000000000000000000169063cbed8b9c9061211f908890889088908890889060040161522d565b600060405180830381600087803b15801561213957600080fd5b505af115801561214d573d6000803e3d6000fd5b505050505050505050565b6121606126d0565b61ffff82166000908152600d60205260409020548111156121da5760405162461bcd60e51b815260206004820152602e60248201527f73696e676c652072656365697665207472616e73616374696f6e206c696d697460448201526d080f8811185a5b1e481b1a5b5a5d60921b6064820152608401610ddd565b61ffff82166000818152600c60209081526040918290205482519384529083015281018290527f2c42997a938a029910a78e7c28d762b349c28e70f3a89c1fbccbb1a46020b1599060600160405180910390a161ffff9091166000908152600c6020526040902055565b61ffff86166000908152600160205260408120805461226290615035565b80601f016020809104026020016040519081016040528092919081815260200182805461228e90615035565b80156122db5780601f106122b0576101008083540402835291602001916122db565b820191906000526020600020905b8154815290600101906020018083116122be57829003601f168201915b505050505090508051868690501480156122f6575060008151115b801561231e5750805160208201206040516123149088908890615069565b6040518091039020145b61233a5760405162461bcd60e51b8152600401610ddd90615079565b610f52878787878787612f6b565b6123506126d0565b61ffff83811660008181526002602090815260408083209487168084529482529182902085905581519283528201929092529081018290527f9d5c7c0b934da8fefa9c7760c98383778a12dfbfc0c3b3106518f43fb9508ac090606001612060565b3330146124015760405162461bcd60e51b815260206004820152601f60248201527f4f4654436f72653a2063616c6c6572206d757374206265204f4654436f7265006044820152606401610ddd565b61240c30868661288e565b9350846001600160a01b03168a61ffff167fbf551ec93859b170f9b2141bd9298bf3f64322c6f7beb2543a0cb669834118bf8660405161244e91815260200190565b60405180910390a3604051633fe79aed60e11b81526001600160a01b03861690637fcf35da908390612492908e908e908e908e908e908d908d908d9060040161525b565b600060405180830381600088803b1580156124ac57600080fd5b5087f11580156124c0573d6000803e3d6000fd5b505050505050505050505050505050565b6124d96126d0565b61ffff831660009081526001602052604090206124f7908383614702565b507ffa41487ad5d6728f0b19276fa1eddc16558578f5109fc39d2dc33c3230470dab83838360405161206093929190615146565b6125336126d0565b6001600160a01b0381166125985760405162461bcd60e51b815260206004820152602660248201527f4f776e61626c653a206e6577206f776e657220697320746865207a65726f206160448201526564647265737360d01b6064820152608401610ddd565b6125a181613181565b50565b604051633d7b2f6f60e21b815261ffff808616600483015284166024820152306044820152606481018290526060907f00000000000000000000000000000000000000000000000000000000000000006001600160a01b03169063f5ecbdbc90608401600060405180830381865afa158015612624573d6000803e3d6000fd5b505050506040513d6000823e601f3d908101601f1916820160405261264c91908101906152b6565b90505b949350505050565b6000806126ba5a60966366ad5c8a60e01b8989898960405160240161267f9493929190615323565b60408051601f198184030181529190526020810180516001600160e01b03166001600160e01b031990931692909217909152309291906131da565b9150915081611a0c57611a0c8686868685613264565b6000546001600160a01b0361010090910416331461147d5760405162461bcd60e51b815260206004820181905260248201527f4f776e61626c653a2063616c6c6572206973206e6f7420746865206f776e65726044820152606401610ddd565b60008061273d8484613301565b905061264f81613332565b60008060006127968761275a8861334a565b6040805160006020820152602181019390935260c09190911b6001600160c01b0319166041830152805160298184030181526049909201905290565b60405163040a7bb160e41b81529091506001600160a01b037f000000000000000000000000000000000000000000000000000000000000000016906340a7bb10906127ed908b90309086908b908b90600401615361565b6040805180830381865afa158015612809573d6000803e3d6000fd5b505050506040513d601f19601f8201168201806040525081019061282d91906153b5565b92509250509550959350505050565b6128446133d0565b6000805460ff191690557f5db9ee0a495bf2e6ff9c91a7834c1ba4fdd244a5e8aa4e537bd38aeae4b073aa335b6040516001600160a01b03909116815260200160405180910390a1565b6000612898613419565b6040516370a0823160e01b81526001600160a01b0384811660048301526000917f0000000000000000000000000000000000000000000000000000000000000000909116906370a0823190602401602060405180830381865afa158015612903573d6000803e3d6000fd5b505050506040513d601f19601f8201168201806040525081019061292791906150bf565b9050306001600160a01b038616036129725761296d6001600160a01b037f0000000000000000000000000000000000000000000000000000000000000000168585612abd565b6129a7565b6129a76001600160a01b037f00000000000000000000000000000000000000000000000000000000000000001686868661345f565b6040516370a0823160e01b81526001600160a01b03858116600483015282917f0000000000000000000000000000000000000000000000000000000000000000909116906370a0823190602401602060405180830381865afa158015612a11573d6000803e3d6000fd5b505050506040513d601f19601f82011682018060405250810190612a3591906150bf565b612a3f91906150ee565b95945050505050565b600080612a757f0000000000000000000000000000000000000000000000000000000000000000846153ef565b9050612a8181846150ee565b9150915091565b6000610f8c7f00000000000000000000000000000000000000000000000000000000000000006001600160401b038416615403565b6040516001600160a01b038316602482015260448101829052612b2090849063a9059cbb60e01b906064015b60408051601f198184030181529190526020810180516001600160e01b03166001600160e01b031990931692909217909152613497565b505050565b6000612b31828261356c565b905060ff8116612b4c57612b47858585856135c8565b611014565b60001960ff821601612b6457612b4785858585613658565b60405162461bcd60e51b815260206004820152601c60248201527f4f4654436f72653a20756e6b6e6f776e207061636b65742074797065000000006044820152606401610ddd565b6000612bba87828481613866565b612bc385612a48565b509050612bd28888888461393b565b905060008111612c205760405162461bcd60e51b815260206004820152601960248201527813d19510dbdc994e88185b5bdd5b9d081d1bdbc81cdb585b1b603a1b6044820152606401610ddd565b6000612c2f8761275a8461334a565b9050612c3f888287878734613a1a565b86896001600160a01b03168961ffff167fd81fc9b8523134ed613870ed029d6170cbb73aa6a6bc311b9a642689fb9df59a85604051612c8091815260200190565b60405180910390a450979650505050505050565b61214d8888888888888080601f0160208091040260200160405190810160405280939291908181526020018383808284376000920191909152508a9250612ce19150506020890189614d87565b612cf160408a0160208b01614d87565b612cfe60408b018b6151a5565b8080601f016020809104026020016040519081016040528093929190818152602001838380828437600092019190915250613bbf92505050565b6001600160a01b0381166125a1576040516342bcdf7f60e11b815260040160405180910390fd5b612d67613419565b6000805460ff191660011790557f62e78cea01bee320cd4e420270b5ea74000d11b0c9f74754ebdbfc544b05a2586128713390565b606081612daa81601f615105565b1015612de95760405162461bcd60e51b815260206004820152600e60248201526d736c6963655f6f766572666c6f7760901b6044820152606401610ddd565b612df38284615105565b84511015612e375760405162461bcd60e51b8152602060048201526011602482015270736c6963655f6f75744f66426f756e647360781b6044820152606401610ddd565b606082158015612e565760405191506000825260208201604052612ea0565b6040519150601f8416801560200281840101858101878315602002848b0101015b81831015612e8f578051835260209283019201612e77565b5050858452601f01601f1916604052505b50949350505050565b6000806000612ec3338a612ebc8b61334a565b8a8a613cb4565b60405163040a7bb160e41b81529091506001600160a01b037f000000000000000000000000000000000000000000000000000000000000000016906340a7bb1090612f1a908d90309086908b908b90600401615361565b6040805180830381865afa158015612f36573d6000803e3d6000fd5b505050506040513d601f19601f82011682018060405250810190612f5a91906153b5565b925092505097509795505050505050565b61ffff86166000908152600560205260408082209051612f8e9088908890615069565b90815260408051602092819003830190206001600160401b0387166000908152925290205490508061300e5760405162461bcd60e51b815260206004820152602360248201527f4e6f6e626c6f636b696e674c7a4170703a206e6f2073746f726564206d65737360448201526261676560e81b6064820152608401610ddd565b80838360405161301f929190615069565b60405180910390201461307e5760405162461bcd60e51b815260206004820152602160248201527f4e6f6e626c6f636b696e674c7a4170703a20696e76616c6964207061796c6f616044820152601960fa1b6064820152608401610ddd565b61ffff871660009081526005602052604080822090516130a19089908990615069565b90815260408051602092819003830181206001600160401b038916600090815290845282902093909355601f88018290048202830182019052868252613139918991899089908190840183828082843760009201919091525050604080516020601f8a018190048102820181019092528881528a935091508890889081908401838280828437600092019190915250612b2592505050565b7fc264d91f3adc5588250e1551f547752ca0cfa8f6b530d243b9f9f4cab10ea8e58787878785604051613170959493929190615422565b60405180910390a150505050505050565b600080546001600160a01b03838116610100818102610100600160a81b0319851617855560405193049190911692909183917f8be0079c531659141344cd1fd0a4f28419497f9722a3daafe3b4186f6b6457e091a35050565b6000606060008060008661ffff166001600160401b038111156131ff576131ff614a91565b6040519080825280601f01601f191660200182016040528015613229576020820181803683370190505b50905060008087516020890160008d8df191503d92508683111561324b578692505b828152826000602083013e909890975095505050505050565b8180519060200120600560008761ffff1661ffff1681526020019081526020016000208560405161329591906151eb565b9081526040805191829003602090810183206001600160401b0388166000908152915220919091557fe183f33de2837795525b4792ca4cd60535bd77c53b7e7030060bfcf5734d6b0c906132f2908790879087908790879061545d565b60405180910390a15050505050565b6040805160208101909152600081526040518060200160405280613329856000015185613cf5565b90529392505050565b8051600090610f8c90670de0b6b3a7640000906154af565b6000806133777f0000000000000000000000000000000000000000000000000000000000000000846154af565b90506001600160401b03811115610f8c5760405162461bcd60e51b815260206004820152601a60248201527f4f4654436f72653a20616d6f756e745344206f766572666c6f770000000000006044820152606401610ddd565b60005460ff1661147d5760405162461bcd60e51b815260206004820152601460248201527314185d5cd8589b194e881b9bdd081c185d5cd95960621b6044820152606401610ddd565b60005460ff161561147d5760405162461bcd60e51b815260206004820152601060248201526f14185d5cd8589b194e881c185d5cd95960821b6044820152606401610ddd565b6040516001600160a01b03808516602483015283166044820152606481018290526119329085906323b872dd60e01b90608401612ae9565b60006134ec826040518060400160405280602081526020017f5361666545524332303a206c6f772d6c6576656c2063616c6c206661696c6564815250856001600160a01b0316613d019092919063ffffffff16565b905080516000148061350d57508080602001905181019061350d91906154c3565b612b205760405162461bcd60e51b815260206004820152602a60248201527f5361666545524332303a204552433230206f7065726174696f6e20646964206e6044820152691bdd081cdd58d8d9595960b21b6064820152608401610ddd565b6000613579826001615105565b835110156135bf5760405162461bcd60e51b8152602060048201526013602482015272746f55696e74385f6f75744f66426f756e647360681b6044820152606401610ddd565b50016001015190565b6000806135d483613d10565b90925090506001600160a01b0382166135ed5761dead91505b60006135f882612a88565b9050613605878483613d95565b9050826001600160a01b03168761ffff167fbf551ec93859b170f9b2141bd9298bf3f64322c6f7beb2543a0cb669834118bf8360405161364791815260200190565b60405180910390a350505050505050565b600080600080600061366986613de3565b945094509450945094506000600660008b61ffff1661ffff1681526020019081526020016000208960405161369e91906151eb565b90815260408051602092819003830190206001600160401b038b166000908152925281205460ff1691506136d185612a88565b90508161373f576136e38b3083613d95565b61ffff8c1660009081526006602052604090819020905191925060019161370b908d906151eb565b90815260408051602092819003830190206001600160401b038d16600090815292529020805460ff19169115159190911790555b6001600160a01b0386163b613796576040516001600160a01b03871681527f9aedf5fdba8716db3b6705ca00150643309995d4f818a249ed6dde6677e7792d9060200160405180910390a150505050505050611932565b8a8a8a8a8a8a868a60008a6137b4578b6001600160401b03166137b6565b5a5b90506000806137e85a609663eaffd49a60e01b8e8e8e8d8d8d8d8d60405160240161267f9897969594939291906154e0565b915091508115613841578751602089012060405161ffff8d16907fb8890edbfc1c74692f527444645f95489c3703cc2df42e4a366f5d06fa6cd88490613833908e908e908690615554565b60405180910390a25061384e565b61384e8b8b8b8b85613264565b50505050505050505050505050505050505050505050565b600061387183613e9a565b61ffff808716600090815260026020908152604080832093891683529290522054909150806138e25760405162461bcd60e51b815260206004820152601a60248201527f4c7a4170703a206d696e4761734c696d6974206e6f74207365740000000000006044820152606401610ddd565b6138ec8382615105565b821015611a0c5760405162461bcd60e51b815260206004820152601b60248201527f4c7a4170703a20676173206c696d697420697320746f6f206c6f7700000000006044820152606401610ddd565b6000613945613419565b6001600160a01b03851633146139a85760405162461bcd60e51b815260206004820152602260248201527f50726f78794f46543a206f776e6572206973206e6f742073656e642063616c6c60448201526132b960f11b6064820152608401610ddd565b6139b3858584613ef6565b60006139c086308561288e565b905080601160008282546139d49190615105565b90915550600090506139ec6001600160401b03612a88565b9050601154811015613a105760405162461bcd60e51b8152600401610ddd90615164565b5095945050505050565b61ffff861660009081526001602052604081208054613a3890615035565b80601f0160208091040260200160405190810160405280929190818152602001828054613a6490615035565b8015613ab15780601f10613a8657610100808354040283529160200191613ab1565b820191906000526020600020905b815481529060010190602001808311613a9457829003601f168201915b505050505090508051600003613b225760405162461bcd60e51b815260206004820152603060248201527f4c7a4170703a2064657374696e6174696f6e20636861696e206973206e6f742060448201526f61207472757374656420736f7572636560801b6064820152608401610ddd565b613b2d878751614118565b60405162c5803160e81b81526001600160a01b037f0000000000000000000000000000000000000000000000000000000000000000169063c5803100908490613b84908b9086908c908c908c908c90600401615582565b6000604051808303818588803b158015613b9d57600080fd5b505af1158015613bb1573d6000803e3d6000fd5b505050505050505050505050565b6000613bd7896001846001600160401b038916613866565b613be087612a48565b509050613bef8a8a8a8461393b565b905060008111613c3d5760405162461bcd60e51b815260206004820152601960248201527813d19510dbdc994e88185b5bdd5b9d081d1bdbc81cdb585b1b603a1b6044820152606401610ddd565b6000613c4d338a612ebc8561334a565b9050613c5d8a8287878734613a1a565b888b6001600160a01b03168b61ffff167fd81fc9b8523134ed613870ed029d6170cbb73aa6a6bc311b9a642689fb9df59a85604051613c9e91815260200190565b60405180910390a4509998505050505050505050565b6060600185856001600160a01b0389168587604051602001613cdb969594939291906155e9565b604051602081830303815290604052905095945050505050565b60006114668284615403565b606061264f8484600085614189565b60008080613d1e848261356c565b60ff16148015613d2f575082516029145b613d765760405162461bcd60e51b815260206004820152601860248201527713d19510dbdc994e881a5b9d985b1a59081c185e5b1bd85960421b6044820152606401610ddd565b613d8183600d614264565b9150613d8e8360216142c9565b9050915091565b6000613d9f613419565b613daa838584614326565b8160116000828254613dbc91906150ee565b9091555050306001600160a01b03841603613dd8575080611466565b61264f30848461288e565b600080806060816001613df6878361356c565b60ff1614613e415760405162461bcd60e51b815260206004820152601860248201527713d19510dbdc994e881a5b9d985b1a59081c185e5b1bd85960421b6044820152606401610ddd565b613e4c86600d614264565b9350613e598660216142c9565b9250613e66866029614548565b9450613e738660496142c9565b9050613e8f6051808851613e8791906150ee565b889190612d9c565b915091939590929450565b6000602282511015613eee5760405162461bcd60e51b815260206004820152601c60248201527f4c7a4170703a20696e76616c69642061646170746572506172616d73000000006044820152606401610ddd565b506022015190565b6001600160a01b03831660009081526010602052604090205460ff168015613f1e5750505050565b60408051602081019091526007546000918291819061010090046001600160a01b03166341976e097f00000000000000000000000000000000000000000000000000000000000000006040516001600160e01b031960e084901b1681526001600160a01b039091166004820152602401602060405180830381865afa158015613fab573d6000803e3d6000fd5b505050506040513d601f19601f82011682018060405250810190613fcf91906150bf565b90529050613fdd8185612730565b61ffff86166000908152600b6020908152604080832054600a8352818420546008845282852054600990945291909320549395504293909190818711156140665760405162461bcd60e51b815260206004820152601f60248201527f53696e676c65205472616e73616374696f6e204c696d697420457863656564006044820152606401610ddd565b6201518061407485876150ee565b11156140985761ffff8a166000908152600b602052604090208590558692506140a5565b6140a28784615105565b92505b808311156140f55760405162461bcd60e51b815260206004820152601e60248201527f4461696c79205472616e73616374696f6e204c696d69742045786365656400006044820152606401610ddd565b505061ffff9097166000908152600a602052604090209690965550505050505050565b61ffff82166000908152600360205260408120549081900361413957506127105b80821115612b205760405162461bcd60e51b815260206004820181905260248201527f4c7a4170703a207061796c6f61642073697a6520697320746f6f206c617267656044820152606401610ddd565b6060824710156141ea5760405162461bcd60e51b815260206004820152602660248201527f416464726573733a20696e73756666696369656e742062616c616e636520666f6044820152651c8818d85b1b60d21b6064820152608401610ddd565b600080866001600160a01b0316858760405161420691906151eb565b60006040518083038185875af1925050503d8060008114614243576040519150601f19603f3d011682016040523d82523d6000602084013e614248565b606091505b5091509150614259878383876145a6565b979650505050505050565b6000614271826014615105565b835110156142b95760405162461bcd60e51b8152602060048201526015602482015274746f416464726573735f6f75744f66426f756e647360581b6044820152606401610ddd565b500160200151600160601b900490565b60006142d6826008615105565b8351101561431d5760405162461bcd60e51b8152602060048201526014602482015273746f55696e7436345f6f75744f66426f756e647360601b6044820152606401610ddd565b50016008015190565b6001600160a01b03831660009081526010602052604090205460ff16801561434e5750505050565b60408051602081019091526007546000918291819061010090046001600160a01b03166341976e097f00000000000000000000000000000000000000000000000000000000000000006040516001600160e01b031960e084901b1681526001600160a01b039091166004820152602401602060405180830381865afa1580156143db573d6000803e3d6000fd5b505050506040513d601f19601f820116820180604052508101906143ff91906150bf565b9052905061440d8185612730565b61ffff86166000908152600f6020908152604080832054600e835281842054600c845282852054600d90945291909320549395504293909190818711156144965760405162461bcd60e51b815260206004820152601f60248201527f53696e676c65205472616e73616374696f6e204c696d697420457863656564006044820152606401610ddd565b620151806144a485876150ee565b11156144c85761ffff8a166000908152600f602052604090208590558692506144d5565b6144d28784615105565b92505b808311156145255760405162461bcd60e51b815260206004820152601e60248201527f4461696c79205472616e73616374696f6e204c696d69742045786365656400006044820152606401610ddd565b505061ffff9097166000908152600e602052604090209690965550505050505050565b6000614555826020615105565b8351101561459d5760405162461bcd60e51b8152602060048201526015602482015274746f427974657333325f6f75744f66426f756e647360581b6044820152606401610ddd565b50016020015190565b6060831561461557825160000361460e576001600160a01b0385163b61460e5760405162461bcd60e51b815260206004820152601d60248201527f416464726573733a2063616c6c20746f206e6f6e2d636f6e74726163740000006044820152606401610ddd565b508161264f565b61264f838381511561462a5781518083602001fd5b8060405162461bcd60e51b8152600401610ddd9190614cc2565b50805461465090615035565b6000825580601f10614660575050565b601f0160209004906000526020600020908101906125a19190614776565b82805461468a90615035565b90600052602060002090601f0160209004810192826146ac57600085556146f2565b82601f106146c557805160ff19168380011785556146f2565b828001600101855582156146f2579182015b828111156146f25782518255916020019190600101906146d7565b506146fe929150614776565b5090565b82805461470e90615035565b90600052602060002090601f01602090048101928261473057600085556146f2565b82601f106147495782800160ff198235161785556146f2565b828001600101855582156146f2579182015b828111156146f257823582559160200191906001019061475b565b5b808211156146fe5760008155600101614777565b803561ffff8116811461479d57600080fd5b919050565b60008083601f8401126147b457600080fd5b5081356001600160401b038111156147cb57600080fd5b6020830191508360208285010111156147e357600080fd5b9250929050565b80356001600160401b038116811461479d57600080fd5b6000806000806000806080878903121561481a57600080fd5b6148238761478b565b955060208701356001600160401b038082111561483f57600080fd5b61484b8a838b016147a2565b909750955085915061485f60408a016147ea565b9450606089013591508082111561487557600080fd5b5061488289828a016147a2565b979a9699509497509295939492505050565b6000602082840312156148a657600080fd5b81356001600160e01b03198116811461146657600080fd5b6000602082840312156148d057600080fd5b6114668261478b565b600080604083850312156148ec57600080fd5b6148f58361478b565b946020939093013593505050565b6001600160a01b03811681146125a157600080fd5b60008060006060848603121561492d57600080fd5b833561493881614903565b92506149466020850161478b565b9150604084013590509250925092565b80151581146125a157600080fd5b60008060008060008060a0878903121561497d57600080fd5b6149868761478b565b9550602087013594506040870135935060608701356149a481614956565b925060808701356001600160401b038111156149bf57600080fd5b61488289828a016147a2565b6000806000604084860312156149e057600080fd5b6149e98461478b565b925060208401356001600160401b03811115614a0457600080fd5b614a10868287016147a2565b9497909650939450505050565b60008060408385031215614a3057600080fd5b82356148f581614903565b600060208284031215614a4d57600080fd5b813561146681614956565b60008060408385031215614a6b57600080fd5b8235614a7681614903565b91506020830135614a8681614956565b809150509250929050565b634e487b7160e01b600052604160045260246000fd5b604051601f8201601f191681016001600160401b0381118282101715614acf57614acf614a91565b604052919050565b60006001600160401b03821115614af057614af0614a91565b50601f01601f191660200190565b600080600060608486031215614b1357600080fd5b614b1c8461478b565b925060208401356001600160401b03811115614b3757600080fd5b8401601f81018613614b4857600080fd5b8035614b5b614b5682614ad7565b614aa7565b818152876020838501011115614b7057600080fd5b81602084016020830137600060208383010152809450505050614b95604085016147ea565b90509250925092565b600080600060608486031215614bb357600080fd5b8335614bbe81614903565b92506020840135614bce81614903565b929592945050506040919091013590565b600060608284031215614bf157600080fd5b50919050565b600080600080600060a08688031215614c0f57600080fd5b8535614c1a81614903565b9450614c286020870161478b565b9350604086013592506060860135915060808601356001600160401b03811115614c5157600080fd5b614c5d88828901614bdf565b9150509295509295909350565b60005b83811015614c85578181015183820152602001614c6d565b838111156119325750506000910152565b60008151808452614cae816020860160208601614c6a565b601f01601f19169290920160200192915050565b6020815260006114666020830184614c96565b60008060008060008060008060e0898b031215614cf157600080fd5b8835614cfc81614903565b9750614d0a60208a0161478b565b9650604089013595506060890135945060808901356001600160401b0380821115614d3457600080fd5b614d408c838d016147a2565b9096509450849150614d5460a08c016147ea565b935060c08b0135915080821115614d6a57600080fd5b50614d778b828c01614bdf565b9150509295985092959890939650565b600060208284031215614d9957600080fd5b813561146681614903565b60008060408385031215614db757600080fd5b614dc08361478b565b9150614dce6020840161478b565b90509250929050565b600080600080600080600080600060e08a8c031215614df557600080fd5b614dfe8a61478b565b985060208a0135975060408a0135965060608a01356001600160401b0380821115614e2857600080fd5b614e348d838e016147a2565b9098509650869150614e4860808d016147ea565b955060a08c01359150614e5a82614956565b90935060c08b01359080821115614e7057600080fd5b50614e7d8c828d016147a2565b915080935050809150509295985092959850929598565b600080600080600060808688031215614eac57600080fd5b614eb58661478b565b9450614ec36020870161478b565b93506040860135925060608601356001600160401b03811115614ee557600080fd5b614ef1888289016147a2565b969995985093965092949392505050565b600080600060608486031215614f1757600080fd5b6149388461478b565b6000806000806000806000806000806101008b8d031215614f4057600080fd5b614f498b61478b565b995060208b01356001600160401b0380821115614f6557600080fd5b614f718e838f016147a2565b909b509950899150614f8560408e016147ea565b985060608d0135975060808d01359150614f9e82614903565b90955060a08c0135945060c08c01359080821115614fbb57600080fd5b50614fc88d828e016147a2565b9150809450508092505060e08b013590509295989b9194979a5092959850565b60008060008060808587031215614ffe57600080fd5b6150078561478b565b93506150156020860161478b565b9250604085013561502581614903565b9396929550929360600135925050565b600181811c9082168061504957607f821691505b602082108103614bf157634e487b7160e01b600052602260045260246000fd5b8183823760009101908152919050565b60208082526026908201527f4c7a4170703a20696e76616c696420736f757263652073656e64696e6720636f6040820152651b9d1c9858dd60d21b606082015260800190565b6000602082840312156150d157600080fd5b5051919050565b634e487b7160e01b600052601160045260246000fd5b600082821015615100576151006150d8565b500390565b60008219821115615118576151186150d8565b500190565b81835281816020850137506000828201602090810191909152601f909101601f19169091010190565b61ffff8416815260406020820152600061264c60408301848661511d565b60208082526021908201527f50726f78794f46543a206f7574626f756e64416d6f756e74206f766572666c6f6040820152607760f81b606082015260800190565b6000808335601e198436030181126151bc57600080fd5b8301803591506001600160401b038211156151d657600080fd5b6020019150368190038213156147e357600080fd5b600082516151fd818460208701614c6a565b9190910192915050565b8284823760609190911b6bffffffffffffffffffffffff19169101908152601401919050565b600061ffff80881683528087166020840152508460408301526080606083015261425960808301848661511d565b61ffff8916815260c06020820152600061527960c08301898b61511d565b6001600160401b038816604084015286606084015285608084015282810360a08401526152a781858761511d565b9b9a5050505050505050505050565b6000602082840312156152c857600080fd5b81516001600160401b038111156152de57600080fd5b8201601f810184136152ef57600080fd5b80516152fd614b5682614ad7565b81815285602083850101111561531257600080fd5b612a3f826020830160208601614c6a565b61ffff851681526080602082015260006153406080830186614c96565b6001600160401b038516604084015282810360608401526142598185614c96565b61ffff861681526001600160a01b038516602082015260a06040820181905260009061538f90830186614c96565b841515606084015282810360808401526153a98185614c96565b98975050505050505050565b600080604083850312156153c857600080fd5b505080516020909101519092909150565b634e487b7160e01b600052601260045260246000fd5b6000826153fe576153fe6153d9565b500690565b600081600019048311821515161561541d5761541d6150d8565b500290565b61ffff8616815260806020820152600061544060808301868861511d565b6001600160401b0394909416604083015250606001529392505050565b61ffff8616815260a06020820152600061547a60a0830187614c96565b6001600160401b0386166040840152828103606084015261549b8186614c96565b905082810360808401526153a98185614c96565b6000826154be576154be6153d9565b500490565b6000602082840312156154d557600080fd5b815161146681614956565b600061010061ffff8b1683528060208401526154fe8184018b614c96565b6001600160401b038a166040850152606084018990526001600160a01b038816608085015260a0840187905283810360c0850152905061553e8186614c96565b9150508260e08301529998505050505050505050565b6060815260006155676060830186614c96565b6001600160401b039490941660208301525060400152919050565b61ffff8716815260c06020820152600061559f60c0830188614c96565b82810360408401526155b18188614c96565b6001600160a01b0387811660608601528616608085015283810360a085015290506155dc8185614c96565b9998505050505050505050565b60ff60f81b8760f81b16815285600182015260006001600160401b0360c01b808760c01b166021840152856029840152808560c01b166049840152508251615638816051850160208701614c6a565b9190910160510197965050505050505056fea264697066735822122085baa6fcf4a6ee9bccd166f197b2720995558cc495c1fbfb56032abbb88d6cdb64736f6c634300080d0033",
  "devdoc": {
    "author": "Venus",
    "kind": "dev",
    "methods": {
      "circulatingSupply()": {
        "returns": {
          "_0": "Returns difference in total supply and the outbound amount."
        }
      },
      "dropFailedMessage(uint16,bytes,uint64)": {
        "custom:access": "Only owner.",
        "custom:event": "Emits DropFailedMessage on clearance of failed message.",
        "params": {
          "nonce_": "Nonce_ of the transaction",
          "srcAddress_": "Address of source followed by current bridge address",
          "srcChainId_": "Chain id of source"
        }
      },
      "estimateSendFee(uint16,bytes32,uint256,bool,bytes)": {
        "details": "estimate send token `_tokenId` to (`_dstChainId`, `_toAddress`) _dstChainId - L0 defined chain id to send tokens too _toAddress - dynamic bytes array which contains the address to whom you are sending tokens to on the dstChain _amount - amount of the tokens to transfer _useZro - indicates to use zro to pay L0 fees _adapterParam - flexible bytes array to indicate messaging adapter services in L0"
      },
      "fallbackDeposit(address,uint256)": {
        "custom:access": "Only owner.",
        "custom:event": "Emits FallbackDeposit, once done with transfer.",
        "params": {
          "amount_": "The amount of tokens to lock.",
          "depositor_": "Address of the depositor."
        }
      },
      "fallbackWithdraw(address,uint256)": {
        "custom:access": "Only owner.",
        "custom:event": "Emits FallbackWithdraw, once done with transfer.",
        "params": {
          "amount_": "The amount of withdrawal",
          "to_": "The address to withdraw to"
        }
      },
      "isEligibleToSend(address,uint16,uint256)": {
        "details": "This external view function assesses whether the specified sender is eligible to transfer the given amount      to the specified destination chain. It considers factors such as whitelisting, transaction limits, and a 24-hour window.",
        "params": {
          "amount_": "The quantity of tokens to be transferred.",
          "dstChainId_": "Indicates destination chain.",
          "from_": "The sender's address initiating the transfer."
        },
        "returns": {
          "amountInUsd": "The equivalent amount in USD based on the oracle price.",
          "eligibleToSend": "A boolean indicating whether the sender is eligible to transfer the tokens.",
          "isWhiteListedUser": "A boolean indicating whether the sender is whitelisted.",
          "last24HourWindowStart": "The timestamp when the current 24-hour window started.",
          "maxDailyLimit": "The maximum daily limit for transactions.",
          "maxSingleTransactionLimit": "The maximum limit for a single transaction.",
          "transferredInWindow": "The total amount transferred in the current 24-hour window."
        }
      },
      "owner()": {
        "details": "Returns the address of the current owner."
      },
      "pause()": {
        "custom:access": "Only owner."
      },
      "paused()": {
        "details": "Returns true if the contract is paused, and false otherwise."
      },
      "removeTrustedRemote(uint16)": {
        "custom:access": "Only owner.",
        "custom:event": "Emits TrustedRemoteRemoved once chain id is removed from trusted remote.",
        "params": {
          "remoteChainId_": "The chain's id corresponds to setting the trusted remote to empty."
        }
      },
      "sendAndCall(address,uint16,bytes32,uint256,bytes,uint64,(address,address,bytes))": {
        "details": "This internal override function enables the contract to send tokens and invoke calls on the specified      destination chain. It checks whether the sendAndCall feature is enabled before proceeding with the transfer.",
        "params": {
          "amount_": "Amount of tokens that will be transferred.",
          "callparams_": "Additional parameters, including refund address, ZRO payment address,                   and adapter params.",
          "dstChainId_": "Destination chain id on which tokens will be send.",
          "dstGasForCall_": "The amount of gas allocated for the call on the destination chain.",
          "from_": "Address from which tokens will be debited.",
          "payload_": "Additional data payload for the call on the destination chain.",
          "toAddress_": "Address on which tokens will be credited on destination chain."
        }
      },
      "sendFrom(address,uint16,bytes32,uint256,(address,address,bytes))": {
        "details": "send `_amount` amount of token to (`_dstChainId`, `_toAddress`) from `_from` `_from` the owner of token `_dstChainId` the destination chain identifier `_toAddress` can be any size depending on the `dstChainId`. `_amount` the quantity of tokens in wei `_refundAddress` the address LayerZero refunds if too much message fee is sent `_zroPaymentAddress` set to address(0x0) if not paying in ZRO (LayerZero Token) `_adapterParams` is a flexible bytes array to indicate messaging adapter services"
      },
      "setMaxDailyLimit(uint16,uint256)": {
        "custom:access": "Only owner.",
        "custom:event": "Emits setMaxDailyLimit with old and new limit associated with chain id.",
        "params": {
          "chainId_": "Destination chain id.",
          "limit_": "Amount in USD(scaled with 18 decimals)."
        }
      },
      "setMaxDailyReceiveLimit(uint16,uint256)": {
        "custom:access": "Only owner.",
        "custom:event": "Emits setMaxDailyReceiveLimit with old and new limit associated with chain id.",
        "params": {
          "chainId_": "The destination chain ID.",
          "limit_": "The new maximum daily limit in USD(scaled with 18 decimals)."
        }
      },
      "setMaxSingleReceiveTransactionLimit(uint16,uint256)": {
        "custom:access": "Only owner.",
        "custom:event": "Emits setMaxSingleReceiveTransactionLimit with old and new limit associated with chain id.",
        "params": {
          "chainId_": "The destination chain ID.",
          "limit_": "The new maximum limit in USD(scaled with 18 decimals)."
        }
      },
      "setMaxSingleTransactionLimit(uint16,uint256)": {
        "custom:access": "Only owner.",
        "custom:event": "Emits SetMaxSingleTransactionLimit with old and new limit associated with chain id.",
        "params": {
          "chainId_": "Destination chain id.",
          "limit_": "Amount in USD(scaled with 18 decimals)."
        }
      },
      "setOracle(address)": {
        "custom:access": "Only owner.",
        "custom:event": "Emits OracleChanged with old and new oracle address.",
        "details": "Reverts if the new address is zero.",
        "params": {
          "oracleAddress_": "The new address of the ResilientOracle contract."
        }
      },
      "setWhitelist(address,bool)": {
        "custom:access": "Only owner.",
        "custom:event": "Emits setWhitelist.",
        "params": {
          "user_": "Address to be add in whitelist.",
          "val_": "Boolean to be set (true for user_ address is whitelisted)."
        }
      },
      "sweepToken(address,address,uint256)": {
        "custom:access": "Only Owner",
        "custom:error": "Throw InsufficientBalance if amount_ is greater than the available balance of the token in the contract",
        "custom:event": "Emits SweepToken event",
        "params": {
          "amount_": "The amount of tokens needs to transfer",
          "to_": "The address of the recipient",
          "token_": "The address of the ERC-20 token to sweep"
        }
      },
      "token()": {
        "returns": {
          "_0": "Address of the inner token of this bridge."
        }
      },
      "transferOwnership(address)": {
        "details": "Transfers ownership of the contract to a new account (`newOwner`). Can only be called by the current owner."
      },
      "unpause()": {
        "custom:access": "Only owner."
      },
      "updateSendAndCallEnabled(bool)": {
        "params": {
          "enabled_": "Boolean indicating whether the sendAndCall function should be enabled or disabled."
        }
      }
    },
    "title": "XVSProxyOFTSrc",
    "version": 1
  },
  "userdoc": {
    "errors": {
      "InsufficientBalance(uint256,uint256)": [
        {
          "notice": "Error thrown when this contract balance is less than sweep amount"
        }
      ],
      "ZeroAddressNotAllowed()": [
        {
          "notice": "Thrown if the supplied address is a zero address where it is not allowed"
        }
      ]
    },
    "events": {
      "DropFailedMessage(uint16,bytes,uint64)": {
        "notice": "Emits when stored message dropped without successful retrying."
      },
      "FallbackDeposit(address,uint256)": {
        "notice": "Event emitted when tokens are forcefully locked."
      },
      "FallbackWithdraw(address,uint256)": {
        "notice": "Emits when locked token released manually by owner."
      },
      "InnerTokenAdded(address)": {
        "notice": "Event emitted when inner token set successfully."
      },
      "OracleChanged(address,address)": {
        "notice": "Event emitted when oracle is modified."
      },
      "SetMaxDailyLimit(uint16,uint256,uint256)": {
        "notice": "Emitted when the maximum daily limit of transactions from local chain is modified."
      },
      "SetMaxDailyReceiveLimit(uint16,uint256,uint256)": {
        "notice": "Emitted when the maximum daily limit for receiving transactions from remote chain is modified."
      },
      "SetMaxSingleReceiveTransactionLimit(uint16,uint256,uint256)": {
        "notice": "Emitted when the maximum limit for a single receive transaction from remote chain is modified."
      },
      "SetMaxSingleTransactionLimit(uint16,uint256,uint256)": {
        "notice": "Emitted when the maximum limit for a single transaction from local chain is modified."
      },
      "SetWhitelist(address,bool)": {
        "notice": "Emitted when address is added to whitelist."
      },
      "SweepToken(address,address,uint256)": {
        "notice": "Emitted on sweep token success"
      },
      "TrustedRemoteRemoved(uint16)": {
        "notice": "Event emitted when trusted remote sets to empty."
      },
      "UpdateSendAndCallEnabled(bool)": {
        "notice": "Event emitted when SendAndCallEnabled updated successfully."
      }
    },
    "kind": "user",
    "methods": {
      "chainIdToLast24HourReceiveWindowStart(uint16)": {
        "notice": "Timestamp when the last 24-hour window started from remote chain."
      },
      "chainIdToLast24HourReceived(uint16)": {
        "notice": "Total received amount in USD(scaled with 18 decimals) within the last 24-hour window from remote chain."
      },
      "chainIdToLast24HourTransferred(uint16)": {
        "notice": "Total sent amount in USD(scaled with 18 decimals) within the last 24-hour window from local chain."
      },
      "chainIdToLast24HourWindowStart(uint16)": {
        "notice": "Timestamp when the last 24-hour window started from local chain."
      },
      "chainIdToMaxDailyLimit(uint16)": {
        "notice": "Maximum daily limit for transactions in USD(scaled with 18 decimals) from local chain."
      },
      "chainIdToMaxDailyReceiveLimit(uint16)": {
        "notice": "Maximum daily limit for receiving transactions in USD(scaled with 18 decimals) from remote chain."
      },
      "chainIdToMaxSingleReceiveTransactionLimit(uint16)": {
        "notice": "Maximum limit for a single receive transaction in USD(scaled with 18 decimals) from remote chain."
      },
      "chainIdToMaxSingleTransactionLimit(uint16)": {
        "notice": "Maximum limit for a single transaction in USD(scaled with 18 decimals) from local chain."
      },
      "circulatingSupply()": {
        "notice": "Returns the total circulating supply of the token on the source chain i.e (total supply - locked in this contract)."
      },
      "dropFailedMessage(uint16,bytes,uint64)": {
        "notice": "Clear failed messages from the storage."
      },
      "fallbackDeposit(address,uint256)": {
        "notice": "Forces the lock of tokens by increasing outbound amount and transferring tokens from the sender to the contract."
      },
      "fallbackWithdraw(address,uint256)": {
        "notice": "Only call it when there is no way to recover the failed message. `dropFailedMessage` must be called first if transaction is from remote->local chain to avoid double spending."
      },
      "isEligibleToSend(address,uint16,uint256)": {
        "notice": "Checks the eligibility of a sender to initiate a cross-chain token transfer."
      },
      "oracle()": {
        "notice": "The address of ResilientOracle contract wrapped in its interface."
      },
      "outboundAmount()": {
        "notice": "Total amount that is transferred from this chain to other chains."
      },
      "pause()": {
        "notice": "Triggers stopped state of the bridge."
      },
      "removeTrustedRemote(uint16)": {
        "notice": "Remove trusted remote from storage."
      },
      "renounceOwnership()": {
        "notice": "Empty implementation of renounce ownership to avoid any mishappening."
      },
      "sendAndCall(address,uint16,bytes32,uint256,bytes,uint64,(address,address,bytes))": {
        "notice": "Initiates a cross-chain token transfer and triggers a call on the destination chain."
      },
      "setMaxDailyLimit(uint16,uint256)": {
        "notice": "Sets the limit of daily (24 Hour) transactions amount."
      },
      "setMaxDailyReceiveLimit(uint16,uint256)": {
        "notice": "Sets the maximum daily limit for receiving transactions."
      },
      "setMaxSingleReceiveTransactionLimit(uint16,uint256)": {
        "notice": "Sets the maximum limit for a single receive transaction."
      },
      "setMaxSingleTransactionLimit(uint16,uint256)": {
        "notice": "Sets the limit of single transaction amount."
      },
      "setOracle(address)": {
        "notice": "Set the address of the ResilientOracle contract."
      },
      "setWhitelist(address,bool)": {
        "notice": "Sets the whitelist address to skip checks on transaction limit."
      },
      "sweepToken(address,address,uint256)": {
        "notice": "A public function to sweep accidental ERC-20 transfers to this contract. Tokens are sent to user"
      },
      "token()": {
        "notice": "Return's the address of the inner token of this bridge."
      },
      "unpause()": {
        "notice": "Triggers resume state of the bridge."
      },
      "updateSendAndCallEnabled(bool)": {
        "notice": "It enables or disables sendAndCall functionality for the bridge."
      },
      "whitelist(address)": {
        "notice": "Address on which cap check and bound limit is not applicable."
      }
    },
    "notice": "XVSProxyOFTSrc contract serves as a crucial component for cross-chain token transactions, focusing on the source side of these transactions. It monitors the total amount transferred to other chains, ensuring it complies with defined limits, and provides functions for transferring tokens while maintaining control over the circulating supply on the source chain.",
    "version": 1
  },
  "storageLayout": {
    "storage": [
      {
        "astId": 2868,
        "contract": "contracts/Bridge/XVSProxyOFTSrc.sol:XVSProxyOFTSrc",
        "label": "_paused",
        "offset": 0,
        "slot": "0",
        "type": "t_bool"
      },
      {
        "astId": 2745,
        "contract": "contracts/Bridge/XVSProxyOFTSrc.sol:XVSProxyOFTSrc",
        "label": "_owner",
        "offset": 1,
        "slot": "0",
        "type": "t_address"
      },
      {
        "astId": 455,
        "contract": "contracts/Bridge/XVSProxyOFTSrc.sol:XVSProxyOFTSrc",
        "label": "trustedRemoteLookup",
        "offset": 0,
        "slot": "1",
        "type": "t_mapping(t_uint16,t_bytes_storage)"
      },
      {
        "astId": 461,
        "contract": "contracts/Bridge/XVSProxyOFTSrc.sol:XVSProxyOFTSrc",
        "label": "minDstGasLookup",
        "offset": 0,
        "slot": "2",
        "type": "t_mapping(t_uint16,t_mapping(t_uint16,t_uint256))"
      },
      {
        "astId": 465,
        "contract": "contracts/Bridge/XVSProxyOFTSrc.sol:XVSProxyOFTSrc",
        "label": "payloadSizeLimitLookup",
        "offset": 0,
        "slot": "3",
        "type": "t_mapping(t_uint16,t_uint256)"
      },
      {
        "astId": 467,
        "contract": "contracts/Bridge/XVSProxyOFTSrc.sol:XVSProxyOFTSrc",
        "label": "precrime",
        "offset": 0,
        "slot": "4",
        "type": "t_address"
      },
      {
        "astId": 997,
        "contract": "contracts/Bridge/XVSProxyOFTSrc.sol:XVSProxyOFTSrc",
        "label": "failedMessages",
        "offset": 0,
        "slot": "5",
        "type": "t_mapping(t_uint16,t_mapping(t_bytes_memory_ptr,t_mapping(t_uint64,t_bytes32)))"
      },
      {
        "astId": 1618,
        "contract": "contracts/Bridge/XVSProxyOFTSrc.sol:XVSProxyOFTSrc",
        "label": "creditedPackets",
        "offset": 0,
        "slot": "6",
        "type": "t_mapping(t_uint16,t_mapping(t_bytes_memory_ptr,t_mapping(t_uint64,t_bool)))"
      },
      {
        "astId": 5198,
        "contract": "contracts/Bridge/XVSProxyOFTSrc.sol:XVSProxyOFTSrc",
        "label": "sendAndCallEnabled",
        "offset": 0,
        "slot": "7",
        "type": "t_bool"
      },
      {
        "astId": 5202,
        "contract": "contracts/Bridge/XVSProxyOFTSrc.sol:XVSProxyOFTSrc",
        "label": "oracle",
        "offset": 1,
        "slot": "7",
        "type": "t_contract(ResilientOracleInterface)4523"
      },
      {
        "astId": 5207,
        "contract": "contracts/Bridge/XVSProxyOFTSrc.sol:XVSProxyOFTSrc",
        "label": "chainIdToMaxSingleTransactionLimit",
        "offset": 0,
        "slot": "8",
        "type": "t_mapping(t_uint16,t_uint256)"
      },
      {
        "astId": 5212,
        "contract": "contracts/Bridge/XVSProxyOFTSrc.sol:XVSProxyOFTSrc",
        "label": "chainIdToMaxDailyLimit",
        "offset": 0,
        "slot": "9",
        "type": "t_mapping(t_uint16,t_uint256)"
      },
      {
        "astId": 5217,
        "contract": "contracts/Bridge/XVSProxyOFTSrc.sol:XVSProxyOFTSrc",
        "label": "chainIdToLast24HourTransferred",
        "offset": 0,
        "slot": "10",
        "type": "t_mapping(t_uint16,t_uint256)"
      },
      {
        "astId": 5222,
        "contract": "contracts/Bridge/XVSProxyOFTSrc.sol:XVSProxyOFTSrc",
        "label": "chainIdToLast24HourWindowStart",
        "offset": 0,
        "slot": "11",
        "type": "t_mapping(t_uint16,t_uint256)"
      },
      {
        "astId": 5227,
        "contract": "contracts/Bridge/XVSProxyOFTSrc.sol:XVSProxyOFTSrc",
        "label": "chainIdToMaxSingleReceiveTransactionLimit",
        "offset": 0,
        "slot": "12",
        "type": "t_mapping(t_uint16,t_uint256)"
      },
      {
        "astId": 5232,
        "contract": "contracts/Bridge/XVSProxyOFTSrc.sol:XVSProxyOFTSrc",
        "label": "chainIdToMaxDailyReceiveLimit",
        "offset": 0,
        "slot": "13",
        "type": "t_mapping(t_uint16,t_uint256)"
      },
      {
        "astId": 5237,
        "contract": "contracts/Bridge/XVSProxyOFTSrc.sol:XVSProxyOFTSrc",
        "label": "chainIdToLast24HourReceived",
        "offset": 0,
        "slot": "14",
        "type": "t_mapping(t_uint16,t_uint256)"
      },
      {
        "astId": 5242,
        "contract": "contracts/Bridge/XVSProxyOFTSrc.sol:XVSProxyOFTSrc",
        "label": "chainIdToLast24HourReceiveWindowStart",
        "offset": 0,
        "slot": "15",
        "type": "t_mapping(t_uint16,t_uint256)"
      },
      {
        "astId": 5247,
        "contract": "contracts/Bridge/XVSProxyOFTSrc.sol:XVSProxyOFTSrc",
        "label": "whitelist",
        "offset": 0,
        "slot": "16",
        "type": "t_mapping(t_address,t_bool)"
      },
      {
        "astId": 6246,
        "contract": "contracts/Bridge/XVSProxyOFTSrc.sol:XVSProxyOFTSrc",
        "label": "outboundAmount",
        "offset": 0,
        "slot": "17",
        "type": "t_uint256"
      }
    ],
    "types": {
      "t_address": {
        "encoding": "inplace",
        "label": "address",
        "numberOfBytes": "20"
      },
      "t_bool": {
        "encoding": "inplace",
        "label": "bool",
        "numberOfBytes": "1"
      },
      "t_bytes32": {
        "encoding": "inplace",
        "label": "bytes32",
        "numberOfBytes": "32"
      },
      "t_bytes_memory_ptr": {
        "encoding": "bytes",
        "label": "bytes",
        "numberOfBytes": "32"
      },
      "t_bytes_storage": {
        "encoding": "bytes",
        "label": "bytes",
        "numberOfBytes": "32"
      },
      "t_contract(ResilientOracleInterface)4523": {
        "encoding": "inplace",
        "label": "contract ResilientOracleInterface",
        "numberOfBytes": "20"
      },
      "t_mapping(t_address,t_bool)": {
        "encoding": "mapping",
        "key": "t_address",
        "label": "mapping(address => bool)",
        "numberOfBytes": "32",
        "value": "t_bool"
      },
      "t_mapping(t_bytes_memory_ptr,t_mapping(t_uint64,t_bool))": {
        "encoding": "mapping",
        "key": "t_bytes_memory_ptr",
        "label": "mapping(bytes => mapping(uint64 => bool))",
        "numberOfBytes": "32",
        "value": "t_mapping(t_uint64,t_bool)"
      },
      "t_mapping(t_bytes_memory_ptr,t_mapping(t_uint64,t_bytes32))": {
        "encoding": "mapping",
        "key": "t_bytes_memory_ptr",
        "label": "mapping(bytes => mapping(uint64 => bytes32))",
        "numberOfBytes": "32",
        "value": "t_mapping(t_uint64,t_bytes32)"
      },
      "t_mapping(t_uint16,t_bytes_storage)": {
        "encoding": "mapping",
        "key": "t_uint16",
        "label": "mapping(uint16 => bytes)",
        "numberOfBytes": "32",
        "value": "t_bytes_storage"
      },
      "t_mapping(t_uint16,t_mapping(t_bytes_memory_ptr,t_mapping(t_uint64,t_bool)))": {
        "encoding": "mapping",
        "key": "t_uint16",
        "label": "mapping(uint16 => mapping(bytes => mapping(uint64 => bool)))",
        "numberOfBytes": "32",
        "value": "t_mapping(t_bytes_memory_ptr,t_mapping(t_uint64,t_bool))"
      },
      "t_mapping(t_uint16,t_mapping(t_bytes_memory_ptr,t_mapping(t_uint64,t_bytes32)))": {
        "encoding": "mapping",
        "key": "t_uint16",
        "label": "mapping(uint16 => mapping(bytes => mapping(uint64 => bytes32)))",
        "numberOfBytes": "32",
        "value": "t_mapping(t_bytes_memory_ptr,t_mapping(t_uint64,t_bytes32))"
      },
      "t_mapping(t_uint16,t_mapping(t_uint16,t_uint256))": {
        "encoding": "mapping",
        "key": "t_uint16",
        "label": "mapping(uint16 => mapping(uint16 => uint256))",
        "numberOfBytes": "32",
        "value": "t_mapping(t_uint16,t_uint256)"
      },
      "t_mapping(t_uint16,t_uint256)": {
        "encoding": "mapping",
        "key": "t_uint16",
        "label": "mapping(uint16 => uint256)",
        "numberOfBytes": "32",
        "value": "t_uint256"
      },
      "t_mapping(t_uint64,t_bool)": {
        "encoding": "mapping",
        "key": "t_uint64",
        "label": "mapping(uint64 => bool)",
        "numberOfBytes": "32",
        "value": "t_bool"
      },
      "t_mapping(t_uint64,t_bytes32)": {
        "encoding": "mapping",
        "key": "t_uint64",
        "label": "mapping(uint64 => bytes32)",
        "numberOfBytes": "32",
        "value": "t_bytes32"
      },
      "t_uint16": {
        "encoding": "inplace",
        "label": "uint16",
        "numberOfBytes": "2"
      },
      "t_uint256": {
        "encoding": "inplace",
        "label": "uint256",
        "numberOfBytes": "32"
      },
      "t_uint64": {
        "encoding": "inplace",
        "label": "uint64",
        "numberOfBytes": "8"
      }
    }
  }
}