{
  "address": "0x2280aCD3BE2eE270161a11A6176814C26FD747f9",
  "abi": [
    {
      "inputs": [
        {
          "internalType": "address",
          "name": "tokenAddress_",
          "type": "address"
        },
        {
          "internalType": "uint8",
          "name": "sharedDecimals_",
          "type": "uint8"
        },
        {
          "internalType": "address",
          "name": "lzEndpoint_",
          "type": "address"
        },
        {
          "internalType": "address",
          "name": "oracle_",
          "type": "address"
        },
        {
          "internalType": "bool",
          "name": "isForceMintActive_",
          "type": "bool"
        }
      ],
      "stateMutability": "nonpayable",
      "type": "constructor"
    },
    {
      "inputs": [
        {
          "internalType": "uint256",
          "name": "sweepAmount",
          "type": "uint256"
        },
        {
          "internalType": "uint256",
          "name": "balance",
          "type": "uint256"
        }
      ],
      "name": "InsufficientBalance",
      "type": "error"
    },
    {
      "inputs": [],
      "name": "ZeroAddressNotAllowed",
      "type": "error"
    },
    {
      "anonymous": false,
      "inputs": [
        {
          "indexed": true,
          "internalType": "uint16",
          "name": "_srcChainId",
          "type": "uint16"
        },
        {
          "indexed": false,
          "internalType": "bytes",
          "name": "_srcAddress",
          "type": "bytes"
        },
        {
          "indexed": false,
          "internalType": "uint64",
          "name": "_nonce",
          "type": "uint64"
        },
        {
          "indexed": false,
          "internalType": "bytes32",
          "name": "_hash",
          "type": "bytes32"
        }
      ],
      "name": "CallOFTReceivedSuccess",
      "type": "event"
    },
    {
      "anonymous": false,
      "inputs": [
        {
          "indexed": false,
          "internalType": "uint16",
          "name": "srcChainId",
          "type": "uint16"
        },
        {
          "indexed": true,
          "internalType": "bytes",
          "name": "srcAddress",
          "type": "bytes"
        },
        {
          "indexed": false,
          "internalType": "uint64",
          "name": "nonce",
          "type": "uint64"
        }
      ],
      "name": "DropFailedMessage",
      "type": "event"
    },
    {
      "anonymous": false,
      "inputs": [
        {
          "indexed": false,
          "internalType": "uint16",
          "name": "srcChainId",
          "type": "uint16"
        },
        {
          "indexed": true,
          "internalType": "address",
          "name": "to",
          "type": "address"
        },
        {
          "indexed": false,
          "internalType": "uint256",
          "name": "amount",
          "type": "uint256"
        }
      ],
      "name": "ForceMint",
      "type": "event"
    },
    {
      "anonymous": false,
      "inputs": [
        {
          "indexed": true,
          "internalType": "address",
          "name": "innerToken",
          "type": "address"
        }
      ],
      "name": "InnerTokenAdded",
      "type": "event"
    },
    {
      "anonymous": false,
      "inputs": [
        {
          "indexed": false,
          "internalType": "uint16",
          "name": "_srcChainId",
          "type": "uint16"
        },
        {
          "indexed": false,
          "internalType": "bytes",
          "name": "_srcAddress",
          "type": "bytes"
        },
        {
          "indexed": false,
          "internalType": "uint64",
          "name": "_nonce",
          "type": "uint64"
        },
        {
          "indexed": false,
          "internalType": "bytes",
          "name": "_payload",
          "type": "bytes"
        },
        {
          "indexed": false,
          "internalType": "bytes",
          "name": "_reason",
          "type": "bytes"
        }
      ],
      "name": "MessageFailed",
      "type": "event"
    },
    {
      "anonymous": false,
      "inputs": [
        {
          "indexed": false,
          "internalType": "address",
          "name": "_address",
          "type": "address"
        }
      ],
      "name": "NonContractAddress",
      "type": "event"
    },
    {
      "anonymous": false,
      "inputs": [
        {
          "indexed": true,
          "internalType": "address",
          "name": "oldOracle",
          "type": "address"
        },
        {
          "indexed": true,
          "internalType": "address",
          "name": "newOracle",
          "type": "address"
        }
      ],
      "name": "OracleChanged",
      "type": "event"
    },
    {
      "anonymous": false,
      "inputs": [
        {
          "indexed": true,
          "internalType": "address",
          "name": "previousOwner",
          "type": "address"
        },
        {
          "indexed": true,
          "internalType": "address",
          "name": "newOwner",
          "type": "address"
        }
      ],
      "name": "OwnershipTransferred",
      "type": "event"
    },
    {
      "anonymous": false,
      "inputs": [
        {
          "indexed": false,
          "internalType": "address",
          "name": "account",
          "type": "address"
        }
      ],
      "name": "Paused",
      "type": "event"
    },
    {
      "anonymous": false,
      "inputs": [
        {
          "indexed": true,
          "internalType": "uint16",
          "name": "_srcChainId",
          "type": "uint16"
        },
        {
          "indexed": true,
          "internalType": "address",
          "name": "_to",
          "type": "address"
        },
        {
          "indexed": false,
          "internalType": "uint256",
          "name": "_amount",
          "type": "uint256"
        }
      ],
      "name": "ReceiveFromChain",
      "type": "event"
    },
    {
      "anonymous": false,
      "inputs": [
        {
          "indexed": false,
          "internalType": "uint16",
          "name": "_srcChainId",
          "type": "uint16"
        },
        {
          "indexed": false,
          "internalType": "bytes",
          "name": "_srcAddress",
          "type": "bytes"
        },
        {
          "indexed": false,
          "internalType": "uint64",
          "name": "_nonce",
          "type": "uint64"
        },
        {
          "indexed": false,
          "internalType": "bytes32",
          "name": "_payloadHash",
          "type": "bytes32"
        }
      ],
      "name": "RetryMessageSuccess",
      "type": "event"
    },
    {
      "anonymous": false,
      "inputs": [
        {
          "indexed": true,
          "internalType": "uint16",
          "name": "_dstChainId",
          "type": "uint16"
        },
        {
          "indexed": true,
          "internalType": "address",
          "name": "_from",
          "type": "address"
        },
        {
          "indexed": true,
          "internalType": "bytes32",
          "name": "_toAddress",
          "type": "bytes32"
        },
        {
          "indexed": false,
          "internalType": "uint256",
          "name": "_amount",
          "type": "uint256"
        }
      ],
      "name": "SendToChain",
      "type": "event"
    },
    {
      "anonymous": false,
      "inputs": [
        {
          "indexed": false,
          "internalType": "uint16",
          "name": "chainId",
          "type": "uint16"
        },
        {
          "indexed": false,
          "internalType": "uint256",
          "name": "oldMaxLimit",
          "type": "uint256"
        },
        {
          "indexed": false,
          "internalType": "uint256",
          "name": "newMaxLimit",
          "type": "uint256"
        }
      ],
      "name": "SetMaxDailyLimit",
      "type": "event"
    },
    {
      "anonymous": false,
      "inputs": [
        {
          "indexed": false,
          "internalType": "uint16",
          "name": "chainId",
          "type": "uint16"
        },
        {
          "indexed": false,
          "internalType": "uint256",
          "name": "oldMaxLimit",
          "type": "uint256"
        },
        {
          "indexed": false,
          "internalType": "uint256",
          "name": "newMaxLimit",
          "type": "uint256"
        }
      ],
      "name": "SetMaxDailyReceiveLimit",
      "type": "event"
    },
    {
      "anonymous": false,
      "inputs": [
        {
          "indexed": false,
          "internalType": "uint16",
          "name": "chainId",
          "type": "uint16"
        },
        {
          "indexed": false,
          "internalType": "uint256",
          "name": "oldMaxLimit",
          "type": "uint256"
        },
        {
          "indexed": false,
          "internalType": "uint256",
          "name": "newMaxLimit",
          "type": "uint256"
        }
      ],
      "name": "SetMaxSingleReceiveTransactionLimit",
      "type": "event"
    },
    {
      "anonymous": false,
      "inputs": [
        {
          "indexed": false,
          "internalType": "uint16",
          "name": "chainId",
          "type": "uint16"
        },
        {
          "indexed": false,
          "internalType": "uint256",
          "name": "oldMaxLimit",
          "type": "uint256"
        },
        {
          "indexed": false,
          "internalType": "uint256",
          "name": "newMaxLimit",
          "type": "uint256"
        }
      ],
      "name": "SetMaxSingleTransactionLimit",
      "type": "event"
    },
    {
      "anonymous": false,
      "inputs": [
        {
          "indexed": false,
          "internalType": "uint16",
          "name": "_dstChainId",
          "type": "uint16"
        },
        {
          "indexed": false,
          "internalType": "uint16",
          "name": "_type",
          "type": "uint16"
        },
        {
          "indexed": false,
          "internalType": "uint256",
          "name": "_minDstGas",
          "type": "uint256"
        }
      ],
      "name": "SetMinDstGas",
      "type": "event"
    },
    {
      "anonymous": false,
      "inputs": [
        {
          "indexed": false,
          "internalType": "address",
          "name": "precrime",
          "type": "address"
        }
      ],
      "name": "SetPrecrime",
      "type": "event"
    },
    {
      "anonymous": false,
      "inputs": [
        {
          "indexed": false,
          "internalType": "uint16",
          "name": "_remoteChainId",
          "type": "uint16"
        },
        {
          "indexed": false,
          "internalType": "bytes",
          "name": "_path",
          "type": "bytes"
        }
      ],
      "name": "SetTrustedRemote",
      "type": "event"
    },
    {
      "anonymous": false,
      "inputs": [
        {
          "indexed": false,
          "internalType": "uint16",
          "name": "_remoteChainId",
          "type": "uint16"
        },
        {
          "indexed": false,
          "internalType": "bytes",
          "name": "_remoteAddress",
          "type": "bytes"
        }
      ],
      "name": "SetTrustedRemoteAddress",
      "type": "event"
    },
    {
      "anonymous": false,
      "inputs": [
        {
          "indexed": true,
          "internalType": "address",
          "name": "addr",
          "type": "address"
        },
        {
          "indexed": false,
          "internalType": "bool",
          "name": "isWhitelist",
          "type": "bool"
        }
      ],
      "name": "SetWhitelist",
      "type": "event"
    },
    {
      "anonymous": false,
      "inputs": [
        {
          "indexed": true,
          "internalType": "address",
          "name": "token",
          "type": "address"
        },
        {
          "indexed": true,
          "internalType": "address",
          "name": "to",
          "type": "address"
        },
        {
          "indexed": false,
          "internalType": "uint256",
          "name": "sweepAmount",
          "type": "uint256"
        }
      ],
      "name": "SweepToken",
      "type": "event"
    },
    {
      "anonymous": false,
      "inputs": [
        {
          "indexed": false,
          "internalType": "uint16",
          "name": "chainId",
          "type": "uint16"
        }
      ],
      "name": "TrustedRemoteRemoved",
      "type": "event"
    },
    {
      "anonymous": false,
      "inputs": [
        {
          "indexed": false,
          "internalType": "address",
          "name": "account",
          "type": "address"
        }
      ],
      "name": "Unpaused",
      "type": "event"
    },
    {
      "anonymous": false,
      "inputs": [
        {
          "indexed": true,
          "internalType": "bool",
          "name": "enabled",
          "type": "bool"
        }
      ],
      "name": "UpdateSendAndCallEnabled",
      "type": "event"
    },
    {
      "inputs": [],
      "name": "DEFAULT_PAYLOAD_SIZE_LIMIT",
      "outputs": [
        {
          "internalType": "uint256",
          "name": "",
          "type": "uint256"
        }
      ],
      "stateMutability": "view",
      "type": "function"
    },
    {
      "inputs": [],
      "name": "NO_EXTRA_GAS",
      "outputs": [
        {
          "internalType": "uint256",
          "name": "",
          "type": "uint256"
        }
      ],
      "stateMutability": "view",
      "type": "function"
    },
    {
      "inputs": [],
      "name": "PT_SEND",
      "outputs": [
        {
          "internalType": "uint8",
          "name": "",
          "type": "uint8"
        }
      ],
      "stateMutability": "view",
      "type": "function"
    },
    {
      "inputs": [],
      "name": "PT_SEND_AND_CALL",
      "outputs": [
        {
          "internalType": "uint8",
          "name": "",
          "type": "uint8"
        }
      ],
      "stateMutability": "view",
      "type": "function"
    },
    {
      "inputs": [
        {
          "internalType": "uint16",
          "name": "_srcChainId",
          "type": "uint16"
        },
        {
          "internalType": "bytes",
          "name": "_srcAddress",
          "type": "bytes"
        },
        {
          "internalType": "uint64",
          "name": "_nonce",
          "type": "uint64"
        },
        {
          "internalType": "bytes32",
          "name": "_from",
          "type": "bytes32"
        },
        {
          "internalType": "address",
          "name": "_to",
          "type": "address"
        },
        {
          "internalType": "uint256",
          "name": "_amount",
          "type": "uint256"
        },
        {
          "internalType": "bytes",
          "name": "_payload",
          "type": "bytes"
        },
        {
          "internalType": "uint256",
          "name": "_gasForCall",
          "type": "uint256"
        }
      ],
      "name": "callOnOFTReceived",
      "outputs": [],
      "stateMutability": "nonpayable",
      "type": "function"
    },
    {
      "inputs": [
        {
          "internalType": "uint16",
          "name": "",
          "type": "uint16"
        }
      ],
      "name": "chainIdToLast24HourReceiveWindowStart",
      "outputs": [
        {
          "internalType": "uint256",
          "name": "",
          "type": "uint256"
        }
      ],
      "stateMutability": "view",
      "type": "function"
    },
    {
      "inputs": [
        {
          "internalType": "uint16",
          "name": "",
          "type": "uint16"
        }
      ],
      "name": "chainIdToLast24HourReceived",
      "outputs": [
        {
          "internalType": "uint256",
          "name": "",
          "type": "uint256"
        }
      ],
      "stateMutability": "view",
      "type": "function"
    },
    {
      "inputs": [
        {
          "internalType": "uint16",
          "name": "",
          "type": "uint16"
        }
      ],
      "name": "chainIdToLast24HourTransferred",
      "outputs": [
        {
          "internalType": "uint256",
          "name": "",
          "type": "uint256"
        }
      ],
      "stateMutability": "view",
      "type": "function"
    },
    {
      "inputs": [
        {
          "internalType": "uint16",
          "name": "",
          "type": "uint16"
        }
      ],
      "name": "chainIdToLast24HourWindowStart",
      "outputs": [
        {
          "internalType": "uint256",
          "name": "",
          "type": "uint256"
        }
      ],
      "stateMutability": "view",
      "type": "function"
    },
    {
      "inputs": [
        {
          "internalType": "uint16",
          "name": "",
          "type": "uint16"
        }
      ],
      "name": "chainIdToMaxDailyLimit",
      "outputs": [
        {
          "internalType": "uint256",
          "name": "",
          "type": "uint256"
        }
      ],
      "stateMutability": "view",
      "type": "function"
    },
    {
      "inputs": [
        {
          "internalType": "uint16",
          "name": "",
          "type": "uint16"
        }
      ],
      "name": "chainIdToMaxDailyReceiveLimit",
      "outputs": [
        {
          "internalType": "uint256",
          "name": "",
          "type": "uint256"
        }
      ],
      "stateMutability": "view",
      "type": "function"
    },
    {
      "inputs": [
        {
          "internalType": "uint16",
          "name": "",
          "type": "uint16"
        }
      ],
      "name": "chainIdToMaxSingleReceiveTransactionLimit",
      "outputs": [
        {
          "internalType": "uint256",
          "name": "",
          "type": "uint256"
        }
      ],
      "stateMutability": "view",
      "type": "function"
    },
    {
      "inputs": [
        {
          "internalType": "uint16",
          "name": "",
          "type": "uint16"
        }
      ],
      "name": "chainIdToMaxSingleTransactionLimit",
      "outputs": [
        {
          "internalType": "uint256",
          "name": "",
          "type": "uint256"
        }
      ],
      "stateMutability": "view",
      "type": "function"
    },
    {
      "inputs": [],
      "name": "circulatingSupply",
      "outputs": [
        {
          "internalType": "uint256",
          "name": "",
          "type": "uint256"
        }
      ],
      "stateMutability": "view",
      "type": "function"
    },
    {
      "inputs": [
        {
          "internalType": "uint16",
          "name": "",
          "type": "uint16"
        },
        {
          "internalType": "bytes",
          "name": "",
          "type": "bytes"
        },
        {
          "internalType": "uint64",
          "name": "",
          "type": "uint64"
        }
      ],
      "name": "creditedPackets",
      "outputs": [
        {
          "internalType": "bool",
          "name": "",
          "type": "bool"
        }
      ],
      "stateMutability": "view",
      "type": "function"
    },
    {
      "inputs": [
        {
          "internalType": "uint16",
          "name": "srcChainId_",
          "type": "uint16"
        },
        {
          "internalType": "bytes",
          "name": "srcAddress_",
          "type": "bytes"
        },
        {
          "internalType": "uint64",
          "name": "nonce_",
          "type": "uint64"
        }
      ],
      "name": "dropFailedMessage",
      "outputs": [],
      "stateMutability": "nonpayable",
      "type": "function"
    },
    {
      "inputs": [
        {
          "internalType": "uint16",
          "name": "_dstChainId",
          "type": "uint16"
        },
        {
          "internalType": "bytes32",
          "name": "_toAddress",
          "type": "bytes32"
        },
        {
          "internalType": "uint256",
          "name": "_amount",
          "type": "uint256"
        },
        {
          "internalType": "bytes",
          "name": "_payload",
          "type": "bytes"
        },
        {
          "internalType": "uint64",
          "name": "_dstGasForCall",
          "type": "uint64"
        },
        {
          "internalType": "bool",
          "name": "_useZro",
          "type": "bool"
        },
        {
          "internalType": "bytes",
          "name": "_adapterParams",
          "type": "bytes"
        }
      ],
      "name": "estimateSendAndCallFee",
      "outputs": [
        {
          "internalType": "uint256",
          "name": "nativeFee",
          "type": "uint256"
        },
        {
          "internalType": "uint256",
          "name": "zroFee",
          "type": "uint256"
        }
      ],
      "stateMutability": "view",
      "type": "function"
    },
    {
      "inputs": [
        {
          "internalType": "uint16",
          "name": "_dstChainId",
          "type": "uint16"
        },
        {
          "internalType": "bytes32",
          "name": "_toAddress",
          "type": "bytes32"
        },
        {
          "internalType": "uint256",
          "name": "_amount",
          "type": "uint256"
        },
        {
          "internalType": "bool",
          "name": "_useZro",
          "type": "bool"
        },
        {
          "internalType": "bytes",
          "name": "_adapterParams",
          "type": "bytes"
        }
      ],
      "name": "estimateSendFee",
      "outputs": [
        {
          "internalType": "uint256",
          "name": "nativeFee",
          "type": "uint256"
        },
        {
          "internalType": "uint256",
          "name": "zroFee",
          "type": "uint256"
        }
      ],
      "stateMutability": "view",
      "type": "function"
    },
    {
      "inputs": [
        {
          "internalType": "uint16",
          "name": "",
          "type": "uint16"
        },
        {
          "internalType": "bytes",
          "name": "",
          "type": "bytes"
        },
        {
          "internalType": "uint64",
          "name": "",
          "type": "uint64"
        }
      ],
      "name": "failedMessages",
      "outputs": [
        {
          "internalType": "bytes32",
          "name": "",
          "type": "bytes32"
        }
      ],
      "stateMutability": "view",
      "type": "function"
    },
    {
      "inputs": [
        {
          "internalType": "uint16",
          "name": "srcChainId_",
          "type": "uint16"
        },
        {
          "internalType": "address",
          "name": "to_",
          "type": "address"
        },
        {
          "internalType": "uint256",
          "name": "amount_",
          "type": "uint256"
        }
      ],
      "name": "forceMint",
      "outputs": [],
      "stateMutability": "nonpayable",
      "type": "function"
    },
    {
      "inputs": [
        {
          "internalType": "uint16",
          "name": "_srcChainId",
          "type": "uint16"
        },
        {
          "internalType": "bytes",
          "name": "_srcAddress",
          "type": "bytes"
        }
      ],
      "name": "forceResumeReceive",
      "outputs": [],
      "stateMutability": "nonpayable",
      "type": "function"
    },
    {
      "inputs": [
        {
          "internalType": "uint16",
          "name": "_version",
          "type": "uint16"
        },
        {
          "internalType": "uint16",
          "name": "_chainId",
          "type": "uint16"
        },
        {
          "internalType": "address",
          "name": "",
          "type": "address"
        },
        {
          "internalType": "uint256",
          "name": "_configType",
          "type": "uint256"
        }
      ],
      "name": "getConfig",
      "outputs": [
        {
          "internalType": "bytes",
          "name": "",
          "type": "bytes"
        }
      ],
      "stateMutability": "view",
      "type": "function"
    },
    {
      "inputs": [
        {
          "internalType": "uint16",
          "name": "_remoteChainId",
          "type": "uint16"
        }
      ],
      "name": "getTrustedRemoteAddress",
      "outputs": [
        {
          "internalType": "bytes",
          "name": "",
          "type": "bytes"
        }
      ],
      "stateMutability": "view",
      "type": "function"
    },
    {
      "inputs": [
        {
          "internalType": "address",
          "name": "from_",
          "type": "address"
        },
        {
          "internalType": "uint16",
          "name": "dstChainId_",
          "type": "uint16"
        },
        {
          "internalType": "uint256",
          "name": "amount_",
          "type": "uint256"
        }
      ],
      "name": "isEligibleToSend",
      "outputs": [
        {
          "internalType": "bool",
          "name": "eligibleToSend",
          "type": "bool"
        },
        {
          "internalType": "uint256",
          "name": "maxSingleTransactionLimit",
          "type": "uint256"
        },
        {
          "internalType": "uint256",
          "name": "maxDailyLimit",
          "type": "uint256"
        },
        {
          "internalType": "uint256",
          "name": "amountInUsd",
          "type": "uint256"
        },
        {
          "internalType": "uint256",
          "name": "transferredInWindow",
          "type": "uint256"
        },
        {
          "internalType": "uint256",
          "name": "last24HourWindowStart",
          "type": "uint256"
        },
        {
          "internalType": "bool",
          "name": "isWhiteListedUser",
          "type": "bool"
        }
      ],
      "stateMutability": "view",
      "type": "function"
    },
    {
      "inputs": [],
      "name": "isForceMintActive",
      "outputs": [
        {
          "internalType": "bool",
          "name": "",
          "type": "bool"
        }
      ],
      "stateMutability": "view",
      "type": "function"
    },
    {
      "inputs": [
        {
          "internalType": "uint16",
          "name": "_srcChainId",
          "type": "uint16"
        },
        {
          "internalType": "bytes",
          "name": "_srcAddress",
          "type": "bytes"
        }
      ],
      "name": "isTrustedRemote",
      "outputs": [
        {
          "internalType": "bool",
          "name": "",
          "type": "bool"
        }
      ],
      "stateMutability": "view",
      "type": "function"
    },
    {
      "inputs": [],
      "name": "lzEndpoint",
      "outputs": [
        {
          "internalType": "contract ILayerZeroEndpoint",
          "name": "",
          "type": "address"
        }
      ],
      "stateMutability": "view",
      "type": "function"
    },
    {
      "inputs": [
        {
          "internalType": "uint16",
          "name": "_srcChainId",
          "type": "uint16"
        },
        {
          "internalType": "bytes",
          "name": "_srcAddress",
          "type": "bytes"
        },
        {
          "internalType": "uint64",
          "name": "_nonce",
          "type": "uint64"
        },
        {
          "internalType": "bytes",
          "name": "_payload",
          "type": "bytes"
        }
      ],
      "name": "lzReceive",
      "outputs": [],
      "stateMutability": "nonpayable",
      "type": "function"
    },
    {
      "inputs": [
        {
          "internalType": "uint16",
          "name": "",
          "type": "uint16"
        },
        {
          "internalType": "uint16",
          "name": "",
          "type": "uint16"
        }
      ],
      "name": "minDstGasLookup",
      "outputs": [
        {
          "internalType": "uint256",
          "name": "",
          "type": "uint256"
        }
      ],
      "stateMutability": "view",
      "type": "function"
    },
    {
      "inputs": [
        {
          "internalType": "uint16",
          "name": "_srcChainId",
          "type": "uint16"
        },
        {
          "internalType": "bytes",
          "name": "_srcAddress",
          "type": "bytes"
        },
        {
          "internalType": "uint64",
          "name": "_nonce",
          "type": "uint64"
        },
        {
          "internalType": "bytes",
          "name": "_payload",
          "type": "bytes"
        }
      ],
      "name": "nonblockingLzReceive",
      "outputs": [],
      "stateMutability": "nonpayable",
      "type": "function"
    },
    {
      "inputs": [],
      "name": "oracle",
      "outputs": [
        {
          "internalType": "contract ResilientOracleInterface",
          "name": "",
          "type": "address"
        }
      ],
      "stateMutability": "view",
      "type": "function"
    },
    {
      "inputs": [],
      "name": "owner",
      "outputs": [
        {
          "internalType": "address",
          "name": "",
          "type": "address"
        }
      ],
      "stateMutability": "view",
      "type": "function"
    },
    {
      "inputs": [],
      "name": "pause",
      "outputs": [],
      "stateMutability": "nonpayable",
      "type": "function"
    },
    {
      "inputs": [],
      "name": "paused",
      "outputs": [
        {
          "internalType": "bool",
          "name": "",
          "type": "bool"
        }
      ],
      "stateMutability": "view",
      "type": "function"
    },
    {
      "inputs": [
        {
          "internalType": "uint16",
          "name": "",
          "type": "uint16"
        }
      ],
      "name": "payloadSizeLimitLookup",
      "outputs": [
        {
          "internalType": "uint256",
          "name": "",
          "type": "uint256"
        }
      ],
      "stateMutability": "view",
      "type": "function"
    },
    {
      "inputs": [],
      "name": "precrime",
      "outputs": [
        {
          "internalType": "address",
          "name": "",
          "type": "address"
        }
      ],
      "stateMutability": "view",
      "type": "function"
    },
    {
      "inputs": [
        {
          "internalType": "uint16",
          "name": "remoteChainId_",
          "type": "uint16"
        }
      ],
      "name": "removeTrustedRemote",
      "outputs": [],
      "stateMutability": "nonpayable",
      "type": "function"
    },
    {
      "inputs": [],
      "name": "renounceOwnership",
      "outputs": [],
      "stateMutability": "nonpayable",
      "type": "function"
    },
    {
      "inputs": [
        {
          "internalType": "uint16",
          "name": "_srcChainId",
          "type": "uint16"
        },
        {
          "internalType": "bytes",
          "name": "_srcAddress",
          "type": "bytes"
        },
        {
          "internalType": "uint64",
          "name": "_nonce",
          "type": "uint64"
        },
        {
          "internalType": "bytes",
          "name": "_payload",
          "type": "bytes"
        }
      ],
      "name": "retryMessage",
      "outputs": [],
      "stateMutability": "payable",
      "type": "function"
    },
    {
      "inputs": [
        {
          "internalType": "address",
          "name": "from_",
          "type": "address"
        },
        {
          "internalType": "uint16",
          "name": "dstChainId_",
          "type": "uint16"
        },
        {
          "internalType": "bytes32",
          "name": "toAddress_",
          "type": "bytes32"
        },
        {
          "internalType": "uint256",
          "name": "amount_",
          "type": "uint256"
        },
        {
          "internalType": "bytes",
          "name": "payload_",
          "type": "bytes"
        },
        {
          "internalType": "uint64",
          "name": "dstGasForCall_",
          "type": "uint64"
        },
        {
          "components": [
            {
              "internalType": "address payable",
              "name": "refundAddress",
              "type": "address"
            },
            {
              "internalType": "address",
              "name": "zroPaymentAddress",
              "type": "address"
            },
            {
              "internalType": "bytes",
              "name": "adapterParams",
              "type": "bytes"
            }
          ],
          "internalType": "struct ICommonOFT.LzCallParams",
          "name": "callparams_",
          "type": "tuple"
        }
      ],
      "name": "sendAndCall",
      "outputs": [],
      "stateMutability": "payable",
      "type": "function"
    },
    {
      "inputs": [],
      "name": "sendAndCallEnabled",
      "outputs": [
        {
          "internalType": "bool",
          "name": "",
          "type": "bool"
        }
      ],
      "stateMutability": "view",
      "type": "function"
    },
    {
      "inputs": [
        {
          "internalType": "address",
          "name": "_from",
          "type": "address"
        },
        {
          "internalType": "uint16",
          "name": "_dstChainId",
          "type": "uint16"
        },
        {
          "internalType": "bytes32",
          "name": "_toAddress",
          "type": "bytes32"
        },
        {
          "internalType": "uint256",
          "name": "_amount",
          "type": "uint256"
        },
        {
          "components": [
            {
              "internalType": "address payable",
              "name": "refundAddress",
              "type": "address"
            },
            {
              "internalType": "address",
              "name": "zroPaymentAddress",
              "type": "address"
            },
            {
              "internalType": "bytes",
              "name": "adapterParams",
              "type": "bytes"
            }
          ],
          "internalType": "struct ICommonOFT.LzCallParams",
          "name": "_callParams",
          "type": "tuple"
        }
      ],
      "name": "sendFrom",
      "outputs": [],
      "stateMutability": "payable",
      "type": "function"
    },
    {
      "inputs": [
        {
          "internalType": "uint16",
          "name": "_version",
          "type": "uint16"
        },
        {
          "internalType": "uint16",
          "name": "_chainId",
          "type": "uint16"
        },
        {
          "internalType": "uint256",
          "name": "_configType",
          "type": "uint256"
        },
        {
          "internalType": "bytes",
          "name": "_config",
          "type": "bytes"
        }
      ],
      "name": "setConfig",
      "outputs": [],
      "stateMutability": "nonpayable",
      "type": "function"
    },
    {
      "inputs": [
        {
          "internalType": "uint16",
          "name": "chainId_",
          "type": "uint16"
        },
        {
          "internalType": "uint256",
          "name": "limit_",
          "type": "uint256"
        }
      ],
      "name": "setMaxDailyLimit",
      "outputs": [],
      "stateMutability": "nonpayable",
      "type": "function"
    },
    {
      "inputs": [
        {
          "internalType": "uint16",
          "name": "chainId_",
          "type": "uint16"
        },
        {
          "internalType": "uint256",
          "name": "limit_",
          "type": "uint256"
        }
      ],
      "name": "setMaxDailyReceiveLimit",
      "outputs": [],
      "stateMutability": "nonpayable",
      "type": "function"
    },
    {
      "inputs": [
        {
          "internalType": "uint16",
          "name": "chainId_",
          "type": "uint16"
        },
        {
          "internalType": "uint256",
          "name": "limit_",
          "type": "uint256"
        }
      ],
      "name": "setMaxSingleReceiveTransactionLimit",
      "outputs": [],
      "stateMutability": "nonpayable",
      "type": "function"
    },
    {
      "inputs": [
        {
          "internalType": "uint16",
          "name": "chainId_",
          "type": "uint16"
        },
        {
          "internalType": "uint256",
          "name": "limit_",
          "type": "uint256"
        }
      ],
      "name": "setMaxSingleTransactionLimit",
      "outputs": [],
      "stateMutability": "nonpayable",
      "type": "function"
    },
    {
      "inputs": [
        {
          "internalType": "uint16",
          "name": "_dstChainId",
          "type": "uint16"
        },
        {
          "internalType": "uint16",
          "name": "_packetType",
          "type": "uint16"
        },
        {
          "internalType": "uint256",
          "name": "_minGas",
          "type": "uint256"
        }
      ],
      "name": "setMinDstGas",
      "outputs": [],
      "stateMutability": "nonpayable",
      "type": "function"
    },
    {
      "inputs": [
        {
          "internalType": "address",
          "name": "oracleAddress_",
          "type": "address"
        }
      ],
      "name": "setOracle",
      "outputs": [],
      "stateMutability": "nonpayable",
      "type": "function"
    },
    {
      "inputs": [
        {
          "internalType": "uint16",
          "name": "_dstChainId",
          "type": "uint16"
        },
        {
          "internalType": "uint256",
          "name": "_size",
          "type": "uint256"
        }
      ],
      "name": "setPayloadSizeLimit",
      "outputs": [],
      "stateMutability": "nonpayable",
      "type": "function"
    },
    {
      "inputs": [
        {
          "internalType": "address",
          "name": "_precrime",
          "type": "address"
        }
      ],
      "name": "setPrecrime",
      "outputs": [],
      "stateMutability": "nonpayable",
      "type": "function"
    },
    {
      "inputs": [
        {
          "internalType": "uint16",
          "name": "_version",
          "type": "uint16"
        }
      ],
      "name": "setReceiveVersion",
      "outputs": [],
      "stateMutability": "nonpayable",
      "type": "function"
    },
    {
      "inputs": [
        {
          "internalType": "uint16",
          "name": "_version",
          "type": "uint16"
        }
      ],
      "name": "setSendVersion",
      "outputs": [],
      "stateMutability": "nonpayable",
      "type": "function"
    },
    {
      "inputs": [
        {
          "internalType": "uint16",
          "name": "_remoteChainId",
          "type": "uint16"
        },
        {
          "internalType": "bytes",
          "name": "_path",
          "type": "bytes"
        }
      ],
      "name": "setTrustedRemote",
      "outputs": [],
      "stateMutability": "nonpayable",
      "type": "function"
    },
    {
      "inputs": [
        {
          "internalType": "uint16",
          "name": "_remoteChainId",
          "type": "uint16"
        },
        {
          "internalType": "bytes",
          "name": "_remoteAddress",
          "type": "bytes"
        }
      ],
      "name": "setTrustedRemoteAddress",
      "outputs": [],
      "stateMutability": "nonpayable",
      "type": "function"
    },
    {
      "inputs": [
        {
          "internalType": "address",
          "name": "user_",
          "type": "address"
        },
        {
          "internalType": "bool",
          "name": "val_",
          "type": "bool"
        }
      ],
      "name": "setWhitelist",
      "outputs": [],
      "stateMutability": "nonpayable",
      "type": "function"
    },
    {
      "inputs": [],
      "name": "sharedDecimals",
      "outputs": [
        {
          "internalType": "uint8",
          "name": "",
          "type": "uint8"
        }
      ],
      "stateMutability": "view",
      "type": "function"
    },
    {
      "inputs": [
        {
          "internalType": "bytes4",
          "name": "interfaceId",
          "type": "bytes4"
        }
      ],
      "name": "supportsInterface",
      "outputs": [
        {
          "internalType": "bool",
          "name": "",
          "type": "bool"
        }
      ],
      "stateMutability": "view",
      "type": "function"
    },
    {
      "inputs": [
        {
          "internalType": "contract IERC20",
          "name": "token_",
          "type": "address"
        },
        {
          "internalType": "address",
          "name": "to_",
          "type": "address"
        },
        {
          "internalType": "uint256",
          "name": "amount_",
          "type": "uint256"
        }
      ],
      "name": "sweepToken",
      "outputs": [],
      "stateMutability": "nonpayable",
      "type": "function"
    },
    {
      "inputs": [],
      "name": "token",
      "outputs": [
        {
          "internalType": "address",
          "name": "",
          "type": "address"
        }
      ],
      "stateMutability": "view",
      "type": "function"
    },
    {
      "inputs": [
        {
          "internalType": "address",
          "name": "newOwner",
          "type": "address"
        }
      ],
      "name": "transferOwnership",
      "outputs": [],
      "stateMutability": "nonpayable",
      "type": "function"
    },
    {
      "inputs": [
        {
          "internalType": "uint16",
          "name": "",
          "type": "uint16"
        }
      ],
      "name": "trustedRemoteLookup",
      "outputs": [
        {
          "internalType": "bytes",
          "name": "",
          "type": "bytes"
        }
      ],
      "stateMutability": "view",
      "type": "function"
    },
    {
      "inputs": [],
      "name": "unpause",
      "outputs": [],
      "stateMutability": "nonpayable",
      "type": "function"
    },
    {
      "inputs": [
        {
          "internalType": "bool",
          "name": "enabled_",
          "type": "bool"
        }
      ],
      "name": "updateSendAndCallEnabled",
      "outputs": [],
      "stateMutability": "nonpayable",
      "type": "function"
    },
    {
      "inputs": [
        {
          "internalType": "address",
          "name": "",
          "type": "address"
        }
      ],
      "name": "whitelist",
      "outputs": [
        {
          "internalType": "bool",
          "name": "",
          "type": "bool"
        }
      ],
      "stateMutability": "view",
      "type": "function"
    }
  ],
  "transactionHash": "0x9cca4c2cd5ca1d0e6de45160a2cce02f3eeeb42724631020462e24b6d88b8bdc",
  "args": [
    "0x5fFbE5302BadED40941A403228E6AD03f93752d9",
    8,
    "0x6Fcb97553D41516Cb228ac03FdC8B9a0a9df04A1",
    "0x3cD69251D04A28d887Ac14cbe2E14c52F3D57823",
    true
  ],
  "numDeployments": 1,
  "solcInputHash": "58b43c0fd8f057a2a735a3cb51d46910",
  "bytecode": "0x6101206040523480156200001257600080fd5b5060405162005c8c38038062005c8c83398101604081905262000035916200037b565b6000805460ff19169055848484848282818180806200005433620002c8565b6001600160a01b0316608052505060ff1660a052506200007690508462000321565b620000818262000321565b6200008c8162000321565b6001600160a01b03841660c081905260408051600481526024810182526020810180516001600160e01b031663313ce56760e01b179052905160009283929091620000d89190620003f3565b600060405180830381855afa9150503d806000811462000115576040519150601f19603f3d011682016040523d82523d6000602084013e6200011a565b606091505b509150915081620001815760405162461bcd60e51b815260206004820152602660248201527f50726f78794f46543a206661696c656420746f2067657420746f6b656e20646560448201526563696d616c7360d01b60648201526084015b60405180910390fd5b60008180602001905181019062000199919062000431565b90508060ff168660ff161115620002085760405162461bcd60e51b815260206004820152602c60248201527f50726f78794f46543a20736861726564446563696d616c73206d75737420626560448201526b203c3d20646563696d616c7360a01b606482015260840162000178565b6200021486826200046c565b6200022190600a62000591565b60e0526040516001600160a01b038816907f0b673f021ff9a27bbe58f282908695869e130b3103029190387b83650806c2c390600090a26040516001600160a01b038516906000907f05cd89403c6bdeac21c2ff33de395121a31fa1bc2bf3adf4825f1f86e79969dd908290a3505060078054610100600160a81b0319166101006001600160a01b039490941684021790555093151590935250620005a295505050505050565b600080546001600160a01b03838116610100818102610100600160a81b0319851617855560405193049190911692909183917f8be0079c531659141344cd1fd0a4f28419497f9722a3daafe3b4186f6b6457e091a35050565b6001600160a01b03811662000349576040516342bcdf7f60e11b815260040160405180910390fd5b50565b80516001600160a01b03811681146200036457600080fd5b919050565b805160ff811681146200036457600080fd5b600080600080600060a086880312156200039457600080fd5b6200039f866200034c565b9450620003af6020870162000369565b9350620003bf604087016200034c565b9250620003cf606087016200034c565b915060808601518015158114620003e557600080fd5b809150509295509295909350565b6000825160005b81811015620004165760208186018101518583015201620003fa565b8181111562000426576000828501525b509190910192915050565b6000602082840312156200044457600080fd5b6200044f8262000369565b9392505050565b634e487b7160e01b600052601160045260246000fd5b600060ff821660ff84168082101562000489576200048962000456565b90039392505050565b600181815b80851115620004d3578160001904821115620004b757620004b762000456565b80851615620004c557918102915b93841c939080029062000497565b509250929050565b600082620004ec575060016200058b565b81620004fb575060006200058b565b81600181146200051457600281146200051f576200053f565b60019150506200058b565b60ff84111562000533576200053362000456565b50506001821b6200058b565b5060208310610133831016604e8410600b841016171562000564575081810a6200058b565b62000570838362000492565b806000190482111562000587576200058762000456565b0290505b92915050565b60006200044f60ff841683620004db565b60805160a05160c05160e0516101005161560b620006816000396000818161068f01526116a20152600081816132d301528181613aae0152613fa3015260008181610d0b015281816110d201528181611d070152818161284701528181612f740152818161300001528181613039015281816130820152818161343201528181613b84015261413601526000610928015260008181610b2801528181610d5f01528181610fa60152818161104e01528181611490015281816120390152818161252c0152818161270701528181612ca40152613d12015261560b6000f3fe6080604052600436106103cd5760003560e01c80637adbf973116101fd578063b353aaa711610118578063d708a468116100ab578063eb8d72b71161007a578063eb8d72b714610c9c578063f2fde38b14610cbc578063f5ecbdbc14610cdc578063fc0c546a14610cfc578063fdff235b14610d2f57600080fd5b8063d708a46814610c1a578063df2a5b3b14610c47578063e6a20ae614610c67578063eaffd49a14610c7c57600080fd5b8063cbed8b9c116100e7578063cbed8b9c14610b9a578063cc01e9b614610bba578063cc7015ae14610bda578063d1deba1f14610c0757600080fd5b8063b353aaa714610b16578063baf3292d14610b4a578063c1e9132e14610b6a578063c446183414610b8457600080fd5b80639358928b116101905780639bdb98121161015f5780639bdb981214610a645780639f38369a14610ab6578063a4c51df514610ad6578063a6c3d16514610af657600080fd5b80639358928b146109d257806393a61d6c146109e7578063950c8a7414610a145780639b19251a14610a3457600080fd5b8063857749b0116101cc578063857749b0146109165780638cfd8f5c1461094a5780638da5cb5b1461098257806390436567146109a557600080fd5b80637adbf973146108845780637dc0d1d0146108a45780638456cb59146108e157806384e69c69146108f657600080fd5b80634cec6256116102ed5780635c975abb1161028057806369c1e7b81161024f57806369c1e7b814610818578063715018a6146108385780637533d7881461084457806376203b481461087157600080fd5b80635c975abb146107ad57806364aff9ec146107c557806366ad5c8a146107e5578063695ef6bf1461080557600080fd5b806353489d6c116102bc57806353489d6c146106fe57806353d6fd591461071e5780635655298c1461073e5780635b8c41e61461075e57600080fd5b80634cec6256146106505780634dcac93b1461067d5780634ed2c662146106b15780634f4ba0f4146106d157600080fd5b8063365260b4116103655780633f4ba83a116103345780633f4ba83a146105df57806342d65a8d146105f457806344770515146106145780634c42899a1461062957600080fd5b8063365260b4146105225780633c4ec39b146105575780633d8b38f6146105925780633f1f4fa4146105b257600080fd5b806310ddb137116103a157806310ddb13714610469578063182b4b89146104895780632488eec8146104e25780632dbbec081461050257600080fd5b80621d3567146103d257806301ffc9a7146103f457806307e0db17146104295780630df3748314610449575b600080fd5b3480156103de57600080fd5b506103f26103ed3660046147cd565b610d5c565b005b34801561040057600080fd5b5061041461040f366004614860565b610f4e565b60405190151581526020015b60405180910390f35b34801561043557600080fd5b506103f261044436600461488a565b610f85565b34801561045557600080fd5b506103f26104643660046148a5565b61100e565b34801561047557600080fd5b506103f261048436600461488a565b61102d565b34801561049557600080fd5b506104a96104a43660046148e4565b611085565b6040805197151588526020880196909652948601939093526060850191909152608084015260a0830152151560c082015260e001610420565b3480156104ee57600080fd5b506103f26104fd3660046148a5565b6111fb565b34801561050e57600080fd5b506103f261051d36600461488a565b6112df565b34801561052e57600080fd5b5061054261053d366004614930565b61133e565b60408051928352602083019190915201610420565b34801561056357600080fd5b5061058461057236600461488a565b600d6020526000908152604090205481565b604051908152602001610420565b34801561059e57600080fd5b506104146105ad366004614997565b611393565b3480156105be57600080fd5b506105846105cd36600461488a565b60036020526000908152604090205481565b3480156105eb57600080fd5b506103f261145f565b34801561060057600080fd5b506103f261060f366004614997565b611471565b34801561062057600080fd5b50610584600081565b34801561063557600080fd5b5061063e600081565b60405160ff9091168152602001610420565b34801561065c57600080fd5b5061058461066b36600461488a565b600a6020526000908152604090205481565b34801561068957600080fd5b506104147f000000000000000000000000000000000000000000000000000000000000000081565b3480156106bd57600080fd5b506103f26106cc3660046149e9565b6114f7565b3480156106dd57600080fd5b506105846106ec36600461488a565b60096020526000908152604090205481565b34801561070a57600080fd5b506103f26107193660046148a5565b61153c565b34801561072a57600080fd5b506103f2610739366004614a06565b611620565b34801561074a57600080fd5b506103f2610759366004614a3f565b611698565b34801561076a57600080fd5b50610584610779366004614aeb565b6005602090815260009384526040808520845180860184018051928152908401958401959095209452929052825290205481565b3480156107b957600080fd5b5060005460ff16610414565b3480156107d157600080fd5b506103f26107e0366004614b8b565b611796565b3480156107f157600080fd5b506103f26108003660046147cd565b61189d565b6103f2610813366004614bc3565b611979565b34801561082457600080fd5b506103f26108333660046148a5565b6119e4565b3480156103f257600080fd5b34801561085057600080fd5b5061086461085f36600461488a565b611ad0565b6040516104209190614c8e565b6103f261087f366004614ca1565b611b6a565b34801561089057600080fd5b506103f261089f366004614d53565b611bd6565b3480156108b057600080fd5b506007546108c99061010090046001600160a01b031681565b6040516001600160a01b039091168152602001610420565b3480156108ed57600080fd5b506103f2611c4e565b34801561090257600080fd5b506103f2610911366004614aeb565b611c5e565b34801561092257600080fd5b5061063e7f000000000000000000000000000000000000000000000000000000000000000081565b34801561095657600080fd5b50610584610965366004614d70565b600260209081526000928352604080842090915290825290205481565b34801561098e57600080fd5b5060005461010090046001600160a01b03166108c9565b3480156109b157600080fd5b506105846109c036600461488a565b600c6020526000908152604090205481565b3480156109de57600080fd5b50610584611d03565b3480156109f357600080fd5b50610584610a0236600461488a565b600b6020526000908152604090205481565b348015610a2057600080fd5b506004546108c9906001600160a01b031681565b348015610a4057600080fd5b50610414610a4f366004614d53565b60106020526000908152604090205460ff1681565b348015610a7057600080fd5b50610414610a7f366004614aeb565b6006602090815260009384526040808520845180860184018051928152908401958401959095209452929052825290205460ff1681565b348015610ac257600080fd5b50610864610ad136600461488a565b611d8c565b348015610ae257600080fd5b50610542610af1366004614da3565b611ea2565b348015610b0257600080fd5b506103f2610b11366004614997565b611f31565b348015610b2257600080fd5b506108c97f000000000000000000000000000000000000000000000000000000000000000081565b348015610b5657600080fd5b506103f2610b65366004614d53565b611fc4565b348015610b7657600080fd5b506007546104149060ff1681565b348015610b9057600080fd5b5061058461271081565b348015610ba657600080fd5b506103f2610bb5366004614e60565b61201a565b348015610bc657600080fd5b506103f2610bd53660046148a5565b6120af565b348015610be657600080fd5b50610584610bf536600461488a565b60086020526000908152604090205481565b6103f2610c153660046147cd565b61219b565b348015610c2657600080fd5b50610584610c3536600461488a565b600e6020526000908152604090205481565b348015610c5357600080fd5b506103f2610c62366004614ece565b61229f565b348015610c7357600080fd5b5061063e600181565b348015610c8857600080fd5b506103f2610c97366004614eec565b612309565b348015610ca857600080fd5b506103f2610cb7366004614997565b612428565b348015610cc857600080fd5b506103f2610cd7366004614d53565b612482565b348015610ce857600080fd5b50610864610cf7366004614fb4565b6124fb565b348015610d0857600080fd5b507f00000000000000000000000000000000000000000000000000000000000000006108c9565b348015610d3b57600080fd5b50610584610d4a36600461488a565b600f6020526000908152604090205481565b337f00000000000000000000000000000000000000000000000000000000000000006001600160a01b031614610dd95760405162461bcd60e51b815260206004820152601e60248201527f4c7a4170703a20696e76616c696420656e64706f696e742063616c6c6572000060448201526064015b60405180910390fd5b61ffff861660009081526001602052604081208054610df790615001565b80601f0160208091040260200160405190810160405280929190818152602001828054610e2390615001565b8015610e705780601f10610e4557610100808354040283529160200191610e70565b820191906000526020600020905b815481529060010190602001808311610e5357829003601f168201915b50505050509050805186869050148015610e8b575060008151115b8015610eb3575080516020820120604051610ea99088908890615035565b6040518091039020145b610ecf5760405162461bcd60e51b8152600401610dd090615045565b610f458787878080601f01602080910402602001604051908101604052809392919081815260200183838082843760009201919091525050604080516020601f8a018190048102820181019092528881528a9350915088908890819084018382808284376000920191909152506125ae92505050565b50505050505050565b60006001600160e01b03198216631f7ecdf760e01b1480610f7f57506301ffc9a760e01b6001600160e01b03198316145b92915050565b610f8d612627565b6040516307e0db1760e01b815261ffff821660048201527f00000000000000000000000000000000000000000000000000000000000000006001600160a01b0316906307e0db17906024015b600060405180830381600087803b158015610ff357600080fd5b505af1158015611007573d6000803e3d6000fd5b5050505050565b611016612627565b61ffff909116600090815260036020526040902055565b611035612627565b6040516310ddb13760e01b815261ffff821660048201527f00000000000000000000000000000000000000000000000000000000000000006001600160a01b0316906310ddb13790602401610fd9565b6001600160a01b03838116600090815260106020908152604080832054815192830190915260075492938493849384938493849360ff909216928492909182916101009004166341976e097f00000000000000000000000000000000000000000000000000000000000000006040516001600160e01b031960e084901b1681526001600160a01b039091166004820152602401602060405180830381865afa158015611135573d6000803e3d6000fd5b505050506040513d601f19601f82011682018060405250810190611159919061508b565b90529050611167818a612687565b61ffff8b166000908152600b6020908152604080832054600a835281842054600884528285205460099094529190932054919a50909850919650909450925042620151806111b585836150ba565b11156111c6578594508093506111d3565b6111d086866150d1565b94505b82806111ea57508786111580156111ea5750868511155b985050509397509397509397909450565b611203612627565b61ffff82166000908152600860205260409020548110156112755760405162461bcd60e51b815260206004820152602660248201527f4461696c79206c696d6974203c2073696e676c65207472616e73616374696f6e604482015265081b1a5b5a5d60d21b6064820152608401610dd0565b61ffff82166000818152600960209081526040918290205482519384529083015281018290527f4dd31065e259d5284e44d1f9265710da72eafcf78dc925e3881189fc3b71f6939060600160405180910390a161ffff909116600090815260096020526040902055565b6112e7612627565b61ffff8116600090815260016020526040812061130391614610565b60405161ffff821681527f6d5075c81d4d9e75bec6052f4e44f58f8a8cf1327544addbbf015fb06f83bd37906020015b60405180910390a150565b6000806113848888888888888080601f01602080910402602001604051908101604052809392919081815260200183838082843760009201919091525061269f92505050565b91509150965096945050505050565b61ffff8316600090815260016020526040812080548291906113b490615001565b80601f01602080910402602001604051908101604052809291908181526020018280546113e090615001565b801561142d5780601f106114025761010080835404028352916020019161142d565b820191906000526020600020905b81548152906001019060200180831161141057829003601f168201915b505050505090508383604051611444929190615035565b60405180910390208180519060200120149150509392505050565b611467612627565b61146f612793565b565b611479612627565b6040516342d65a8d60e01b81526001600160a01b037f000000000000000000000000000000000000000000000000000000000000000016906342d65a8d906114c990869086908690600401615112565b600060405180830381600087803b1580156114e357600080fd5b505af1158015610f45573d6000803e3d6000fd5b6114ff612627565b6007805460ff19168215159081179091556040517fe628f01c6f4e6340598d3a2913390db68e8859379eebff349e170f2b16baed0090600090a250565b611544612627565b61ffff82166000908152600960205260409020548111156115b65760405162461bcd60e51b815260206004820152602660248201527f53696e676c65207472616e73616374696f6e206c696d6974203e204461696c79604482015265081b1a5b5a5d60d21b6064820152608401610dd0565b61ffff82166000818152600860209081526040918290205482519384529083015281018290527f7babeac42ccbb33537ee421fedc4db7b5f251b5d2a3fa5c0ff4b35b2d783be879060600160405180910390a161ffff909116600090815260086020526040902055565b611628612627565b816001600160a01b03167ff6019ec0a78d156d249a1ec7579e2321f6ac7521d6e1d2eacf90ba4a184dcceb82604051611665911515815260200190565b60405180910390a26001600160a01b03919091166000908152601060205260409020805460ff1916911515919091179055565b6116a0612627565b7f00000000000000000000000000000000000000000000000000000000000000006117335760405162461bcd60e51b815260206004820152603a60248201527f50726f78794f46543a20466f726365206d696e74206f6620746f6b656e20697360448201527f206e6f7420616c6c6f776564206f6e207468697320636861696e0000000000006064820152608401610dd0565b61173c826127e5565b61174783838361280c565b506040805161ffff85168152602081018390526001600160a01b038416917f9e9ba3f3595fd753b04f399ee9d7b1a119d9643b24aad516900a2a26acdc58b791015b60405180910390a2505050565b61179e612627565b6040516370a0823160e01b81523060048201526000906001600160a01b038516906370a0823190602401602060405180830381865afa1580156117e5573d6000803e3d6000fd5b505050506040513d601f19601f82011682018060405250810190611809919061508b565b9050808211156118365760405163cf47918160e01b81526004810183905260248101829052604401610dd0565b826001600160a01b0316846001600160a01b03167f6d25be279134f4ecaa4770aff0c3d916d9e7c5ef37b65ed95dbdba411f5d54d58460405161187b91815260200190565b60405180910390a36118976001600160a01b03851684846128ab565b50505050565b3330146118fb5760405162461bcd60e51b815260206004820152602660248201527f4e6f6e626c6f636b696e674c7a4170703a2063616c6c6572206d7573742062656044820152650204c7a4170760d41b6064820152608401610dd0565b6119718686868080601f01602080910402602001604051908101604052809392919081815260200183838082843760009201919091525050604080516020601f89018190048102820181019092528781528993509150879087908190840183828082843760009201919091525061291392505050565b505050505050565b6119718585858561198d6020870187614d53565b61199d6040880160208901614d53565b6119aa6040890189615130565b8080601f01602080910402602001604051908101604052809392919081815260200183838082843760009201919091525061299a92505050565b6119ec612627565b61ffff82166000908152600c6020526040902054811015611a665760405162461bcd60e51b815260206004820152602e60248201527f4461696c79206c696d6974203c2073696e676c6520726563656976652074726160448201526d1b9cd858dd1a5bdb881b1a5b5a5d60921b6064820152608401610dd0565b61ffff82166000818152600d60209081526040918290205482519384529083015281018290527f95dc51094cd27cf4ee3fd0dbb50cf96f8df1629c822f5434c4a34d7eb03c97249060600160405180910390a161ffff9091166000908152600d6020526040902055565b60016020526000908152604090208054611ae990615001565b80601f0160208091040260200160405190810160405280929190818152602001828054611b1590615001565b8015611b625780601f10611b3757610100808354040283529160200191611b62565b820191906000526020600020905b815481529060010190602001808311611b4557829003601f168201915b505050505081565b60075460ff16611bbc5760405162461bcd60e51b815260206004820152601760248201527f73656e64416e6443616c6c2069732064697361626c65640000000000000000006044820152606401610dd0565b611bcc8888888888888888612a82565b5050505050505050565b611bde612627565b611be7816127e5565b6007546040516001600160a01b0380841692610100900416907f05cd89403c6bdeac21c2ff33de395121a31fa1bc2bf3adf4825f1f86e79969dd90600090a3600780546001600160a01b0390921661010002610100600160a81b0319909216919091179055565b611c56612627565b61146f612b26565b611c66612627565b61ffff83166000908152600560205260408082209051611c87908590615176565b9081526040805191829003602090810183206001600160401b038616600090815291522091909155611cba908390615176565b6040805191829003822061ffff861683526001600160401b0384166020840152917f48a980eea4ea1c540209e2f9f32a4c2edf51fab37b1d21f453868301ecb6e2ee9101611789565b60007f00000000000000000000000000000000000000000000000000000000000000006001600160a01b03166318160ddd6040518163ffffffff1660e01b8152600401602060405180830381865afa158015611d63573d6000803e3d6000fd5b505050506040513d601f19601f82011682018060405250810190611d87919061508b565b905090565b61ffff8116600090815260016020526040812080546060929190611daf90615001565b80601f0160208091040260200160405190810160405280929190818152602001828054611ddb90615001565b8015611e285780601f10611dfd57610100808354040283529160200191611e28565b820191906000526020600020905b815481529060010190602001808311611e0b57829003601f168201915b505050505090508051600003611e805760405162461bcd60e51b815260206004820152601d60248201527f4c7a4170703a206e6f20747275737465642070617468207265636f72640000006044820152606401610dd0565b611e9b600060148351611e9391906150ba565b839190612b63565b9392505050565b600080611f1f8b8b8b8b8b8080601f01602080910402602001604051908101604052809392919081815260200183838082843760009201919091525050604080516020601f8d018190048102820181019092528b81528e93508d9250908c908c9081908401838280828437600092019190915250612c7092505050565b91509150995099975050505050505050565b611f39612627565b818130604051602001611f4e93929190615192565b60408051601f1981840301815291815261ffff85166000908152600160209081529190208251611f839391929091019061464a565b507f8c0400cfe2d1199b1a725c78960bcc2a344d869b80590d0f2bd005db15a572ce838383604051611fb793929190615112565b60405180910390a1505050565b611fcc612627565b600480546001600160a01b0319166001600160a01b0383169081179091556040519081527f5db758e995a17ec1ad84bdef7e8c3293a0bd6179bcce400dff5d4c3d87db726b90602001611333565b612022612627565b6040516332fb62e760e21b81526001600160a01b037f0000000000000000000000000000000000000000000000000000000000000000169063cbed8b9c9061207690889088908890889088906004016151b8565b600060405180830381600087803b15801561209057600080fd5b505af11580156120a4573d6000803e3d6000fd5b505050505050505050565b6120b7612627565b61ffff82166000908152600d60205260409020548111156121315760405162461bcd60e51b815260206004820152602e60248201527f73696e676c652072656365697665207472616e73616374696f6e206c696d697460448201526d080f8811185a5b1e481b1a5b5a5d60921b6064820152608401610dd0565b61ffff82166000818152600c60209081526040918290205482519384529083015281018290527f2c42997a938a029910a78e7c28d762b349c28e70f3a89c1fbccbb1a46020b1599060600160405180910390a161ffff9091166000908152600c6020526040902055565b61ffff8616600090815260016020526040812080546121b990615001565b80601f01602080910402602001604051908101604052809291908181526020018280546121e590615001565b80156122325780601f1061220757610100808354040283529160200191612232565b820191906000526020600020905b81548152906001019060200180831161221557829003601f168201915b5050505050905080518686905014801561224d575060008151115b801561227557508051602082012060405161226b9088908890615035565b6040518091039020145b6122915760405162461bcd60e51b8152600401610dd090615045565b610f45878787878787612d32565b6122a7612627565b61ffff83811660008181526002602090815260408083209487168084529482529182902085905581519283528201929092529081018290527f9d5c7c0b934da8fefa9c7760c98383778a12dfbfc0c3b3106518f43fb9508ac090606001611fb7565b3330146123585760405162461bcd60e51b815260206004820152601f60248201527f4f4654436f72653a2063616c6c6572206d757374206265204f4654436f7265006044820152606401610dd0565b612363308686612f48565b9350846001600160a01b03168a61ffff167fbf551ec93859b170f9b2141bd9298bf3f64322c6f7beb2543a0cb669834118bf866040516123a591815260200190565b60405180910390a3604051633fe79aed60e11b81526001600160a01b03861690637fcf35da9083906123e9908e908e908e908e908e908d908d908d906004016151e6565b600060405180830381600088803b15801561240357600080fd5b5087f1158015612417573d6000803e3d6000fd5b505050505050505050505050505050565b612430612627565b61ffff8316600090815260016020526040902061244e9083836146ce565b507ffa41487ad5d6728f0b19276fa1eddc16558578f5109fc39d2dc33c3230470dab838383604051611fb793929190615112565b61248a612627565b6001600160a01b0381166124ef5760405162461bcd60e51b815260206004820152602660248201527f4f776e61626c653a206e6577206f776e657220697320746865207a65726f206160448201526564647265737360d01b6064820152608401610dd0565b6124f881613102565b50565b604051633d7b2f6f60e21b815261ffff808616600483015284166024820152306044820152606481018290526060907f00000000000000000000000000000000000000000000000000000000000000006001600160a01b03169063f5ecbdbc90608401600060405180830381865afa15801561257b573d6000803e3d6000fd5b505050506040513d6000823e601f3d908101601f191682016040526125a39190810190615241565b90505b949350505050565b6000806126115a60966366ad5c8a60e01b898989896040516024016125d694939291906152ae565b60408051601f198184030181529190526020810180516001600160e01b03166001600160e01b0319909316929092179091523092919061315b565b91509150816119715761197186868686856131e5565b6000546001600160a01b0361010090910416331461146f5760405162461bcd60e51b815260206004820181905260248201527f4f776e61626c653a2063616c6c6572206973206e6f7420746865206f776e65726044820152606401610dd0565b6000806126948484613282565b90506125a6816132b3565b60008060006126ed876126b1886132cb565b6040805160006020820152602181019390935260c09190911b6001600160c01b0319166041830152805160298184030181526049909201905290565b60405163040a7bb160e41b81529091506001600160a01b037f000000000000000000000000000000000000000000000000000000000000000016906340a7bb1090612744908b90309086908b908b906004016152ec565b6040805180830381865afa158015612760573d6000803e3d6000fd5b505050506040513d601f19601f820116820180604052508101906127849190615340565b92509250509550959350505050565b61279b613351565b6000805460ff191690557f5db9ee0a495bf2e6ff9c91a7834c1ba4fdd244a5e8aa4e537bd38aeae4b073aa335b6040516001600160a01b03909116815260200160405180910390a1565b6001600160a01b0381166124f8576040516342bcdf7f60e11b815260040160405180910390fd5b600061281661339a565b6128218385846133e0565b6040516340c10f1960e01b81526001600160a01b038481166004830152602482018490527f000000000000000000000000000000000000000000000000000000000000000016906340c10f1990604401600060405180830381600087803b15801561288b57600080fd5b505af115801561289f573d6000803e3d6000fd5b50939695505050505050565b6040516001600160a01b03831660248201526044810182905261290e90849063a9059cbb60e01b906064015b60408051601f198184030181529190526020810180516001600160e01b03166001600160e01b031990931692909217909152613602565b505050565b600061291f82826136d7565b905060ff811661293a5761293585858585613733565b611007565b60001960ff82160161295257612935858585856137c3565b60405162461bcd60e51b815260206004820152601c60248201527f4f4654436f72653a20756e6b6e6f776e207061636b65742074797065000000006044820152606401610dd0565b60006129a8878284816139d1565b6129b185613aa6565b5090506129c088888884613ae6565b905060008111612a0e5760405162461bcd60e51b815260206004820152601960248201527813d19510dbdc994e88185b5bdd5b9d081d1bdbc81cdb585b1b603a1b6044820152606401610dd0565b6000612a1d876126b1846132cb565b9050612a2d888287878734613be9565b86896001600160a01b03168961ffff167fd81fc9b8523134ed613870ed029d6170cbb73aa6a6bc311b9a642689fb9df59a85604051612a6e91815260200190565b60405180910390a450979650505050505050565b6120a48888888888888080601f0160208091040260200160405190810160405280939291908181526020018383808284376000920191909152508a9250612acf9150506020890189614d53565b612adf60408a0160208b01614d53565b612aec60408b018b615130565b8080601f016020809104026020016040519081016040528093929190818152602001838380828437600092019190915250613d8e92505050565b612b2e61339a565b6000805460ff191660011790557f62e78cea01bee320cd4e420270b5ea74000d11b0c9f74754ebdbfc544b05a2586127c83390565b606081612b7181601f6150d1565b1015612bb05760405162461bcd60e51b815260206004820152600e60248201526d736c6963655f6f766572666c6f7760901b6044820152606401610dd0565b612bba82846150d1565b84511015612bfe5760405162461bcd60e51b8152602060048201526011602482015270736c6963655f6f75744f66426f756e647360781b6044820152606401610dd0565b606082158015612c1d5760405191506000825260208201604052612c67565b6040519150601f8416801560200281840101858101878315602002848b0101015b81831015612c56578051835260209283019201612c3e565b5050858452601f01601f1916604052505b50949350505050565b6000806000612c8a338a612c838b6132cb565b8a8a613e83565b60405163040a7bb160e41b81529091506001600160a01b037f000000000000000000000000000000000000000000000000000000000000000016906340a7bb1090612ce1908d90309086908b908b906004016152ec565b6040805180830381865afa158015612cfd573d6000803e3d6000fd5b505050506040513d601f19601f82011682018060405250810190612d219190615340565b925092505097509795505050505050565b61ffff86166000908152600560205260408082209051612d559088908890615035565b90815260408051602092819003830190206001600160401b03871660009081529252902054905080612dd55760405162461bcd60e51b815260206004820152602360248201527f4e6f6e626c6f636b696e674c7a4170703a206e6f2073746f726564206d65737360448201526261676560e81b6064820152608401610dd0565b808383604051612de6929190615035565b604051809103902014612e455760405162461bcd60e51b815260206004820152602160248201527f4e6f6e626c6f636b696e674c7a4170703a20696e76616c6964207061796c6f616044820152601960fa1b6064820152608401610dd0565b61ffff87166000908152600560205260408082209051612e689089908990615035565b90815260408051602092819003830181206001600160401b038916600090815290845282902093909355601f88018290048202830182019052868252612f00918991899089908190840183828082843760009201919091525050604080516020601f8a018190048102820181019092528881528a93509150889088908190840183828082843760009201919091525061291392505050565b7fc264d91f3adc5588250e1551f547752ca0cfa8f6b530d243b9f9f4cab10ea8e58787878785604051612f37959493929190615364565b60405180910390a150505050505050565b6000612f5261339a565b6040516370a0823160e01b81526001600160a01b0384811660048301526000917f0000000000000000000000000000000000000000000000000000000000000000909116906370a0823190602401602060405180830381865afa158015612fbd573d6000803e3d6000fd5b505050506040513d601f19601f82011682018060405250810190612fe1919061508b565b9050306001600160a01b0386160361302c576130276001600160a01b037f00000000000000000000000000000000000000000000000000000000000000001685856128ab565b613061565b6130616001600160a01b037f000000000000000000000000000000000000000000000000000000000000000016868686613ec4565b6040516370a0823160e01b81526001600160a01b03858116600483015282917f0000000000000000000000000000000000000000000000000000000000000000909116906370a0823190602401602060405180830381865afa1580156130cb573d6000803e3d6000fd5b505050506040513d601f19601f820116820180604052508101906130ef919061508b565b6130f991906150ba565b95945050505050565b600080546001600160a01b03838116610100818102610100600160a81b0319851617855560405193049190911692909183917f8be0079c531659141344cd1fd0a4f28419497f9722a3daafe3b4186f6b6457e091a35050565b6000606060008060008661ffff166001600160401b0381111561318057613180614a7e565b6040519080825280601f01601f1916602001820160405280156131aa576020820181803683370190505b50905060008087516020890160008d8df191503d9250868311156131cc578692505b828152826000602083013e909890975095505050505050565b8180519060200120600560008761ffff1661ffff168152602001908152602001600020856040516132169190615176565b9081526040805191829003602090810183206001600160401b0388166000908152915220919091557fe183f33de2837795525b4792ca4cd60535bd77c53b7e7030060bfcf5734d6b0c90613273908790879087908790879061539f565b60405180910390a15050505050565b60408051602081019091526000815260405180602001604052806132aa856000015185613efc565b90529392505050565b8051600090610f7f90670de0b6b3a764000090615407565b6000806132f87f000000000000000000000000000000000000000000000000000000000000000084615407565b90506001600160401b03811115610f7f5760405162461bcd60e51b815260206004820152601a60248201527f4f4654436f72653a20616d6f756e745344206f766572666c6f770000000000006044820152606401610dd0565b60005460ff1661146f5760405162461bcd60e51b815260206004820152601460248201527314185d5cd8589b194e881b9bdd081c185d5cd95960621b6044820152606401610dd0565b60005460ff161561146f5760405162461bcd60e51b815260206004820152601060248201526f14185d5cd8589b194e881c185d5cd95960821b6044820152606401610dd0565b6001600160a01b03831660009081526010602052604090205460ff1680156134085750505050565b60408051602081019091526007546000918291819061010090046001600160a01b03166341976e097f00000000000000000000000000000000000000000000000000000000000000006040516001600160e01b031960e084901b1681526001600160a01b039091166004820152602401602060405180830381865afa158015613495573d6000803e3d6000fd5b505050506040513d601f19601f820116820180604052508101906134b9919061508b565b905290506134c78185612687565b61ffff86166000908152600f6020908152604080832054600e835281842054600c845282852054600d90945291909320549395504293909190818711156135505760405162461bcd60e51b815260206004820152601f60248201527f53696e676c65205472616e73616374696f6e204c696d697420457863656564006044820152606401610dd0565b6201518061355e85876150ba565b11156135825761ffff8a166000908152600f6020526040902085905586925061358f565b61358c87846150d1565b92505b808311156135df5760405162461bcd60e51b815260206004820152601e60248201527f4461696c79205472616e73616374696f6e204c696d69742045786365656400006044820152606401610dd0565b505061ffff9097166000908152600e602052604090209690965550505050505050565b6000613657826040518060400160405280602081526020017f5361666545524332303a206c6f772d6c6576656c2063616c6c206661696c6564815250856001600160a01b0316613f089092919063ffffffff16565b9050805160001480613678575080806020019051810190613678919061541b565b61290e5760405162461bcd60e51b815260206004820152602a60248201527f5361666545524332303a204552433230206f7065726174696f6e20646964206e6044820152691bdd081cdd58d8d9595960b21b6064820152608401610dd0565b60006136e48260016150d1565b8351101561372a5760405162461bcd60e51b8152602060048201526013602482015272746f55696e74385f6f75744f66426f756e647360681b6044820152606401610dd0565b50016001015190565b60008061373f83613f17565b90925090506001600160a01b0382166137585761dead91505b600061376382613f9c565b905061377087848361280c565b9050826001600160a01b03168761ffff167fbf551ec93859b170f9b2141bd9298bf3f64322c6f7beb2543a0cb669834118bf836040516137b291815260200190565b60405180910390a350505050505050565b60008060008060006137d486613fd1565b945094509450945094506000600660008b61ffff1661ffff168152602001908152602001600020896040516138099190615176565b90815260408051602092819003830190206001600160401b038b166000908152925281205460ff16915061383c85613f9c565b9050816138aa5761384e8b308361280c565b61ffff8c16600090815260066020526040908190209051919250600191613876908d90615176565b90815260408051602092819003830190206001600160401b038d16600090815292529020805460ff19169115159190911790555b6001600160a01b0386163b613901576040516001600160a01b03871681527f9aedf5fdba8716db3b6705ca00150643309995d4f818a249ed6dde6677e7792d9060200160405180910390a150505050505050611897565b8a8a8a8a8a8a868a60008a61391f578b6001600160401b0316613921565b5a5b90506000806139535a609663eaffd49a60e01b8e8e8e8d8d8d8d8d6040516024016125d6989796959493929190615438565b9150915081156139ac578751602089012060405161ffff8d16907fb8890edbfc1c74692f527444645f95489c3703cc2df42e4a366f5d06fa6cd8849061399e908e908e9086906154ac565b60405180910390a2506139b9565b6139b98b8b8b8b856131e5565b50505050505050505050505050505050505050505050565b60006139dc83614088565b61ffff80871660009081526002602090815260408083209389168352929052205490915080613a4d5760405162461bcd60e51b815260206004820152601a60248201527f4c7a4170703a206d696e4761734c696d6974206e6f74207365740000000000006044820152606401610dd0565b613a5783826150d1565b8210156119715760405162461bcd60e51b815260206004820152601b60248201527f4c7a4170703a20676173206c696d697420697320746f6f206c6f7700000000006044820152606401610dd0565b600080613ad37f0000000000000000000000000000000000000000000000000000000000000000846154da565b9050613adf81846150ba565b9150915091565b6000613af061339a565b6001600160a01b0385163314613b535760405162461bcd60e51b815260206004820152602260248201527f50726f78794f46543a206f776e6572206973206e6f742073656e642063616c6c60448201526132b960f11b6064820152608401610dd0565b613b5e8585846140e4565b604051632770a7eb60e21b81526001600160a01b038681166004830152602482018490527f00000000000000000000000000000000000000000000000000000000000000001690639dc29fac90604401600060405180830381600087803b158015613bc857600080fd5b505af1158015613bdc573d6000803e3d6000fd5b5093979650505050505050565b61ffff861660009081526001602052604081208054613c0790615001565b80601f0160208091040260200160405190810160405280929190818152602001828054613c3390615001565b8015613c805780601f10613c5557610100808354040283529160200191613c80565b820191906000526020600020905b815481529060010190602001808311613c6357829003601f168201915b505050505090508051600003613cf15760405162461bcd60e51b815260206004820152603060248201527f4c7a4170703a2064657374696e6174696f6e20636861696e206973206e6f742060448201526f61207472757374656420736f7572636560801b6064820152608401610dd0565b613cfc878751614306565b60405162c5803160e81b81526001600160a01b037f0000000000000000000000000000000000000000000000000000000000000000169063c5803100908490613d53908b9086908c908c908c908c906004016154ee565b6000604051808303818588803b158015613d6c57600080fd5b505af1158015613d80573d6000803e3d6000fd5b505050505050505050505050565b6000613da6896001846001600160401b0389166139d1565b613daf87613aa6565b509050613dbe8a8a8a84613ae6565b905060008111613e0c5760405162461bcd60e51b815260206004820152601960248201527813d19510dbdc994e88185b5bdd5b9d081d1bdbc81cdb585b1b603a1b6044820152606401610dd0565b6000613e1c338a612c83856132cb565b9050613e2c8a8287878734613be9565b888b6001600160a01b03168b61ffff167fd81fc9b8523134ed613870ed029d6170cbb73aa6a6bc311b9a642689fb9df59a85604051613e6d91815260200190565b60405180910390a4509998505050505050505050565b6060600185856001600160a01b0389168587604051602001613eaa96959493929190615555565b604051602081830303815290604052905095945050505050565b6040516001600160a01b03808516602483015283166044820152606481018290526118979085906323b872dd60e01b906084016128d7565b6000611e9b82846155b6565b60606125a68484600085614377565b60008080613f2584826136d7565b60ff16148015613f36575082516029145b613f7d5760405162461bcd60e51b815260206004820152601860248201527713d19510dbdc994e881a5b9d985b1a59081c185e5b1bd85960421b6044820152606401610dd0565b613f8883600d614452565b9150613f958360216144b7565b9050915091565b6000610f7f7f00000000000000000000000000000000000000000000000000000000000000006001600160401b0384166155b6565b600080806060816001613fe487836136d7565b60ff161461402f5760405162461bcd60e51b815260206004820152601860248201527713d19510dbdc994e881a5b9d985b1a59081c185e5b1bd85960421b6044820152606401610dd0565b61403a86600d614452565b93506140478660216144b7565b9250614054866029614514565b94506140618660496144b7565b905061407d605180885161407591906150ba565b889190612b63565b915091939590929450565b60006022825110156140dc5760405162461bcd60e51b815260206004820152601c60248201527f4c7a4170703a20696e76616c69642061646170746572506172616d73000000006044820152606401610dd0565b506022015190565b6001600160a01b03831660009081526010602052604090205460ff16801561410c5750505050565b60408051602081019091526007546000918291819061010090046001600160a01b03166341976e097f00000000000000000000000000000000000000000000000000000000000000006040516001600160e01b031960e084901b1681526001600160a01b039091166004820152602401602060405180830381865afa158015614199573d6000803e3d6000fd5b505050506040513d601f19601f820116820180604052508101906141bd919061508b565b905290506141cb8185612687565b61ffff86166000908152600b6020908152604080832054600a8352818420546008845282852054600990945291909320549395504293909190818711156142545760405162461bcd60e51b815260206004820152601f60248201527f53696e676c65205472616e73616374696f6e204c696d697420457863656564006044820152606401610dd0565b6201518061426285876150ba565b11156142865761ffff8a166000908152600b60205260409020859055869250614293565b61429087846150d1565b92505b808311156142e35760405162461bcd60e51b815260206004820152601e60248201527f4461696c79205472616e73616374696f6e204c696d69742045786365656400006044820152606401610dd0565b505061ffff9097166000908152600a602052604090209690965550505050505050565b61ffff82166000908152600360205260408120549081900361432757506127105b8082111561290e5760405162461bcd60e51b815260206004820181905260248201527f4c7a4170703a207061796c6f61642073697a6520697320746f6f206c617267656044820152606401610dd0565b6060824710156143d85760405162461bcd60e51b815260206004820152602660248201527f416464726573733a20696e73756666696369656e742062616c616e636520666f6044820152651c8818d85b1b60d21b6064820152608401610dd0565b600080866001600160a01b031685876040516143f49190615176565b60006040518083038185875af1925050503d8060008114614431576040519150601f19603f3d011682016040523d82523d6000602084013e614436565b606091505b509150915061444787838387614572565b979650505050505050565b600061445f8260146150d1565b835110156144a75760405162461bcd60e51b8152602060048201526015602482015274746f416464726573735f6f75744f66426f756e647360581b6044820152606401610dd0565b500160200151600160601b900490565b60006144c48260086150d1565b8351101561450b5760405162461bcd60e51b8152602060048201526014602482015273746f55696e7436345f6f75744f66426f756e647360601b6044820152606401610dd0565b50016008015190565b60006145218260206150d1565b835110156145695760405162461bcd60e51b8152602060048201526015602482015274746f427974657333325f6f75744f66426f756e647360581b6044820152606401610dd0565b50016020015190565b606083156145e15782516000036145da576001600160a01b0385163b6145da5760405162461bcd60e51b815260206004820152601d60248201527f416464726573733a2063616c6c20746f206e6f6e2d636f6e74726163740000006044820152606401610dd0565b50816125a6565b6125a683838151156145f65781518083602001fd5b8060405162461bcd60e51b8152600401610dd09190614c8e565b50805461461c90615001565b6000825580601f1061462c575050565b601f0160209004906000526020600020908101906124f89190614742565b82805461465690615001565b90600052602060002090601f01602090048101928261467857600085556146be565b82601f1061469157805160ff19168380011785556146be565b828001600101855582156146be579182015b828111156146be5782518255916020019190600101906146a3565b506146ca929150614742565b5090565b8280546146da90615001565b90600052602060002090601f0160209004810192826146fc57600085556146be565b82601f106147155782800160ff198235161785556146be565b828001600101855582156146be579182015b828111156146be578235825591602001919060010190614727565b5b808211156146ca5760008155600101614743565b803561ffff8116811461476957600080fd5b919050565b60008083601f84011261478057600080fd5b5081356001600160401b0381111561479757600080fd5b6020830191508360208285010111156147af57600080fd5b9250929050565b80356001600160401b038116811461476957600080fd5b600080600080600080608087890312156147e657600080fd5b6147ef87614757565b955060208701356001600160401b038082111561480b57600080fd5b6148178a838b0161476e565b909750955085915061482b60408a016147b6565b9450606089013591508082111561484157600080fd5b5061484e89828a0161476e565b979a9699509497509295939492505050565b60006020828403121561487257600080fd5b81356001600160e01b031981168114611e9b57600080fd5b60006020828403121561489c57600080fd5b611e9b82614757565b600080604083850312156148b857600080fd5b6148c183614757565b946020939093013593505050565b6001600160a01b03811681146124f857600080fd5b6000806000606084860312156148f957600080fd5b8335614904816148cf565b925061491260208501614757565b9150604084013590509250925092565b80151581146124f857600080fd5b60008060008060008060a0878903121561494957600080fd5b61495287614757565b95506020870135945060408701359350606087013561497081614922565b925060808701356001600160401b0381111561498b57600080fd5b61484e89828a0161476e565b6000806000604084860312156149ac57600080fd5b6149b584614757565b925060208401356001600160401b038111156149d057600080fd5b6149dc8682870161476e565b9497909650939450505050565b6000602082840312156149fb57600080fd5b8135611e9b81614922565b60008060408385031215614a1957600080fd5b8235614a24816148cf565b91506020830135614a3481614922565b809150509250929050565b600080600060608486031215614a5457600080fd5b614a5d84614757565b92506020840135614a6d816148cf565b929592945050506040919091013590565b634e487b7160e01b600052604160045260246000fd5b604051601f8201601f191681016001600160401b0381118282101715614abc57614abc614a7e565b604052919050565b60006001600160401b03821115614add57614add614a7e565b50601f01601f191660200190565b600080600060608486031215614b0057600080fd5b614b0984614757565b925060208401356001600160401b03811115614b2457600080fd5b8401601f81018613614b3557600080fd5b8035614b48614b4382614ac4565b614a94565b818152876020838501011115614b5d57600080fd5b81602084016020830137600060208383010152809450505050614b82604085016147b6565b90509250925092565b600080600060608486031215614ba057600080fd5b8335614a5d816148cf565b600060608284031215614bbd57600080fd5b50919050565b600080600080600060a08688031215614bdb57600080fd5b8535614be6816148cf565b9450614bf460208701614757565b9350604086013592506060860135915060808601356001600160401b03811115614c1d57600080fd5b614c2988828901614bab565b9150509295509295909350565b60005b83811015614c51578181015183820152602001614c39565b838111156118975750506000910152565b60008151808452614c7a816020860160208601614c36565b601f01601f19169290920160200192915050565b602081526000611e9b6020830184614c62565b60008060008060008060008060e0898b031215614cbd57600080fd5b8835614cc8816148cf565b9750614cd660208a01614757565b9650604089013595506060890135945060808901356001600160401b0380821115614d0057600080fd5b614d0c8c838d0161476e565b9096509450849150614d2060a08c016147b6565b935060c08b0135915080821115614d3657600080fd5b50614d438b828c01614bab565b9150509295985092959890939650565b600060208284031215614d6557600080fd5b8135611e9b816148cf565b60008060408385031215614d8357600080fd5b614d8c83614757565b9150614d9a60208401614757565b90509250929050565b600080600080600080600080600060e08a8c031215614dc157600080fd5b614dca8a614757565b985060208a0135975060408a0135965060608a01356001600160401b0380821115614df457600080fd5b614e008d838e0161476e565b9098509650869150614e1460808d016147b6565b955060a08c01359150614e2682614922565b90935060c08b01359080821115614e3c57600080fd5b50614e498c828d0161476e565b915080935050809150509295985092959850929598565b600080600080600060808688031215614e7857600080fd5b614e8186614757565b9450614e8f60208701614757565b93506040860135925060608601356001600160401b03811115614eb157600080fd5b614ebd8882890161476e565b969995985093965092949392505050565b600080600060608486031215614ee357600080fd5b61490484614757565b6000806000806000806000806000806101008b8d031215614f0c57600080fd5b614f158b614757565b995060208b01356001600160401b0380821115614f3157600080fd5b614f3d8e838f0161476e565b909b509950899150614f5160408e016147b6565b985060608d0135975060808d01359150614f6a826148cf565b90955060a08c0135945060c08c01359080821115614f8757600080fd5b50614f948d828e0161476e565b9150809450508092505060e08b013590509295989b9194979a5092959850565b60008060008060808587031215614fca57600080fd5b614fd385614757565b9350614fe160208601614757565b92506040850135614ff1816148cf565b9396929550929360600135925050565b600181811c9082168061501557607f821691505b602082108103614bbd57634e487b7160e01b600052602260045260246000fd5b8183823760009101908152919050565b60208082526026908201527f4c7a4170703a20696e76616c696420736f757263652073656e64696e6720636f6040820152651b9d1c9858dd60d21b606082015260800190565b60006020828403121561509d57600080fd5b5051919050565b634e487b7160e01b600052601160045260246000fd5b6000828210156150cc576150cc6150a4565b500390565b600082198211156150e4576150e46150a4565b500190565b81835281816020850137506000828201602090810191909152601f909101601f19169091010190565b61ffff841681526040602082015260006125a36040830184866150e9565b6000808335601e1984360301811261514757600080fd5b8301803591506001600160401b0382111561516157600080fd5b6020019150368190038213156147af57600080fd5b60008251615188818460208701614c36565b9190910192915050565b8284823760609190911b6bffffffffffffffffffffffff19169101908152601401919050565b600061ffff8088168352808716602084015250846040830152608060608301526144476080830184866150e9565b61ffff8916815260c06020820152600061520460c08301898b6150e9565b6001600160401b038816604084015286606084015285608084015282810360a08401526152328185876150e9565b9b9a5050505050505050505050565b60006020828403121561525357600080fd5b81516001600160401b0381111561526957600080fd5b8201601f8101841361527a57600080fd5b8051615288614b4382614ac4565b81815285602083850101111561529d57600080fd5b6130f9826020830160208601614c36565b61ffff851681526080602082015260006152cb6080830186614c62565b6001600160401b038516604084015282810360608401526144478185614c62565b61ffff861681526001600160a01b038516602082015260a06040820181905260009061531a90830186614c62565b841515606084015282810360808401526153348185614c62565b98975050505050505050565b6000806040838503121561535357600080fd5b505080516020909101519092909150565b61ffff861681526080602082015260006153826080830186886150e9565b6001600160401b0394909416604083015250606001529392505050565b61ffff8616815260a0602082015260006153bc60a0830187614c62565b6001600160401b038616604084015282810360608401526153dd8186614c62565b905082810360808401526153348185614c62565b634e487b7160e01b600052601260045260246000fd5b600082615416576154166153f1565b500490565b60006020828403121561542d57600080fd5b8151611e9b81614922565b600061010061ffff8b1683528060208401526154568184018b614c62565b6001600160401b038a166040850152606084018990526001600160a01b038816608085015260a0840187905283810360c085015290506154968186614c62565b9150508260e08301529998505050505050505050565b6060815260006154bf6060830186614c62565b6001600160401b039490941660208301525060400152919050565b6000826154e9576154e96153f1565b500690565b61ffff8716815260c06020820152600061550b60c0830188614c62565b828103604084015261551d8188614c62565b6001600160a01b0387811660608601528616608085015283810360a085015290506155488185614c62565b9998505050505050505050565b60ff60f81b8760f81b16815285600182015260006001600160401b0360c01b808760c01b166021840152856029840152808560c01b1660498401525082516155a4816051850160208701614c36565b91909101605101979650505050505050565b60008160001904831182151516156155d0576155d06150a4565b50029056fea26469706673582212203f486e4fc3a4903ceb727981d015ed6dff18b9195372df42b21cbdad09d6a5eb64736f6c634300080d0033",
  "devdoc": {
    "author": "Venus",
    "kind": "dev",
    "methods": {
      "circulatingSupply()": {
        "returns": {
          "_0": "total circulating supply of the token on the destination chain."
        }
      },
      "dropFailedMessage(uint16,bytes,uint64)": {
        "custom:access": "Only owner",
        "custom:event": "Emits DropFailedMessage on clearance of failed message.",
        "params": {
          "nonce_": "Nonce_ of the transaction",
          "srcAddress_": "Address of source followed by current bridge address",
          "srcChainId_": "Chain id of source"
        }
      },
      "estimateSendFee(uint16,bytes32,uint256,bool,bytes)": {
        "details": "estimate send token `_tokenId` to (`_dstChainId`, `_toAddress`) _dstChainId - L0 defined chain id to send tokens too _toAddress - dynamic bytes array which contains the address to whom you are sending tokens to on the dstChain _amount - amount of the tokens to transfer _useZro - indicates to use zro to pay L0 fees _adapterParam - flexible bytes array to indicate messaging adapter services in L0"
      },
      "forceMint(uint16,address,uint256)": {
        "custom:access": "Only owner.",
        "custom:event": "Emits forceMint, once done with transfer.",
        "params": {
          "amount_": "The amount of mint",
          "srcChainId_": "Chain ID from where transaction was initiated.",
          "to_": "The address to mint to"
        }
      },
      "isEligibleToSend(address,uint16,uint256)": {
        "details": "This external view function assesses whether the specified sender is eligible to transfer the given amount      to the specified destination chain. It considers factors such as whitelisting, transaction limits, and a 24-hour window.",
        "params": {
          "amount_": "The quantity of tokens to be transferred.",
          "dstChainId_": "Indicates destination chain.",
          "from_": "The sender's address initiating the transfer."
        },
        "returns": {
          "amountInUsd": "The equivalent amount in USD based on the oracle price.",
          "eligibleToSend": "A boolean indicating whether the sender is eligible to transfer the tokens.",
          "isWhiteListedUser": "A boolean indicating whether the sender is whitelisted.",
          "last24HourWindowStart": "The timestamp when the current 24-hour window started.",
          "maxDailyLimit": "The maximum daily limit for transactions.",
          "maxSingleTransactionLimit": "The maximum limit for a single transaction.",
          "transferredInWindow": "The total amount transferred in the current 24-hour window."
        }
      },
      "owner()": {
        "details": "Returns the address of the current owner."
      },
      "pause()": {
        "custom:access": "Only owner."
      },
      "paused()": {
        "details": "Returns true if the contract is paused, and false otherwise."
      },
      "removeTrustedRemote(uint16)": {
        "custom:access": "Only owner.",
        "custom:event": "Emits TrustedRemoteRemoved once chain id is removed from trusted remote.",
        "params": {
          "remoteChainId_": "The chain's id corresponds to setting the trusted remote to empty."
        }
      },
      "sendAndCall(address,uint16,bytes32,uint256,bytes,uint64,(address,address,bytes))": {
        "details": "This internal override function enables the contract to send tokens and invoke calls on the specified      destination chain. It checks whether the sendAndCall feature is enabled before proceeding with the transfer.",
        "params": {
          "amount_": "Amount of tokens that will be transferred.",
          "callparams_": "Additional parameters, including refund address, ZRO payment address,                   and adapter params.",
          "dstChainId_": "Destination chain id on which tokens will be send.",
          "dstGasForCall_": "The amount of gas allocated for the call on the destination chain.",
          "from_": "Address from which tokens will be debited.",
          "payload_": "Additional data payload for the call on the destination chain.",
          "toAddress_": "Address on which tokens will be credited on destination chain."
        }
      },
      "sendFrom(address,uint16,bytes32,uint256,(address,address,bytes))": {
        "details": "send `_amount` amount of token to (`_dstChainId`, `_toAddress`) from `_from` `_from` the owner of token `_dstChainId` the destination chain identifier `_toAddress` can be any size depending on the `dstChainId`. `_amount` the quantity of tokens in wei `_refundAddress` the address LayerZero refunds if too much message fee is sent `_zroPaymentAddress` set to address(0x0) if not paying in ZRO (LayerZero Token) `_adapterParams` is a flexible bytes array to indicate messaging adapter services"
      },
      "setMaxDailyLimit(uint16,uint256)": {
        "custom:access": "Only owner.",
        "custom:event": "Emits setMaxDailyLimit with old and new limit associated with chain id.",
        "params": {
          "chainId_": "Destination chain id.",
          "limit_": "Amount in USD(scaled with 18 decimals)."
        }
      },
      "setMaxDailyReceiveLimit(uint16,uint256)": {
        "custom:access": "Only owner.",
        "custom:event": "Emits setMaxDailyReceiveLimit with old and new limit associated with chain id.",
        "params": {
          "chainId_": "The destination chain ID.",
          "limit_": "The new maximum daily limit in USD(scaled with 18 decimals)."
        }
      },
      "setMaxSingleReceiveTransactionLimit(uint16,uint256)": {
        "custom:access": "Only owner.",
        "custom:event": "Emits setMaxSingleReceiveTransactionLimit with old and new limit associated with chain id.",
        "params": {
          "chainId_": "The destination chain ID.",
          "limit_": "The new maximum limit in USD(scaled with 18 decimals)."
        }
      },
      "setMaxSingleTransactionLimit(uint16,uint256)": {
        "custom:access": "Only owner.",
        "custom:event": "Emits SetMaxSingleTransactionLimit with old and new limit associated with chain id.",
        "params": {
          "chainId_": "Destination chain id.",
          "limit_": "Amount in USD(scaled with 18 decimals)."
        }
      },
      "setOracle(address)": {
        "custom:access": "Only owner.",
        "custom:event": "Emits OracleChanged with old and new oracle address.",
        "details": "Reverts if the new address is zero.",
        "params": {
          "oracleAddress_": "The new address of the ResilientOracle contract."
        }
      },
      "setWhitelist(address,bool)": {
        "custom:access": "Only owner.",
        "custom:event": "Emits setWhitelist.",
        "params": {
          "user_": "Address to be add in whitelist.",
          "val_": "Boolean to be set (true for user_ address is whitelisted)."
        }
      },
      "sweepToken(address,address,uint256)": {
        "custom:access": "Only Owner",
        "custom:error": "Throw InsufficientBalance if amount_ is greater than the available balance of the token in the contract",
        "custom:event": "Emits SweepToken event",
        "params": {
          "amount_": "The amount of tokens needs to transfer",
          "to_": "The address of the recipient",
          "token_": "The address of the ERC-20 token to sweep"
        }
      },
      "token()": {
        "returns": {
          "_0": "Address of the inner token of this bridge."
        }
      },
      "transferOwnership(address)": {
        "details": "Transfers ownership of the contract to a new account (`newOwner`). Can only be called by the current owner."
      },
      "unpause()": {
        "custom:access": "Only owner."
      },
      "updateSendAndCallEnabled(bool)": {
        "params": {
          "enabled_": "Boolean indicating whether the sendAndCall function should be enabled or disabled."
        }
      }
    },
    "title": "MintableTokenBridge",
    "version": 1
  },
  "userdoc": {
    "errors": {
      "InsufficientBalance(uint256,uint256)": [
        {
          "notice": "Error thrown when this contract balance is less than sweep amount"
        }
      ],
      "ZeroAddressNotAllowed()": [
        {
          "notice": "Thrown if the supplied address is a zero address where it is not allowed"
        }
      ]
    },
    "events": {
      "DropFailedMessage(uint16,bytes,uint64)": {
        "notice": "Emits when stored message dropped without successful retrying."
      },
      "ForceMint(uint16,address,uint256)": {
        "notice": "Emits when token minted manually by owner in case of bridge failure and unsuccessful retrying."
      },
      "InnerTokenAdded(address)": {
        "notice": "Event emitted when inner token set successfully."
      },
      "OracleChanged(address,address)": {
        "notice": "Event emitted when oracle is modified."
      },
      "SetMaxDailyLimit(uint16,uint256,uint256)": {
        "notice": "Emitted when the maximum daily limit of transactions from local chain is modified."
      },
      "SetMaxDailyReceiveLimit(uint16,uint256,uint256)": {
        "notice": "Emitted when the maximum daily limit for receiving transactions from remote chain is modified."
      },
      "SetMaxSingleReceiveTransactionLimit(uint16,uint256,uint256)": {
        "notice": "Emitted when the maximum limit for a single receive transaction from remote chain is modified."
      },
      "SetMaxSingleTransactionLimit(uint16,uint256,uint256)": {
        "notice": "Emitted when the maximum limit for a single transaction from local chain is modified."
      },
      "SetWhitelist(address,bool)": {
        "notice": "Emitted when address is added to whitelist."
      },
      "SweepToken(address,address,uint256)": {
        "notice": "Emitted on sweep token success"
      },
      "TrustedRemoteRemoved(uint16)": {
        "notice": "Event emitted when trusted remote sets to empty."
      },
      "UpdateSendAndCallEnabled(bool)": {
        "notice": "Event emitted when SendAndCallEnabled updated successfully."
      }
    },
    "kind": "user",
    "methods": {
      "chainIdToLast24HourReceiveWindowStart(uint16)": {
        "notice": "Timestamp when the last 24-hour window started from remote chain."
      },
      "chainIdToLast24HourReceived(uint16)": {
        "notice": "Total received amount in USD(scaled with 18 decimals) within the last 24-hour window from remote chain."
      },
      "chainIdToLast24HourTransferred(uint16)": {
        "notice": "Total sent amount in USD(scaled with 18 decimals) within the last 24-hour window from local chain."
      },
      "chainIdToLast24HourWindowStart(uint16)": {
        "notice": "Timestamp when the last 24-hour window started from local chain."
      },
      "chainIdToMaxDailyLimit(uint16)": {
        "notice": "Maximum daily limit for transactions in USD(scaled with 18 decimals) from local chain."
      },
      "chainIdToMaxDailyReceiveLimit(uint16)": {
        "notice": "Maximum daily limit for receiving transactions in USD(scaled with 18 decimals) from remote chain."
      },
      "chainIdToMaxSingleReceiveTransactionLimit(uint16)": {
        "notice": "Maximum limit for a single receive transaction in USD(scaled with 18 decimals) from remote chain."
      },
      "chainIdToMaxSingleTransactionLimit(uint16)": {
        "notice": "Maximum limit for a single transaction in USD(scaled with 18 decimals) from local chain."
      },
      "circulatingSupply()": {
        "notice": "Returns the total circulating supply of the token on the destination chain i.e (total supply)."
      },
      "dropFailedMessage(uint16,bytes,uint64)": {
        "notice": "Clear failed messages from the storage."
      },
      "forceMint(uint16,address,uint256)": {
        "notice": "Only call it when there is no way to recover the failed message. `dropFailedMessage` must be called first if transaction is from remote->local chain to avoid double spending."
      },
      "isEligibleToSend(address,uint16,uint256)": {
        "notice": "Checks the eligibility of a sender to initiate a cross-chain token transfer."
      },
      "isForceMintActive()": {
        "notice": "Regulates the force minting; It should be true only if the token manage by this Bridge contract can be mintable on both source and destination chains."
      },
      "oracle()": {
        "notice": "The address of ResilientOracle contract wrapped in its interface."
      },
      "pause()": {
        "notice": "Triggers stopped state of the bridge."
      },
      "removeTrustedRemote(uint16)": {
        "notice": "Remove trusted remote from storage."
      },
      "renounceOwnership()": {
        "notice": "Empty implementation of renounce ownership to avoid any mishappening."
      },
      "sendAndCall(address,uint16,bytes32,uint256,bytes,uint64,(address,address,bytes))": {
        "notice": "Initiates a cross-chain token transfer and triggers a call on the destination chain."
      },
      "setMaxDailyLimit(uint16,uint256)": {
        "notice": "Sets the limit of daily (24 Hour) transactions amount."
      },
      "setMaxDailyReceiveLimit(uint16,uint256)": {
        "notice": "Sets the maximum daily limit for receiving transactions."
      },
      "setMaxSingleReceiveTransactionLimit(uint16,uint256)": {
        "notice": "Sets the maximum limit for a single receive transaction."
      },
      "setMaxSingleTransactionLimit(uint16,uint256)": {
        "notice": "Sets the limit of single transaction amount."
      },
      "setOracle(address)": {
        "notice": "Set the address of the ResilientOracle contract."
      },
      "setWhitelist(address,bool)": {
        "notice": "Sets the whitelist address to skip checks on transaction limit."
      },
      "sweepToken(address,address,uint256)": {
        "notice": "A public function to sweep accidental ERC-20 transfers to this contract. Tokens are sent to user"
      },
      "token()": {
        "notice": "Return's the address of the inner token of this bridge."
      },
      "unpause()": {
        "notice": "Triggers resume state of the bridge."
      },
      "updateSendAndCallEnabled(bool)": {
        "notice": "It enables or disables sendAndCall functionality for the bridge."
      },
      "whitelist(address)": {
        "notice": "Address on which cap check and bound limit is not applicable."
      }
    },
    "notice": "MintableTokenBridge contract builds upon the functionality of its parent contract, BaseTokenBridge, and focuses on managing token transfers to the chain where token is mintable and burnable. It provides functions to check eligibility and perform the actual token transfers while maintaining strict access controls and pausing mechanisms.",
    "version": 1
  },
  "storageLayout": {
    "storage": [
      {
        "astId": 4727,
        "contract": "contracts/Bridge/MintableTokenBridge.sol:MintableTokenBridge",
        "label": "_paused",
        "offset": 0,
        "slot": "0",
        "type": "t_bool"
      },
      {
        "astId": 4604,
        "contract": "contracts/Bridge/MintableTokenBridge.sol:MintableTokenBridge",
        "label": "_owner",
        "offset": 1,
        "slot": "0",
        "type": "t_address"
      },
      {
        "astId": 455,
        "contract": "contracts/Bridge/MintableTokenBridge.sol:MintableTokenBridge",
        "label": "trustedRemoteLookup",
        "offset": 0,
        "slot": "1",
        "type": "t_mapping(t_uint16,t_bytes_storage)"
      },
      {
        "astId": 461,
        "contract": "contracts/Bridge/MintableTokenBridge.sol:MintableTokenBridge",
        "label": "minDstGasLookup",
        "offset": 0,
        "slot": "2",
        "type": "t_mapping(t_uint16,t_mapping(t_uint16,t_uint256))"
      },
      {
        "astId": 465,
        "contract": "contracts/Bridge/MintableTokenBridge.sol:MintableTokenBridge",
        "label": "payloadSizeLimitLookup",
        "offset": 0,
        "slot": "3",
        "type": "t_mapping(t_uint16,t_uint256)"
      },
      {
        "astId": 467,
        "contract": "contracts/Bridge/MintableTokenBridge.sol:MintableTokenBridge",
        "label": "precrime",
        "offset": 0,
        "slot": "4",
        "type": "t_address"
      },
      {
        "astId": 997,
        "contract": "contracts/Bridge/MintableTokenBridge.sol:MintableTokenBridge",
        "label": "failedMessages",
        "offset": 0,
        "slot": "5",
        "type": "t_mapping(t_uint16,t_mapping(t_bytes_memory_ptr,t_mapping(t_uint64,t_bytes32)))"
      },
      {
        "astId": 3161,
        "contract": "contracts/Bridge/MintableTokenBridge.sol:MintableTokenBridge",
        "label": "creditedPackets",
        "offset": 0,
        "slot": "6",
        "type": "t_mapping(t_uint16,t_mapping(t_bytes_memory_ptr,t_mapping(t_uint64,t_bool)))"
      },
      {
        "astId": 8436,
        "contract": "contracts/Bridge/MintableTokenBridge.sol:MintableTokenBridge",
        "label": "sendAndCallEnabled",
        "offset": 0,
        "slot": "7",
        "type": "t_bool"
      },
      {
        "astId": 8440,
        "contract": "contracts/Bridge/MintableTokenBridge.sol:MintableTokenBridge",
        "label": "oracle",
        "offset": 1,
        "slot": "7",
        "type": "t_contract(ResilientOracleInterface)7761"
      },
      {
        "astId": 8445,
        "contract": "contracts/Bridge/MintableTokenBridge.sol:MintableTokenBridge",
        "label": "chainIdToMaxSingleTransactionLimit",
        "offset": 0,
        "slot": "8",
        "type": "t_mapping(t_uint16,t_uint256)"
      },
      {
        "astId": 8450,
        "contract": "contracts/Bridge/MintableTokenBridge.sol:MintableTokenBridge",
        "label": "chainIdToMaxDailyLimit",
        "offset": 0,
        "slot": "9",
        "type": "t_mapping(t_uint16,t_uint256)"
      },
      {
        "astId": 8455,
        "contract": "contracts/Bridge/MintableTokenBridge.sol:MintableTokenBridge",
        "label": "chainIdToLast24HourTransferred",
        "offset": 0,
        "slot": "10",
        "type": "t_mapping(t_uint16,t_uint256)"
      },
      {
        "astId": 8460,
        "contract": "contracts/Bridge/MintableTokenBridge.sol:MintableTokenBridge",
        "label": "chainIdToLast24HourWindowStart",
        "offset": 0,
        "slot": "11",
        "type": "t_mapping(t_uint16,t_uint256)"
      },
      {
        "astId": 8465,
        "contract": "contracts/Bridge/MintableTokenBridge.sol:MintableTokenBridge",
        "label": "chainIdToMaxSingleReceiveTransactionLimit",
        "offset": 0,
        "slot": "12",
        "type": "t_mapping(t_uint16,t_uint256)"
      },
      {
        "astId": 8470,
        "contract": "contracts/Bridge/MintableTokenBridge.sol:MintableTokenBridge",
        "label": "chainIdToMaxDailyReceiveLimit",
        "offset": 0,
        "slot": "13",
        "type": "t_mapping(t_uint16,t_uint256)"
      },
      {
        "astId": 8475,
        "contract": "contracts/Bridge/MintableTokenBridge.sol:MintableTokenBridge",
        "label": "chainIdToLast24HourReceived",
        "offset": 0,
        "slot": "14",
        "type": "t_mapping(t_uint16,t_uint256)"
      },
      {
        "astId": 8480,
        "contract": "contracts/Bridge/MintableTokenBridge.sol:MintableTokenBridge",
        "label": "chainIdToLast24HourReceiveWindowStart",
        "offset": 0,
        "slot": "15",
        "type": "t_mapping(t_uint16,t_uint256)"
      },
      {
        "astId": 8485,
        "contract": "contracts/Bridge/MintableTokenBridge.sol:MintableTokenBridge",
        "label": "whitelist",
        "offset": 0,
        "slot": "16",
        "type": "t_mapping(t_address,t_bool)"
      }
    ],
    "types": {
      "t_address": {
        "encoding": "inplace",
        "label": "address",
        "numberOfBytes": "20"
      },
      "t_bool": {
        "encoding": "inplace",
        "label": "bool",
        "numberOfBytes": "1"
      },
      "t_bytes32": {
        "encoding": "inplace",
        "label": "bytes32",
        "numberOfBytes": "32"
      },
      "t_bytes_memory_ptr": {
        "encoding": "bytes",
        "label": "bytes",
        "numberOfBytes": "32"
      },
      "t_bytes_storage": {
        "encoding": "bytes",
        "label": "bytes",
        "numberOfBytes": "32"
      },
      "t_contract(ResilientOracleInterface)7761": {
        "encoding": "inplace",
        "label": "contract ResilientOracleInterface",
        "numberOfBytes": "20"
      },
      "t_mapping(t_address,t_bool)": {
        "encoding": "mapping",
        "key": "t_address",
        "label": "mapping(address => bool)",
        "numberOfBytes": "32",
        "value": "t_bool"
      },
      "t_mapping(t_bytes_memory_ptr,t_mapping(t_uint64,t_bool))": {
        "encoding": "mapping",
        "key": "t_bytes_memory_ptr",
        "label": "mapping(bytes => mapping(uint64 => bool))",
        "numberOfBytes": "32",
        "value": "t_mapping(t_uint64,t_bool)"
      },
      "t_mapping(t_bytes_memory_ptr,t_mapping(t_uint64,t_bytes32))": {
        "encoding": "mapping",
        "key": "t_bytes_memory_ptr",
        "label": "mapping(bytes => mapping(uint64 => bytes32))",
        "numberOfBytes": "32",
        "value": "t_mapping(t_uint64,t_bytes32)"
      },
      "t_mapping(t_uint16,t_bytes_storage)": {
        "encoding": "mapping",
        "key": "t_uint16",
        "label": "mapping(uint16 => bytes)",
        "numberOfBytes": "32",
        "value": "t_bytes_storage"
      },
      "t_mapping(t_uint16,t_mapping(t_bytes_memory_ptr,t_mapping(t_uint64,t_bool)))": {
        "encoding": "mapping",
        "key": "t_uint16",
        "label": "mapping(uint16 => mapping(bytes => mapping(uint64 => bool)))",
        "numberOfBytes": "32",
        "value": "t_mapping(t_bytes_memory_ptr,t_mapping(t_uint64,t_bool))"
      },
      "t_mapping(t_uint16,t_mapping(t_bytes_memory_ptr,t_mapping(t_uint64,t_bytes32)))": {
        "encoding": "mapping",
        "key": "t_uint16",
        "label": "mapping(uint16 => mapping(bytes => mapping(uint64 => bytes32)))",
        "numberOfBytes": "32",
        "value": "t_mapping(t_bytes_memory_ptr,t_mapping(t_uint64,t_bytes32))"
      },
      "t_mapping(t_uint16,t_mapping(t_uint16,t_uint256))": {
        "encoding": "mapping",
        "key": "t_uint16",
        "label": "mapping(uint16 => mapping(uint16 => uint256))",
        "numberOfBytes": "32",
        "value": "t_mapping(t_uint16,t_uint256)"
      },
      "t_mapping(t_uint16,t_uint256)": {
        "encoding": "mapping",
        "key": "t_uint16",
        "label": "mapping(uint16 => uint256)",
        "numberOfBytes": "32",
        "value": "t_uint256"
      },
      "t_mapping(t_uint64,t_bool)": {
        "encoding": "mapping",
        "key": "t_uint64",
        "label": "mapping(uint64 => bool)",
        "numberOfBytes": "32",
        "value": "t_bool"
      },
      "t_mapping(t_uint64,t_bytes32)": {
        "encoding": "mapping",
        "key": "t_uint64",
        "label": "mapping(uint64 => bytes32)",
        "numberOfBytes": "32",
        "value": "t_bytes32"
      },
      "t_uint16": {
        "encoding": "inplace",
        "label": "uint16",
        "numberOfBytes": "2"
      },
      "t_uint256": {
        "encoding": "inplace",
        "label": "uint256",
        "numberOfBytes": "32"
      },
      "t_uint64": {
        "encoding": "inplace",
        "label": "uint64",
        "numberOfBytes": "8"
      }
    }
  }
}