{
  "address": "0x8598802a3498Cb7c1851A44FFB787DbC36c84200",
  "abi": [
    {
      "inputs": [
        {
          "internalType": "address",
          "name": "accessControlManager_",
          "type": "address"
        },
        {
          "internalType": "address",
          "name": "innerToken_",
          "type": "address"
        }
      ],
      "stateMutability": "nonpayable",
      "type": "constructor"
    },
    {
      "inputs": [
        {
          "internalType": "address",
          "name": "user",
          "type": "address"
        }
      ],
      "name": "AccountBlacklisted",
      "type": "error"
    },
    {
      "inputs": [],
      "name": "AddressesMustDiffer",
      "type": "error"
    },
    {
      "inputs": [],
      "name": "MintLimitExceed",
      "type": "error"
    },
    {
      "inputs": [],
      "name": "MintedAmountExceed",
      "type": "error"
    },
    {
      "inputs": [],
      "name": "NewCapNotGreaterThanMintedTokens",
      "type": "error"
    },
    {
      "inputs": [],
      "name": "Unauthorized",
      "type": "error"
    },
    {
      "inputs": [],
      "name": "ZeroAddressNotAllowed",
      "type": "error"
    },
    {
      "anonymous": false,
      "inputs": [
        {
          "indexed": true,
          "internalType": "address",
          "name": "user",
          "type": "address"
        },
        {
          "indexed": false,
          "internalType": "bool",
          "name": "value",
          "type": "bool"
        }
      ],
      "name": "BlacklistUpdated",
      "type": "event"
    },
    {
      "anonymous": false,
      "inputs": [
        {
          "indexed": true,
          "internalType": "address",
          "name": "minter",
          "type": "address"
        },
        {
          "indexed": false,
          "internalType": "uint256",
          "name": "amount",
          "type": "uint256"
        }
      ],
      "name": "MintCapChanged",
      "type": "event"
    },
    {
      "anonymous": false,
      "inputs": [
        {
          "indexed": true,
          "internalType": "address",
          "name": "minter",
          "type": "address"
        },
        {
          "indexed": false,
          "internalType": "uint256",
          "name": "newLimit",
          "type": "uint256"
        }
      ],
      "name": "MintLimitDecreased",
      "type": "event"
    },
    {
      "anonymous": false,
      "inputs": [
        {
          "indexed": true,
          "internalType": "address",
          "name": "minter",
          "type": "address"
        },
        {
          "indexed": false,
          "internalType": "uint256",
          "name": "newLimit",
          "type": "uint256"
        }
      ],
      "name": "MintLimitIncreased",
      "type": "event"
    },
    {
      "anonymous": false,
      "inputs": [
        {
          "indexed": true,
          "internalType": "address",
          "name": "source",
          "type": "address"
        },
        {
          "indexed": true,
          "internalType": "address",
          "name": "destination",
          "type": "address"
        }
      ],
      "name": "MintedTokensMigrated",
      "type": "event"
    },
    {
      "anonymous": false,
      "inputs": [
        {
          "indexed": true,
          "internalType": "address",
          "name": "oldAccessControlManager",
          "type": "address"
        },
        {
          "indexed": true,
          "internalType": "address",
          "name": "newAccessControlManager",
          "type": "address"
        }
      ],
      "name": "NewAccessControlManager",
      "type": "event"
    },
    {
      "anonymous": false,
      "inputs": [
        {
          "indexed": true,
          "internalType": "address",
          "name": "previousOwner",
          "type": "address"
        },
        {
          "indexed": true,
          "internalType": "address",
          "name": "newOwner",
          "type": "address"
        }
      ],
      "name": "OwnershipTransferred",
      "type": "event"
    },
    {
      "anonymous": false,
      "inputs": [
        {
          "indexed": false,
          "internalType": "address",
          "name": "account",
          "type": "address"
        }
      ],
      "name": "Paused",
      "type": "event"
    },
    {
      "anonymous": false,
      "inputs": [
        {
          "indexed": false,
          "internalType": "address",
          "name": "account",
          "type": "address"
        }
      ],
      "name": "Unpaused",
      "type": "event"
    },
    {
      "inputs": [],
      "name": "INNER_TOKEN",
      "outputs": [
        {
          "internalType": "contract IMultichainToken",
          "name": "",
          "type": "address"
        }
      ],
      "stateMutability": "view",
      "type": "function"
    },
    {
      "inputs": [],
      "name": "accessControlManager",
      "outputs": [
        {
          "internalType": "address",
          "name": "",
          "type": "address"
        }
      ],
      "stateMutability": "view",
      "type": "function"
    },
    {
      "inputs": [
        {
          "internalType": "address",
          "name": "account_",
          "type": "address"
        },
        {
          "internalType": "uint256",
          "name": "amount_",
          "type": "uint256"
        }
      ],
      "name": "burn",
      "outputs": [],
      "stateMutability": "nonpayable",
      "type": "function"
    },
    {
      "inputs": [
        {
          "internalType": "address",
          "name": "user_",
          "type": "address"
        }
      ],
      "name": "isBlackListed",
      "outputs": [
        {
          "internalType": "bool",
          "name": "",
          "type": "bool"
        }
      ],
      "stateMutability": "view",
      "type": "function"
    },
    {
      "inputs": [
        {
          "internalType": "address",
          "name": "source_",
          "type": "address"
        },
        {
          "internalType": "address",
          "name": "destination_",
          "type": "address"
        }
      ],
      "name": "migrateMinterTokens",
      "outputs": [],
      "stateMutability": "nonpayable",
      "type": "function"
    },
    {
      "inputs": [
        {
          "internalType": "address",
          "name": "account_",
          "type": "address"
        },
        {
          "internalType": "uint256",
          "name": "amount_",
          "type": "uint256"
        }
      ],
      "name": "mint",
      "outputs": [],
      "stateMutability": "nonpayable",
      "type": "function"
    },
    {
      "inputs": [
        {
          "internalType": "address",
          "name": "",
          "type": "address"
        }
      ],
      "name": "minterToCap",
      "outputs": [
        {
          "internalType": "uint256",
          "name": "",
          "type": "uint256"
        }
      ],
      "stateMutability": "view",
      "type": "function"
    },
    {
      "inputs": [
        {
          "internalType": "address",
          "name": "",
          "type": "address"
        }
      ],
      "name": "minterToMintedAmount",
      "outputs": [
        {
          "internalType": "uint256",
          "name": "",
          "type": "uint256"
        }
      ],
      "stateMutability": "view",
      "type": "function"
    },
    {
      "inputs": [],
      "name": "owner",
      "outputs": [
        {
          "internalType": "address",
          "name": "",
          "type": "address"
        }
      ],
      "stateMutability": "view",
      "type": "function"
    },
    {
      "inputs": [],
      "name": "pause",
      "outputs": [],
      "stateMutability": "nonpayable",
      "type": "function"
    },
    {
      "inputs": [],
      "name": "paused",
      "outputs": [
        {
          "internalType": "bool",
          "name": "",
          "type": "bool"
        }
      ],
      "stateMutability": "view",
      "type": "function"
    },
    {
      "inputs": [],
      "name": "renounceOwnership",
      "outputs": [],
      "stateMutability": "nonpayable",
      "type": "function"
    },
    {
      "inputs": [
        {
          "internalType": "address",
          "name": "newAccessControlAddress_",
          "type": "address"
        }
      ],
      "name": "setAccessControlManager",
      "outputs": [],
      "stateMutability": "nonpayable",
      "type": "function"
    },
    {
      "inputs": [
        {
          "internalType": "address",
          "name": "minter_",
          "type": "address"
        },
        {
          "internalType": "uint256",
          "name": "amount_",
          "type": "uint256"
        }
      ],
      "name": "setMintCap",
      "outputs": [],
      "stateMutability": "nonpayable",
      "type": "function"
    },
    {
      "inputs": [
        {
          "internalType": "address",
          "name": "newOwner",
          "type": "address"
        }
      ],
      "name": "transferOwnership",
      "outputs": [],
      "stateMutability": "nonpayable",
      "type": "function"
    },
    {
      "inputs": [],
      "name": "unpause",
      "outputs": [],
      "stateMutability": "nonpayable",
      "type": "function"
    },
    {
      "inputs": [
        {
          "internalType": "address",
          "name": "user_",
          "type": "address"
        },
        {
          "internalType": "bool",
          "name": "value_",
          "type": "bool"
        }
      ],
      "name": "updateBlacklist",
      "outputs": [],
      "stateMutability": "nonpayable",
      "type": "function"
    }
  ],
  "transactionHash": "0xd8f0c255f6628f4fea95a93c6e3fc4280623d0204dabc44c7a86beef3c287275",
  "args": [
    "0x45f8a08F534f34A97187626E05d4b6648Eeaa9AA",
    "0x5fFbE5302BadED40941A403228E6AD03f93752d9"
  ],
  "numDeployments": 1,
  "solcInputHash": "ba3acef4c4dcb8e156f23e4215f06751",
  "bytecode": "0x60a06040523480156200001157600080fd5b50604051620010ca380380620010ca83398101604081905262000034916200012e565b81620000403362000096565b6000805460ff60a01b191690556200005881620000e6565b600180546001600160a01b0319166001600160a01b03929092169190911790556200008381620000e6565b6001600160a01b03166080525062000166565b600080546001600160a01b038381166001600160a01b0319831681178455604051919092169283917f8be0079c531659141344cd1fd0a4f28419497f9722a3daafe3b4186f6b6457e09190a35050565b6001600160a01b0381166200010e576040516342bcdf7f60e11b815260040160405180910390fd5b50565b80516001600160a01b03811681146200012957600080fd5b919050565b600080604083850312156200014257600080fd5b6200014d8362000111565b91506200015d6020840162000111565b90509250929050565b608051610f3a6200019060003960008181610289015281816103c401526105720152610f3a6000f3fe608060405234801561001057600080fd5b506004361061010b5760003560e01c80638da5cb5b116100a2578063c06abe7711610071578063c06abe771461021f578063d89e2dac14610232578063e47d606014610245578063f2fde38b14610271578063ff2951f91461028457600080fd5b80638da5cb5b146101c15780639155e083146101e65780639dc29fac146101f9578063b4a0bdf31461020c57600080fd5b80635c975abb116100de5780635c975abb14610173578063715018a6146101915780637b517334146101995780638456cb59146101b957600080fd5b80630e32cb8614610110578063391efe12146101255780633f4ba83a1461015857806340c10f1914610160575b600080fd5b61012361011e366004610d55565b6102ab565b005b610145610133366004610d55565b60036020526000908152604090205481565b6040519081526020015b60405180910390f35b610123610318565b61012361016e366004610d77565b61034c565b600054600160a01b900460ff165b604051901515815260200161014f565b610123610424565b6101456101a7366004610d55565b60046020526000908152604090205481565b610123610436565b6000546001600160a01b03165b6040516001600160a01b03909116815260200161014f565b6101236101f4366004610daf565b610466565b610123610207366004610d77565b610504565b6001546101ce906001600160a01b031681565b61012361022d366004610d77565b6105dc565b610123610240366004610de6565b6106a0565b610181610253366004610d55565b6001600160a01b031660009081526002602052604090205460ff1690565b61012361027f366004610d55565b610848565b6101ce7f000000000000000000000000000000000000000000000000000000000000000081565b6102b36108c6565b6102bc81610920565b6001546040516001600160a01b038084169216907f66fd58e82f7b31a2a5c30e0888f3093efe4e111b00cd2b0c31fe014601293aa090600090a3600180546001600160a01b0319166001600160a01b0392909216919091179055565b61034260405180604001604052806009815260200168756e7061757365282960b81b815250610947565b61034a6109d6565b565b610354610a2b565b61038a604051806040016040528060158152602001746d696e7428616464726573732c75696e743235362960581b815250610947565b6103943383610a78565b61039e3382610b0a565b6040516340c10f1960e01b81526001600160a01b038381166004830152602482018390527f000000000000000000000000000000000000000000000000000000000000000016906340c10f1990604401600060405180830381600087803b15801561040857600080fd5b505af115801561041c573d6000803e3d6000fd5b505050505050565b61042c6108c6565b61034a6000610bbf565b61045e604051806040016040528060078152602001667061757365282960c81b815250610947565b61034a610c0f565b6104a46040518060400160405280601d81526020017f757064617465426c61636b6c69737428616464726573732c626f6f6c29000000815250610947565b6001600160a01b038216600081815260026020908152604091829020805460ff191685151590811790915591519182527f6a12b3df6cba4203bd7fd06b816789f87de8c594299aed5717ae070fac781bac91015b60405180910390a25050565b61050c610a2b565b610542604051806040016040528060158152602001746275726e28616464726573732c75696e743235362960581b815250610947565b61054c3383610a78565b604051632770a7eb60e21b81526001600160a01b038381166004830152602482018390527f00000000000000000000000000000000000000000000000000000000000000001690639dc29fac90604401600060405180830381600087803b1580156105b657600080fd5b505af11580156105ca573d6000803e3d6000fd5b505050506105d83382610c52565b5050565b61061a6040518060400160405280601b81526020017f7365744d696e7443617028616464726573732c75696e74323536290000000000815250610947565b6001600160a01b0382166000908152600460205260409020548110156106535760405163ce89973d60e01b815260040160405180910390fd5b6001600160a01b03821660008181526003602052604090819020839055517f01a85f4ecff52e70907e25b863010bca98a9458d9f2fe9b3efb4c47d197e6448906104f89084815260200190565b6106c1604051806060016040528060248152602001610ee160249139610947565b806001600160a01b0316826001600160a01b0316036106f3576040516380ae98f560e01b815260040160405180910390fd5b6001600160a01b038083166000818152600360209081526040808320549486168084528184205494845260049092528083205491835282205490916107388383610e2f565b90508381111561075b57604051634f2dbd1d60e01b815260040160405180910390fd5b6001600160a01b038781166000908152600460209081526040808320839055928916808352918390208490559151838703808252927fbe214d1fa2403a39be9a36c9f4b45125eba30bf27a8b56a619baf00493ad3e61910160405180910390a2876001600160a01b03167f0831a8ba59684daef8a957d2bd2d943e233993771429e9a17b71ddb1cea35cdb876040516107f691815260200190565b60405180910390a2866001600160a01b0316886001600160a01b03167f63ce671e4a37975f0a9e340f6f72320c617a5f728b83e3860b03aa847dc26ebb60405160405180910390a35050505050505050565b6108506108c6565b6001600160a01b0381166108ba5760405162461bcd60e51b815260206004820152602660248201527f4f776e61626c653a206e6577206f776e657220697320746865207a65726f206160448201526564647265737360d01b60648201526084015b60405180910390fd5b6108c381610bbf565b50565b6000546001600160a01b0316331461034a5760405162461bcd60e51b815260206004820181905260248201527f4f776e61626c653a2063616c6c6572206973206e6f7420746865206f776e657260448201526064016108b1565b6001600160a01b0381166108c3576040516342bcdf7f60e11b815260040160405180910390fd5b6001546040516318c5e8ab60e01b81526001600160a01b03909116906318c5e8ab906109799033908590600401610e47565b602060405180830381865afa158015610996573d6000803e3d6000fd5b505050506040513d601f19601f820116820180604052508101906109ba9190610eac565b6108c3576040516282b42960e81b815260040160405180910390fd5b6109de610ce9565b6000805460ff60a01b191690557f5db9ee0a495bf2e6ff9c91a7834c1ba4fdd244a5e8aa4e537bd38aeae4b073aa335b6040516001600160a01b03909116815260200160405180910390a1565b600054600160a01b900460ff161561034a5760405162461bcd60e51b815260206004820152601060248201526f14185d5cd8589b194e881c185d5cd95960821b60448201526064016108b1565b610a80610a2b565b6001600160a01b03811660009081526002602052604090205460ff1615610ac55760405163571f7b4960e01b81526001600160a01b03821660048201526024016108b1565b6001600160a01b03821660009081526002602052604090205460ff16156105d85760405163571f7b4960e01b81526001600160a01b03831660048201526024016108b1565b6001600160a01b03821660009081526003602090815260408083205460049092528220549091610b3a8483610e2f565b905082811115610b5d57604051634f2dbd1d60e01b815260040160405180910390fd5b6001600160a01b038516600081815260046020526040908190208390555182850391907fbe214d1fa2403a39be9a36c9f4b45125eba30bf27a8b56a619baf00493ad3e6190610baf9084815260200190565b60405180910390a2505050505050565b600080546001600160a01b038381166001600160a01b0319831681178455604051919092169283917f8be0079c531659141344cd1fd0a4f28419497f9722a3daafe3b4186f6b6457e09190a35050565b610c17610a2b565b6000805460ff60a01b1916600160a01b1790557f62e78cea01bee320cd4e420270b5ea74000d11b0c9f74754ebdbfc544b05a258610a0e3390565b336000908152600460205260408120549082821015610c715781610c73565b825b6001600160a01b038516600090815260046020908152604080832084870390819055600390925282205492935091610cac908390610ec9565b9050856001600160a01b03167f0831a8ba59684daef8a957d2bd2d943e233993771429e9a17b71ddb1cea35cdb82604051610baf91815260200190565b600054600160a01b900460ff1661034a5760405162461bcd60e51b815260206004820152601460248201527314185d5cd8589b194e881b9bdd081c185d5cd95960621b60448201526064016108b1565b80356001600160a01b0381168114610d5057600080fd5b919050565b600060208284031215610d6757600080fd5b610d7082610d39565b9392505050565b60008060408385031215610d8a57600080fd5b610d9383610d39565b946020939093013593505050565b80151581146108c357600080fd5b60008060408385031215610dc257600080fd5b610dcb83610d39565b91506020830135610ddb81610da1565b809150509250929050565b60008060408385031215610df957600080fd5b610e0283610d39565b9150610e1060208401610d39565b90509250929050565b634e487b7160e01b600052601160045260246000fd5b60008219821115610e4257610e42610e19565b500190565b60018060a01b038316815260006020604081840152835180604085015260005b81811015610e8357858101830151858201606001528201610e67565b81811115610e95576000606083870101525b50601f01601f191692909201606001949350505050565b600060208284031215610ebe57600080fd5b8151610d7081610da1565b600082821015610edb57610edb610e19565b50039056fe6d6967726174654d696e746572546f6b656e7328616464726573732c6164647265737329a26469706673582212203f6e87eaa354b7f79f4e1766a97e086d3d9539c5338d54c5c133e02da6260c9e64736f6c634300080d0033",
  "devdoc": {
    "author": "Venus",
    "kind": "dev",
    "methods": {
      "burn(address,uint256)": {
        "custom:access": "Controlled by AccessControlManager.",
        "custom:event": "Emits MintLimitIncreased with new available limit.",
        "params": {
          "account_": "Address from which tokens be destroyed.",
          "amount_": "Amount of tokens to be destroyed."
        }
      },
      "isBlackListed(address)": {
        "params": {
          "user_": "Address of user to check blacklist status."
        },
        "returns": {
          "_0": "bool status of blacklist."
        }
      },
      "migrateMinterTokens(address,address)": {
        "custom:access": "Controlled by AccessControlManager.",
        "custom:error": "MintLimitExceed is thrown when the minting limit exceeds the cap after migration.AddressesMustDiffer is thrown when the source_ and destination_ addresses are the same.",
        "custom:event": "Emits MintLimitIncreased and MintLimitDecreased events for 'source' and 'destination'.Emits MintedTokensMigrated.",
        "params": {
          "destination_": "Minter address to migrate tokens to.",
          "source_": "Minter address to migrate tokens from."
        }
      },
      "mint(address,uint256)": {
        "custom:access": "Controlled by AccessControlManager.",
        "custom:error": "MintLimitExceed is thrown when minting amount exceeds the maximum cap.",
        "custom:event": "Emits MintLimitDecreased with new available limit.",
        "params": {
          "account_": "Address to which tokens are assigned.",
          "amount_": "Amount of tokens to be assigned."
        }
      },
      "owner()": {
        "details": "Returns the address of the current owner."
      },
      "pause()": {
        "custom:access": "Controlled by AccessControlManager."
      },
      "paused()": {
        "details": "Returns true if the contract is paused, and false otherwise."
      },
      "renounceOwnership()": {
        "details": "Leaves the contract without owner. It will not be possible to call `onlyOwner` functions. Can only be called by the current owner. NOTE: Renouncing ownership will leave the contract without an owner, thereby disabling any functionality that is only available to the owner."
      },
      "setAccessControlManager(address)": {
        "custom:access": "Only owner.",
        "custom:error": "ZeroAddressNotAllowed is thrown when newAccessControlAddress_ contract address is zero.",
        "custom:event": "Emits NewAccessControlManager.",
        "details": "Admin function to set the access control address.",
        "params": {
          "newAccessControlAddress_": "New address for the access control."
        }
      },
      "setMintCap(address,uint256)": {
        "custom:access": "Controlled by AccessControlManager.",
        "custom:event": "Emits MintCapChanged.",
        "params": {
          "amount_": "Cap for the minter.",
          "minter_": "Minter address."
        }
      },
      "transferOwnership(address)": {
        "details": "Transfers ownership of the contract to a new account (`newOwner`). Can only be called by the current owner."
      },
      "unpause()": {
        "custom:access": "Controlled by AccessControlManager."
      },
      "updateBlacklist(address,bool)": {
        "custom:access": "Controlled by AccessControlManager.",
        "custom:event": "Emits BlacklistUpdated event.",
        "params": {
          "user_": "User address to be affected.",
          "value_": "Boolean to toggle value."
        }
      }
    },
    "title": "TokenBridgeController",
    "version": 1
  },
  "userdoc": {
    "errors": {
      "AccountBlacklisted(address)": [
        {
          "notice": "This error is used to indicate that `mint` `burn` and `transfer` actions are not allowed for the user address."
        }
      ],
      "AddressesMustDiffer()": [
        {
          "notice": "This error is used to indicate that the addresses must be different."
        }
      ],
      "MintLimitExceed()": [
        {
          "notice": "This error is used to indicate that the minting limit has been exceeded. It is typically thrown when a minting operation would surpass the defined cap."
        }
      ],
      "MintedAmountExceed()": [
        {
          "notice": "This error is used to indicate that the minter did not mint the required amount of tokens."
        }
      ],
      "NewCapNotGreaterThanMintedTokens()": [
        {
          "notice": "This error is used to indicate that the new cap is greater than the previously minted tokens for the minter."
        }
      ],
      "Unauthorized()": [
        {
          "notice": "This error is used to indicate that sender is not allowed to perform this action."
        }
      ],
      "ZeroAddressNotAllowed()": [
        {
          "notice": "Thrown if the supplied address is a zero address where it is not allowed"
        }
      ]
    },
    "events": {
      "BlacklistUpdated(address,bool)": {
        "notice": "Emitted when the blacklist status of a user is updated."
      },
      "MintCapChanged(address,uint256)": {
        "notice": "Emitted when the minting cap for a minter is changed."
      },
      "MintLimitDecreased(address,uint256)": {
        "notice": "Emitted when the minting limit for a minter is decreased."
      },
      "MintLimitIncreased(address,uint256)": {
        "notice": "Emitted when the minting limit for a minter is increased."
      },
      "MintedTokensMigrated(address,address)": {
        "notice": "Emitted when all minted tokens are migrated from one minter to another."
      },
      "NewAccessControlManager(address,address)": {
        "notice": "Emitted when the address of the access control manager of the contract is updated."
      }
    },
    "kind": "user",
    "methods": {
      "INNER_TOKEN()": {
        "notice": "Address of the token which is controlled by this contract."
      },
      "accessControlManager()": {
        "notice": "Access control manager contract address."
      },
      "burn(address,uint256)": {
        "notice": "Destroys `amount_` tokens from `account_`, reducing the total supply. Checks access and eligibility."
      },
      "isBlackListed(address)": {
        "notice": "Returns the blacklist status of the address."
      },
      "migrateMinterTokens(address,address)": {
        "notice": "Migrates all minted tokens from one minter to another. This function is useful when we want to permanent take down a bridge."
      },
      "mint(address,uint256)": {
        "notice": "Creates `amount_` tokens and assigns them to `account_`, increasing the total supply. Checks access and eligibility."
      },
      "minterToCap(address)": {
        "notice": "A mapping is used to keep track of the maximum amount a minter is permitted to mint."
      },
      "minterToMintedAmount(address)": {
        "notice": "A Mapping used to keep track of the amount i.e already minted by minter."
      },
      "pause()": {
        "notice": "Pauses Token"
      },
      "setAccessControlManager(address)": {
        "notice": "Sets the address of the access control manager of this contract."
      },
      "setMintCap(address,uint256)": {
        "notice": "Sets the minting cap for minter."
      },
      "unpause()": {
        "notice": "Resumes Token"
      },
      "updateBlacklist(address,bool)": {
        "notice": "Function to update blacklist."
      }
    },
    "notice": "TokenBridgeController contract serves as a intermidiary contract between bridge and token. It controls the mint and burn operation via bridge contract.  It also incorporates access control features provided by the \"TokenController\" contract to ensure proper governance and restrictions on minting and burning operations.",
    "version": 1
  },
  "storageLayout": {
    "storage": [
      {
        "astId": 2745,
        "contract": "contracts/Token/TokenBridgeController.sol:TokenBridgeController",
        "label": "_owner",
        "offset": 0,
        "slot": "0",
        "type": "t_address"
      },
      {
        "astId": 2868,
        "contract": "contracts/Token/TokenBridgeController.sol:TokenBridgeController",
        "label": "_paused",
        "offset": 20,
        "slot": "0",
        "type": "t_bool"
      },
      {
        "astId": 6010,
        "contract": "contracts/Token/TokenBridgeController.sol:TokenBridgeController",
        "label": "accessControlManager",
        "offset": 0,
        "slot": "1",
        "type": "t_address"
      },
      {
        "astId": 6015,
        "contract": "contracts/Token/TokenBridgeController.sol:TokenBridgeController",
        "label": "_blacklist",
        "offset": 0,
        "slot": "2",
        "type": "t_mapping(t_address,t_bool)"
      },
      {
        "astId": 6020,
        "contract": "contracts/Token/TokenBridgeController.sol:TokenBridgeController",
        "label": "minterToCap",
        "offset": 0,
        "slot": "3",
        "type": "t_mapping(t_address,t_uint256)"
      },
      {
        "astId": 6025,
        "contract": "contracts/Token/TokenBridgeController.sol:TokenBridgeController",
        "label": "minterToMintedAmount",
        "offset": 0,
        "slot": "4",
        "type": "t_mapping(t_address,t_uint256)"
      }
    ],
    "types": {
      "t_address": {
        "encoding": "inplace",
        "label": "address",
        "numberOfBytes": "20"
      },
      "t_bool": {
        "encoding": "inplace",
        "label": "bool",
        "numberOfBytes": "1"
      },
      "t_mapping(t_address,t_bool)": {
        "encoding": "mapping",
        "key": "t_address",
        "label": "mapping(address => bool)",
        "numberOfBytes": "32",
        "value": "t_bool"
      },
      "t_mapping(t_address,t_uint256)": {
        "encoding": "mapping",
        "key": "t_address",
        "label": "mapping(address => uint256)",
        "numberOfBytes": "32",
        "value": "t_uint256"
      },
      "t_uint256": {
        "encoding": "inplace",
        "label": "uint256",
        "numberOfBytes": "32"
      }
    }
  }
}