{
  "address": "0x963cAbDC5bb51C1479ec94Df44DE2EC1a49439E3",
  "abi": [
    {
      "inputs": [
        {
          "internalType": "address",
          "name": "tokenAddress_",
          "type": "address"
        },
        {
          "internalType": "uint8",
          "name": "sharedDecimals_",
          "type": "uint8"
        },
        {
          "internalType": "address",
          "name": "lzEndpoint_",
          "type": "address"
        },
        {
          "internalType": "address",
          "name": "oracle_",
          "type": "address"
        }
      ],
      "stateMutability": "nonpayable",
      "type": "constructor"
    },
    {
      "inputs": [],
      "name": "ZeroAddressNotAllowed",
      "type": "error"
    },
    {
      "anonymous": false,
      "inputs": [
        {
          "indexed": true,
          "internalType": "uint16",
          "name": "_srcChainId",
          "type": "uint16"
        },
        {
          "indexed": false,
          "internalType": "bytes",
          "name": "_srcAddress",
          "type": "bytes"
        },
        {
          "indexed": false,
          "internalType": "uint64",
          "name": "_nonce",
          "type": "uint64"
        },
        {
          "indexed": false,
          "internalType": "bytes32",
          "name": "_hash",
          "type": "bytes32"
        }
      ],
      "name": "CallOFTReceivedSuccess",
      "type": "event"
    },
    {
      "anonymous": false,
      "inputs": [
        {
          "indexed": false,
          "internalType": "uint16",
          "name": "srcChainId",
          "type": "uint16"
        },
        {
          "indexed": true,
          "internalType": "bytes",
          "name": "srcAddress",
          "type": "bytes"
        },
        {
          "indexed": false,
          "internalType": "uint64",
          "name": "nonce",
          "type": "uint64"
        }
      ],
      "name": "DropFailedMessage",
      "type": "event"
    },
    {
      "anonymous": false,
      "inputs": [
        {
          "indexed": true,
          "internalType": "address",
          "name": "to",
          "type": "address"
        },
        {
          "indexed": false,
          "internalType": "uint256",
          "name": "amount",
          "type": "uint256"
        }
      ],
      "name": "FallbackWithdraw",
      "type": "event"
    },
    {
      "anonymous": false,
      "inputs": [
        {
          "indexed": true,
          "internalType": "address",
          "name": "innerToken",
          "type": "address"
        }
      ],
      "name": "InnerTokenAdded",
      "type": "event"
    },
    {
      "anonymous": false,
      "inputs": [
        {
          "indexed": false,
          "internalType": "uint16",
          "name": "_srcChainId",
          "type": "uint16"
        },
        {
          "indexed": false,
          "internalType": "bytes",
          "name": "_srcAddress",
          "type": "bytes"
        },
        {
          "indexed": false,
          "internalType": "uint64",
          "name": "_nonce",
          "type": "uint64"
        },
        {
          "indexed": false,
          "internalType": "bytes",
          "name": "_payload",
          "type": "bytes"
        },
        {
          "indexed": false,
          "internalType": "bytes",
          "name": "_reason",
          "type": "bytes"
        }
      ],
      "name": "MessageFailed",
      "type": "event"
    },
    {
      "anonymous": false,
      "inputs": [
        {
          "indexed": false,
          "internalType": "address",
          "name": "_address",
          "type": "address"
        }
      ],
      "name": "NonContractAddress",
      "type": "event"
    },
    {
      "anonymous": false,
      "inputs": [
        {
          "indexed": true,
          "internalType": "address",
          "name": "oldOracle",
          "type": "address"
        },
        {
          "indexed": true,
          "internalType": "address",
          "name": "newOracle",
          "type": "address"
        }
      ],
      "name": "OracleChanged",
      "type": "event"
    },
    {
      "anonymous": false,
      "inputs": [
        {
          "indexed": true,
          "internalType": "address",
          "name": "previousOwner",
          "type": "address"
        },
        {
          "indexed": true,
          "internalType": "address",
          "name": "newOwner",
          "type": "address"
        }
      ],
      "name": "OwnershipTransferred",
      "type": "event"
    },
    {
      "anonymous": false,
      "inputs": [
        {
          "indexed": false,
          "internalType": "address",
          "name": "account",
          "type": "address"
        }
      ],
      "name": "Paused",
      "type": "event"
    },
    {
      "anonymous": false,
      "inputs": [
        {
          "indexed": true,
          "internalType": "uint16",
          "name": "_srcChainId",
          "type": "uint16"
        },
        {
          "indexed": true,
          "internalType": "address",
          "name": "_to",
          "type": "address"
        },
        {
          "indexed": false,
          "internalType": "uint256",
          "name": "_amount",
          "type": "uint256"
        }
      ],
      "name": "ReceiveFromChain",
      "type": "event"
    },
    {
      "anonymous": false,
      "inputs": [
        {
          "indexed": false,
          "internalType": "uint16",
          "name": "_srcChainId",
          "type": "uint16"
        },
        {
          "indexed": false,
          "internalType": "bytes",
          "name": "_srcAddress",
          "type": "bytes"
        },
        {
          "indexed": false,
          "internalType": "uint64",
          "name": "_nonce",
          "type": "uint64"
        },
        {
          "indexed": false,
          "internalType": "bytes32",
          "name": "_payloadHash",
          "type": "bytes32"
        }
      ],
      "name": "RetryMessageSuccess",
      "type": "event"
    },
    {
      "anonymous": false,
      "inputs": [
        {
          "indexed": true,
          "internalType": "uint16",
          "name": "_dstChainId",
          "type": "uint16"
        },
        {
          "indexed": true,
          "internalType": "address",
          "name": "_from",
          "type": "address"
        },
        {
          "indexed": true,
          "internalType": "bytes32",
          "name": "_toAddress",
          "type": "bytes32"
        },
        {
          "indexed": false,
          "internalType": "uint256",
          "name": "_amount",
          "type": "uint256"
        }
      ],
      "name": "SendToChain",
      "type": "event"
    },
    {
      "anonymous": false,
      "inputs": [
        {
          "indexed": false,
          "internalType": "uint16",
          "name": "chainId",
          "type": "uint16"
        },
        {
          "indexed": false,
          "internalType": "uint256",
          "name": "oldMaxLimit",
          "type": "uint256"
        },
        {
          "indexed": false,
          "internalType": "uint256",
          "name": "newMaxLimit",
          "type": "uint256"
        }
      ],
      "name": "SetMaxDailyLimit",
      "type": "event"
    },
    {
      "anonymous": false,
      "inputs": [
        {
          "indexed": false,
          "internalType": "uint16",
          "name": "chainId",
          "type": "uint16"
        },
        {
          "indexed": false,
          "internalType": "uint256",
          "name": "oldMaxLimit",
          "type": "uint256"
        },
        {
          "indexed": false,
          "internalType": "uint256",
          "name": "newMaxLimit",
          "type": "uint256"
        }
      ],
      "name": "SetMaxDailyReceiveLimit",
      "type": "event"
    },
    {
      "anonymous": false,
      "inputs": [
        {
          "indexed": false,
          "internalType": "uint16",
          "name": "chainId",
          "type": "uint16"
        },
        {
          "indexed": false,
          "internalType": "uint256",
          "name": "oldMaxLimit",
          "type": "uint256"
        },
        {
          "indexed": false,
          "internalType": "uint256",
          "name": "newMaxLimit",
          "type": "uint256"
        }
      ],
      "name": "SetMaxSingleReceiveTransactionLimit",
      "type": "event"
    },
    {
      "anonymous": false,
      "inputs": [
        {
          "indexed": false,
          "internalType": "uint16",
          "name": "chainId",
          "type": "uint16"
        },
        {
          "indexed": false,
          "internalType": "uint256",
          "name": "oldMaxLimit",
          "type": "uint256"
        },
        {
          "indexed": false,
          "internalType": "uint256",
          "name": "newMaxLimit",
          "type": "uint256"
        }
      ],
      "name": "SetMaxSingleTransactionLimit",
      "type": "event"
    },
    {
      "anonymous": false,
      "inputs": [
        {
          "indexed": false,
          "internalType": "uint16",
          "name": "_dstChainId",
          "type": "uint16"
        },
        {
          "indexed": false,
          "internalType": "uint16",
          "name": "_type",
          "type": "uint16"
        },
        {
          "indexed": false,
          "internalType": "uint256",
          "name": "_minDstGas",
          "type": "uint256"
        }
      ],
      "name": "SetMinDstGas",
      "type": "event"
    },
    {
      "anonymous": false,
      "inputs": [
        {
          "indexed": false,
          "internalType": "address",
          "name": "precrime",
          "type": "address"
        }
      ],
      "name": "SetPrecrime",
      "type": "event"
    },
    {
      "anonymous": false,
      "inputs": [
        {
          "indexed": false,
          "internalType": "uint16",
          "name": "_remoteChainId",
          "type": "uint16"
        },
        {
          "indexed": false,
          "internalType": "bytes",
          "name": "_path",
          "type": "bytes"
        }
      ],
      "name": "SetTrustedRemote",
      "type": "event"
    },
    {
      "anonymous": false,
      "inputs": [
        {
          "indexed": false,
          "internalType": "uint16",
          "name": "_remoteChainId",
          "type": "uint16"
        },
        {
          "indexed": false,
          "internalType": "bytes",
          "name": "_remoteAddress",
          "type": "bytes"
        }
      ],
      "name": "SetTrustedRemoteAddress",
      "type": "event"
    },
    {
      "anonymous": false,
      "inputs": [
        {
          "indexed": true,
          "internalType": "address",
          "name": "addr",
          "type": "address"
        },
        {
          "indexed": false,
          "internalType": "bool",
          "name": "isWhitelist",
          "type": "bool"
        }
      ],
      "name": "SetWhitelist",
      "type": "event"
    },
    {
      "anonymous": false,
      "inputs": [
        {
          "indexed": false,
          "internalType": "uint16",
          "name": "chainId",
          "type": "uint16"
        }
      ],
      "name": "TrustedRemoteRemoved",
      "type": "event"
    },
    {
      "anonymous": false,
      "inputs": [
        {
          "indexed": false,
          "internalType": "address",
          "name": "account",
          "type": "address"
        }
      ],
      "name": "Unpaused",
      "type": "event"
    },
    {
      "inputs": [],
      "name": "DEFAULT_PAYLOAD_SIZE_LIMIT",
      "outputs": [
        {
          "internalType": "uint256",
          "name": "",
          "type": "uint256"
        }
      ],
      "stateMutability": "view",
      "type": "function"
    },
    {
      "inputs": [],
      "name": "NO_EXTRA_GAS",
      "outputs": [
        {
          "internalType": "uint256",
          "name": "",
          "type": "uint256"
        }
      ],
      "stateMutability": "view",
      "type": "function"
    },
    {
      "inputs": [],
      "name": "PT_SEND",
      "outputs": [
        {
          "internalType": "uint8",
          "name": "",
          "type": "uint8"
        }
      ],
      "stateMutability": "view",
      "type": "function"
    },
    {
      "inputs": [],
      "name": "PT_SEND_AND_CALL",
      "outputs": [
        {
          "internalType": "uint8",
          "name": "",
          "type": "uint8"
        }
      ],
      "stateMutability": "view",
      "type": "function"
    },
    {
      "inputs": [
        {
          "internalType": "uint16",
          "name": "_srcChainId",
          "type": "uint16"
        },
        {
          "internalType": "bytes",
          "name": "_srcAddress",
          "type": "bytes"
        },
        {
          "internalType": "uint64",
          "name": "_nonce",
          "type": "uint64"
        },
        {
          "internalType": "bytes32",
          "name": "_from",
          "type": "bytes32"
        },
        {
          "internalType": "address",
          "name": "_to",
          "type": "address"
        },
        {
          "internalType": "uint256",
          "name": "_amount",
          "type": "uint256"
        },
        {
          "internalType": "bytes",
          "name": "_payload",
          "type": "bytes"
        },
        {
          "internalType": "uint256",
          "name": "_gasForCall",
          "type": "uint256"
        }
      ],
      "name": "callOnOFTReceived",
      "outputs": [],
      "stateMutability": "nonpayable",
      "type": "function"
    },
    {
      "inputs": [
        {
          "internalType": "uint16",
          "name": "",
          "type": "uint16"
        }
      ],
      "name": "chainIdToLast24HourReceiveWindowStart",
      "outputs": [
        {
          "internalType": "uint256",
          "name": "",
          "type": "uint256"
        }
      ],
      "stateMutability": "view",
      "type": "function"
    },
    {
      "inputs": [
        {
          "internalType": "uint16",
          "name": "",
          "type": "uint16"
        }
      ],
      "name": "chainIdToLast24HourReceived",
      "outputs": [
        {
          "internalType": "uint256",
          "name": "",
          "type": "uint256"
        }
      ],
      "stateMutability": "view",
      "type": "function"
    },
    {
      "inputs": [
        {
          "internalType": "uint16",
          "name": "",
          "type": "uint16"
        }
      ],
      "name": "chainIdToLast24HourTransferred",
      "outputs": [
        {
          "internalType": "uint256",
          "name": "",
          "type": "uint256"
        }
      ],
      "stateMutability": "view",
      "type": "function"
    },
    {
      "inputs": [
        {
          "internalType": "uint16",
          "name": "",
          "type": "uint16"
        }
      ],
      "name": "chainIdToLast24HourWindowStart",
      "outputs": [
        {
          "internalType": "uint256",
          "name": "",
          "type": "uint256"
        }
      ],
      "stateMutability": "view",
      "type": "function"
    },
    {
      "inputs": [
        {
          "internalType": "uint16",
          "name": "",
          "type": "uint16"
        }
      ],
      "name": "chainIdToMaxDailyLimit",
      "outputs": [
        {
          "internalType": "uint256",
          "name": "",
          "type": "uint256"
        }
      ],
      "stateMutability": "view",
      "type": "function"
    },
    {
      "inputs": [
        {
          "internalType": "uint16",
          "name": "",
          "type": "uint16"
        }
      ],
      "name": "chainIdToMaxDailyReceiveLimit",
      "outputs": [
        {
          "internalType": "uint256",
          "name": "",
          "type": "uint256"
        }
      ],
      "stateMutability": "view",
      "type": "function"
    },
    {
      "inputs": [
        {
          "internalType": "uint16",
          "name": "",
          "type": "uint16"
        }
      ],
      "name": "chainIdToMaxSingleReceiveTransactionLimit",
      "outputs": [
        {
          "internalType": "uint256",
          "name": "",
          "type": "uint256"
        }
      ],
      "stateMutability": "view",
      "type": "function"
    },
    {
      "inputs": [
        {
          "internalType": "uint16",
          "name": "",
          "type": "uint16"
        }
      ],
      "name": "chainIdToMaxSingleTransactionLimit",
      "outputs": [
        {
          "internalType": "uint256",
          "name": "",
          "type": "uint256"
        }
      ],
      "stateMutability": "view",
      "type": "function"
    },
    {
      "inputs": [],
      "name": "circulatingSupply",
      "outputs": [
        {
          "internalType": "uint256",
          "name": "",
          "type": "uint256"
        }
      ],
      "stateMutability": "view",
      "type": "function"
    },
    {
      "inputs": [
        {
          "internalType": "uint16",
          "name": "",
          "type": "uint16"
        },
        {
          "internalType": "bytes",
          "name": "",
          "type": "bytes"
        },
        {
          "internalType": "uint64",
          "name": "",
          "type": "uint64"
        }
      ],
      "name": "creditedPackets",
      "outputs": [
        {
          "internalType": "bool",
          "name": "",
          "type": "bool"
        }
      ],
      "stateMutability": "view",
      "type": "function"
    },
    {
      "inputs": [
        {
          "internalType": "uint16",
          "name": "srcChainId_",
          "type": "uint16"
        },
        {
          "internalType": "bytes",
          "name": "srcAddress_",
          "type": "bytes"
        },
        {
          "internalType": "uint64",
          "name": "nonce_",
          "type": "uint64"
        }
      ],
      "name": "dropFailedMessage",
      "outputs": [],
      "stateMutability": "nonpayable",
      "type": "function"
    },
    {
      "inputs": [
        {
          "internalType": "uint16",
          "name": "_dstChainId",
          "type": "uint16"
        },
        {
          "internalType": "bytes32",
          "name": "_toAddress",
          "type": "bytes32"
        },
        {
          "internalType": "uint256",
          "name": "_amount",
          "type": "uint256"
        },
        {
          "internalType": "bytes",
          "name": "_payload",
          "type": "bytes"
        },
        {
          "internalType": "uint64",
          "name": "_dstGasForCall",
          "type": "uint64"
        },
        {
          "internalType": "bool",
          "name": "_useZro",
          "type": "bool"
        },
        {
          "internalType": "bytes",
          "name": "_adapterParams",
          "type": "bytes"
        }
      ],
      "name": "estimateSendAndCallFee",
      "outputs": [
        {
          "internalType": "uint256",
          "name": "nativeFee",
          "type": "uint256"
        },
        {
          "internalType": "uint256",
          "name": "zroFee",
          "type": "uint256"
        }
      ],
      "stateMutability": "view",
      "type": "function"
    },
    {
      "inputs": [
        {
          "internalType": "uint16",
          "name": "_dstChainId",
          "type": "uint16"
        },
        {
          "internalType": "bytes32",
          "name": "_toAddress",
          "type": "bytes32"
        },
        {
          "internalType": "uint256",
          "name": "_amount",
          "type": "uint256"
        },
        {
          "internalType": "bool",
          "name": "_useZro",
          "type": "bool"
        },
        {
          "internalType": "bytes",
          "name": "_adapterParams",
          "type": "bytes"
        }
      ],
      "name": "estimateSendFee",
      "outputs": [
        {
          "internalType": "uint256",
          "name": "nativeFee",
          "type": "uint256"
        },
        {
          "internalType": "uint256",
          "name": "zroFee",
          "type": "uint256"
        }
      ],
      "stateMutability": "view",
      "type": "function"
    },
    {
      "inputs": [
        {
          "internalType": "uint16",
          "name": "",
          "type": "uint16"
        },
        {
          "internalType": "bytes",
          "name": "",
          "type": "bytes"
        },
        {
          "internalType": "uint64",
          "name": "",
          "type": "uint64"
        }
      ],
      "name": "failedMessages",
      "outputs": [
        {
          "internalType": "bytes32",
          "name": "",
          "type": "bytes32"
        }
      ],
      "stateMutability": "view",
      "type": "function"
    },
    {
      "inputs": [
        {
          "internalType": "address",
          "name": "to_",
          "type": "address"
        },
        {
          "internalType": "uint256",
          "name": "amount_",
          "type": "uint256"
        }
      ],
      "name": "fallbackWithdraw",
      "outputs": [],
      "stateMutability": "nonpayable",
      "type": "function"
    },
    {
      "inputs": [
        {
          "internalType": "uint16",
          "name": "_srcChainId",
          "type": "uint16"
        },
        {
          "internalType": "bytes",
          "name": "_srcAddress",
          "type": "bytes"
        }
      ],
      "name": "forceResumeReceive",
      "outputs": [],
      "stateMutability": "nonpayable",
      "type": "function"
    },
    {
      "inputs": [
        {
          "internalType": "uint16",
          "name": "_version",
          "type": "uint16"
        },
        {
          "internalType": "uint16",
          "name": "_chainId",
          "type": "uint16"
        },
        {
          "internalType": "address",
          "name": "",
          "type": "address"
        },
        {
          "internalType": "uint256",
          "name": "_configType",
          "type": "uint256"
        }
      ],
      "name": "getConfig",
      "outputs": [
        {
          "internalType": "bytes",
          "name": "",
          "type": "bytes"
        }
      ],
      "stateMutability": "view",
      "type": "function"
    },
    {
      "inputs": [
        {
          "internalType": "uint16",
          "name": "_remoteChainId",
          "type": "uint16"
        }
      ],
      "name": "getTrustedRemoteAddress",
      "outputs": [
        {
          "internalType": "bytes",
          "name": "",
          "type": "bytes"
        }
      ],
      "stateMutability": "view",
      "type": "function"
    },
    {
      "inputs": [
        {
          "internalType": "uint16",
          "name": "_srcChainId",
          "type": "uint16"
        },
        {
          "internalType": "bytes",
          "name": "_srcAddress",
          "type": "bytes"
        }
      ],
      "name": "isTrustedRemote",
      "outputs": [
        {
          "internalType": "bool",
          "name": "",
          "type": "bool"
        }
      ],
      "stateMutability": "view",
      "type": "function"
    },
    {
      "inputs": [],
      "name": "lzEndpoint",
      "outputs": [
        {
          "internalType": "contract ILayerZeroEndpoint",
          "name": "",
          "type": "address"
        }
      ],
      "stateMutability": "view",
      "type": "function"
    },
    {
      "inputs": [
        {
          "internalType": "uint16",
          "name": "_srcChainId",
          "type": "uint16"
        },
        {
          "internalType": "bytes",
          "name": "_srcAddress",
          "type": "bytes"
        },
        {
          "internalType": "uint64",
          "name": "_nonce",
          "type": "uint64"
        },
        {
          "internalType": "bytes",
          "name": "_payload",
          "type": "bytes"
        }
      ],
      "name": "lzReceive",
      "outputs": [],
      "stateMutability": "nonpayable",
      "type": "function"
    },
    {
      "inputs": [
        {
          "internalType": "uint16",
          "name": "",
          "type": "uint16"
        },
        {
          "internalType": "uint16",
          "name": "",
          "type": "uint16"
        }
      ],
      "name": "minDstGasLookup",
      "outputs": [
        {
          "internalType": "uint256",
          "name": "",
          "type": "uint256"
        }
      ],
      "stateMutability": "view",
      "type": "function"
    },
    {
      "inputs": [
        {
          "internalType": "uint16",
          "name": "_srcChainId",
          "type": "uint16"
        },
        {
          "internalType": "bytes",
          "name": "_srcAddress",
          "type": "bytes"
        },
        {
          "internalType": "uint64",
          "name": "_nonce",
          "type": "uint64"
        },
        {
          "internalType": "bytes",
          "name": "_payload",
          "type": "bytes"
        }
      ],
      "name": "nonblockingLzReceive",
      "outputs": [],
      "stateMutability": "nonpayable",
      "type": "function"
    },
    {
      "inputs": [],
      "name": "oracle",
      "outputs": [
        {
          "internalType": "contract ResilientOracleInterface",
          "name": "",
          "type": "address"
        }
      ],
      "stateMutability": "view",
      "type": "function"
    },
    {
      "inputs": [],
      "name": "outboundAmount",
      "outputs": [
        {
          "internalType": "uint256",
          "name": "",
          "type": "uint256"
        }
      ],
      "stateMutability": "view",
      "type": "function"
    },
    {
      "inputs": [],
      "name": "owner",
      "outputs": [
        {
          "internalType": "address",
          "name": "",
          "type": "address"
        }
      ],
      "stateMutability": "view",
      "type": "function"
    },
    {
      "inputs": [],
      "name": "pause",
      "outputs": [],
      "stateMutability": "nonpayable",
      "type": "function"
    },
    {
      "inputs": [],
      "name": "paused",
      "outputs": [
        {
          "internalType": "bool",
          "name": "",
          "type": "bool"
        }
      ],
      "stateMutability": "view",
      "type": "function"
    },
    {
      "inputs": [
        {
          "internalType": "uint16",
          "name": "",
          "type": "uint16"
        }
      ],
      "name": "payloadSizeLimitLookup",
      "outputs": [
        {
          "internalType": "uint256",
          "name": "",
          "type": "uint256"
        }
      ],
      "stateMutability": "view",
      "type": "function"
    },
    {
      "inputs": [],
      "name": "precrime",
      "outputs": [
        {
          "internalType": "address",
          "name": "",
          "type": "address"
        }
      ],
      "stateMutability": "view",
      "type": "function"
    },
    {
      "inputs": [
        {
          "internalType": "uint16",
          "name": "remoteChainId_",
          "type": "uint16"
        }
      ],
      "name": "removeTrustedRemote",
      "outputs": [],
      "stateMutability": "nonpayable",
      "type": "function"
    },
    {
      "inputs": [],
      "name": "renounceOwnership",
      "outputs": [],
      "stateMutability": "nonpayable",
      "type": "function"
    },
    {
      "inputs": [
        {
          "internalType": "uint16",
          "name": "_srcChainId",
          "type": "uint16"
        },
        {
          "internalType": "bytes",
          "name": "_srcAddress",
          "type": "bytes"
        },
        {
          "internalType": "uint64",
          "name": "_nonce",
          "type": "uint64"
        },
        {
          "internalType": "bytes",
          "name": "_payload",
          "type": "bytes"
        }
      ],
      "name": "retryMessage",
      "outputs": [],
      "stateMutability": "payable",
      "type": "function"
    },
    {
      "inputs": [
        {
          "internalType": "address",
          "name": "_from",
          "type": "address"
        },
        {
          "internalType": "uint16",
          "name": "_dstChainId",
          "type": "uint16"
        },
        {
          "internalType": "bytes32",
          "name": "_toAddress",
          "type": "bytes32"
        },
        {
          "internalType": "uint256",
          "name": "_amount",
          "type": "uint256"
        },
        {
          "internalType": "bytes",
          "name": "_payload",
          "type": "bytes"
        },
        {
          "internalType": "uint64",
          "name": "_dstGasForCall",
          "type": "uint64"
        },
        {
          "components": [
            {
              "internalType": "address payable",
              "name": "refundAddress",
              "type": "address"
            },
            {
              "internalType": "address",
              "name": "zroPaymentAddress",
              "type": "address"
            },
            {
              "internalType": "bytes",
              "name": "adapterParams",
              "type": "bytes"
            }
          ],
          "internalType": "struct ICommonOFT.LzCallParams",
          "name": "_callParams",
          "type": "tuple"
        }
      ],
      "name": "sendAndCall",
      "outputs": [],
      "stateMutability": "payable",
      "type": "function"
    },
    {
      "inputs": [
        {
          "internalType": "address",
          "name": "_from",
          "type": "address"
        },
        {
          "internalType": "uint16",
          "name": "_dstChainId",
          "type": "uint16"
        },
        {
          "internalType": "bytes32",
          "name": "_toAddress",
          "type": "bytes32"
        },
        {
          "internalType": "uint256",
          "name": "_amount",
          "type": "uint256"
        },
        {
          "components": [
            {
              "internalType": "address payable",
              "name": "refundAddress",
              "type": "address"
            },
            {
              "internalType": "address",
              "name": "zroPaymentAddress",
              "type": "address"
            },
            {
              "internalType": "bytes",
              "name": "adapterParams",
              "type": "bytes"
            }
          ],
          "internalType": "struct ICommonOFT.LzCallParams",
          "name": "_callParams",
          "type": "tuple"
        }
      ],
      "name": "sendFrom",
      "outputs": [],
      "stateMutability": "payable",
      "type": "function"
    },
    {
      "inputs": [
        {
          "internalType": "uint16",
          "name": "_version",
          "type": "uint16"
        },
        {
          "internalType": "uint16",
          "name": "_chainId",
          "type": "uint16"
        },
        {
          "internalType": "uint256",
          "name": "_configType",
          "type": "uint256"
        },
        {
          "internalType": "bytes",
          "name": "_config",
          "type": "bytes"
        }
      ],
      "name": "setConfig",
      "outputs": [],
      "stateMutability": "nonpayable",
      "type": "function"
    },
    {
      "inputs": [
        {
          "internalType": "uint16",
          "name": "chainId_",
          "type": "uint16"
        },
        {
          "internalType": "uint256",
          "name": "limit_",
          "type": "uint256"
        }
      ],
      "name": "setMaxDailyLimit",
      "outputs": [],
      "stateMutability": "nonpayable",
      "type": "function"
    },
    {
      "inputs": [
        {
          "internalType": "uint16",
          "name": "chainId_",
          "type": "uint16"
        },
        {
          "internalType": "uint256",
          "name": "limit_",
          "type": "uint256"
        }
      ],
      "name": "setMaxDailyReceiveLimit",
      "outputs": [],
      "stateMutability": "nonpayable",
      "type": "function"
    },
    {
      "inputs": [
        {
          "internalType": "uint16",
          "name": "chainId_",
          "type": "uint16"
        },
        {
          "internalType": "uint256",
          "name": "limit_",
          "type": "uint256"
        }
      ],
      "name": "setMaxSingleReceiveTransactionLimit",
      "outputs": [],
      "stateMutability": "nonpayable",
      "type": "function"
    },
    {
      "inputs": [
        {
          "internalType": "uint16",
          "name": "chainId_",
          "type": "uint16"
        },
        {
          "internalType": "uint256",
          "name": "limit_",
          "type": "uint256"
        }
      ],
      "name": "setMaxSingleTransactionLimit",
      "outputs": [],
      "stateMutability": "nonpayable",
      "type": "function"
    },
    {
      "inputs": [
        {
          "internalType": "uint16",
          "name": "_dstChainId",
          "type": "uint16"
        },
        {
          "internalType": "uint16",
          "name": "_packetType",
          "type": "uint16"
        },
        {
          "internalType": "uint256",
          "name": "_minGas",
          "type": "uint256"
        }
      ],
      "name": "setMinDstGas",
      "outputs": [],
      "stateMutability": "nonpayable",
      "type": "function"
    },
    {
      "inputs": [
        {
          "internalType": "address",
          "name": "oracleAddress_",
          "type": "address"
        }
      ],
      "name": "setOracle",
      "outputs": [],
      "stateMutability": "nonpayable",
      "type": "function"
    },
    {
      "inputs": [
        {
          "internalType": "uint16",
          "name": "_dstChainId",
          "type": "uint16"
        },
        {
          "internalType": "uint256",
          "name": "_size",
          "type": "uint256"
        }
      ],
      "name": "setPayloadSizeLimit",
      "outputs": [],
      "stateMutability": "nonpayable",
      "type": "function"
    },
    {
      "inputs": [
        {
          "internalType": "address",
          "name": "_precrime",
          "type": "address"
        }
      ],
      "name": "setPrecrime",
      "outputs": [],
      "stateMutability": "nonpayable",
      "type": "function"
    },
    {
      "inputs": [
        {
          "internalType": "uint16",
          "name": "_version",
          "type": "uint16"
        }
      ],
      "name": "setReceiveVersion",
      "outputs": [],
      "stateMutability": "nonpayable",
      "type": "function"
    },
    {
      "inputs": [
        {
          "internalType": "uint16",
          "name": "_version",
          "type": "uint16"
        }
      ],
      "name": "setSendVersion",
      "outputs": [],
      "stateMutability": "nonpayable",
      "type": "function"
    },
    {
      "inputs": [
        {
          "internalType": "uint16",
          "name": "_remoteChainId",
          "type": "uint16"
        },
        {
          "internalType": "bytes",
          "name": "_path",
          "type": "bytes"
        }
      ],
      "name": "setTrustedRemote",
      "outputs": [],
      "stateMutability": "nonpayable",
      "type": "function"
    },
    {
      "inputs": [
        {
          "internalType": "uint16",
          "name": "_remoteChainId",
          "type": "uint16"
        },
        {
          "internalType": "bytes",
          "name": "_remoteAddress",
          "type": "bytes"
        }
      ],
      "name": "setTrustedRemoteAddress",
      "outputs": [],
      "stateMutability": "nonpayable",
      "type": "function"
    },
    {
      "inputs": [
        {
          "internalType": "address",
          "name": "user_",
          "type": "address"
        },
        {
          "internalType": "bool",
          "name": "val_",
          "type": "bool"
        }
      ],
      "name": "setWhitelist",
      "outputs": [],
      "stateMutability": "nonpayable",
      "type": "function"
    },
    {
      "inputs": [],
      "name": "sharedDecimals",
      "outputs": [
        {
          "internalType": "uint8",
          "name": "",
          "type": "uint8"
        }
      ],
      "stateMutability": "view",
      "type": "function"
    },
    {
      "inputs": [
        {
          "internalType": "bytes4",
          "name": "interfaceId",
          "type": "bytes4"
        }
      ],
      "name": "supportsInterface",
      "outputs": [
        {
          "internalType": "bool",
          "name": "",
          "type": "bool"
        }
      ],
      "stateMutability": "view",
      "type": "function"
    },
    {
      "inputs": [],
      "name": "token",
      "outputs": [
        {
          "internalType": "address",
          "name": "",
          "type": "address"
        }
      ],
      "stateMutability": "view",
      "type": "function"
    },
    {
      "inputs": [
        {
          "internalType": "address",
          "name": "newOwner",
          "type": "address"
        }
      ],
      "name": "transferOwnership",
      "outputs": [],
      "stateMutability": "nonpayable",
      "type": "function"
    },
    {
      "inputs": [
        {
          "internalType": "uint16",
          "name": "",
          "type": "uint16"
        }
      ],
      "name": "trustedRemoteLookup",
      "outputs": [
        {
          "internalType": "bytes",
          "name": "",
          "type": "bytes"
        }
      ],
      "stateMutability": "view",
      "type": "function"
    },
    {
      "inputs": [],
      "name": "unpause",
      "outputs": [],
      "stateMutability": "nonpayable",
      "type": "function"
    },
    {
      "inputs": [
        {
          "internalType": "address",
          "name": "",
          "type": "address"
        }
      ],
      "name": "whitelist",
      "outputs": [
        {
          "internalType": "bool",
          "name": "",
          "type": "bool"
        }
      ],
      "stateMutability": "view",
      "type": "function"
    }
  ],
  "transactionHash": "0x120d02e7553dee446e3e0526244692a8dde0f64dab084ae5a32a3108a0f3f883",
  "args": [
    "0xB9e0E753630434d7863528cc73CB7AC638a7c8ff",
    8,
    "0x6Fcb97553D41516Cb228ac03FdC8B9a0a9df04A1",
    "0x3cD69251D04A28d887Ac14cbe2E14c52F3D57823"
  ],
  "numDeployments": 1,
  "solcInputHash": "df53eb8de81c9fdb7d3455a6cb9a397c",
  "bytecode": "0x6101006040523480156200001257600080fd5b506040516200564f3803806200564f833981016040819052620000359162000373565b6000805460ff19169055838383838282818180806200005433620002c0565b6001600160a01b0316608052505060ff1660a052506200007690508462000319565b620000818262000319565b6001600160a01b03841660c081905260408051600481526024810182526020810180516001600160e01b031663313ce56760e01b179052905160009283929091620000cd9190620003d0565b600060405180830381855afa9150503d80600081146200010a576040519150601f19603f3d011682016040523d82523d6000602084013e6200010f565b606091505b509150915081620001765760405162461bcd60e51b815260206004820152602660248201527f50726f78794f46543a206661696c656420746f2067657420746f6b656e20646560448201526563696d616c7360d01b60648201526084015b60405180910390fd5b6000818060200190518101906200018e91906200040e565b90508060ff168660ff161115620001fd5760405162461bcd60e51b815260206004820152602c60248201527f50726f78794f46543a20736861726564446563696d616c73206d75737420626560448201526b203c3d20646563696d616c7360a01b60648201526084016200016d565b62000209868262000449565b6200021690600a6200056e565b60e052620002248462000319565b6040516001600160a01b038816907f0b673f021ff9a27bbe58f282908695869e130b3103029190387b83650806c2c390600090a26040516001600160a01b038516906000907f05cd89403c6bdeac21c2ff33de395121a31fa1bc2bf3adf4825f1f86e79969dd908290a35050600780546001600160a01b0319166001600160a01b039390931692909217909155506200057f9650505050505050565b600080546001600160a01b03838116610100818102610100600160a81b0319851617855560405193049190911692909183917f8be0079c531659141344cd1fd0a4f28419497f9722a3daafe3b4186f6b6457e091a35050565b6001600160a01b03811662000341576040516342bcdf7f60e11b815260040160405180910390fd5b50565b80516001600160a01b03811681146200035c57600080fd5b919050565b805160ff811681146200035c57600080fd5b600080600080608085870312156200038a57600080fd5b620003958562000344565b9350620003a56020860162000361565b9250620003b56040860162000344565b9150620003c56060860162000344565b905092959194509250565b6000825160005b81811015620003f35760208186018101518583015201620003d7565b8181111562000403576000828501525b509190910192915050565b6000602082840312156200042157600080fd5b6200042c8262000361565b9392505050565b634e487b7160e01b600052601160045260246000fd5b600060ff821660ff84168082101562000466576200046662000433565b90039392505050565b600181815b80851115620004b057816000190482111562000494576200049462000433565b80851615620004a257918102915b93841c939080029062000474565b509250929050565b600082620004c95750600162000568565b81620004d85750600062000568565b8160018114620004f15760028114620004fc576200051c565b600191505062000568565b60ff84111562000510576200051062000433565b50506001821b62000568565b5060208310610133831016604e8410600b841016171562000541575081810a62000568565b6200054d83836200046f565b806000190482111562000564576200056462000433565b0290505b92915050565b60006200042c60ff841683620004b8565b60805160a05160c05160e0516150186200063760003960008181612d0f015281816130260152613a40015260008181610c09015281816118fc015281816124f801528181612584015281816125bd01528181612606015281816137640152613d750152600061082a015260008181610a4001528181610c5d01528181610ea401528181610f4c0152818161121901528181611c310152818161222b015281816123ee01528181612af9015261322f01526150186000f3fe6080604052600436106103a15760003560e01c80638456cb59116101e7578063b353aaa71161010d578063df2a5b3b116100a0578063f2fde38b1161006f578063f2fde38b14610bba578063f5ecbdbc14610bda578063fc0c546a14610bfa578063fdff235b14610c2d57600080fd5b8063df2a5b3b14610b45578063e6a20ae614610b65578063eaffd49a14610b7a578063eb8d72b714610b9a57600080fd5b8063cc01e9b6116100dc578063cc01e9b614610ab8578063cc7015ae14610ad8578063d1deba1f14610b05578063d708a46814610b1857600080fd5b8063b353aaa714610a2e578063baf3292d14610a62578063c446183414610a82578063cbed8b9c14610a9857600080fd5b806393a61d6c116101855780639bdb9812116101545780639bdb98121461097c5780639f38369a146109ce578063a4c51df5146109ee578063a6c3d16514610a0e57600080fd5b806393a61d6c146108e9578063950c8a74146109165780639689cb05146109365780639b19251a1461094c57600080fd5b80638cfd8f5c116101c15780638cfd8f5c1461084c5780638da5cb5b1461088457806390436567146108a75780639358928b146108d457600080fd5b80638456cb59146107e357806384e69c69146107f8578063857749b01461081857600080fd5b80634c42899a116102cc57806366ad5c8a1161026a5780637533d788116102395780637533d7881461074b57806376203b48146107785780637adbf9731461078b5780637dc0d1d0146107ab57600080fd5b806366ad5c8a146106ec578063695ef6bf1461070c57806369c1e7b81461071f578063715018a61461073f57600080fd5b806353489d6c116102a657806353489d6c1461064557806353d6fd59146106655780635b8c41e6146106855780635c975abb146106d457600080fd5b80634c42899a146105c45780634cec6256146105eb5780634f4ba0f41461061857600080fd5b8063365260b4116103445780633f4ba83a116103135780633f4ba83a1461055a57806342d65a8d1461056f578063447705151461058f57806348e4a04a146105a457600080fd5b8063365260b41461049d5780633c4ec39b146104d25780633d8b38f61461050d5780633f1f4fa41461052d57600080fd5b80630df37483116103805780630df374831461041d57806310ddb1371461043d5780632488eec81461045d5780632dbbec081461047d57600080fd5b80621d3567146103a657806301ffc9a7146103c857806307e0db17146103fd575b600080fd5b3480156103b257600080fd5b506103c66103c1366004614258565b610c5a565b005b3480156103d457600080fd5b506103e86103e33660046142eb565b610e4c565b60405190151581526020015b60405180910390f35b34801561040957600080fd5b506103c6610418366004614315565b610e83565b34801561042957600080fd5b506103c6610438366004614330565b610f0c565b34801561044957600080fd5b506103c6610458366004614315565b610f2b565b34801561046957600080fd5b506103c6610478366004614330565b610f83565b34801561048957600080fd5b506103c6610498366004614315565b611067565b3480156104a957600080fd5b506104bd6104b8366004614368565b6110c6565b604080519283526020830191909152016103f4565b3480156104de57600080fd5b506104ff6104ed366004614315565b600d6020526000908152604090205481565b6040519081526020016103f4565b34801561051957600080fd5b506103e86105283660046143cf565b61111b565b34801561053957600080fd5b506104ff610548366004614315565b60036020526000908152604090205481565b34801561056657600080fd5b506103c66111e8565b34801561057b57600080fd5b506103c661058a3660046143cf565b6111fa565b34801561059b57600080fd5b506104ff600081565b3480156105b057600080fd5b506103c66105bf366004614436565b611280565b3480156105d057600080fd5b506105d9600081565b60405160ff90911681526020016103f4565b3480156105f757600080fd5b506104ff610606366004614315565b600a6020526000908152604090205481565b34801561062457600080fd5b506104ff610633366004614315565b60096020526000908152604090205481565b34801561065157600080fd5b506103c6610660366004614330565b6112f3565b34801561067157600080fd5b506103c6610680366004614454565b6113d7565b34801561069157600080fd5b506104ff6106a03660046144fa565b6005602090815260009384526040808520845180860184018051928152908401958401959095209452929052825290205481565b3480156106e057600080fd5b5060005460ff166103e8565b3480156106f857600080fd5b506103c6610707366004614258565b61144f565b6103c661071a3660046145b2565b61152b565b34801561072b57600080fd5b506103c661073a366004614330565b611596565b3480156103c657600080fd5b34801561075757600080fd5b5061076b610766366004614315565b611682565b6040516103f4919061467d565b6103c6610786366004614690565b61171c565b34801561079757600080fd5b506103c66107a6366004614742565b6117cb565b3480156107b757600080fd5b506007546107cb906001600160a01b031681565b6040516001600160a01b0390911681526020016103f4565b3480156107ef57600080fd5b506103c6611838565b34801561080457600080fd5b506103c66108133660046144fa565b611848565b34801561082457600080fd5b506105d97f000000000000000000000000000000000000000000000000000000000000000081565b34801561085857600080fd5b506104ff61086736600461475f565b600260209081526000928352604080842090915290825290205481565b34801561089057600080fd5b5060005461010090046001600160a01b03166107cb565b3480156108b357600080fd5b506104ff6108c2366004614315565b600c6020526000908152604090205481565b3480156108e057600080fd5b506104ff6118f5565b3480156108f557600080fd5b506104ff610904366004614315565b600b6020526000908152604090205481565b34801561092257600080fd5b506004546107cb906001600160a01b031681565b34801561094257600080fd5b506104ff60115481565b34801561095857600080fd5b506103e8610967366004614742565b60106020526000908152604090205460ff1681565b34801561098857600080fd5b506103e86109973660046144fa565b6006602090815260009384526040808520845180860184018051928152908401958401959095209452929052825290205460ff1681565b3480156109da57600080fd5b5061076b6109e9366004614315565b61198b565b3480156109fa57600080fd5b506104bd610a09366004614792565b611a9a565b348015610a1a57600080fd5b506103c6610a293660046143cf565b611b29565b348015610a3a57600080fd5b506107cb7f000000000000000000000000000000000000000000000000000000000000000081565b348015610a6e57600080fd5b506103c6610a7d366004614742565b611bbc565b348015610a8e57600080fd5b506104ff61271081565b348015610aa457600080fd5b506103c6610ab336600461484f565b611c12565b348015610ac457600080fd5b506103c6610ad3366004614330565b611c9c565b348015610ae457600080fd5b506104ff610af3366004614315565b60086020526000908152604090205481565b6103c6610b13366004614258565b611d88565b348015610b2457600080fd5b506104ff610b33366004614315565b600e6020526000908152604090205481565b348015610b5157600080fd5b506103c6610b603660046148bd565b611f9e565b348015610b7157600080fd5b506105d9600181565b348015610b8657600080fd5b506103c6610b953660046148f9565b612008565b348015610ba657600080fd5b506103c6610bb53660046143cf565b612127565b348015610bc657600080fd5b506103c6610bd5366004614742565b612181565b348015610be657600080fd5b5061076b610bf53660046149c1565b6121fa565b348015610c0657600080fd5b507f00000000000000000000000000000000000000000000000000000000000000006107cb565b348015610c3957600080fd5b506104ff610c48366004614315565b600f6020526000908152604090205481565b337f00000000000000000000000000000000000000000000000000000000000000006001600160a01b031614610cd75760405162461bcd60e51b815260206004820152601e60248201527f4c7a4170703a20696e76616c696420656e64706f696e742063616c6c6572000060448201526064015b60405180910390fd5b61ffff861660009081526001602052604081208054610cf590614a0e565b80601f0160208091040260200160405190810160405280929190818152602001828054610d2190614a0e565b8015610d6e5780601f10610d4357610100808354040283529160200191610d6e565b820191906000526020600020905b815481529060010190602001808311610d5157829003601f168201915b50505050509050805186869050148015610d89575060008151115b8015610db1575080516020820120604051610da79088908890614a42565b6040518091039020145b610dcd5760405162461bcd60e51b8152600401610cce90614a52565b610e438787878080601f01602080910402602001604051908101604052809392919081815260200183838082843760009201919091525050604080516020601f8a018190048102820181019092528881528a9350915088908890819084018382808284376000920191909152506122ad92505050565b50505050505050565b60006001600160e01b03198216631f7ecdf760e01b1480610e7d57506301ffc9a760e01b6001600160e01b03198316145b92915050565b610e8b612326565b6040516307e0db1760e01b815261ffff821660048201527f00000000000000000000000000000000000000000000000000000000000000006001600160a01b0316906307e0db17906024015b600060405180830381600087803b158015610ef157600080fd5b505af1158015610f05573d6000803e3d6000fd5b5050505050565b610f14612326565b61ffff909116600090815260036020526040902055565b610f33612326565b6040516310ddb13760e01b815261ffff821660048201527f00000000000000000000000000000000000000000000000000000000000000006001600160a01b0316906310ddb13790602401610ed7565b610f8b612326565b61ffff8216600090815260086020526040902054811015610ffd5760405162461bcd60e51b815260206004820152602660248201527f4461696c79206c696d6974203c2073696e676c65207472616e73616374696f6e604482015265081b1a5b5a5d60d21b6064820152608401610cce565b61ffff82166000818152600960209081526040918290205482519384529083015281018290527f4dd31065e259d5284e44d1f9265710da72eafcf78dc925e3881189fc3b71f6939060600160405180910390a161ffff909116600090815260096020526040902055565b61106f612326565b61ffff8116600090815260016020526040812061108b9161409b565b60405161ffff821681527f6d5075c81d4d9e75bec6052f4e44f58f8a8cf1327544addbbf015fb06f83bd37906020015b60405180910390a150565b60008061110c8888888888888080601f01602080910402602001604051908101604052809392919081815260200183838082843760009201919091525061238692505050565b91509150965096945050505050565b61ffff83166000908152600160205260408120805482919061113c90614a0e565b80601f016020809104026020016040519081016040528092919081815260200182805461116890614a0e565b80156111b55780601f1061118a576101008083540402835291602001916111b5565b820191906000526020600020905b81548152906001019060200180831161119857829003601f168201915b5050505050905083836040516111cc929190614a42565b60405180910390208180519060200120149150505b9392505050565b6111f0612326565b6111f861247a565b565b611202612326565b6040516342d65a8d60e01b81526001600160a01b037f000000000000000000000000000000000000000000000000000000000000000016906342d65a8d9061125290869086908690600401614ac1565b600060405180830381600087803b15801561126c57600080fd5b505af1158015610e43573d6000803e3d6000fd5b611288612326565b806011600082825461129a9190614af5565b909155506112ab90503083836124cc565b50816001600160a01b03167f22fe8e8ead80ad0961d77107e806ba9bcf9ca3b175a9d446145646d39c36ab96826040516112e791815260200190565b60405180910390a25050565b6112fb612326565b61ffff821660009081526009602052604090205481111561136d5760405162461bcd60e51b815260206004820152602660248201527f53696e676c65207472616e73616374696f6e206c696d6974203e204461696c79604482015265081b1a5b5a5d60d21b6064820152608401610cce565b61ffff82166000818152600860209081526040918290205482519384529083015281018290527f7babeac42ccbb33537ee421fedc4db7b5f251b5d2a3fa5c0ff4b35b2d783be879060600160405180910390a161ffff909116600090815260086020526040902055565b6113df612326565b816001600160a01b03167ff6019ec0a78d156d249a1ec7579e2321f6ac7521d6e1d2eacf90ba4a184dcceb8260405161141c911515815260200190565b60405180910390a26001600160a01b03919091166000908152601060205260409020805460ff1916911515919091179055565b3330146114ad5760405162461bcd60e51b815260206004820152602660248201527f4e6f6e626c6f636b696e674c7a4170703a2063616c6c6572206d7573742062656044820152650204c7a4170760d41b6064820152608401610cce565b6115238686868080601f01602080910402602001604051908101604052809392919081815260200183838082843760009201919091525050604080516020601f89018190048102820181019092528781528993509150879087908190840183828082843760009201919091525061268692505050565b505050505050565b6115238585858561153f6020870187614742565b61154f6040880160208901614742565b61155c6040890189614b0c565b8080601f01602080910402602001604051908101604052809392919081815260200183838082843760009201919091525061277792505050565b61159e612326565b61ffff82166000908152600c60205260409020548110156116185760405162461bcd60e51b815260206004820152602e60248201527f4461696c79206c696d6974203c2073696e676c6520726563656976652074726160448201526d1b9cd858dd1a5bdb881b1a5b5a5d60921b6064820152608401610cce565b61ffff82166000818152600d60209081526040918290205482519384529083015281018290527f95dc51094cd27cf4ee3fd0dbb50cf96f8df1629c822f5434c4a34d7eb03c97249060600160405180910390a161ffff9091166000908152600d6020526040902055565b6001602052600090815260409020805461169b90614a0e565b80601f01602080910402602001604051908101604052809291908181526020018280546116c790614a0e565b80156117145780601f106116e957610100808354040283529160200191611714565b820191906000526020600020905b8154815290600101906020018083116116f757829003601f168201915b505050505081565b6117c08888888888888080601f0160208091040260200160405190810160405280939291908181526020018383808284376000920191909152508a92506117699150506020890189614742565b61177960408a0160208b01614742565b61178660408b018b614b0c565b8080601f01602080910402602001604051908101604052809392919081815260200183838082843760009201919091525061285f92505050565b505050505050505050565b6117d3612326565b6117dc8161295b565b6007546040516001600160a01b038084169216907f05cd89403c6bdeac21c2ff33de395121a31fa1bc2bf3adf4825f1f86e79969dd90600090a3600780546001600160a01b0319166001600160a01b0392909216919091179055565b611840612326565b6111f8612982565b611850612326565b61ffff83166000908152600560205260408082209051611871908590614b52565b9081526040805191829003602090810183206001600160401b0386166000908152915220919091556118a4908390614b52565b6040805191829003822061ffff861683526001600160401b0384166020840152917f48a980eea4ea1c540209e2f9f32a4c2edf51fab37b1d21f453868301ecb6e2ee910160405180910390a2505050565b60006011547f00000000000000000000000000000000000000000000000000000000000000006001600160a01b03166318160ddd6040518163ffffffff1660e01b8152600401602060405180830381865afa158015611958573d6000803e3d6000fd5b505050506040513d601f19601f8201168201806040525081019061197c9190614b6e565b6119869190614af5565b905090565b61ffff81166000908152600160205260408120805460609291906119ae90614a0e565b80601f01602080910402602001604051908101604052809291908181526020018280546119da90614a0e565b8015611a275780601f106119fc57610100808354040283529160200191611a27565b820191906000526020600020905b815481529060010190602001808311611a0a57829003601f168201915b505050505090508051600003611a7f5760405162461bcd60e51b815260206004820152601d60248201527f4c7a4170703a206e6f20747275737465642070617468207265636f72640000006044820152606401610cce565b6111e1600060148351611a929190614af5565b8391906129bf565b600080611b178b8b8b8b8b8080601f01602080910402602001604051908101604052809392919081815260200183838082843760009201919091525050604080516020601f8d018190048102820181019092528b81528e93508d9250908c908c9081908401838280828437600092019190915250612acc92505050565b91509150995099975050505050505050565b611b31612326565b818130604051602001611b4693929190614b87565b60408051601f1981840301815291815261ffff85166000908152600160209081529190208251611b7b939192909101906140d5565b507f8c0400cfe2d1199b1a725c78960bcc2a344d869b80590d0f2bd005db15a572ce838383604051611baf93929190614ac1565b60405180910390a1505050565b611bc4612326565b600480546001600160a01b0319166001600160a01b0383169081179091556040519081527f5db758e995a17ec1ad84bdef7e8c3293a0bd6179bcce400dff5d4c3d87db726b906020016110bb565b611c1a612326565b6040516332fb62e760e21b81526001600160a01b037f0000000000000000000000000000000000000000000000000000000000000000169063cbed8b9c90611c6e9088908890889088908890600401614bad565b600060405180830381600087803b158015611c8857600080fd5b505af11580156117c0573d6000803e3d6000fd5b611ca4612326565b61ffff82166000908152600d6020526040902054811115611d1e5760405162461bcd60e51b815260206004820152602e60248201527f73696e676c652072656365697665207472616e73616374696f6e206c696d697460448201526d080f8811185a5b1e481b1a5b5a5d60921b6064820152608401610cce565b61ffff82166000818152600c60209081526040918290205482519384529083015281018290527f2c42997a938a029910a78e7c28d762b349c28e70f3a89c1fbccbb1a46020b1599060600160405180910390a161ffff9091166000908152600c6020526040902055565b61ffff86166000908152600560205260408082209051611dab9088908890614a42565b90815260408051602092819003830190206001600160401b03871660009081529252902054905080611e2b5760405162461bcd60e51b815260206004820152602360248201527f4e6f6e626c6f636b696e674c7a4170703a206e6f2073746f726564206d65737360448201526261676560e81b6064820152608401610cce565b808383604051611e3c929190614a42565b604051809103902014611e9b5760405162461bcd60e51b815260206004820152602160248201527f4e6f6e626c6f636b696e674c7a4170703a20696e76616c6964207061796c6f616044820152601960fa1b6064820152608401610cce565b61ffff87166000908152600560205260408082209051611ebe9089908990614a42565b90815260408051602092819003830181206001600160401b038916600090815290845282902093909355601f88018290048202830182019052868252611f56918991899089908190840183828082843760009201919091525050604080516020601f8a018190048102820181019092528881528a93509150889088908190840183828082843760009201919091525061268692505050565b7fc264d91f3adc5588250e1551f547752ca0cfa8f6b530d243b9f9f4cab10ea8e58787878785604051611f8d959493929190614bdb565b60405180910390a150505050505050565b611fa6612326565b61ffff83811660008181526002602090815260408083209487168084529482529182902085905581519283528201929092529081018290527f9d5c7c0b934da8fefa9c7760c98383778a12dfbfc0c3b3106518f43fb9508ac090606001611baf565b3330146120575760405162461bcd60e51b815260206004820152601f60248201527f4f4654436f72653a2063616c6c6572206d757374206265204f4654436f7265006044820152606401610cce565b6120623086866124cc565b9350846001600160a01b03168a61ffff167fbf551ec93859b170f9b2141bd9298bf3f64322c6f7beb2543a0cb669834118bf866040516120a491815260200190565b60405180910390a3604051633fe79aed60e11b81526001600160a01b03861690637fcf35da9083906120e8908e908e908e908e908e908d908d908d90600401614c16565b600060405180830381600088803b15801561210257600080fd5b5087f1158015612116573d6000803e3d6000fd5b505050505050505050505050505050565b61212f612326565b61ffff8316600090815260016020526040902061214d908383614159565b507ffa41487ad5d6728f0b19276fa1eddc16558578f5109fc39d2dc33c3230470dab838383604051611baf93929190614ac1565b612189612326565b6001600160a01b0381166121ee5760405162461bcd60e51b815260206004820152602660248201527f4f776e61626c653a206e6577206f776e657220697320746865207a65726f206160448201526564647265737360d01b6064820152608401610cce565b6121f781612b87565b50565b604051633d7b2f6f60e21b815261ffff808616600483015284166024820152306044820152606481018290526060907f00000000000000000000000000000000000000000000000000000000000000006001600160a01b03169063f5ecbdbc90608401600060405180830381865afa15801561227a573d6000803e3d6000fd5b505050506040513d6000823e601f3d908101601f191682016040526122a29190810190614c71565b90505b949350505050565b6000806123105a60966366ad5c8a60e01b898989896040516024016122d59493929190614cde565b60408051601f198184030181529190526020810180516001600160e01b03166001600160e01b03199093169290921790915230929190612be0565b9150915081611523576115238686868685612c6a565b6000546001600160a01b036101009091041633146111f85760405162461bcd60e51b815260206004820181905260248201527f4f776e61626c653a2063616c6c6572206973206e6f7420746865206f776e65726044820152606401610cce565b60008060006123d48761239888612d07565b6040805160006020820152602181019390935260c09190911b6001600160c01b0319166041830152805160298184030181526049909201905290565b60405163040a7bb160e41b81529091506001600160a01b037f000000000000000000000000000000000000000000000000000000000000000016906340a7bb109061242b908b90309086908b908b90600401614d1c565b6040805180830381865afa158015612447573d6000803e3d6000fd5b505050506040513d601f19601f8201168201806040525081019061246b9190614d70565b92509250509550959350505050565b612482612d8d565b6000805460ff191690557f5db9ee0a495bf2e6ff9c91a7834c1ba4fdd244a5e8aa4e537bd38aeae4b073aa335b6040516001600160a01b03909116815260200160405180910390a1565b60006124d6612dd6565b6040516370a0823160e01b81526001600160a01b0384811660048301526000917f0000000000000000000000000000000000000000000000000000000000000000909116906370a0823190602401602060405180830381865afa158015612541573d6000803e3d6000fd5b505050506040513d601f19601f820116820180604052508101906125659190614b6e565b9050306001600160a01b038616036125b0576125ab6001600160a01b037f0000000000000000000000000000000000000000000000000000000000000000168585612e1c565b6125e5565b6125e56001600160a01b037f000000000000000000000000000000000000000000000000000000000000000016868686612e84565b6040516370a0823160e01b81526001600160a01b03858116600483015282917f0000000000000000000000000000000000000000000000000000000000000000909116906370a0823190602401602060405180830381865afa15801561264f573d6000803e3d6000fd5b505050506040513d601f19601f820116820180604052508101906126739190614b6e565b61267d9190614af5565b95945050505050565b61ffff8416600090815260016020526040812080546126a490614a0e565b80601f01602080910402602001604051908101604052809291908181526020018280546126d090614a0e565b801561271d5780601f106126f25761010080835404028352916020019161271d565b820191906000526020600020905b81548152906001019060200180831161270057829003601f168201915b5050505050905080518451148015612736575060008151115b801561274f575080805190602001208480519060200120145b61276b5760405162461bcd60e51b8152600401610cce90614a52565b610f0585858585612ec2565b600061278587828481612f49565b61278e8561301e565b50905061279d8888888461305e565b9050600081116127eb5760405162461bcd60e51b815260206004820152601960248201527813d19510dbdc994e88185b5bdd5b9d081d1bdbc81cdb585b1b603a1b6044820152606401610cce565b60006127fa8761239884612d07565b905061280a888287878734613106565b86896001600160a01b03168961ffff167fd81fc9b8523134ed613870ed029d6170cbb73aa6a6bc311b9a642689fb9df59a8560405161284b91815260200190565b60405180910390a450979650505050505050565b6000612877896001846001600160401b038916612f49565b6128808761301e565b50905061288f8a8a8a8461305e565b9050600081116128dd5760405162461bcd60e51b815260206004820152601960248201527813d19510dbdc994e88185b5bdd5b9d081d1bdbc81cdb585b1b603a1b6044820152606401610cce565b60006128f4338a6128ed85612d07565b8a8a6132ab565b90506129048a8287878734613106565b888b6001600160a01b03168b61ffff167fd81fc9b8523134ed613870ed029d6170cbb73aa6a6bc311b9a642689fb9df59a8560405161294591815260200190565b60405180910390a4509998505050505050505050565b6001600160a01b0381166121f7576040516342bcdf7f60e11b815260040160405180910390fd5b61298a612dd6565b6000805460ff191660011790557f62e78cea01bee320cd4e420270b5ea74000d11b0c9f74754ebdbfc544b05a2586124af3390565b6060816129cd81601f614d94565b1015612a0c5760405162461bcd60e51b815260206004820152600e60248201526d736c6963655f6f766572666c6f7760901b6044820152606401610cce565b612a168284614d94565b84511015612a5a5760405162461bcd60e51b8152602060048201526011602482015270736c6963655f6f75744f66426f756e647360781b6044820152606401610cce565b606082158015612a795760405191506000825260208201604052612ac3565b6040519150601f8416801560200281840101858101878315602002848b0101015b81831015612ab2578051835260209283019201612a9a565b5050858452601f01601f1916604052505b50949350505050565b6000806000612adf338a6128ed8b612d07565b60405163040a7bb160e41b81529091506001600160a01b037f000000000000000000000000000000000000000000000000000000000000000016906340a7bb1090612b36908d90309086908b908b90600401614d1c565b6040805180830381865afa158015612b52573d6000803e3d6000fd5b505050506040513d601f19601f82011682018060405250810190612b769190614d70565b925092505097509795505050505050565b600080546001600160a01b03838116610100818102610100600160a81b0319851617855560405193049190911692909183917f8be0079c531659141344cd1fd0a4f28419497f9722a3daafe3b4186f6b6457e091a35050565b6000606060008060008661ffff166001600160401b03811115612c0557612c0561448d565b6040519080825280601f01601f191660200182016040528015612c2f576020820181803683370190505b50905060008087516020890160008d8df191503d925086831115612c51578692505b828152826000602083013e909890975095505050505050565b8180519060200120600560008761ffff1661ffff16815260200190815260200160002085604051612c9b9190614b52565b9081526040805191829003602090810183206001600160401b0388166000908152915220919091557fe183f33de2837795525b4792ca4cd60535bd77c53b7e7030060bfcf5734d6b0c90612cf89087908790879087908790614dac565b60405180910390a15050505050565b600080612d347f000000000000000000000000000000000000000000000000000000000000000084614e14565b90506001600160401b03811115610e7d5760405162461bcd60e51b815260206004820152601a60248201527f4f4654436f72653a20616d6f756e745344206f766572666c6f770000000000006044820152606401610cce565b60005460ff166111f85760405162461bcd60e51b815260206004820152601460248201527314185d5cd8589b194e881b9bdd081c185d5cd95960621b6044820152606401610cce565b60005460ff16156111f85760405162461bcd60e51b815260206004820152601060248201526f14185d5cd8589b194e881c185d5cd95960821b6044820152606401610cce565b6040516001600160a01b038316602482015260448101829052612e7f90849063a9059cbb60e01b906064015b60408051601f198184030181529190526020810180516001600160e01b03166001600160e01b0319909316929092179091526132ec565b505050565b6040516001600160a01b0380851660248301528316604482015260648101829052612ebc9085906323b872dd60e01b90608401612e48565b50505050565b6000612ece82826133c1565b905060ff8116612ee957612ee48585858561341d565b610f05565b60001960ff821601612f0157612ee4858585856134ad565b60405162461bcd60e51b815260206004820152601c60248201527f4f4654436f72653a20756e6b6e6f776e207061636b65742074797065000000006044820152606401610cce565b6000612f54836136bb565b61ffff80871660009081526002602090815260408083209389168352929052205490915080612fc55760405162461bcd60e51b815260206004820152601a60248201527f4c7a4170703a206d696e4761734c696d6974206e6f74207365740000000000006044820152606401610cce565b612fcf8382614d94565b8210156115235760405162461bcd60e51b815260206004820152601b60248201527f4c7a4170703a20676173206c696d697420697320746f6f206c6f7700000000006044820152606401610cce565b60008061304b7f000000000000000000000000000000000000000000000000000000000000000084614e28565b90506130578184614af5565b9150915091565b6000613068612dd6565b6001600160a01b03851633146130cb5760405162461bcd60e51b815260206004820152602260248201527f50726f78794f46543a206f776e6572206973206e6f742073656e642063616c6c60448201526132b960f11b6064820152608401610cce565b6130d6858584613717565b60006130e38630856124cc565b905080601160008282546130f79190614d94565b90915550909695505050505050565b61ffff86166000908152600160205260408120805461312490614a0e565b80601f016020809104026020016040519081016040528092919081815260200182805461315090614a0e565b801561319d5780601f106131725761010080835404028352916020019161319d565b820191906000526020600020905b81548152906001019060200180831161318057829003601f168201915b50505050509050805160000361320e5760405162461bcd60e51b815260206004820152603060248201527f4c7a4170703a2064657374696e6174696f6e20636861696e206973206e6f742060448201526f61207472757374656420736f7572636560801b6064820152608401610cce565b613219878751613934565b60405162c5803160e81b81526001600160a01b037f0000000000000000000000000000000000000000000000000000000000000000169063c5803100908490613270908b9086908c908c908c908c90600401614e3c565b6000604051808303818588803b15801561328957600080fd5b505af115801561329d573d6000803e3d6000fd5b505050505050505050505050565b6060600185856001600160a01b03891685876040516020016132d296959493929190614ea3565b604051602081830303815290604052905095945050505050565b6000613341826040518060400160405280602081526020017f5361666545524332303a206c6f772d6c6576656c2063616c6c206661696c6564815250856001600160a01b03166139a59092919063ffffffff16565b90508051600014806133625750808060200190518101906133629190614f04565b612e7f5760405162461bcd60e51b815260206004820152602a60248201527f5361666545524332303a204552433230206f7065726174696f6e20646964206e6044820152691bdd081cdd58d8d9595960b21b6064820152608401610cce565b60006133ce826001614d94565b835110156134145760405162461bcd60e51b8152602060048201526013602482015272746f55696e74385f6f75744f66426f756e647360681b6044820152606401610cce565b50016001015190565b600080613429836139b4565b90925090506001600160a01b0382166134425761dead91505b600061344d82613a39565b905061345a878483613a6e565b9050826001600160a01b03168761ffff167fbf551ec93859b170f9b2141bd9298bf3f64322c6f7beb2543a0cb669834118bf8360405161349c91815260200190565b60405180910390a350505050505050565b60008060008060006134be86613abc565b945094509450945094506000600660008b61ffff1661ffff168152602001908152602001600020896040516134f39190614b52565b90815260408051602092819003830190206001600160401b038b166000908152925281205460ff16915061352685613a39565b905081613594576135388b3083613a6e565b61ffff8c16600090815260066020526040908190209051919250600191613560908d90614b52565b90815260408051602092819003830190206001600160401b038d16600090815292529020805460ff19169115159190911790555b6001600160a01b0386163b6135eb576040516001600160a01b03871681527f9aedf5fdba8716db3b6705ca00150643309995d4f818a249ed6dde6677e7792d9060200160405180910390a150505050505050612ebc565b8a8a8a8a8a8a868a60008a613609578b6001600160401b031661360b565b5a5b905060008061363d5a609663eaffd49a60e01b8e8e8e8d8d8d8d8d6040516024016122d5989796959493929190614f21565b915091508115613696578751602089012060405161ffff8d16907fb8890edbfc1c74692f527444645f95489c3703cc2df42e4a366f5d06fa6cd88490613688908e908e908690614f95565b60405180910390a2506136a3565b6136a38b8b8b8b85612c6a565b50505050505050505050505050505050505050505050565b600060228251101561370f5760405162461bcd60e51b815260206004820152601c60248201527f4c7a4170703a20696e76616c69642061646170746572506172616d73000000006044820152606401610cce565b506022015190565b6001600160a01b03831660009081526010602052604090205460ff16801561373f5750505050565b6040805160208101909152600754600091829181906001600160a01b03166341976e097f00000000000000000000000000000000000000000000000000000000000000006040516001600160e01b031960e084901b1681526001600160a01b039091166004820152602401602060405180830381865afa1580156137c7573d6000803e3d6000fd5b505050506040513d601f19601f820116820180604052508101906137eb9190614b6e565b905290506137f98185613b73565b61ffff86166000908152600b6020908152604080832054600a8352818420546008845282852054600990945291909320549395504293909190818711156138825760405162461bcd60e51b815260206004820152601f60248201527f53696e676c65205472616e73616374696f6e204c696d697420457863656564006044820152606401610cce565b620151806138908587614af5565b11156138b45761ffff8a166000908152600b602052604090208590558692506138c1565b6138be8784614d94565b92505b808311156139115760405162461bcd60e51b815260206004820152601e60248201527f4461696c79205472616e73616374696f6e204c696d69742045786365656400006044820152606401610cce565b505061ffff9097166000908152600a602052604090209690965550505050505050565b61ffff82166000908152600360205260408120549081900361395557506127105b80821115612e7f5760405162461bcd60e51b815260206004820181905260248201527f4c7a4170703a207061796c6f61642073697a6520697320746f6f206c617267656044820152606401610cce565b60606122a58484600085613b8b565b600080806139c284826133c1565b60ff161480156139d3575082516029145b613a1a5760405162461bcd60e51b815260206004820152601860248201527713d19510dbdc994e881a5b9d985b1a59081c185e5b1bd85960421b6044820152606401610cce565b613a2583600d613c66565b9150613a32836021613ccb565b9050915091565b6000610e7d7f00000000000000000000000000000000000000000000000000000000000000006001600160401b038416614fc3565b6000613a78612dd6565b613a83838584613d28565b8160116000828254613a959190614af5565b9091555050306001600160a01b03841603613ab15750806111e1565b6122a53084846124cc565b600080806060816001613acf87836133c1565b60ff1614613b1a5760405162461bcd60e51b815260206004820152601860248201527713d19510dbdc994e881a5b9d985b1a59081c185e5b1bd85960421b6044820152606401610cce565b613b2586600d613c66565b9350613b32866021613ccb565b9250613b3f866029613f45565b9450613b4c866049613ccb565b9050613b686051808851613b609190614af5565b8891906129bf565b915091939590929450565b600080613b808484613fa3565b90506122a581613fd4565b606082471015613bec5760405162461bcd60e51b815260206004820152602660248201527f416464726573733a20696e73756666696369656e742062616c616e636520666f6044820152651c8818d85b1b60d21b6064820152608401610cce565b600080866001600160a01b03168587604051613c089190614b52565b60006040518083038185875af1925050503d8060008114613c45576040519150601f19603f3d011682016040523d82523d6000602084013e613c4a565b606091505b5091509150613c5b87838387613fec565b979650505050505050565b6000613c73826014614d94565b83511015613cbb5760405162461bcd60e51b8152602060048201526015602482015274746f416464726573735f6f75744f66426f756e647360581b6044820152606401610cce565b500160200151600160601b900490565b6000613cd8826008614d94565b83511015613d1f5760405162461bcd60e51b8152602060048201526014602482015273746f55696e7436345f6f75744f66426f756e647360601b6044820152606401610cce565b50016008015190565b6001600160a01b03831660009081526010602052604090205460ff168015613d505750505050565b6040805160208101909152600754600091829181906001600160a01b03166341976e097f00000000000000000000000000000000000000000000000000000000000000006040516001600160e01b031960e084901b1681526001600160a01b039091166004820152602401602060405180830381865afa158015613dd8573d6000803e3d6000fd5b505050506040513d601f19601f82011682018060405250810190613dfc9190614b6e565b90529050613e0a8185613b73565b61ffff86166000908152600f6020908152604080832054600e835281842054600c845282852054600d9094529190932054939550429390919081871115613e935760405162461bcd60e51b815260206004820152601f60248201527f53696e676c65205472616e73616374696f6e204c696d697420457863656564006044820152606401610cce565b62015180613ea18587614af5565b1115613ec55761ffff8a166000908152600f60205260409020859055869250613ed2565b613ecf8784614d94565b92505b80831115613f225760405162461bcd60e51b815260206004820152601e60248201527f4461696c79205472616e73616374696f6e204c696d69742045786365656400006044820152606401610cce565b505061ffff9097166000908152600e602052604090209690965550505050505050565b6000613f52826020614d94565b83511015613f9a5760405162461bcd60e51b8152602060048201526015602482015274746f427974657333325f6f75744f66426f756e647360581b6044820152606401610cce565b50016020015190565b6040805160208101909152600081526040518060200160405280613fcb856000015185614065565b90529392505050565b8051600090610e7d90670de0b6b3a764000090614e14565b6060831561405b578251600003614054576001600160a01b0385163b6140545760405162461bcd60e51b815260206004820152601d60248201527f416464726573733a2063616c6c20746f206e6f6e2d636f6e74726163740000006044820152606401610cce565b50816122a5565b6122a58383614071565b60006111e18284614fc3565b8151156140815781518083602001fd5b8060405162461bcd60e51b8152600401610cce919061467d565b5080546140a790614a0e565b6000825580601f106140b7575050565b601f0160209004906000526020600020908101906121f791906141cd565b8280546140e190614a0e565b90600052602060002090601f0160209004810192826141035760008555614149565b82601f1061411c57805160ff1916838001178555614149565b82800160010185558215614149579182015b8281111561414957825182559160200191906001019061412e565b506141559291506141cd565b5090565b82805461416590614a0e565b90600052602060002090601f0160209004810192826141875760008555614149565b82601f106141a05782800160ff19823516178555614149565b82800160010185558215614149579182015b828111156141495782358255916020019190600101906141b2565b5b8082111561415557600081556001016141ce565b803561ffff811681146141f457600080fd5b919050565b60008083601f84011261420b57600080fd5b5081356001600160401b0381111561422257600080fd5b60208301915083602082850101111561423a57600080fd5b9250929050565b80356001600160401b03811681146141f457600080fd5b6000806000806000806080878903121561427157600080fd5b61427a876141e2565b955060208701356001600160401b038082111561429657600080fd5b6142a28a838b016141f9565b90975095508591506142b660408a01614241565b945060608901359150808211156142cc57600080fd5b506142d989828a016141f9565b979a9699509497509295939492505050565b6000602082840312156142fd57600080fd5b81356001600160e01b0319811681146111e157600080fd5b60006020828403121561432757600080fd5b6111e1826141e2565b6000806040838503121561434357600080fd5b61434c836141e2565b946020939093013593505050565b80151581146121f757600080fd5b60008060008060008060a0878903121561438157600080fd5b61438a876141e2565b9550602087013594506040870135935060608701356143a88161435a565b925060808701356001600160401b038111156143c357600080fd5b6142d989828a016141f9565b6000806000604084860312156143e457600080fd5b6143ed846141e2565b925060208401356001600160401b0381111561440857600080fd5b614414868287016141f9565b9497909650939450505050565b6001600160a01b03811681146121f757600080fd5b6000806040838503121561444957600080fd5b823561434c81614421565b6000806040838503121561446757600080fd5b823561447281614421565b915060208301356144828161435a565b809150509250929050565b634e487b7160e01b600052604160045260246000fd5b604051601f8201601f191681016001600160401b03811182821017156144cb576144cb61448d565b604052919050565b60006001600160401b038211156144ec576144ec61448d565b50601f01601f191660200190565b60008060006060848603121561450f57600080fd5b614518846141e2565b925060208401356001600160401b0381111561453357600080fd5b8401601f8101861361454457600080fd5b8035614557614552826144d3565b6144a3565b81815287602083850101111561456c57600080fd5b8160208401602083013760006020838301015280945050505061459160408501614241565b90509250925092565b6000606082840312156145ac57600080fd5b50919050565b600080600080600060a086880312156145ca57600080fd5b85356145d581614421565b94506145e3602087016141e2565b9350604086013592506060860135915060808601356001600160401b0381111561460c57600080fd5b6146188882890161459a565b9150509295509295909350565b60005b83811015614640578181015183820152602001614628565b83811115612ebc5750506000910152565b60008151808452614669816020860160208601614625565b601f01601f19169290920160200192915050565b6020815260006111e16020830184614651565b60008060008060008060008060e0898b0312156146ac57600080fd5b88356146b781614421565b97506146c560208a016141e2565b9650604089013595506060890135945060808901356001600160401b03808211156146ef57600080fd5b6146fb8c838d016141f9565b909650945084915061470f60a08c01614241565b935060c08b013591508082111561472557600080fd5b506147328b828c0161459a565b9150509295985092959890939650565b60006020828403121561475457600080fd5b81356111e181614421565b6000806040838503121561477257600080fd5b61477b836141e2565b9150614789602084016141e2565b90509250929050565b600080600080600080600080600060e08a8c0312156147b057600080fd5b6147b98a6141e2565b985060208a0135975060408a0135965060608a01356001600160401b03808211156147e357600080fd5b6147ef8d838e016141f9565b909850965086915061480360808d01614241565b955060a08c013591506148158261435a565b90935060c08b0135908082111561482b57600080fd5b506148388c828d016141f9565b915080935050809150509295985092959850929598565b60008060008060006080868803121561486757600080fd5b614870866141e2565b945061487e602087016141e2565b93506040860135925060608601356001600160401b038111156148a057600080fd5b6148ac888289016141f9565b969995985093965092949392505050565b6000806000606084860312156148d257600080fd5b6148db846141e2565b92506148e9602085016141e2565b9150604084013590509250925092565b6000806000806000806000806000806101008b8d03121561491957600080fd5b6149228b6141e2565b995060208b01356001600160401b038082111561493e57600080fd5b61494a8e838f016141f9565b909b50995089915061495e60408e01614241565b985060608d0135975060808d0135915061497782614421565b90955060a08c0135945060c08c0135908082111561499457600080fd5b506149a18d828e016141f9565b9150809450508092505060e08b013590509295989b9194979a5092959850565b600080600080608085870312156149d757600080fd5b6149e0856141e2565b93506149ee602086016141e2565b925060408501356149fe81614421565b9396929550929360600135925050565b600181811c90821680614a2257607f821691505b6020821081036145ac57634e487b7160e01b600052602260045260246000fd5b8183823760009101908152919050565b60208082526026908201527f4c7a4170703a20696e76616c696420736f757263652073656e64696e6720636f6040820152651b9d1c9858dd60d21b606082015260800190565b81835281816020850137506000828201602090810191909152601f909101601f19169091010190565b61ffff841681526040602082015260006122a2604083018486614a98565b634e487b7160e01b600052601160045260246000fd5b600082821015614b0757614b07614adf565b500390565b6000808335601e19843603018112614b2357600080fd5b8301803591506001600160401b03821115614b3d57600080fd5b60200191503681900382131561423a57600080fd5b60008251614b64818460208701614625565b9190910192915050565b600060208284031215614b8057600080fd5b5051919050565b8284823760609190911b6bffffffffffffffffffffffff19169101908152601401919050565b600061ffff808816835280871660208401525084604083015260806060830152613c5b608083018486614a98565b61ffff86168152608060208201526000614bf9608083018688614a98565b6001600160401b0394909416604083015250606001529392505050565b61ffff8916815260c060208201526000614c3460c08301898b614a98565b6001600160401b038816604084015286606084015285608084015282810360a0840152614c62818587614a98565b9b9a5050505050505050505050565b600060208284031215614c8357600080fd5b81516001600160401b03811115614c9957600080fd5b8201601f81018413614caa57600080fd5b8051614cb8614552826144d3565b818152856020838501011115614ccd57600080fd5b61267d826020830160208601614625565b61ffff85168152608060208201526000614cfb6080830186614651565b6001600160401b03851660408401528281036060840152613c5b8185614651565b61ffff861681526001600160a01b038516602082015260a060408201819052600090614d4a90830186614651565b84151560608401528281036080840152614d648185614651565b98975050505050505050565b60008060408385031215614d8357600080fd5b505080516020909101519092909150565b60008219821115614da757614da7614adf565b500190565b61ffff8616815260a060208201526000614dc960a0830187614651565b6001600160401b03861660408401528281036060840152614dea8186614651565b90508281036080840152614d648185614651565b634e487b7160e01b600052601260045260246000fd5b600082614e2357614e23614dfe565b500490565b600082614e3757614e37614dfe565b500690565b61ffff8716815260c060208201526000614e5960c0830188614651565b8281036040840152614e6b8188614651565b6001600160a01b0387811660608601528616608085015283810360a08501529050614e968185614651565b9998505050505050505050565b60ff60f81b8760f81b16815285600182015260006001600160401b0360c01b808760c01b166021840152856029840152808560c01b166049840152508251614ef2816051850160208701614625565b91909101605101979650505050505050565b600060208284031215614f1657600080fd5b81516111e18161435a565b600061010061ffff8b168352806020840152614f3f8184018b614651565b6001600160401b038a166040850152606084018990526001600160a01b038816608085015260a0840187905283810360c08501529050614f7f8186614651565b9150508260e08301529998505050505050505050565b606081526000614fa86060830186614651565b6001600160401b039490941660208301525060400152919050565b6000816000190483118215151615614fdd57614fdd614adf565b50029056fea2646970667358221220ae01746a4560f00665eba343ce64401d2717d445f25188669c2ec4f9a67d247364736f6c634300080d0033",
  "devdoc": {
    "author": "Venus",
    "kind": "dev",
    "methods": {
      "dropFailedMessage(uint16,bytes,uint64)": {
        "params": {
          "nonce_": "Nonce_ of the transaction",
          "srcAddress_": "Address of source followed by current bridge address",
          "srcChainId_": "Chain id of source"
        }
      },
      "estimateSendFee(uint16,bytes32,uint256,bool,bytes)": {
        "details": "estimate send token `_tokenId` to (`_dstChainId`, `_toAddress`) _dstChainId - L0 defined chain id to send tokens too _toAddress - dynamic bytes array which contains the address to whom you are sending tokens to on the dstChain _amount - amount of the tokens to transfer _useZro - indicates to use zro to pay L0 fees _adapterParam - flexible bytes array to indicate messaging adapter services in L0"
      },
      "fallbackWithdraw(address,uint256)": {
        "params": {
          "amount_": "The amount of withdrawal",
          "to_": "The address to withdraw to"
        }
      },
      "owner()": {
        "details": "Returns the address of the current owner."
      },
      "pause()": {
        "custom:access": "Only owner."
      },
      "paused()": {
        "details": "Returns true if the contract is paused, and false otherwise."
      },
      "removeTrustedRemote(uint16)": {
        "params": {
          "remoteChainId_": "The chain's id corresponds to setting the trusted remote to empty."
        }
      },
      "sendFrom(address,uint16,bytes32,uint256,(address,address,bytes))": {
        "details": "send `_amount` amount of token to (`_dstChainId`, `_toAddress`) from `_from` `_from` the owner of token `_dstChainId` the destination chain identifier `_toAddress` can be any size depending on the `dstChainId`. `_amount` the quantity of tokens in wei `_refundAddress` the address LayerZero refunds if too much message fee is sent `_zroPaymentAddress` set to address(0x0) if not paying in ZRO (LayerZero Token) `_adapterParams` is a flexible bytes array to indicate messaging adapter services"
      },
      "setMaxDailyLimit(uint16,uint256)": {
        "custom:access": "Only owner.",
        "custom:event": "Emits setMaxDailyLimit with old and new limit associated with chain id.",
        "params": {
          "chainId_": "Destination chain id.",
          "limit_": "Amount in USD(scaled with 18 decimals)."
        }
      },
      "setMaxDailyReceiveLimit(uint16,uint256)": {
        "custom:access": "Only owner.",
        "custom:event": "Emits setMaxDailyReceiveLimit with old and new limit associated with chain id.",
        "params": {
          "chainId_": "The destination chain ID.",
          "limit_": "The new maximum daily limit in USD(scaled with 18 decimals)."
        }
      },
      "setMaxSingleReceiveTransactionLimit(uint16,uint256)": {
        "custom:access": "Only owner.",
        "custom:event": "Emits setMaxSingleReceiveTransactionLimit with old and new limit associated with chain id.",
        "params": {
          "chainId_": "The destination chain ID.",
          "limit_": "The new maximum limit in USD(scaled with 18 decimals)."
        }
      },
      "setMaxSingleTransactionLimit(uint16,uint256)": {
        "custom:access": "Only owner.",
        "custom:event": "Emits SetMaxSingleTransactionLimit with old and new limit associated with chain id.",
        "params": {
          "chainId_": "Destination chain id.",
          "limit_": "Amount in USD(scaled with 18 decimals)."
        }
      },
      "setOracle(address)": {
        "custom:access": "Only owner.",
        "custom:event": "Emits OracleChanged with old and new oracle address.",
        "details": "Reverts if the new address is zero.",
        "params": {
          "oracleAddress_": "The new address of the ResilientOracle contract."
        }
      },
      "setWhitelist(address,bool)": {
        "custom:access": "Only owner.",
        "custom:event": "Emits setWhitelist.",
        "params": {
          "user_": "Adress to be add in whitelist.",
          "val_": "Boolean to be set (true for user_ address is whitelisted)."
        }
      },
      "transferOwnership(address)": {
        "details": "Transfers ownership of the contract to a new account (`newOwner`). Can only be called by the current owner."
      },
      "unpause()": {
        "custom:access": "Only owner."
      }
    },
    "title": "XVSProxyOFTSrc",
    "version": 1
  },
  "userdoc": {
    "errors": {
      "ZeroAddressNotAllowed()": [
        {
          "notice": "Thrown if the supplied address is a zero address where it is not allowed"
        }
      ]
    },
    "events": {
      "DropFailedMessage(uint16,bytes,uint64)": {
        "notice": "Emits when stored message dropped without successfull retrying."
      },
      "FallbackWithdraw(address,uint256)": {
        "notice": "Emits when locked token released manually by owner."
      },
      "InnerTokenAdded(address)": {
        "notice": "Event emitted when inner token set successfully."
      },
      "OracleChanged(address,address)": {
        "notice": "Event emitted when oracle is modified."
      },
      "SetMaxDailyLimit(uint16,uint256,uint256)": {
        "notice": "Emitted when the maximum daily limit of transactions from local chain is modified."
      },
      "SetMaxDailyReceiveLimit(uint16,uint256,uint256)": {
        "notice": "Emitted when the maximum daily limit for receiving transactions from remote chain is modified."
      },
      "SetMaxSingleReceiveTransactionLimit(uint16,uint256,uint256)": {
        "notice": "Emitted when the maximum limit for a single receive transaction from remote chain is modified."
      },
      "SetMaxSingleTransactionLimit(uint16,uint256,uint256)": {
        "notice": "Emitted when the maximum limit for a single transaction from local chain is modified."
      },
      "SetWhitelist(address,bool)": {
        "notice": "Emmited when address is added to whitelist."
      },
      "TrustedRemoteRemoved(uint16)": {
        "notice": "Event emitted when trusted remote sets to empty."
      }
    },
    "kind": "user",
    "methods": {
      "chainIdToLast24HourReceiveWindowStart(uint16)": {
        "notice": "Timestamp when the last 24-hour window started from remote chain."
      },
      "chainIdToLast24HourReceived(uint16)": {
        "notice": "Total received amount in USD(scaled with 18 decimals) within the last 24-hour window from remote chain."
      },
      "chainIdToLast24HourTransferred(uint16)": {
        "notice": "Total sent amount in USD(scaled with 18 decimals) within the last 24-hour window from local chain."
      },
      "chainIdToLast24HourWindowStart(uint16)": {
        "notice": "Timestamp when the last 24-hour window started from local chain."
      },
      "chainIdToMaxDailyLimit(uint16)": {
        "notice": "Maximum daily limit for transactions in USD(scaled with 18 decimals) from local chain."
      },
      "chainIdToMaxDailyReceiveLimit(uint16)": {
        "notice": "Maximum daily limit for receiving transactions in USD(scaled with 18 decimals) from remote chain."
      },
      "chainIdToMaxSingleReceiveTransactionLimit(uint16)": {
        "notice": "Maximum limit for a single receive transaction in USD(scaled with 18 decimals) from remote chain."
      },
      "chainIdToMaxSingleTransactionLimit(uint16)": {
        "notice": "Maximum limit for a single transaction in USD(scaled with 18 decimals) from local chain."
      },
      "circulatingSupply()": {
        "notice": "Returns the total circulating supply of the token on the source chain i.e (total supply - locked in this contract)."
      },
      "dropFailedMessage(uint16,bytes,uint64)": {
        "notice": "Clear failed messages from the storage."
      },
      "fallbackWithdraw(address,uint256)": {
        "notice": "Only call it when there is no way to recover the failed message. `dropFailedMessage` must be called first if transaction is from remote->local chain to avoid double spending."
      },
      "oracle()": {
        "notice": "The address of ResilientOracle contract wrapped in its interface."
      },
      "outboundAmount()": {
        "notice": "total amount is transferred from this chain to other chains."
      },
      "pause()": {
        "notice": "Triggers stopped state of the bridge."
      },
      "removeTrustedRemote(uint16)": {
        "notice": "Remove trusted remote from storage."
      },
      "renounceOwnership()": {
        "notice": "Empty implementation of renounce ownership to avoid any mishappening."
      },
      "setMaxDailyLimit(uint16,uint256)": {
        "notice": "Sets the limit of daily (24 Hour) transactions amount."
      },
      "setMaxDailyReceiveLimit(uint16,uint256)": {
        "notice": "Sets the maximum daily limit for receiving transactions."
      },
      "setMaxSingleReceiveTransactionLimit(uint16,uint256)": {
        "notice": "Sets the maximum limit for a single receive transaction."
      },
      "setMaxSingleTransactionLimit(uint16,uint256)": {
        "notice": "Sets the limit of single transaction amount."
      },
      "setOracle(address)": {
        "notice": "Set the address of the ResilientOracle contract."
      },
      "setWhitelist(address,bool)": {
        "notice": "Sets the whitelist address to skip checks on transaction limit."
      },
      "token()": {
        "notice": "Return's the address of the inner token of this bridge."
      },
      "unpause()": {
        "notice": "Triggers resume state of the bridge."
      },
      "whitelist(address)": {
        "notice": "Address on which cap check and bound limit is not appicable."
      }
    },
    "notice": "XVSProxyOFTSrc contract serves as a crucial component for cross-chain token transactions, focusing on the source side of these transactions. It monitors the total amount transferred to other chains, ensuring it complies with defined limits, and provides functions for transferring tokens while maintaining control over the circulating supply on the source chain.",
    "version": 1
  },
  "storageLayout": {
    "storage": [
      {
        "astId": 5506,
        "contract": "contracts/Bridge/XVSProxyOFTSrc.sol:XVSProxyOFTSrc",
        "label": "_paused",
        "offset": 0,
        "slot": "0",
        "type": "t_bool"
      },
      {
        "astId": 5383,
        "contract": "contracts/Bridge/XVSProxyOFTSrc.sol:XVSProxyOFTSrc",
        "label": "_owner",
        "offset": 1,
        "slot": "0",
        "type": "t_address"
      },
      {
        "astId": 455,
        "contract": "contracts/Bridge/XVSProxyOFTSrc.sol:XVSProxyOFTSrc",
        "label": "trustedRemoteLookup",
        "offset": 0,
        "slot": "1",
        "type": "t_mapping(t_uint16,t_bytes_storage)"
      },
      {
        "astId": 461,
        "contract": "contracts/Bridge/XVSProxyOFTSrc.sol:XVSProxyOFTSrc",
        "label": "minDstGasLookup",
        "offset": 0,
        "slot": "2",
        "type": "t_mapping(t_uint16,t_mapping(t_uint16,t_uint256))"
      },
      {
        "astId": 465,
        "contract": "contracts/Bridge/XVSProxyOFTSrc.sol:XVSProxyOFTSrc",
        "label": "payloadSizeLimitLookup",
        "offset": 0,
        "slot": "3",
        "type": "t_mapping(t_uint16,t_uint256)"
      },
      {
        "astId": 467,
        "contract": "contracts/Bridge/XVSProxyOFTSrc.sol:XVSProxyOFTSrc",
        "label": "precrime",
        "offset": 0,
        "slot": "4",
        "type": "t_address"
      },
      {
        "astId": 997,
        "contract": "contracts/Bridge/XVSProxyOFTSrc.sol:XVSProxyOFTSrc",
        "label": "failedMessages",
        "offset": 0,
        "slot": "5",
        "type": "t_mapping(t_uint16,t_mapping(t_bytes_memory_ptr,t_mapping(t_uint64,t_bytes32)))"
      },
      {
        "astId": 3161,
        "contract": "contracts/Bridge/XVSProxyOFTSrc.sol:XVSProxyOFTSrc",
        "label": "creditedPackets",
        "offset": 0,
        "slot": "6",
        "type": "t_mapping(t_uint16,t_mapping(t_bytes_memory_ptr,t_mapping(t_uint64,t_bool)))"
      },
      {
        "astId": 9371,
        "contract": "contracts/Bridge/XVSProxyOFTSrc.sol:XVSProxyOFTSrc",
        "label": "oracle",
        "offset": 0,
        "slot": "7",
        "type": "t_contract(ResilientOracleInterface)8694"
      },
      {
        "astId": 9376,
        "contract": "contracts/Bridge/XVSProxyOFTSrc.sol:XVSProxyOFTSrc",
        "label": "chainIdToMaxSingleTransactionLimit",
        "offset": 0,
        "slot": "8",
        "type": "t_mapping(t_uint16,t_uint256)"
      },
      {
        "astId": 9381,
        "contract": "contracts/Bridge/XVSProxyOFTSrc.sol:XVSProxyOFTSrc",
        "label": "chainIdToMaxDailyLimit",
        "offset": 0,
        "slot": "9",
        "type": "t_mapping(t_uint16,t_uint256)"
      },
      {
        "astId": 9386,
        "contract": "contracts/Bridge/XVSProxyOFTSrc.sol:XVSProxyOFTSrc",
        "label": "chainIdToLast24HourTransferred",
        "offset": 0,
        "slot": "10",
        "type": "t_mapping(t_uint16,t_uint256)"
      },
      {
        "astId": 9391,
        "contract": "contracts/Bridge/XVSProxyOFTSrc.sol:XVSProxyOFTSrc",
        "label": "chainIdToLast24HourWindowStart",
        "offset": 0,
        "slot": "11",
        "type": "t_mapping(t_uint16,t_uint256)"
      },
      {
        "astId": 9396,
        "contract": "contracts/Bridge/XVSProxyOFTSrc.sol:XVSProxyOFTSrc",
        "label": "chainIdToMaxSingleReceiveTransactionLimit",
        "offset": 0,
        "slot": "12",
        "type": "t_mapping(t_uint16,t_uint256)"
      },
      {
        "astId": 9401,
        "contract": "contracts/Bridge/XVSProxyOFTSrc.sol:XVSProxyOFTSrc",
        "label": "chainIdToMaxDailyReceiveLimit",
        "offset": 0,
        "slot": "13",
        "type": "t_mapping(t_uint16,t_uint256)"
      },
      {
        "astId": 9406,
        "contract": "contracts/Bridge/XVSProxyOFTSrc.sol:XVSProxyOFTSrc",
        "label": "chainIdToLast24HourReceived",
        "offset": 0,
        "slot": "14",
        "type": "t_mapping(t_uint16,t_uint256)"
      },
      {
        "astId": 9411,
        "contract": "contracts/Bridge/XVSProxyOFTSrc.sol:XVSProxyOFTSrc",
        "label": "chainIdToLast24HourReceiveWindowStart",
        "offset": 0,
        "slot": "15",
        "type": "t_mapping(t_uint16,t_uint256)"
      },
      {
        "astId": 9416,
        "contract": "contracts/Bridge/XVSProxyOFTSrc.sol:XVSProxyOFTSrc",
        "label": "whitelist",
        "offset": 0,
        "slot": "16",
        "type": "t_mapping(t_address,t_bool)"
      },
      {
        "astId": 10697,
        "contract": "contracts/Bridge/XVSProxyOFTSrc.sol:XVSProxyOFTSrc",
        "label": "outboundAmount",
        "offset": 0,
        "slot": "17",
        "type": "t_uint256"
      }
    ],
    "types": {
      "t_address": {
        "encoding": "inplace",
        "label": "address",
        "numberOfBytes": "20"
      },
      "t_bool": {
        "encoding": "inplace",
        "label": "bool",
        "numberOfBytes": "1"
      },
      "t_bytes32": {
        "encoding": "inplace",
        "label": "bytes32",
        "numberOfBytes": "32"
      },
      "t_bytes_memory_ptr": {
        "encoding": "bytes",
        "label": "bytes",
        "numberOfBytes": "32"
      },
      "t_bytes_storage": {
        "encoding": "bytes",
        "label": "bytes",
        "numberOfBytes": "32"
      },
      "t_contract(ResilientOracleInterface)8694": {
        "encoding": "inplace",
        "label": "contract ResilientOracleInterface",
        "numberOfBytes": "20"
      },
      "t_mapping(t_address,t_bool)": {
        "encoding": "mapping",
        "key": "t_address",
        "label": "mapping(address => bool)",
        "numberOfBytes": "32",
        "value": "t_bool"
      },
      "t_mapping(t_bytes_memory_ptr,t_mapping(t_uint64,t_bool))": {
        "encoding": "mapping",
        "key": "t_bytes_memory_ptr",
        "label": "mapping(bytes => mapping(uint64 => bool))",
        "numberOfBytes": "32",
        "value": "t_mapping(t_uint64,t_bool)"
      },
      "t_mapping(t_bytes_memory_ptr,t_mapping(t_uint64,t_bytes32))": {
        "encoding": "mapping",
        "key": "t_bytes_memory_ptr",
        "label": "mapping(bytes => mapping(uint64 => bytes32))",
        "numberOfBytes": "32",
        "value": "t_mapping(t_uint64,t_bytes32)"
      },
      "t_mapping(t_uint16,t_bytes_storage)": {
        "encoding": "mapping",
        "key": "t_uint16",
        "label": "mapping(uint16 => bytes)",
        "numberOfBytes": "32",
        "value": "t_bytes_storage"
      },
      "t_mapping(t_uint16,t_mapping(t_bytes_memory_ptr,t_mapping(t_uint64,t_bool)))": {
        "encoding": "mapping",
        "key": "t_uint16",
        "label": "mapping(uint16 => mapping(bytes => mapping(uint64 => bool)))",
        "numberOfBytes": "32",
        "value": "t_mapping(t_bytes_memory_ptr,t_mapping(t_uint64,t_bool))"
      },
      "t_mapping(t_uint16,t_mapping(t_bytes_memory_ptr,t_mapping(t_uint64,t_bytes32)))": {
        "encoding": "mapping",
        "key": "t_uint16",
        "label": "mapping(uint16 => mapping(bytes => mapping(uint64 => bytes32)))",
        "numberOfBytes": "32",
        "value": "t_mapping(t_bytes_memory_ptr,t_mapping(t_uint64,t_bytes32))"
      },
      "t_mapping(t_uint16,t_mapping(t_uint16,t_uint256))": {
        "encoding": "mapping",
        "key": "t_uint16",
        "label": "mapping(uint16 => mapping(uint16 => uint256))",
        "numberOfBytes": "32",
        "value": "t_mapping(t_uint16,t_uint256)"
      },
      "t_mapping(t_uint16,t_uint256)": {
        "encoding": "mapping",
        "key": "t_uint16",
        "label": "mapping(uint16 => uint256)",
        "numberOfBytes": "32",
        "value": "t_uint256"
      },
      "t_mapping(t_uint64,t_bool)": {
        "encoding": "mapping",
        "key": "t_uint64",
        "label": "mapping(uint64 => bool)",
        "numberOfBytes": "32",
        "value": "t_bool"
      },
      "t_mapping(t_uint64,t_bytes32)": {
        "encoding": "mapping",
        "key": "t_uint64",
        "label": "mapping(uint64 => bytes32)",
        "numberOfBytes": "32",
        "value": "t_bytes32"
      },
      "t_uint16": {
        "encoding": "inplace",
        "label": "uint16",
        "numberOfBytes": "2"
      },
      "t_uint256": {
        "encoding": "inplace",
        "label": "uint256",
        "numberOfBytes": "32"
      },
      "t_uint64": {
        "encoding": "inplace",
        "label": "uint64",
        "numberOfBytes": "8"
      }
    }
  }
}