{
  "address": "0x95676A9Ec0d7c11f207Bc180350Bd53bfed31a59",
  "abi": [
    {
      "inputs": [
        {
          "internalType": "address",
          "name": "tokenAddress_",
          "type": "address"
        },
        {
          "internalType": "uint8",
          "name": "sharedDecimals_",
          "type": "uint8"
        },
        {
          "internalType": "address",
          "name": "lzEndpoint_",
          "type": "address"
        },
        {
          "internalType": "address",
          "name": "oracle_",
          "type": "address"
        }
      ],
      "stateMutability": "nonpayable",
      "type": "constructor"
    },
    {
      "inputs": [
        {
          "internalType": "uint256",
          "name": "sweepAmount",
          "type": "uint256"
        },
        {
          "internalType": "uint256",
          "name": "balance",
          "type": "uint256"
        }
      ],
      "name": "InsufficientBalance",
      "type": "error"
    },
    {
      "inputs": [],
      "name": "ZeroAddressNotAllowed",
      "type": "error"
    },
    {
      "anonymous": false,
      "inputs": [
        {
          "indexed": true,
          "internalType": "uint16",
          "name": "_srcChainId",
          "type": "uint16"
        },
        {
          "indexed": false,
          "internalType": "bytes",
          "name": "_srcAddress",
          "type": "bytes"
        },
        {
          "indexed": false,
          "internalType": "uint64",
          "name": "_nonce",
          "type": "uint64"
        },
        {
          "indexed": false,
          "internalType": "bytes32",
          "name": "_hash",
          "type": "bytes32"
        }
      ],
      "name": "CallOFTReceivedSuccess",
      "type": "event"
    },
    {
      "anonymous": false,
      "inputs": [
        {
          "indexed": false,
          "internalType": "uint16",
          "name": "srcChainId",
          "type": "uint16"
        },
        {
          "indexed": true,
          "internalType": "bytes",
          "name": "srcAddress",
          "type": "bytes"
        },
        {
          "indexed": false,
          "internalType": "uint64",
          "name": "nonce",
          "type": "uint64"
        }
      ],
      "name": "DropFailedMessage",
      "type": "event"
    },
    {
      "anonymous": false,
      "inputs": [
        {
          "indexed": true,
          "internalType": "address",
          "name": "innerToken",
          "type": "address"
        }
      ],
      "name": "InnerTokenAdded",
      "type": "event"
    },
    {
      "anonymous": false,
      "inputs": [
        {
          "indexed": false,
          "internalType": "uint16",
          "name": "_srcChainId",
          "type": "uint16"
        },
        {
          "indexed": false,
          "internalType": "bytes",
          "name": "_srcAddress",
          "type": "bytes"
        },
        {
          "indexed": false,
          "internalType": "uint64",
          "name": "_nonce",
          "type": "uint64"
        },
        {
          "indexed": false,
          "internalType": "bytes",
          "name": "_payload",
          "type": "bytes"
        },
        {
          "indexed": false,
          "internalType": "bytes",
          "name": "_reason",
          "type": "bytes"
        }
      ],
      "name": "MessageFailed",
      "type": "event"
    },
    {
      "anonymous": false,
      "inputs": [
        {
          "indexed": false,
          "internalType": "address",
          "name": "_address",
          "type": "address"
        }
      ],
      "name": "NonContractAddress",
      "type": "event"
    },
    {
      "anonymous": false,
      "inputs": [
        {
          "indexed": true,
          "internalType": "address",
          "name": "oldOracle",
          "type": "address"
        },
        {
          "indexed": true,
          "internalType": "address",
          "name": "newOracle",
          "type": "address"
        }
      ],
      "name": "OracleChanged",
      "type": "event"
    },
    {
      "anonymous": false,
      "inputs": [
        {
          "indexed": true,
          "internalType": "address",
          "name": "previousOwner",
          "type": "address"
        },
        {
          "indexed": true,
          "internalType": "address",
          "name": "newOwner",
          "type": "address"
        }
      ],
      "name": "OwnershipTransferred",
      "type": "event"
    },
    {
      "anonymous": false,
      "inputs": [
        {
          "indexed": false,
          "internalType": "address",
          "name": "account",
          "type": "address"
        }
      ],
      "name": "Paused",
      "type": "event"
    },
    {
      "anonymous": false,
      "inputs": [
        {
          "indexed": true,
          "internalType": "uint16",
          "name": "_srcChainId",
          "type": "uint16"
        },
        {
          "indexed": true,
          "internalType": "address",
          "name": "_to",
          "type": "address"
        },
        {
          "indexed": false,
          "internalType": "uint256",
          "name": "_amount",
          "type": "uint256"
        }
      ],
      "name": "ReceiveFromChain",
      "type": "event"
    },
    {
      "anonymous": false,
      "inputs": [
        {
          "indexed": false,
          "internalType": "uint16",
          "name": "_srcChainId",
          "type": "uint16"
        },
        {
          "indexed": false,
          "internalType": "bytes",
          "name": "_srcAddress",
          "type": "bytes"
        },
        {
          "indexed": false,
          "internalType": "uint64",
          "name": "_nonce",
          "type": "uint64"
        },
        {
          "indexed": false,
          "internalType": "bytes32",
          "name": "_payloadHash",
          "type": "bytes32"
        }
      ],
      "name": "RetryMessageSuccess",
      "type": "event"
    },
    {
      "anonymous": false,
      "inputs": [
        {
          "indexed": true,
          "internalType": "uint16",
          "name": "_dstChainId",
          "type": "uint16"
        },
        {
          "indexed": true,
          "internalType": "address",
          "name": "_from",
          "type": "address"
        },
        {
          "indexed": true,
          "internalType": "bytes32",
          "name": "_toAddress",
          "type": "bytes32"
        },
        {
          "indexed": false,
          "internalType": "uint256",
          "name": "_amount",
          "type": "uint256"
        }
      ],
      "name": "SendToChain",
      "type": "event"
    },
    {
      "anonymous": false,
      "inputs": [
        {
          "indexed": false,
          "internalType": "uint16",
          "name": "chainId",
          "type": "uint16"
        },
        {
          "indexed": false,
          "internalType": "uint256",
          "name": "oldMaxLimit",
          "type": "uint256"
        },
        {
          "indexed": false,
          "internalType": "uint256",
          "name": "newMaxLimit",
          "type": "uint256"
        }
      ],
      "name": "SetMaxDailyLimit",
      "type": "event"
    },
    {
      "anonymous": false,
      "inputs": [
        {
          "indexed": false,
          "internalType": "uint16",
          "name": "chainId",
          "type": "uint16"
        },
        {
          "indexed": false,
          "internalType": "uint256",
          "name": "oldMaxLimit",
          "type": "uint256"
        },
        {
          "indexed": false,
          "internalType": "uint256",
          "name": "newMaxLimit",
          "type": "uint256"
        }
      ],
      "name": "SetMaxDailyReceiveLimit",
      "type": "event"
    },
    {
      "anonymous": false,
      "inputs": [
        {
          "indexed": false,
          "internalType": "uint16",
          "name": "chainId",
          "type": "uint16"
        },
        {
          "indexed": false,
          "internalType": "uint256",
          "name": "oldMaxLimit",
          "type": "uint256"
        },
        {
          "indexed": false,
          "internalType": "uint256",
          "name": "newMaxLimit",
          "type": "uint256"
        }
      ],
      "name": "SetMaxSingleReceiveTransactionLimit",
      "type": "event"
    },
    {
      "anonymous": false,
      "inputs": [
        {
          "indexed": false,
          "internalType": "uint16",
          "name": "chainId",
          "type": "uint16"
        },
        {
          "indexed": false,
          "internalType": "uint256",
          "name": "oldMaxLimit",
          "type": "uint256"
        },
        {
          "indexed": false,
          "internalType": "uint256",
          "name": "newMaxLimit",
          "type": "uint256"
        }
      ],
      "name": "SetMaxSingleTransactionLimit",
      "type": "event"
    },
    {
      "anonymous": false,
      "inputs": [
        {
          "indexed": false,
          "internalType": "uint16",
          "name": "_dstChainId",
          "type": "uint16"
        },
        {
          "indexed": false,
          "internalType": "uint16",
          "name": "_type",
          "type": "uint16"
        },
        {
          "indexed": false,
          "internalType": "uint256",
          "name": "_minDstGas",
          "type": "uint256"
        }
      ],
      "name": "SetMinDstGas",
      "type": "event"
    },
    {
      "anonymous": false,
      "inputs": [
        {
          "indexed": false,
          "internalType": "address",
          "name": "precrime",
          "type": "address"
        }
      ],
      "name": "SetPrecrime",
      "type": "event"
    },
    {
      "anonymous": false,
      "inputs": [
        {
          "indexed": false,
          "internalType": "uint16",
          "name": "_remoteChainId",
          "type": "uint16"
        },
        {
          "indexed": false,
          "internalType": "bytes",
          "name": "_path",
          "type": "bytes"
        }
      ],
      "name": "SetTrustedRemote",
      "type": "event"
    },
    {
      "anonymous": false,
      "inputs": [
        {
          "indexed": false,
          "internalType": "uint16",
          "name": "_remoteChainId",
          "type": "uint16"
        },
        {
          "indexed": false,
          "internalType": "bytes",
          "name": "_remoteAddress",
          "type": "bytes"
        }
      ],
      "name": "SetTrustedRemoteAddress",
      "type": "event"
    },
    {
      "anonymous": false,
      "inputs": [
        {
          "indexed": true,
          "internalType": "address",
          "name": "addr",
          "type": "address"
        },
        {
          "indexed": false,
          "internalType": "bool",
          "name": "isWhitelist",
          "type": "bool"
        }
      ],
      "name": "SetWhitelist",
      "type": "event"
    },
    {
      "anonymous": false,
      "inputs": [
        {
          "indexed": true,
          "internalType": "address",
          "name": "token",
          "type": "address"
        },
        {
          "indexed": true,
          "internalType": "address",
          "name": "to",
          "type": "address"
        },
        {
          "indexed": false,
          "internalType": "uint256",
          "name": "sweepAmount",
          "type": "uint256"
        }
      ],
      "name": "SweepToken",
      "type": "event"
    },
    {
      "anonymous": false,
      "inputs": [
        {
          "indexed": false,
          "internalType": "uint16",
          "name": "chainId",
          "type": "uint16"
        }
      ],
      "name": "TrustedRemoteRemoved",
      "type": "event"
    },
    {
      "anonymous": false,
      "inputs": [
        {
          "indexed": false,
          "internalType": "address",
          "name": "account",
          "type": "address"
        }
      ],
      "name": "Unpaused",
      "type": "event"
    },
    {
      "anonymous": false,
      "inputs": [
        {
          "indexed": true,
          "internalType": "bool",
          "name": "enabled",
          "type": "bool"
        }
      ],
      "name": "UpdateSendAndCallEnabled",
      "type": "event"
    },
    {
      "inputs": [],
      "name": "DEFAULT_PAYLOAD_SIZE_LIMIT",
      "outputs": [
        {
          "internalType": "uint256",
          "name": "",
          "type": "uint256"
        }
      ],
      "stateMutability": "view",
      "type": "function"
    },
    {
      "inputs": [],
      "name": "NO_EXTRA_GAS",
      "outputs": [
        {
          "internalType": "uint256",
          "name": "",
          "type": "uint256"
        }
      ],
      "stateMutability": "view",
      "type": "function"
    },
    {
      "inputs": [],
      "name": "PT_SEND",
      "outputs": [
        {
          "internalType": "uint8",
          "name": "",
          "type": "uint8"
        }
      ],
      "stateMutability": "view",
      "type": "function"
    },
    {
      "inputs": [],
      "name": "PT_SEND_AND_CALL",
      "outputs": [
        {
          "internalType": "uint8",
          "name": "",
          "type": "uint8"
        }
      ],
      "stateMutability": "view",
      "type": "function"
    },
    {
      "inputs": [
        {
          "internalType": "uint16",
          "name": "_srcChainId",
          "type": "uint16"
        },
        {
          "internalType": "bytes",
          "name": "_srcAddress",
          "type": "bytes"
        },
        {
          "internalType": "uint64",
          "name": "_nonce",
          "type": "uint64"
        },
        {
          "internalType": "bytes32",
          "name": "_from",
          "type": "bytes32"
        },
        {
          "internalType": "address",
          "name": "_to",
          "type": "address"
        },
        {
          "internalType": "uint256",
          "name": "_amount",
          "type": "uint256"
        },
        {
          "internalType": "bytes",
          "name": "_payload",
          "type": "bytes"
        },
        {
          "internalType": "uint256",
          "name": "_gasForCall",
          "type": "uint256"
        }
      ],
      "name": "callOnOFTReceived",
      "outputs": [],
      "stateMutability": "nonpayable",
      "type": "function"
    },
    {
      "inputs": [
        {
          "internalType": "uint16",
          "name": "",
          "type": "uint16"
        }
      ],
      "name": "chainIdToLast24HourReceiveWindowStart",
      "outputs": [
        {
          "internalType": "uint256",
          "name": "",
          "type": "uint256"
        }
      ],
      "stateMutability": "view",
      "type": "function"
    },
    {
      "inputs": [
        {
          "internalType": "uint16",
          "name": "",
          "type": "uint16"
        }
      ],
      "name": "chainIdToLast24HourReceived",
      "outputs": [
        {
          "internalType": "uint256",
          "name": "",
          "type": "uint256"
        }
      ],
      "stateMutability": "view",
      "type": "function"
    },
    {
      "inputs": [
        {
          "internalType": "uint16",
          "name": "",
          "type": "uint16"
        }
      ],
      "name": "chainIdToLast24HourTransferred",
      "outputs": [
        {
          "internalType": "uint256",
          "name": "",
          "type": "uint256"
        }
      ],
      "stateMutability": "view",
      "type": "function"
    },
    {
      "inputs": [
        {
          "internalType": "uint16",
          "name": "",
          "type": "uint16"
        }
      ],
      "name": "chainIdToLast24HourWindowStart",
      "outputs": [
        {
          "internalType": "uint256",
          "name": "",
          "type": "uint256"
        }
      ],
      "stateMutability": "view",
      "type": "function"
    },
    {
      "inputs": [
        {
          "internalType": "uint16",
          "name": "",
          "type": "uint16"
        }
      ],
      "name": "chainIdToMaxDailyLimit",
      "outputs": [
        {
          "internalType": "uint256",
          "name": "",
          "type": "uint256"
        }
      ],
      "stateMutability": "view",
      "type": "function"
    },
    {
      "inputs": [
        {
          "internalType": "uint16",
          "name": "",
          "type": "uint16"
        }
      ],
      "name": "chainIdToMaxDailyReceiveLimit",
      "outputs": [
        {
          "internalType": "uint256",
          "name": "",
          "type": "uint256"
        }
      ],
      "stateMutability": "view",
      "type": "function"
    },
    {
      "inputs": [
        {
          "internalType": "uint16",
          "name": "",
          "type": "uint16"
        }
      ],
      "name": "chainIdToMaxSingleReceiveTransactionLimit",
      "outputs": [
        {
          "internalType": "uint256",
          "name": "",
          "type": "uint256"
        }
      ],
      "stateMutability": "view",
      "type": "function"
    },
    {
      "inputs": [
        {
          "internalType": "uint16",
          "name": "",
          "type": "uint16"
        }
      ],
      "name": "chainIdToMaxSingleTransactionLimit",
      "outputs": [
        {
          "internalType": "uint256",
          "name": "",
          "type": "uint256"
        }
      ],
      "stateMutability": "view",
      "type": "function"
    },
    {
      "inputs": [],
      "name": "circulatingSupply",
      "outputs": [
        {
          "internalType": "uint256",
          "name": "",
          "type": "uint256"
        }
      ],
      "stateMutability": "view",
      "type": "function"
    },
    {
      "inputs": [
        {
          "internalType": "uint16",
          "name": "",
          "type": "uint16"
        },
        {
          "internalType": "bytes",
          "name": "",
          "type": "bytes"
        },
        {
          "internalType": "uint64",
          "name": "",
          "type": "uint64"
        }
      ],
      "name": "creditedPackets",
      "outputs": [
        {
          "internalType": "bool",
          "name": "",
          "type": "bool"
        }
      ],
      "stateMutability": "view",
      "type": "function"
    },
    {
      "inputs": [
        {
          "internalType": "uint16",
          "name": "srcChainId_",
          "type": "uint16"
        },
        {
          "internalType": "bytes",
          "name": "srcAddress_",
          "type": "bytes"
        },
        {
          "internalType": "uint64",
          "name": "nonce_",
          "type": "uint64"
        }
      ],
      "name": "dropFailedMessage",
      "outputs": [],
      "stateMutability": "nonpayable",
      "type": "function"
    },
    {
      "inputs": [
        {
          "internalType": "uint16",
          "name": "_dstChainId",
          "type": "uint16"
        },
        {
          "internalType": "bytes32",
          "name": "_toAddress",
          "type": "bytes32"
        },
        {
          "internalType": "uint256",
          "name": "_amount",
          "type": "uint256"
        },
        {
          "internalType": "bytes",
          "name": "_payload",
          "type": "bytes"
        },
        {
          "internalType": "uint64",
          "name": "_dstGasForCall",
          "type": "uint64"
        },
        {
          "internalType": "bool",
          "name": "_useZro",
          "type": "bool"
        },
        {
          "internalType": "bytes",
          "name": "_adapterParams",
          "type": "bytes"
        }
      ],
      "name": "estimateSendAndCallFee",
      "outputs": [
        {
          "internalType": "uint256",
          "name": "nativeFee",
          "type": "uint256"
        },
        {
          "internalType": "uint256",
          "name": "zroFee",
          "type": "uint256"
        }
      ],
      "stateMutability": "view",
      "type": "function"
    },
    {
      "inputs": [
        {
          "internalType": "uint16",
          "name": "_dstChainId",
          "type": "uint16"
        },
        {
          "internalType": "bytes32",
          "name": "_toAddress",
          "type": "bytes32"
        },
        {
          "internalType": "uint256",
          "name": "_amount",
          "type": "uint256"
        },
        {
          "internalType": "bool",
          "name": "_useZro",
          "type": "bool"
        },
        {
          "internalType": "bytes",
          "name": "_adapterParams",
          "type": "bytes"
        }
      ],
      "name": "estimateSendFee",
      "outputs": [
        {
          "internalType": "uint256",
          "name": "nativeFee",
          "type": "uint256"
        },
        {
          "internalType": "uint256",
          "name": "zroFee",
          "type": "uint256"
        }
      ],
      "stateMutability": "view",
      "type": "function"
    },
    {
      "inputs": [
        {
          "internalType": "uint16",
          "name": "",
          "type": "uint16"
        },
        {
          "internalType": "bytes",
          "name": "",
          "type": "bytes"
        },
        {
          "internalType": "uint64",
          "name": "",
          "type": "uint64"
        }
      ],
      "name": "failedMessages",
      "outputs": [
        {
          "internalType": "bytes32",
          "name": "",
          "type": "bytes32"
        }
      ],
      "stateMutability": "view",
      "type": "function"
    },
    {
      "inputs": [
        {
          "internalType": "uint16",
          "name": "_srcChainId",
          "type": "uint16"
        },
        {
          "internalType": "bytes",
          "name": "_srcAddress",
          "type": "bytes"
        }
      ],
      "name": "forceResumeReceive",
      "outputs": [],
      "stateMutability": "nonpayable",
      "type": "function"
    },
    {
      "inputs": [
        {
          "internalType": "uint16",
          "name": "_version",
          "type": "uint16"
        },
        {
          "internalType": "uint16",
          "name": "_chainId",
          "type": "uint16"
        },
        {
          "internalType": "address",
          "name": "",
          "type": "address"
        },
        {
          "internalType": "uint256",
          "name": "_configType",
          "type": "uint256"
        }
      ],
      "name": "getConfig",
      "outputs": [
        {
          "internalType": "bytes",
          "name": "",
          "type": "bytes"
        }
      ],
      "stateMutability": "view",
      "type": "function"
    },
    {
      "inputs": [
        {
          "internalType": "uint16",
          "name": "_remoteChainId",
          "type": "uint16"
        }
      ],
      "name": "getTrustedRemoteAddress",
      "outputs": [
        {
          "internalType": "bytes",
          "name": "",
          "type": "bytes"
        }
      ],
      "stateMutability": "view",
      "type": "function"
    },
    {
      "inputs": [
        {
          "internalType": "address",
          "name": "from_",
          "type": "address"
        },
        {
          "internalType": "uint16",
          "name": "dstChainId_",
          "type": "uint16"
        },
        {
          "internalType": "uint256",
          "name": "amount_",
          "type": "uint256"
        }
      ],
      "name": "isEligibleToSend",
      "outputs": [
        {
          "internalType": "bool",
          "name": "eligibleToSend",
          "type": "bool"
        },
        {
          "internalType": "uint256",
          "name": "maxSingleTransactionLimit",
          "type": "uint256"
        },
        {
          "internalType": "uint256",
          "name": "maxDailyLimit",
          "type": "uint256"
        },
        {
          "internalType": "uint256",
          "name": "amountInUsd",
          "type": "uint256"
        },
        {
          "internalType": "uint256",
          "name": "transferredInWindow",
          "type": "uint256"
        },
        {
          "internalType": "uint256",
          "name": "last24HourWindowStart",
          "type": "uint256"
        },
        {
          "internalType": "bool",
          "name": "isWhiteListedUser",
          "type": "bool"
        }
      ],
      "stateMutability": "view",
      "type": "function"
    },
    {
      "inputs": [
        {
          "internalType": "uint16",
          "name": "_srcChainId",
          "type": "uint16"
        },
        {
          "internalType": "bytes",
          "name": "_srcAddress",
          "type": "bytes"
        }
      ],
      "name": "isTrustedRemote",
      "outputs": [
        {
          "internalType": "bool",
          "name": "",
          "type": "bool"
        }
      ],
      "stateMutability": "view",
      "type": "function"
    },
    {
      "inputs": [],
      "name": "lzEndpoint",
      "outputs": [
        {
          "internalType": "contract ILayerZeroEndpoint",
          "name": "",
          "type": "address"
        }
      ],
      "stateMutability": "view",
      "type": "function"
    },
    {
      "inputs": [
        {
          "internalType": "uint16",
          "name": "_srcChainId",
          "type": "uint16"
        },
        {
          "internalType": "bytes",
          "name": "_srcAddress",
          "type": "bytes"
        },
        {
          "internalType": "uint64",
          "name": "_nonce",
          "type": "uint64"
        },
        {
          "internalType": "bytes",
          "name": "_payload",
          "type": "bytes"
        }
      ],
      "name": "lzReceive",
      "outputs": [],
      "stateMutability": "nonpayable",
      "type": "function"
    },
    {
      "inputs": [
        {
          "internalType": "uint16",
          "name": "",
          "type": "uint16"
        },
        {
          "internalType": "uint16",
          "name": "",
          "type": "uint16"
        }
      ],
      "name": "minDstGasLookup",
      "outputs": [
        {
          "internalType": "uint256",
          "name": "",
          "type": "uint256"
        }
      ],
      "stateMutability": "view",
      "type": "function"
    },
    {
      "inputs": [
        {
          "internalType": "uint16",
          "name": "_srcChainId",
          "type": "uint16"
        },
        {
          "internalType": "bytes",
          "name": "_srcAddress",
          "type": "bytes"
        },
        {
          "internalType": "uint64",
          "name": "_nonce",
          "type": "uint64"
        },
        {
          "internalType": "bytes",
          "name": "_payload",
          "type": "bytes"
        }
      ],
      "name": "nonblockingLzReceive",
      "outputs": [],
      "stateMutability": "nonpayable",
      "type": "function"
    },
    {
      "inputs": [],
      "name": "oracle",
      "outputs": [
        {
          "internalType": "contract ResilientOracleInterface",
          "name": "",
          "type": "address"
        }
      ],
      "stateMutability": "view",
      "type": "function"
    },
    {
      "inputs": [],
      "name": "owner",
      "outputs": [
        {
          "internalType": "address",
          "name": "",
          "type": "address"
        }
      ],
      "stateMutability": "view",
      "type": "function"
    },
    {
      "inputs": [],
      "name": "pause",
      "outputs": [],
      "stateMutability": "nonpayable",
      "type": "function"
    },
    {
      "inputs": [],
      "name": "paused",
      "outputs": [
        {
          "internalType": "bool",
          "name": "",
          "type": "bool"
        }
      ],
      "stateMutability": "view",
      "type": "function"
    },
    {
      "inputs": [
        {
          "internalType": "uint16",
          "name": "",
          "type": "uint16"
        }
      ],
      "name": "payloadSizeLimitLookup",
      "outputs": [
        {
          "internalType": "uint256",
          "name": "",
          "type": "uint256"
        }
      ],
      "stateMutability": "view",
      "type": "function"
    },
    {
      "inputs": [],
      "name": "precrime",
      "outputs": [
        {
          "internalType": "address",
          "name": "",
          "type": "address"
        }
      ],
      "stateMutability": "view",
      "type": "function"
    },
    {
      "inputs": [
        {
          "internalType": "uint16",
          "name": "remoteChainId_",
          "type": "uint16"
        }
      ],
      "name": "removeTrustedRemote",
      "outputs": [],
      "stateMutability": "nonpayable",
      "type": "function"
    },
    {
      "inputs": [],
      "name": "renounceOwnership",
      "outputs": [],
      "stateMutability": "nonpayable",
      "type": "function"
    },
    {
      "inputs": [
        {
          "internalType": "uint16",
          "name": "_srcChainId",
          "type": "uint16"
        },
        {
          "internalType": "bytes",
          "name": "_srcAddress",
          "type": "bytes"
        },
        {
          "internalType": "uint64",
          "name": "_nonce",
          "type": "uint64"
        },
        {
          "internalType": "bytes",
          "name": "_payload",
          "type": "bytes"
        }
      ],
      "name": "retryMessage",
      "outputs": [],
      "stateMutability": "payable",
      "type": "function"
    },
    {
      "inputs": [
        {
          "internalType": "address",
          "name": "from_",
          "type": "address"
        },
        {
          "internalType": "uint16",
          "name": "dstChainId_",
          "type": "uint16"
        },
        {
          "internalType": "bytes32",
          "name": "toAddress_",
          "type": "bytes32"
        },
        {
          "internalType": "uint256",
          "name": "amount_",
          "type": "uint256"
        },
        {
          "internalType": "bytes",
          "name": "payload_",
          "type": "bytes"
        },
        {
          "internalType": "uint64",
          "name": "dstGasForCall_",
          "type": "uint64"
        },
        {
          "components": [
            {
              "internalType": "address payable",
              "name": "refundAddress",
              "type": "address"
            },
            {
              "internalType": "address",
              "name": "zroPaymentAddress",
              "type": "address"
            },
            {
              "internalType": "bytes",
              "name": "adapterParams",
              "type": "bytes"
            }
          ],
          "internalType": "struct ICommonOFT.LzCallParams",
          "name": "callparams_",
          "type": "tuple"
        }
      ],
      "name": "sendAndCall",
      "outputs": [],
      "stateMutability": "payable",
      "type": "function"
    },
    {
      "inputs": [],
      "name": "sendAndCallEnabled",
      "outputs": [
        {
          "internalType": "bool",
          "name": "",
          "type": "bool"
        }
      ],
      "stateMutability": "view",
      "type": "function"
    },
    {
      "inputs": [
        {
          "internalType": "address",
          "name": "_from",
          "type": "address"
        },
        {
          "internalType": "uint16",
          "name": "_dstChainId",
          "type": "uint16"
        },
        {
          "internalType": "bytes32",
          "name": "_toAddress",
          "type": "bytes32"
        },
        {
          "internalType": "uint256",
          "name": "_amount",
          "type": "uint256"
        },
        {
          "components": [
            {
              "internalType": "address payable",
              "name": "refundAddress",
              "type": "address"
            },
            {
              "internalType": "address",
              "name": "zroPaymentAddress",
              "type": "address"
            },
            {
              "internalType": "bytes",
              "name": "adapterParams",
              "type": "bytes"
            }
          ],
          "internalType": "struct ICommonOFT.LzCallParams",
          "name": "_callParams",
          "type": "tuple"
        }
      ],
      "name": "sendFrom",
      "outputs": [],
      "stateMutability": "payable",
      "type": "function"
    },
    {
      "inputs": [
        {
          "internalType": "uint16",
          "name": "_version",
          "type": "uint16"
        },
        {
          "internalType": "uint16",
          "name": "_chainId",
          "type": "uint16"
        },
        {
          "internalType": "uint256",
          "name": "_configType",
          "type": "uint256"
        },
        {
          "internalType": "bytes",
          "name": "_config",
          "type": "bytes"
        }
      ],
      "name": "setConfig",
      "outputs": [],
      "stateMutability": "nonpayable",
      "type": "function"
    },
    {
      "inputs": [
        {
          "internalType": "uint16",
          "name": "chainId_",
          "type": "uint16"
        },
        {
          "internalType": "uint256",
          "name": "limit_",
          "type": "uint256"
        }
      ],
      "name": "setMaxDailyLimit",
      "outputs": [],
      "stateMutability": "nonpayable",
      "type": "function"
    },
    {
      "inputs": [
        {
          "internalType": "uint16",
          "name": "chainId_",
          "type": "uint16"
        },
        {
          "internalType": "uint256",
          "name": "limit_",
          "type": "uint256"
        }
      ],
      "name": "setMaxDailyReceiveLimit",
      "outputs": [],
      "stateMutability": "nonpayable",
      "type": "function"
    },
    {
      "inputs": [
        {
          "internalType": "uint16",
          "name": "chainId_",
          "type": "uint16"
        },
        {
          "internalType": "uint256",
          "name": "limit_",
          "type": "uint256"
        }
      ],
      "name": "setMaxSingleReceiveTransactionLimit",
      "outputs": [],
      "stateMutability": "nonpayable",
      "type": "function"
    },
    {
      "inputs": [
        {
          "internalType": "uint16",
          "name": "chainId_",
          "type": "uint16"
        },
        {
          "internalType": "uint256",
          "name": "limit_",
          "type": "uint256"
        }
      ],
      "name": "setMaxSingleTransactionLimit",
      "outputs": [],
      "stateMutability": "nonpayable",
      "type": "function"
    },
    {
      "inputs": [
        {
          "internalType": "uint16",
          "name": "_dstChainId",
          "type": "uint16"
        },
        {
          "internalType": "uint16",
          "name": "_packetType",
          "type": "uint16"
        },
        {
          "internalType": "uint256",
          "name": "_minGas",
          "type": "uint256"
        }
      ],
      "name": "setMinDstGas",
      "outputs": [],
      "stateMutability": "nonpayable",
      "type": "function"
    },
    {
      "inputs": [
        {
          "internalType": "address",
          "name": "oracleAddress_",
          "type": "address"
        }
      ],
      "name": "setOracle",
      "outputs": [],
      "stateMutability": "nonpayable",
      "type": "function"
    },
    {
      "inputs": [
        {
          "internalType": "uint16",
          "name": "_dstChainId",
          "type": "uint16"
        },
        {
          "internalType": "uint256",
          "name": "_size",
          "type": "uint256"
        }
      ],
      "name": "setPayloadSizeLimit",
      "outputs": [],
      "stateMutability": "nonpayable",
      "type": "function"
    },
    {
      "inputs": [
        {
          "internalType": "address",
          "name": "_precrime",
          "type": "address"
        }
      ],
      "name": "setPrecrime",
      "outputs": [],
      "stateMutability": "nonpayable",
      "type": "function"
    },
    {
      "inputs": [
        {
          "internalType": "uint16",
          "name": "_version",
          "type": "uint16"
        }
      ],
      "name": "setReceiveVersion",
      "outputs": [],
      "stateMutability": "nonpayable",
      "type": "function"
    },
    {
      "inputs": [
        {
          "internalType": "uint16",
          "name": "_version",
          "type": "uint16"
        }
      ],
      "name": "setSendVersion",
      "outputs": [],
      "stateMutability": "nonpayable",
      "type": "function"
    },
    {
      "inputs": [
        {
          "internalType": "uint16",
          "name": "_remoteChainId",
          "type": "uint16"
        },
        {
          "internalType": "bytes",
          "name": "_path",
          "type": "bytes"
        }
      ],
      "name": "setTrustedRemote",
      "outputs": [],
      "stateMutability": "nonpayable",
      "type": "function"
    },
    {
      "inputs": [
        {
          "internalType": "uint16",
          "name": "_remoteChainId",
          "type": "uint16"
        },
        {
          "internalType": "bytes",
          "name": "_remoteAddress",
          "type": "bytes"
        }
      ],
      "name": "setTrustedRemoteAddress",
      "outputs": [],
      "stateMutability": "nonpayable",
      "type": "function"
    },
    {
      "inputs": [
        {
          "internalType": "address",
          "name": "user_",
          "type": "address"
        },
        {
          "internalType": "bool",
          "name": "val_",
          "type": "bool"
        }
      ],
      "name": "setWhitelist",
      "outputs": [],
      "stateMutability": "nonpayable",
      "type": "function"
    },
    {
      "inputs": [],
      "name": "sharedDecimals",
      "outputs": [
        {
          "internalType": "uint8",
          "name": "",
          "type": "uint8"
        }
      ],
      "stateMutability": "view",
      "type": "function"
    },
    {
      "inputs": [
        {
          "internalType": "bytes4",
          "name": "interfaceId",
          "type": "bytes4"
        }
      ],
      "name": "supportsInterface",
      "outputs": [
        {
          "internalType": "bool",
          "name": "",
          "type": "bool"
        }
      ],
      "stateMutability": "view",
      "type": "function"
    },
    {
      "inputs": [
        {
          "internalType": "contract IERC20",
          "name": "token_",
          "type": "address"
        },
        {
          "internalType": "address",
          "name": "to_",
          "type": "address"
        },
        {
          "internalType": "uint256",
          "name": "amount_",
          "type": "uint256"
        }
      ],
      "name": "sweepToken",
      "outputs": [],
      "stateMutability": "nonpayable",
      "type": "function"
    },
    {
      "inputs": [],
      "name": "token",
      "outputs": [
        {
          "internalType": "address",
          "name": "",
          "type": "address"
        }
      ],
      "stateMutability": "view",
      "type": "function"
    },
    {
      "inputs": [
        {
          "internalType": "address",
          "name": "newOwner",
          "type": "address"
        }
      ],
      "name": "transferOwnership",
      "outputs": [],
      "stateMutability": "nonpayable",
      "type": "function"
    },
    {
      "inputs": [
        {
          "internalType": "uint16",
          "name": "",
          "type": "uint16"
        }
      ],
      "name": "trustedRemoteLookup",
      "outputs": [
        {
          "internalType": "bytes",
          "name": "",
          "type": "bytes"
        }
      ],
      "stateMutability": "view",
      "type": "function"
    },
    {
      "inputs": [],
      "name": "unpause",
      "outputs": [],
      "stateMutability": "nonpayable",
      "type": "function"
    },
    {
      "inputs": [
        {
          "internalType": "bool",
          "name": "enabled_",
          "type": "bool"
        }
      ],
      "name": "updateSendAndCallEnabled",
      "outputs": [],
      "stateMutability": "nonpayable",
      "type": "function"
    },
    {
      "inputs": [
        {
          "internalType": "address",
          "name": "",
          "type": "address"
        }
      ],
      "name": "whitelist",
      "outputs": [
        {
          "internalType": "bool",
          "name": "",
          "type": "bool"
        }
      ],
      "stateMutability": "view",
      "type": "function"
    }
  ],
  "transactionHash": "0xdd99ce8b42faf751f909dc4902ae3abbadc86253734619fecec0843b28737079",
  "args": [
    "0x75A3668f0b0d06E45601C883b0c66f7Dd2364208",
    8,
    "0x83c73Da98cf733B03315aFa8758834b36a195b87",
    "0x279Bd38D27247BFb28064cab434f71816BD4aF4B"
  ],
  "numDeployments": 1,
  "solcInputHash": "26217047c141188ac086240fba7f2835",
  "bytecode": "0x61010060405234801561001157600080fd5b50604051615b2b380380615b2b8339810160408190526100309161035b565b6000805460ff191690558383838382828181808061004d336102ab565b6001600160a01b0316608052505060ff1660a0525061006d905084610304565b61007682610304565b61007f81610304565b6001600160a01b03841660c081905260408051600481526024810182526020810180516001600160e01b031663313ce56760e01b1790529051600092839290916100c991906103af565b600060405180830381855afa9150503d8060008114610104576040519150601f19603f3d011682016040523d82523d6000602084013e610109565b606091505b50915091508161016f5760405162461bcd60e51b815260206004820152602660248201527f50726f78794f46543a206661696c656420746f2067657420746f6b656e20646560448201526563696d616c7360d01b60648201526084015b60405180910390fd5b60008180602001905181019061018591906103de565b90508060ff168660ff1611156101f25760405162461bcd60e51b815260206004820152602c60248201527f50726f78794f46543a20736861726564446563696d616c73206d75737420626560448201526b203c3d20646563696d616c7360a01b6064820152608401610166565b6101fc8682610416565b61020790600a610519565b60e0526040516001600160a01b038816907f0b673f021ff9a27bbe58f282908695869e130b3103029190387b83650806c2c390600090a26040516001600160a01b038516906000907f05cd89403c6bdeac21c2ff33de395121a31fa1bc2bf3adf4825f1f86e79969dd908290a35050600780546001600160a01b0390931661010002610100600160a81b031990931692909217909155506105289650505050505050565b600080546001600160a01b03838116610100818102610100600160a81b0319851617855560405193049190911692909183917f8be0079c531659141344cd1fd0a4f28419497f9722a3daafe3b4186f6b6457e091a35050565b6001600160a01b03811661032b576040516342bcdf7f60e11b815260040160405180910390fd5b50565b80516001600160a01b038116811461034557600080fd5b919050565b805160ff8116811461034557600080fd5b6000806000806080858703121561037157600080fd5b61037a8561032e565b93506103886020860161034a565b92506103966040860161032e565b91506103a46060860161032e565b905092959194509250565b6000825160005b818110156103d057602081860181015185830152016103b6565b506000920191825250919050565b6000602082840312156103f057600080fd5b6103f98261034a565b9392505050565b634e487b7160e01b600052601160045260246000fd5b60ff828116828216039081111561042f5761042f610400565b92915050565b600181815b8085111561047057816000190482111561045657610456610400565b8085161561046357918102915b93841c939080029061043a565b509250929050565b6000826104875750600161042f565b816104945750600061042f565b81600181146104aa57600281146104b4576104d0565b600191505061042f565b60ff8411156104c5576104c5610400565b50506001821b61042f565b5060208310610133831016604e8410600b84101617156104f3575081810a61042f565b6104fd8383610435565b806000190482111561051157610511610400565b029392505050565b60006103f960ff841683610478565b60805160a05160c05160e0516155376105f4600039600081816130ca0152818161363d0152613b78015260008181610ca10152818161106801528181611ba701528181612d6b01528181612df701528181612e3001528181612e790152818161371301528181613be101528181613daa01526141da015260006108be015260008181610abe01528181610cf501528181610f3c01528181610fe40152818161142601528181611ecf015281816123c20152818161259d01528181612a9b01526138a101526155376000f3fe6080604052600436106103b75760003560e01c80637dc0d1d0116101f2578063baf3292d1161010d578063df2a5b3b116100a0578063f2fde38b1161006f578063f2fde38b14610c52578063f5ecbdbc14610c72578063fc0c546a14610c92578063fdff235b14610cc557600080fd5b8063df2a5b3b14610bdd578063e6a20ae614610bfd578063eaffd49a14610c12578063eb8d72b714610c3257600080fd5b8063cc01e9b6116100dc578063cc01e9b614610b50578063cc7015ae14610b70578063d1deba1f14610b9d578063d708a46814610bb057600080fd5b8063baf3292d14610ae0578063c1e9132e14610b00578063c446183414610b1a578063cbed8b9c14610b3057600080fd5b806393a61d6c116101855780639f38369a116101545780639f38369a14610a4c578063a4c51df514610a6c578063a6c3d16514610a8c578063b353aaa714610aac57600080fd5b806393a61d6c1461097d578063950c8a74146109aa5780639b19251a146109ca5780639bdb9812146109fa57600080fd5b80638cfd8f5c116101c15780638cfd8f5c146108e05780638da5cb5b14610918578063904365671461093b5780639358928b1461096857600080fd5b80637dc0d1d01461083a5780638456cb591461087757806384e69c691461088c578063857749b0146108ac57600080fd5b80634c42899a116102e257806364aff9ec11610275578063715018a611610244578063715018a6146107ce5780637533d788146107da57806376203b48146108075780637adbf9731461081a57600080fd5b806364aff9ec1461075b57806366ad5c8a1461077b578063695ef6bf1461079b57806369c1e7b8146107ae57600080fd5b806353489d6c116102b157806353489d6c146106b457806353d6fd59146106d45780635b8c41e6146106f45780635c975abb1461074357600080fd5b80634c42899a146106135780634cec62561461063a5780634ed2c662146106675780634f4ba0f41461068757600080fd5b80632dbbec081161035a5780633f1f4fa4116103295780633f1f4fa41461059c5780633f4ba83a146105c957806342d65a8d146105de57806344770515146105fe57600080fd5b80632dbbec08146104ec578063365260b41461050c5780633c4ec39b146105415780633d8b38f61461057c57600080fd5b80630df37483116103965780630df374831461043357806310ddb13714610453578063182b4b89146104735780632488eec8146104cc57600080fd5b80621d3567146103bc57806301ffc9a7146103de57806307e0db1714610413575b600080fd5b3480156103c857600080fd5b506103dc6103d736600461456a565b610cf2565b005b3480156103ea57600080fd5b506103fe6103f93660046145fd565b610ee4565b60405190151581526020015b60405180910390f35b34801561041f57600080fd5b506103dc61042e366004614627565b610f1b565b34801561043f57600080fd5b506103dc61044e366004614642565b610fa4565b34801561045f57600080fd5b506103dc61046e366004614627565b610fc3565b34801561047f57600080fd5b5061049361048e366004614681565b61101b565b6040805197151588526020880196909652948601939093526060850191909152608084015260a0830152151560c082015260e00161040a565b3480156104d857600080fd5b506103dc6104e7366004614642565b611191565b3480156104f857600080fd5b506103dc610507366004614627565b611275565b34801561051857600080fd5b5061052c6105273660046146cd565b6112d4565b6040805192835260208301919091520161040a565b34801561054d57600080fd5b5061056e61055c366004614627565b600d6020526000908152604090205481565b60405190815260200161040a565b34801561058857600080fd5b506103fe610597366004614734565b611329565b3480156105a857600080fd5b5061056e6105b7366004614627565b60036020526000908152604090205481565b3480156105d557600080fd5b506103dc6113f5565b3480156105ea57600080fd5b506103dc6105f9366004614734565b611407565b34801561060a57600080fd5b5061056e600081565b34801561061f57600080fd5b50610628600081565b60405160ff909116815260200161040a565b34801561064657600080fd5b5061056e610655366004614627565b600a6020526000908152604090205481565b34801561067357600080fd5b506103dc610682366004614786565b61148d565b34801561069357600080fd5b5061056e6106a2366004614627565b60096020526000908152604090205481565b3480156106c057600080fd5b506103dc6106cf366004614642565b6114d2565b3480156106e057600080fd5b506103dc6106ef3660046147a3565b6115b6565b34801561070057600080fd5b5061056e61070f366004614849565b6005602090815260009384526040808520845180860184018051928152908401958401959095209452929052825290205481565b34801561074f57600080fd5b5060005460ff166103fe565b34801561076757600080fd5b506103dc6107763660046148e9565b61162e565b34801561078757600080fd5b506103dc61079636600461456a565b611735565b6103dc6107a9366004614942565b611811565b3480156107ba57600080fd5b506103dc6107c9366004614642565b61187c565b3480156103dc57600080fd5b3480156107e657600080fd5b506107fa6107f5366004614627565b611968565b60405161040a9190614a05565b6103dc610815366004614a18565b611a02565b34801561082657600080fd5b506103dc610835366004614aca565b611a6e565b34801561084657600080fd5b5060075461085f9061010090046001600160a01b031681565b6040516001600160a01b03909116815260200161040a565b34801561088357600080fd5b506103dc611ae6565b34801561089857600080fd5b506103dc6108a7366004614849565b611af6565b3480156108b857600080fd5b506106287f000000000000000000000000000000000000000000000000000000000000000081565b3480156108ec57600080fd5b5061056e6108fb366004614ae7565b600260209081526000928352604080842090915290825290205481565b34801561092457600080fd5b5060005461010090046001600160a01b031661085f565b34801561094757600080fd5b5061056e610956366004614627565b600c6020526000908152604090205481565b34801561097457600080fd5b5061056e611ba3565b34801561098957600080fd5b5061056e610998366004614627565b600b6020526000908152604090205481565b3480156109b657600080fd5b5060045461085f906001600160a01b031681565b3480156109d657600080fd5b506103fe6109e5366004614aca565b60106020526000908152604090205460ff1681565b348015610a0657600080fd5b506103fe610a15366004614849565b6006602090815260009384526040808520845180860184018051928152908401958401959095209452929052825290205460ff1681565b348015610a5857600080fd5b506107fa610a67366004614627565b611c2c565b348015610a7857600080fd5b5061052c610a87366004614b1a565b611d42565b348015610a9857600080fd5b506103dc610aa7366004614734565b611dd1565b348015610ab857600080fd5b5061085f7f000000000000000000000000000000000000000000000000000000000000000081565b348015610aec57600080fd5b506103dc610afb366004614aca565b611e5a565b348015610b0c57600080fd5b506007546103fe9060ff1681565b348015610b2657600080fd5b5061056e61271081565b348015610b3c57600080fd5b506103dc610b4b366004614bd7565b611eb0565b348015610b5c57600080fd5b506103dc610b6b366004614642565b611f45565b348015610b7c57600080fd5b5061056e610b8b366004614627565b60086020526000908152604090205481565b6103dc610bab36600461456a565b612031565b348015610bbc57600080fd5b5061056e610bcb366004614627565b600e6020526000908152604090205481565b348015610be957600080fd5b506103dc610bf8366004614c45565b612135565b348015610c0957600080fd5b50610628600181565b348015610c1e57600080fd5b506103dc610c2d366004614c63565b61219f565b348015610c3e57600080fd5b506103dc610c4d366004614734565b6122be565b348015610c5e57600080fd5b506103dc610c6d366004614aca565b612318565b348015610c7e57600080fd5b506107fa610c8d366004614d2b565b612391565b348015610c9e57600080fd5b507f000000000000000000000000000000000000000000000000000000000000000061085f565b348015610cd157600080fd5b5061056e610ce0366004614627565b600f6020526000908152604090205481565b337f00000000000000000000000000000000000000000000000000000000000000006001600160a01b031614610d6f5760405162461bcd60e51b815260206004820152601e60248201527f4c7a4170703a20696e76616c696420656e64706f696e742063616c6c6572000060448201526064015b60405180910390fd5b61ffff861660009081526001602052604081208054610d8d90614d78565b80601f0160208091040260200160405190810160405280929190818152602001828054610db990614d78565b8015610e065780601f10610ddb57610100808354040283529160200191610e06565b820191906000526020600020905b815481529060010190602001808311610de957829003601f168201915b50505050509050805186869050148015610e21575060008151115b8015610e49575080516020820120604051610e3f9088908890614dac565b6040518091039020145b610e655760405162461bcd60e51b8152600401610d6690614dbc565b610edb8787878080601f01602080910402602001604051908101604052809392919081815260200183838082843760009201919091525050604080516020601f8a018190048102820181019092528881528a93509150889088908190840183828082843760009201919091525061244492505050565b50505050505050565b60006001600160e01b03198216631f7ecdf760e01b1480610f1557506301ffc9a760e01b6001600160e01b03198316145b92915050565b610f236124bd565b6040516307e0db1760e01b815261ffff821660048201527f00000000000000000000000000000000000000000000000000000000000000006001600160a01b0316906307e0db17906024015b600060405180830381600087803b158015610f8957600080fd5b505af1158015610f9d573d6000803e3d6000fd5b5050505050565b610fac6124bd565b61ffff909116600090815260036020526040902055565b610fcb6124bd565b6040516310ddb13760e01b815261ffff821660048201527f00000000000000000000000000000000000000000000000000000000000000006001600160a01b0316906310ddb13790602401610f6f565b6001600160a01b03838116600090815260106020908152604080832054815192830190915260075492938493849384938493849360ff909216928492909182916101009004166341976e097f00000000000000000000000000000000000000000000000000000000000000006040516001600160e01b031960e084901b1681526001600160a01b039091166004820152602401602060405180830381865afa1580156110cb573d6000803e3d6000fd5b505050506040513d601f19601f820116820180604052508101906110ef9190614e02565b905290506110fd818a61251d565b61ffff8b166000908152600b6020908152604080832054600a835281842054600884528285205460099094529190932054919a509098509196509094509250426201518061114b8583614e31565b111561115c57859450809350611169565b6111668686614e44565b94505b828061118057508786111580156111805750868511155b985050509397509397509397909450565b6111996124bd565b61ffff821660009081526008602052604090205481101561120b5760405162461bcd60e51b815260206004820152602660248201527f4461696c79206c696d6974203c2073696e676c65207472616e73616374696f6e604482015265081b1a5b5a5d60d21b6064820152608401610d66565b61ffff82166000818152600960209081526040918290205482519384529083015281018290527f4dd31065e259d5284e44d1f9265710da72eafcf78dc925e3881189fc3b71f6939060600160405180910390a161ffff909116600090815260096020526040902055565b61127d6124bd565b61ffff81166000908152600160205260408120611299916144a6565b60405161ffff821681527f6d5075c81d4d9e75bec6052f4e44f58f8a8cf1327544addbbf015fb06f83bd37906020015b60405180910390a150565b60008061131a8888888888888080601f01602080910402602001604051908101604052809392919081815260200183838082843760009201919091525061253592505050565b91509150965096945050505050565b61ffff83166000908152600160205260408120805482919061134a90614d78565b80601f016020809104026020016040519081016040528092919081815260200182805461137690614d78565b80156113c35780601f10611398576101008083540402835291602001916113c3565b820191906000526020600020905b8154815290600101906020018083116113a657829003601f168201915b5050505050905083836040516113da929190614dac565b60405180910390208180519060200120149150509392505050565b6113fd6124bd565b611405612629565b565b61140f6124bd565b6040516342d65a8d60e01b81526001600160a01b037f000000000000000000000000000000000000000000000000000000000000000016906342d65a8d9061145f90869086908690600401614e80565b600060405180830381600087803b15801561147957600080fd5b505af1158015610edb573d6000803e3d6000fd5b6114956124bd565b6007805460ff19168215159081179091556040517fe628f01c6f4e6340598d3a2913390db68e8859379eebff349e170f2b16baed0090600090a250565b6114da6124bd565b61ffff821660009081526009602052604090205481111561154c5760405162461bcd60e51b815260206004820152602660248201527f53696e676c65207472616e73616374696f6e206c696d6974203e204461696c79604482015265081b1a5b5a5d60d21b6064820152608401610d66565b61ffff82166000818152600860209081526040918290205482519384529083015281018290527f7babeac42ccbb33537ee421fedc4db7b5f251b5d2a3fa5c0ff4b35b2d783be879060600160405180910390a161ffff909116600090815260086020526040902055565b6115be6124bd565b816001600160a01b03167ff6019ec0a78d156d249a1ec7579e2321f6ac7521d6e1d2eacf90ba4a184dcceb826040516115fb911515815260200190565b60405180910390a26001600160a01b03919091166000908152601060205260409020805460ff1916911515919091179055565b6116366124bd565b6040516370a0823160e01b81523060048201526000906001600160a01b038516906370a0823190602401602060405180830381865afa15801561167d573d6000803e3d6000fd5b505050506040513d601f19601f820116820180604052508101906116a19190614e02565b9050808211156116ce5760405163cf47918160e01b81526004810183905260248101829052604401610d66565b826001600160a01b0316846001600160a01b03167f6d25be279134f4ecaa4770aff0c3d916d9e7c5ef37b65ed95dbdba411f5d54d58460405161171391815260200190565b60405180910390a361172f6001600160a01b038516848461267b565b50505050565b3330146117935760405162461bcd60e51b815260206004820152602660248201527f4e6f6e626c6f636b696e674c7a4170703a2063616c6c6572206d7573742062656044820152650204c7a4170760d41b6064820152608401610d66565b6118098686868080601f01602080910402602001604051908101604052809392919081815260200183838082843760009201919091525050604080516020601f8901819004810282018101909252878152899350915087908790819084018382808284376000920191909152506126e392505050565b505050505050565b611809858585856118256020870187614aca565b6118356040880160208901614aca565b6118426040890189614e9e565b8080601f01602080910402602001604051908101604052809392919081815260200183838082843760009201919091525061276a92505050565b6118846124bd565b61ffff82166000908152600c60205260409020548110156118fe5760405162461bcd60e51b815260206004820152602e60248201527f4461696c79206c696d6974203c2073696e676c6520726563656976652074726160448201526d1b9cd858dd1a5bdb881b1a5b5a5d60921b6064820152608401610d66565b61ffff82166000818152600d60209081526040918290205482519384529083015281018290527f95dc51094cd27cf4ee3fd0dbb50cf96f8df1629c822f5434c4a34d7eb03c97249060600160405180910390a161ffff9091166000908152600d6020526040902055565b6001602052600090815260409020805461198190614d78565b80601f01602080910402602001604051908101604052809291908181526020018280546119ad90614d78565b80156119fa5780601f106119cf576101008083540402835291602001916119fa565b820191906000526020600020905b8154815290600101906020018083116119dd57829003601f168201915b505050505081565b60075460ff16611a545760405162461bcd60e51b815260206004820152601760248201527f73656e64416e6443616c6c2069732064697361626c65640000000000000000006044820152606401610d66565b611a648888888888888888612852565b5050505050505050565b611a766124bd565b611a7f816128f6565b6007546040516001600160a01b0380841692610100900416907f05cd89403c6bdeac21c2ff33de395121a31fa1bc2bf3adf4825f1f86e79969dd90600090a3600780546001600160a01b0390921661010002610100600160a81b0319909216919091179055565b611aee6124bd565b61140561291d565b611afe6124bd565b61ffff83166000908152600560205260408082209051611b1f908590614ee4565b9081526040805191829003602090810183206001600160401b038616600090815291522091909155611b52908390614ee4565b6040805191829003822061ffff861683526001600160401b0384166020840152917f48a980eea4ea1c540209e2f9f32a4c2edf51fab37b1d21f453868301ecb6e2ee910160405180910390a2505050565b60007f00000000000000000000000000000000000000000000000000000000000000006001600160a01b03166318160ddd6040518163ffffffff1660e01b8152600401602060405180830381865afa158015611c03573d6000803e3d6000fd5b505050506040513d601f19601f82011682018060405250810190611c279190614e02565b905090565b61ffff8116600090815260016020526040812080546060929190611c4f90614d78565b80601f0160208091040260200160405190810160405280929190818152602001828054611c7b90614d78565b8015611cc85780601f10611c9d57610100808354040283529160200191611cc8565b820191906000526020600020905b815481529060010190602001808311611cab57829003601f168201915b505050505090508051600003611d205760405162461bcd60e51b815260206004820152601d60248201527f4c7a4170703a206e6f20747275737465642070617468207265636f72640000006044820152606401610d66565b611d3b600060148351611d339190614e31565b83919061295a565b9392505050565b600080611dbf8b8b8b8b8b8080601f01602080910402602001604051908101604052809392919081815260200183838082843760009201919091525050604080516020601f8d018190048102820181019092528b81528e93508d9250908c908c9081908401838280828437600092019190915250612a6792505050565b91509150995099975050505050505050565b611dd96124bd565b818130604051602001611dee93929190614f00565b60408051601f1981840301815291815261ffff8516600090815260016020522090611e199082614f6e565b507f8c0400cfe2d1199b1a725c78960bcc2a344d869b80590d0f2bd005db15a572ce838383604051611e4d93929190614e80565b60405180910390a1505050565b611e626124bd565b600480546001600160a01b0319166001600160a01b0383169081179091556040519081527f5db758e995a17ec1ad84bdef7e8c3293a0bd6179bcce400dff5d4c3d87db726b906020016112c9565b611eb86124bd565b6040516332fb62e760e21b81526001600160a01b037f0000000000000000000000000000000000000000000000000000000000000000169063cbed8b9c90611f0c908890889088908890889060040161502d565b600060405180830381600087803b158015611f2657600080fd5b505af1158015611f3a573d6000803e3d6000fd5b505050505050505050565b611f4d6124bd565b61ffff82166000908152600d6020526040902054811115611fc75760405162461bcd60e51b815260206004820152602e60248201527f73696e676c652072656365697665207472616e73616374696f6e206c696d697460448201526d080f8811185a5b1e481b1a5b5a5d60921b6064820152608401610d66565b61ffff82166000818152600c60209081526040918290205482519384529083015281018290527f2c42997a938a029910a78e7c28d762b349c28e70f3a89c1fbccbb1a46020b1599060600160405180910390a161ffff9091166000908152600c6020526040902055565b61ffff86166000908152600160205260408120805461204f90614d78565b80601f016020809104026020016040519081016040528092919081815260200182805461207b90614d78565b80156120c85780601f1061209d576101008083540402835291602001916120c8565b820191906000526020600020905b8154815290600101906020018083116120ab57829003601f168201915b505050505090508051868690501480156120e3575060008151115b801561210b5750805160208201206040516121019088908890614dac565b6040518091039020145b6121275760405162461bcd60e51b8152600401610d6690614dbc565b610edb878787878787612b29565b61213d6124bd565b61ffff83811660008181526002602090815260408083209487168084529482529182902085905581519283528201929092529081018290527f9d5c7c0b934da8fefa9c7760c98383778a12dfbfc0c3b3106518f43fb9508ac090606001611e4d565b3330146121ee5760405162461bcd60e51b815260206004820152601f60248201527f4f4654436f72653a2063616c6c6572206d757374206265204f4654436f7265006044820152606401610d66565b6121f9308686612d3f565b9350846001600160a01b03168a61ffff167fbf551ec93859b170f9b2141bd9298bf3f64322c6f7beb2543a0cb669834118bf8660405161223b91815260200190565b60405180910390a3604051633fe79aed60e11b81526001600160a01b03861690637fcf35da90839061227f908e908e908e908e908e908d908d908d9060040161505b565b600060405180830381600088803b15801561229957600080fd5b5087f11580156122ad573d6000803e3d6000fd5b505050505050505050505050505050565b6122c66124bd565b61ffff831660009081526001602052604090206122e48284836150b6565b507ffa41487ad5d6728f0b19276fa1eddc16558578f5109fc39d2dc33c3230470dab838383604051611e4d93929190614e80565b6123206124bd565b6001600160a01b0381166123855760405162461bcd60e51b815260206004820152602660248201527f4f776e61626c653a206e6577206f776e657220697320746865207a65726f206160448201526564647265737360d01b6064820152608401610d66565b61238e81612ef9565b50565b604051633d7b2f6f60e21b815261ffff808616600483015284166024820152306044820152606481018290526060907f00000000000000000000000000000000000000000000000000000000000000006001600160a01b03169063f5ecbdbc90608401600060405180830381865afa158015612411573d6000803e3d6000fd5b505050506040513d6000823e601f3d908101601f191682016040526124399190810190615175565b90505b949350505050565b6000806124a75a60966366ad5c8a60e01b8989898960405160240161246c94939291906151e2565b60408051601f198184030181529190526020810180516001600160e01b03166001600160e01b03199093169290921790915230929190612f52565b9150915081611809576118098686868685612fdc565b6000546001600160a01b036101009091041633146114055760405162461bcd60e51b815260206004820181905260248201527f4f776e61626c653a2063616c6c6572206973206e6f7420746865206f776e65726044820152606401610d66565b60008061252a8484613079565b905061243c816130aa565b600080600061258387612547886130c2565b6040805160006020820152602181019390935260c09190911b6001600160c01b0319166041830152805160298184030181526049909201905290565b60405163040a7bb160e41b81529091506001600160a01b037f000000000000000000000000000000000000000000000000000000000000000016906340a7bb10906125da908b90309086908b908b90600401615220565b6040805180830381865afa1580156125f6573d6000803e3d6000fd5b505050506040513d601f19601f8201168201806040525081019061261a9190615274565b92509250509550959350505050565b612631613148565b6000805460ff191690557f5db9ee0a495bf2e6ff9c91a7834c1ba4fdd244a5e8aa4e537bd38aeae4b073aa335b6040516001600160a01b03909116815260200160405180910390a1565b6040516001600160a01b0383166024820152604481018290526126de90849063a9059cbb60e01b906064015b60408051601f198184030181529190526020810180516001600160e01b03166001600160e01b031990931692909217909152613191565b505050565b60006126ef8282613266565b905060ff811661270a57612705858585856132c2565b610f9d565b60001960ff8216016127225761270585858585613352565b60405162461bcd60e51b815260206004820152601c60248201527f4f4654436f72653a20756e6b6e6f776e207061636b65742074797065000000006044820152606401610d66565b600061277887828481613560565b61278185613635565b50905061279088888884613675565b9050600081116127de5760405162461bcd60e51b815260206004820152601960248201527813d19510dbdc994e88185b5bdd5b9d081d1bdbc81cdb585b1b603a1b6044820152606401610d66565b60006127ed87612547846130c2565b90506127fd888287878734613778565b86896001600160a01b03168961ffff167fd81fc9b8523134ed613870ed029d6170cbb73aa6a6bc311b9a642689fb9df59a8560405161283e91815260200190565b60405180910390a450979650505050505050565b611f3a8888888888888080601f0160208091040260200160405190810160405280939291908181526020018383808284376000920191909152508a925061289f9150506020890189614aca565b6128af60408a0160208b01614aca565b6128bc60408b018b614e9e565b8080601f01602080910402602001604051908101604052809392919081815260200183838082843760009201919091525061391d92505050565b6001600160a01b03811661238e576040516342bcdf7f60e11b815260040160405180910390fd5b612925613a12565b6000805460ff191660011790557f62e78cea01bee320cd4e420270b5ea74000d11b0c9f74754ebdbfc544b05a25861265e3390565b60608161296881601f614e44565b10156129a75760405162461bcd60e51b815260206004820152600e60248201526d736c6963655f6f766572666c6f7760901b6044820152606401610d66565b6129b18284614e44565b845110156129f55760405162461bcd60e51b8152602060048201526011602482015270736c6963655f6f75744f66426f756e647360781b6044820152606401610d66565b606082158015612a145760405191506000825260208201604052612a5e565b6040519150601f8416801560200281840101858101878315602002848b0101015b81831015612a4d578051835260209283019201612a35565b5050858452601f01601f1916604052505b50949350505050565b6000806000612a81338a612a7a8b6130c2565b8a8a613a58565b60405163040a7bb160e41b81529091506001600160a01b037f000000000000000000000000000000000000000000000000000000000000000016906340a7bb1090612ad8908d90309086908b908b90600401615220565b6040805180830381865afa158015612af4573d6000803e3d6000fd5b505050506040513d601f19601f82011682018060405250810190612b189190615274565b925092505097509795505050505050565b61ffff86166000908152600560205260408082209051612b4c9088908890614dac565b90815260408051602092819003830190206001600160401b03871660009081529252902054905080612bcc5760405162461bcd60e51b815260206004820152602360248201527f4e6f6e626c6f636b696e674c7a4170703a206e6f2073746f726564206d65737360448201526261676560e81b6064820152608401610d66565b808383604051612bdd929190614dac565b604051809103902014612c3c5760405162461bcd60e51b815260206004820152602160248201527f4e6f6e626c6f636b696e674c7a4170703a20696e76616c6964207061796c6f616044820152601960fa1b6064820152608401610d66565b61ffff87166000908152600560205260408082209051612c5f9089908990614dac565b90815260408051602092819003830181206001600160401b038916600090815290845282902093909355601f88018290048202830182019052868252612cf7918991899089908190840183828082843760009201919091525050604080516020601f8a018190048102820181019092528881528a9350915088908890819084018382808284376000920191909152506126e392505050565b7fc264d91f3adc5588250e1551f547752ca0cfa8f6b530d243b9f9f4cab10ea8e58787878785604051612d2e959493929190615298565b60405180910390a150505050505050565b6000612d49613a12565b6040516370a0823160e01b81526001600160a01b0384811660048301526000917f0000000000000000000000000000000000000000000000000000000000000000909116906370a0823190602401602060405180830381865afa158015612db4573d6000803e3d6000fd5b505050506040513d601f19601f82011682018060405250810190612dd89190614e02565b9050306001600160a01b03861603612e2357612e1e6001600160a01b037f000000000000000000000000000000000000000000000000000000000000000016858561267b565b612e58565b612e586001600160a01b037f000000000000000000000000000000000000000000000000000000000000000016868686613a99565b6040516370a0823160e01b81526001600160a01b03858116600483015282917f0000000000000000000000000000000000000000000000000000000000000000909116906370a0823190602401602060405180830381865afa158015612ec2573d6000803e3d6000fd5b505050506040513d601f19601f82011682018060405250810190612ee69190614e02565b612ef09190614e31565b95945050505050565b600080546001600160a01b03838116610100818102610100600160a81b0319851617855560405193049190911692909183917f8be0079c531659141344cd1fd0a4f28419497f9722a3daafe3b4186f6b6457e091a35050565b6000606060008060008661ffff166001600160401b03811115612f7757612f776147dc565b6040519080825280601f01601f191660200182016040528015612fa1576020820181803683370190505b50905060008087516020890160008d8df191503d925086831115612fc3578692505b828152826000602083013e909890975095505050505050565b8180519060200120600560008761ffff1661ffff1681526020019081526020016000208560405161300d9190614ee4565b9081526040805191829003602090810183206001600160401b0388166000908152915220919091557fe183f33de2837795525b4792ca4cd60535bd77c53b7e7030060bfcf5734d6b0c9061306a90879087908790879087906152d3565b60405180910390a15050505050565b60408051602081019091526000815260405180602001604052806130a1856000015185613ad1565b90529392505050565b8051600090610f1590670de0b6b3a76400009061533b565b6000806130ef7f00000000000000000000000000000000000000000000000000000000000000008461533b565b90506001600160401b03811115610f155760405162461bcd60e51b815260206004820152601a60248201527f4f4654436f72653a20616d6f756e745344206f766572666c6f770000000000006044820152606401610d66565b60005460ff166114055760405162461bcd60e51b815260206004820152601460248201527314185d5cd8589b194e881b9bdd081c185d5cd95960621b6044820152606401610d66565b60006131e6826040518060400160405280602081526020017f5361666545524332303a206c6f772d6c6576656c2063616c6c206661696c6564815250856001600160a01b0316613add9092919063ffffffff16565b9050805160001480613207575080806020019051810190613207919061534f565b6126de5760405162461bcd60e51b815260206004820152602a60248201527f5361666545524332303a204552433230206f7065726174696f6e20646964206e6044820152691bdd081cdd58d8d9595960b21b6064820152608401610d66565b6000613273826001614e44565b835110156132b95760405162461bcd60e51b8152602060048201526013602482015272746f55696e74385f6f75744f66426f756e647360681b6044820152606401610d66565b50016001015190565b6000806132ce83613aec565b90925090506001600160a01b0382166132e75761dead91505b60006132f282613b71565b90506132ff878483613ba6565b9050826001600160a01b03168761ffff167fbf551ec93859b170f9b2141bd9298bf3f64322c6f7beb2543a0cb669834118bf8360405161334191815260200190565b60405180910390a350505050505050565b600080600080600061336386613c45565b945094509450945094506000600660008b61ffff1661ffff168152602001908152602001600020896040516133989190614ee4565b90815260408051602092819003830190206001600160401b038b166000908152925281205460ff1691506133cb85613b71565b905081613439576133dd8b3083613ba6565b61ffff8c16600090815260066020526040908190209051919250600191613405908d90614ee4565b90815260408051602092819003830190206001600160401b038d16600090815292529020805460ff19169115159190911790555b6001600160a01b0386163b613490576040516001600160a01b03871681527f9aedf5fdba8716db3b6705ca00150643309995d4f818a249ed6dde6677e7792d9060200160405180910390a15050505050505061172f565b8a8a8a8a8a8a868a60008a6134ae578b6001600160401b03166134b0565b5a5b90506000806134e25a609663eaffd49a60e01b8e8e8e8d8d8d8d8d60405160240161246c98979695949392919061536c565b91509150811561353b578751602089012060405161ffff8d16907fb8890edbfc1c74692f527444645f95489c3703cc2df42e4a366f5d06fa6cd8849061352d908e908e9086906153e0565b60405180910390a250613548565b6135488b8b8b8b85612fdc565b50505050505050505050505050505050505050505050565b600061356b83613cfc565b61ffff808716600090815260026020908152604080832093891683529290522054909150806135dc5760405162461bcd60e51b815260206004820152601a60248201527f4c7a4170703a206d696e4761734c696d6974206e6f74207365740000000000006044820152606401610d66565b6135e68382614e44565b8210156118095760405162461bcd60e51b815260206004820152601b60248201527f4c7a4170703a20676173206c696d697420697320746f6f206c6f7700000000006044820152606401610d66565b6000806136627f00000000000000000000000000000000000000000000000000000000000000008461540e565b905061366e8184614e31565b9150915091565b600061367f613a12565b6001600160a01b03851633146136e25760405162461bcd60e51b815260206004820152602260248201527f50726f78794f46543a206f776e6572206973206e6f742073656e642063616c6c60448201526132b960f11b6064820152608401610d66565b6136ed858584613d58565b604051632770a7eb60e21b81526001600160a01b038681166004830152602482018490527f00000000000000000000000000000000000000000000000000000000000000001690639dc29fac90604401600060405180830381600087803b15801561375757600080fd5b505af115801561376b573d6000803e3d6000fd5b5093979650505050505050565b61ffff86166000908152600160205260408120805461379690614d78565b80601f01602080910402602001604051908101604052809291908181526020018280546137c290614d78565b801561380f5780601f106137e45761010080835404028352916020019161380f565b820191906000526020600020905b8154815290600101906020018083116137f257829003601f168201915b5050505050905080516000036138805760405162461bcd60e51b815260206004820152603060248201527f4c7a4170703a2064657374696e6174696f6e20636861696e206973206e6f742060448201526f61207472757374656420736f7572636560801b6064820152608401610d66565b61388b878751613f7a565b60405162c5803160e81b81526001600160a01b037f0000000000000000000000000000000000000000000000000000000000000000169063c58031009084906138e2908b9086908c908c908c908c90600401615422565b6000604051808303818588803b1580156138fb57600080fd5b505af115801561390f573d6000803e3d6000fd5b505050505050505050505050565b6000613935896001846001600160401b038916613560565b61393e87613635565b50905061394d8a8a8a84613675565b90506000811161399b5760405162461bcd60e51b815260206004820152601960248201527813d19510dbdc994e88185b5bdd5b9d081d1bdbc81cdb585b1b603a1b6044820152606401610d66565b60006139ab338a612a7a856130c2565b90506139bb8a8287878734613778565b888b6001600160a01b03168b61ffff167fd81fc9b8523134ed613870ed029d6170cbb73aa6a6bc311b9a642689fb9df59a856040516139fc91815260200190565b60405180910390a4509998505050505050505050565b60005460ff16156114055760405162461bcd60e51b815260206004820152601060248201526f14185d5cd8589b194e881c185d5cd95960821b6044820152606401610d66565b6060600185856001600160a01b0389168587604051602001613a7f96959493929190615489565b604051602081830303815290604052905095945050505050565b6040516001600160a01b038085166024830152831660448201526064810182905261172f9085906323b872dd60e01b906084016126a7565b6000611d3b82846154ea565b606061243c8484600085613feb565b60008080613afa8482613266565b60ff16148015613b0b575082516029145b613b525760405162461bcd60e51b815260206004820152601860248201527713d19510dbdc994e881a5b9d985b1a59081c185e5b1bd85960421b6044820152606401610d66565b613b5d83600d6140c6565b9150613b6a83602161412b565b9050915091565b6000610f157f00000000000000000000000000000000000000000000000000000000000000006001600160401b0384166154ea565b6000613bb0613a12565b613bbb838584614188565b6040516340c10f1960e01b81526001600160a01b038481166004830152602482018490527f000000000000000000000000000000000000000000000000000000000000000016906340c10f1990604401600060405180830381600087803b158015613c2557600080fd5b505af1158015613c39573d6000803e3d6000fd5b50939695505050505050565b600080806060816001613c588783613266565b60ff1614613ca35760405162461bcd60e51b815260206004820152601860248201527713d19510dbdc994e881a5b9d985b1a59081c185e5b1bd85960421b6044820152606401610d66565b613cae86600d6140c6565b9350613cbb86602161412b565b9250613cc88660296143aa565b9450613cd586604961412b565b9050613cf16051808851613ce99190614e31565b88919061295a565b915091939590929450565b6000602282511015613d505760405162461bcd60e51b815260206004820152601c60248201527f4c7a4170703a20696e76616c69642061646170746572506172616d73000000006044820152606401610d66565b506022015190565b6001600160a01b03831660009081526010602052604090205460ff168015613d805750505050565b60408051602081019091526007546000918291819061010090046001600160a01b03166341976e097f00000000000000000000000000000000000000000000000000000000000000006040516001600160e01b031960e084901b1681526001600160a01b039091166004820152602401602060405180830381865afa158015613e0d573d6000803e3d6000fd5b505050506040513d601f19601f82011682018060405250810190613e319190614e02565b90529050613e3f818561251d565b61ffff86166000908152600b6020908152604080832054600a835281842054600884528285205460099094529190932054939550429390919081871115613ec85760405162461bcd60e51b815260206004820152601f60248201527f53696e676c65205472616e73616374696f6e204c696d697420457863656564006044820152606401610d66565b62015180613ed68587614e31565b1115613efa5761ffff8a166000908152600b60205260409020859055869250613f07565b613f048784614e44565b92505b80831115613f575760405162461bcd60e51b815260206004820152601e60248201527f4461696c79205472616e73616374696f6e204c696d69742045786365656400006044820152606401610d66565b505061ffff9097166000908152600a602052604090209690965550505050505050565b61ffff821660009081526003602052604081205490819003613f9b57506127105b808211156126de5760405162461bcd60e51b815260206004820181905260248201527f4c7a4170703a207061796c6f61642073697a6520697320746f6f206c617267656044820152606401610d66565b60608247101561404c5760405162461bcd60e51b815260206004820152602660248201527f416464726573733a20696e73756666696369656e742062616c616e636520666f6044820152651c8818d85b1b60d21b6064820152608401610d66565b600080866001600160a01b031685876040516140689190614ee4565b60006040518083038185875af1925050503d80600081146140a5576040519150601f19603f3d011682016040523d82523d6000602084013e6140aa565b606091505b50915091506140bb87838387614408565b979650505050505050565b60006140d3826014614e44565b8351101561411b5760405162461bcd60e51b8152602060048201526015602482015274746f416464726573735f6f75744f66426f756e647360581b6044820152606401610d66565b500160200151600160601b900490565b6000614138826008614e44565b8351101561417f5760405162461bcd60e51b8152602060048201526014602482015273746f55696e7436345f6f75744f66426f756e647360601b6044820152606401610d66565b50016008015190565b6001600160a01b03831660009081526010602052604090205460ff1680156141b05750505050565b60408051602081019091526007546000918291819061010090046001600160a01b03166341976e097f00000000000000000000000000000000000000000000000000000000000000006040516001600160e01b031960e084901b1681526001600160a01b039091166004820152602401602060405180830381865afa15801561423d573d6000803e3d6000fd5b505050506040513d601f19601f820116820180604052508101906142619190614e02565b9052905061426f818561251d565b61ffff86166000908152600f6020908152604080832054600e835281842054600c845282852054600d90945291909320549395504293909190818711156142f85760405162461bcd60e51b815260206004820152601f60248201527f53696e676c65205472616e73616374696f6e204c696d697420457863656564006044820152606401610d66565b620151806143068587614e31565b111561432a5761ffff8a166000908152600f60205260409020859055869250614337565b6143348784614e44565b92505b808311156143875760405162461bcd60e51b815260206004820152601e60248201527f4461696c79205472616e73616374696f6e204c696d69742045786365656400006044820152606401610d66565b505061ffff9097166000908152600e602052604090209690965550505050505050565b60006143b7826020614e44565b835110156143ff5760405162461bcd60e51b8152602060048201526015602482015274746f427974657333325f6f75744f66426f756e647360581b6044820152606401610d66565b50016020015190565b60608315614477578251600003614470576001600160a01b0385163b6144705760405162461bcd60e51b815260206004820152601d60248201527f416464726573733a2063616c6c20746f206e6f6e2d636f6e74726163740000006044820152606401610d66565b508161243c565b61243c838381511561448c5781518083602001fd5b8060405162461bcd60e51b8152600401610d669190614a05565b5080546144b290614d78565b6000825580601f106144c2575050565b601f01602090049060005260206000209081019061238e91905b808211156144f057600081556001016144dc565b5090565b803561ffff8116811461450657600080fd5b919050565b60008083601f84011261451d57600080fd5b5081356001600160401b0381111561453457600080fd5b60208301915083602082850101111561454c57600080fd5b9250929050565b80356001600160401b038116811461450657600080fd5b6000806000806000806080878903121561458357600080fd5b61458c876144f4565b955060208701356001600160401b03808211156145a857600080fd5b6145b48a838b0161450b565b90975095508591506145c860408a01614553565b945060608901359150808211156145de57600080fd5b506145eb89828a0161450b565b979a9699509497509295939492505050565b60006020828403121561460f57600080fd5b81356001600160e01b031981168114611d3b57600080fd5b60006020828403121561463957600080fd5b611d3b826144f4565b6000806040838503121561465557600080fd5b61465e836144f4565b946020939093013593505050565b6001600160a01b038116811461238e57600080fd5b60008060006060848603121561469657600080fd5b83356146a18161466c565b92506146af602085016144f4565b9150604084013590509250925092565b801515811461238e57600080fd5b60008060008060008060a087890312156146e657600080fd5b6146ef876144f4565b95506020870135945060408701359350606087013561470d816146bf565b925060808701356001600160401b0381111561472857600080fd5b6145eb89828a0161450b565b60008060006040848603121561474957600080fd5b614752846144f4565b925060208401356001600160401b0381111561476d57600080fd5b6147798682870161450b565b9497909650939450505050565b60006020828403121561479857600080fd5b8135611d3b816146bf565b600080604083850312156147b657600080fd5b82356147c18161466c565b915060208301356147d1816146bf565b809150509250929050565b634e487b7160e01b600052604160045260246000fd5b604051601f8201601f191681016001600160401b038111828210171561481a5761481a6147dc565b604052919050565b60006001600160401b0382111561483b5761483b6147dc565b50601f01601f191660200190565b60008060006060848603121561485e57600080fd5b614867846144f4565b925060208401356001600160401b0381111561488257600080fd5b8401601f8101861361489357600080fd5b80356148a66148a182614822565b6147f2565b8181528760208385010111156148bb57600080fd5b816020840160208301376000602083830101528094505050506148e060408501614553565b90509250925092565b6000806000606084860312156148fe57600080fd5b83356149098161466c565b925060208401356149198161466c565b929592945050506040919091013590565b60006060828403121561493c57600080fd5b50919050565b600080600080600060a0868803121561495a57600080fd5b85356149658161466c565b9450614973602087016144f4565b9350604086013592506060860135915060808601356001600160401b0381111561499c57600080fd5b6149a88882890161492a565b9150509295509295909350565b60005b838110156149d05781810151838201526020016149b8565b50506000910152565b600081518084526149f18160208601602086016149b5565b601f01601f19169290920160200192915050565b602081526000611d3b60208301846149d9565b60008060008060008060008060e0898b031215614a3457600080fd5b8835614a3f8161466c565b9750614a4d60208a016144f4565b9650604089013595506060890135945060808901356001600160401b0380821115614a7757600080fd5b614a838c838d0161450b565b9096509450849150614a9760a08c01614553565b935060c08b0135915080821115614aad57600080fd5b50614aba8b828c0161492a565b9150509295985092959890939650565b600060208284031215614adc57600080fd5b8135611d3b8161466c565b60008060408385031215614afa57600080fd5b614b03836144f4565b9150614b11602084016144f4565b90509250929050565b600080600080600080600080600060e08a8c031215614b3857600080fd5b614b418a6144f4565b985060208a0135975060408a0135965060608a01356001600160401b0380821115614b6b57600080fd5b614b778d838e0161450b565b9098509650869150614b8b60808d01614553565b955060a08c01359150614b9d826146bf565b90935060c08b01359080821115614bb357600080fd5b50614bc08c828d0161450b565b915080935050809150509295985092959850929598565b600080600080600060808688031215614bef57600080fd5b614bf8866144f4565b9450614c06602087016144f4565b93506040860135925060608601356001600160401b03811115614c2857600080fd5b614c348882890161450b565b969995985093965092949392505050565b600080600060608486031215614c5a57600080fd5b6146a1846144f4565b6000806000806000806000806000806101008b8d031215614c8357600080fd5b614c8c8b6144f4565b995060208b01356001600160401b0380821115614ca857600080fd5b614cb48e838f0161450b565b909b509950899150614cc860408e01614553565b985060608d0135975060808d01359150614ce18261466c565b90955060a08c0135945060c08c01359080821115614cfe57600080fd5b50614d0b8d828e0161450b565b9150809450508092505060e08b013590509295989b9194979a5092959850565b60008060008060808587031215614d4157600080fd5b614d4a856144f4565b9350614d58602086016144f4565b92506040850135614d688161466c565b9396929550929360600135925050565b600181811c90821680614d8c57607f821691505b60208210810361493c57634e487b7160e01b600052602260045260246000fd5b8183823760009101908152919050565b60208082526026908201527f4c7a4170703a20696e76616c696420736f757263652073656e64696e6720636f6040820152651b9d1c9858dd60d21b606082015260800190565b600060208284031215614e1457600080fd5b5051919050565b634e487b7160e01b600052601160045260246000fd5b81810381811115610f1557610f15614e1b565b80820180821115610f1557610f15614e1b565b81835281816020850137506000828201602090810191909152601f909101601f19169091010190565b61ffff84168152604060208201526000612439604083018486614e57565b6000808335601e19843603018112614eb557600080fd5b8301803591506001600160401b03821115614ecf57600080fd5b60200191503681900382131561454c57600080fd5b60008251614ef68184602087016149b5565b9190910192915050565b8284823760609190911b6bffffffffffffffffffffffff19169101908152601401919050565b601f8211156126de576000816000526020600020601f850160051c81016020861015614f4f5750805b601f850160051c820191505b8181101561180957828155600101614f5b565b81516001600160401b03811115614f8757614f876147dc565b614f9b81614f958454614d78565b84614f26565b602080601f831160018114614fd05760008415614fb85750858301515b600019600386901b1c1916600185901b178555611809565b600085815260208120601f198616915b82811015614fff57888601518255948401946001909101908401614fe0565b508582101561501d5787850151600019600388901b60f8161c191681555b5050505050600190811b01905550565b600061ffff8088168352808716602084015250846040830152608060608301526140bb608083018486614e57565b61ffff8916815260c06020820152600061507960c08301898b614e57565b6001600160401b038816604084015286606084015285608084015282810360a08401526150a7818587614e57565b9b9a5050505050505050505050565b6001600160401b038311156150cd576150cd6147dc565b6150e1836150db8354614d78565b83614f26565b6000601f84116001811461511557600085156150fd5750838201355b600019600387901b1c1916600186901b178355610f9d565b600083815260209020601f19861690835b828110156151465786850135825560209485019460019092019101615126565b50868210156151635760001960f88860031b161c19848701351681555b505060018560011b0183555050505050565b60006020828403121561518757600080fd5b81516001600160401b0381111561519d57600080fd5b8201601f810184136151ae57600080fd5b80516151bc6148a182614822565b8181528560208385010111156151d157600080fd5b612ef08260208301602086016149b5565b61ffff851681526080602082015260006151ff60808301866149d9565b6001600160401b038516604084015282810360608401526140bb81856149d9565b61ffff861681526001600160a01b038516602082015260a06040820181905260009061524e908301866149d9565b8415156060840152828103608084015261526881856149d9565b98975050505050505050565b6000806040838503121561528757600080fd5b505080516020909101519092909150565b61ffff861681526080602082015260006152b6608083018688614e57565b6001600160401b0394909416604083015250606001529392505050565b61ffff8616815260a0602082015260006152f060a08301876149d9565b6001600160401b0386166040840152828103606084015261531181866149d9565b9050828103608084015261526881856149d9565b634e487b7160e01b600052601260045260246000fd5b60008261534a5761534a615325565b500490565b60006020828403121561536157600080fd5b8151611d3b816146bf565b600061010061ffff8b16835280602084015261538a8184018b6149d9565b6001600160401b038a166040850152606084018990526001600160a01b038816608085015260a0840187905283810360c085015290506153ca81866149d9565b9150508260e08301529998505050505050505050565b6060815260006153f360608301866149d9565b6001600160401b039490941660208301525060400152919050565b60008261541d5761541d615325565b500690565b61ffff8716815260c06020820152600061543f60c08301886149d9565b828103604084015261545181886149d9565b6001600160a01b0387811660608601528616608085015283810360a0850152905061547c81856149d9565b9998505050505050505050565b60ff60f81b8760f81b16815285600182015260006001600160401b0360c01b808760c01b166021840152856029840152808560c01b1660498401525082516154d88160518501602087016149b5565b91909101605101979650505050505050565b8082028115828204841417610f1557610f15614e1b56fea264697066735822122078a20abcb22d7cb1fa2db0ea891c1e652ab0382a5180ce86b54f25c83dc77a1264736f6c63430008190033",
  "devdoc": {
    "author": "Venus",
    "events": {
      "Paused(address)": {
        "details": "Emitted when the pause is triggered by `account`."
      },
      "ReceiveFromChain(uint16,address,uint256)": {
        "details": "Emitted when `_amount` tokens are received from `_srcChainId` into the `_toAddress` on the local chain. `_nonce` is the inbound nonce."
      },
      "SendToChain(uint16,address,bytes32,uint256)": {
        "details": "Emitted when `_amount` tokens are moved from the `_sender` to (`_dstChainId`, `_toAddress`) `_nonce` is the outbound nonce"
      },
      "Unpaused(address)": {
        "details": "Emitted when the pause is lifted by `account`."
      }
    },
    "kind": "dev",
    "methods": {
      "circulatingSupply()": {
        "returns": {
          "_0": "total circulating supply of the token on the destination chain."
        }
      },
      "dropFailedMessage(uint16,bytes,uint64)": {
        "custom:access": "Only owner",
        "custom:event": "Emits DropFailedMessage on clearance of failed message.",
        "params": {
          "nonce_": "Nonce_ of the transaction",
          "srcAddress_": "Address of source followed by current bridge address",
          "srcChainId_": "Chain id of source"
        }
      },
      "estimateSendFee(uint16,bytes32,uint256,bool,bytes)": {
        "details": "estimate send token `_tokenId` to (`_dstChainId`, `_toAddress`) _dstChainId - L0 defined chain id to send tokens too _toAddress - dynamic bytes array which contains the address to whom you are sending tokens to on the dstChain _amount - amount of the tokens to transfer _useZro - indicates to use zro to pay L0 fees _adapterParam - flexible bytes array to indicate messaging adapter services in L0"
      },
      "isEligibleToSend(address,uint16,uint256)": {
        "details": "This external view function assesses whether the specified sender is eligible to transfer the given amount      to the specified destination chain. It considers factors such as whitelisting, transaction limits, and a 24-hour window.",
        "params": {
          "amount_": "The quantity of tokens to be transferred.",
          "dstChainId_": "Indicates destination chain.",
          "from_": "The sender's address initiating the transfer."
        },
        "returns": {
          "amountInUsd": "The equivalent amount in USD based on the oracle price.",
          "eligibleToSend": "A boolean indicating whether the sender is eligible to transfer the tokens.",
          "isWhiteListedUser": "A boolean indicating whether the sender is whitelisted.",
          "last24HourWindowStart": "The timestamp when the current 24-hour window started.",
          "maxDailyLimit": "The maximum daily limit for transactions.",
          "maxSingleTransactionLimit": "The maximum limit for a single transaction.",
          "transferredInWindow": "The total amount transferred in the current 24-hour window."
        }
      },
      "owner()": {
        "details": "Returns the address of the current owner."
      },
      "pause()": {
        "custom:access": "Only owner."
      },
      "paused()": {
        "details": "Returns true if the contract is paused, and false otherwise."
      },
      "removeTrustedRemote(uint16)": {
        "custom:access": "Only owner.",
        "custom:event": "Emits TrustedRemoteRemoved once chain id is removed from trusted remote.",
        "params": {
          "remoteChainId_": "The chain's id corresponds to setting the trusted remote to empty."
        }
      },
      "sendAndCall(address,uint16,bytes32,uint256,bytes,uint64,(address,address,bytes))": {
        "details": "This internal override function enables the contract to send tokens and invoke calls on the specified      destination chain. It checks whether the sendAndCall feature is enabled before proceeding with the transfer.",
        "params": {
          "amount_": "Amount of tokens that will be transferred.",
          "callparams_": "Additional parameters, including refund address, ZRO payment address,                   and adapter params.",
          "dstChainId_": "Destination chain id on which tokens will be send.",
          "dstGasForCall_": "The amount of gas allocated for the call on the destination chain.",
          "from_": "Address from which tokens will be debited.",
          "payload_": "Additional data payload for the call on the destination chain.",
          "toAddress_": "Address on which tokens will be credited on destination chain."
        }
      },
      "sendFrom(address,uint16,bytes32,uint256,(address,address,bytes))": {
        "details": "send `_amount` amount of token to (`_dstChainId`, `_toAddress`) from `_from` `_from` the owner of token `_dstChainId` the destination chain identifier `_toAddress` can be any size depending on the `dstChainId`. `_amount` the quantity of tokens in wei `_refundAddress` the address LayerZero refunds if too much message fee is sent `_zroPaymentAddress` set to address(0x0) if not paying in ZRO (LayerZero Token) `_adapterParams` is a flexible bytes array to indicate messaging adapter services"
      },
      "setMaxDailyLimit(uint16,uint256)": {
        "custom:access": "Only owner.",
        "custom:event": "Emits setMaxDailyLimit with old and new limit associated with chain id.",
        "params": {
          "chainId_": "Destination chain id.",
          "limit_": "Amount in USD(scaled with 18 decimals)."
        }
      },
      "setMaxDailyReceiveLimit(uint16,uint256)": {
        "custom:access": "Only owner.",
        "custom:event": "Emits setMaxDailyReceiveLimit with old and new limit associated with chain id.",
        "params": {
          "chainId_": "The destination chain ID.",
          "limit_": "The new maximum daily limit in USD(scaled with 18 decimals)."
        }
      },
      "setMaxSingleReceiveTransactionLimit(uint16,uint256)": {
        "custom:access": "Only owner.",
        "custom:event": "Emits setMaxSingleReceiveTransactionLimit with old and new limit associated with chain id.",
        "params": {
          "chainId_": "The destination chain ID.",
          "limit_": "The new maximum limit in USD(scaled with 18 decimals)."
        }
      },
      "setMaxSingleTransactionLimit(uint16,uint256)": {
        "custom:access": "Only owner.",
        "custom:event": "Emits SetMaxSingleTransactionLimit with old and new limit associated with chain id.",
        "params": {
          "chainId_": "Destination chain id.",
          "limit_": "Amount in USD(scaled with 18 decimals)."
        }
      },
      "setOracle(address)": {
        "custom:access": "Only owner.",
        "custom:event": "Emits OracleChanged with old and new oracle address.",
        "details": "Reverts if the new address is zero.",
        "params": {
          "oracleAddress_": "The new address of the ResilientOracle contract."
        }
      },
      "setWhitelist(address,bool)": {
        "custom:access": "Only owner.",
        "custom:event": "Emits setWhitelist.",
        "params": {
          "user_": "Address to be add in whitelist.",
          "val_": "Boolean to be set (true for user_ address is whitelisted)."
        }
      },
      "sweepToken(address,address,uint256)": {
        "custom:access": "Only Owner",
        "custom:error": "Throw InsufficientBalance if amount_ is greater than the available balance of the token in the contract",
        "custom:event": "Emits SweepToken event",
        "params": {
          "amount_": "The amount of tokens needs to transfer",
          "to_": "The address of the recipient",
          "token_": "The address of the ERC-20 token to sweep"
        }
      },
      "token()": {
        "returns": {
          "_0": "Address of the inner token of this bridge."
        }
      },
      "transferOwnership(address)": {
        "details": "Transfers ownership of the contract to a new account (`newOwner`). Can only be called by the current owner."
      },
      "unpause()": {
        "custom:access": "Only owner."
      },
      "updateSendAndCallEnabled(bool)": {
        "params": {
          "enabled_": "Boolean indicating whether the sendAndCall function should be enabled or disabled."
        }
      }
    },
    "title": "XVSProxyOFTDest",
    "version": 1
  },
  "userdoc": {
    "errors": {
      "InsufficientBalance(uint256,uint256)": [
        {
          "notice": "Error thrown when this contract balance is less than sweep amount"
        }
      ],
      "ZeroAddressNotAllowed()": [
        {
          "notice": "Thrown if the supplied address is a zero address where it is not allowed"
        }
      ]
    },
    "events": {
      "DropFailedMessage(uint16,bytes,uint64)": {
        "notice": "Emits when stored message dropped without successful retrying."
      },
      "InnerTokenAdded(address)": {
        "notice": "Event emitted when inner token set successfully."
      },
      "OracleChanged(address,address)": {
        "notice": "Event emitted when oracle is modified."
      },
      "SetMaxDailyLimit(uint16,uint256,uint256)": {
        "notice": "Emitted when the maximum daily limit of transactions from local chain is modified."
      },
      "SetMaxDailyReceiveLimit(uint16,uint256,uint256)": {
        "notice": "Emitted when the maximum daily limit for receiving transactions from remote chain is modified."
      },
      "SetMaxSingleReceiveTransactionLimit(uint16,uint256,uint256)": {
        "notice": "Emitted when the maximum limit for a single receive transaction from remote chain is modified."
      },
      "SetMaxSingleTransactionLimit(uint16,uint256,uint256)": {
        "notice": "Emitted when the maximum limit for a single transaction from local chain is modified."
      },
      "SetWhitelist(address,bool)": {
        "notice": "Emitted when address is added to whitelist."
      },
      "SweepToken(address,address,uint256)": {
        "notice": "Emitted on sweep token success"
      },
      "TrustedRemoteRemoved(uint16)": {
        "notice": "Event emitted when trusted remote sets to empty."
      },
      "UpdateSendAndCallEnabled(bool)": {
        "notice": "Event emitted when SendAndCallEnabled updated successfully."
      }
    },
    "kind": "user",
    "methods": {
      "chainIdToLast24HourReceiveWindowStart(uint16)": {
        "notice": "Timestamp when the last 24-hour window started from remote chain."
      },
      "chainIdToLast24HourReceived(uint16)": {
        "notice": "Total received amount in USD(scaled with 18 decimals) within the last 24-hour window from remote chain."
      },
      "chainIdToLast24HourTransferred(uint16)": {
        "notice": "Total sent amount in USD(scaled with 18 decimals) within the last 24-hour window from local chain."
      },
      "chainIdToLast24HourWindowStart(uint16)": {
        "notice": "Timestamp when the last 24-hour window started from local chain."
      },
      "chainIdToMaxDailyLimit(uint16)": {
        "notice": "Maximum daily limit for transactions in USD(scaled with 18 decimals) from local chain."
      },
      "chainIdToMaxDailyReceiveLimit(uint16)": {
        "notice": "Maximum daily limit for receiving transactions in USD(scaled with 18 decimals) from remote chain."
      },
      "chainIdToMaxSingleReceiveTransactionLimit(uint16)": {
        "notice": "Maximum limit for a single receive transaction in USD(scaled with 18 decimals) from remote chain."
      },
      "chainIdToMaxSingleTransactionLimit(uint16)": {
        "notice": "Maximum limit for a single transaction in USD(scaled with 18 decimals) from local chain."
      },
      "circulatingSupply()": {
        "notice": "Returns the total circulating supply of the token on the destination chain i.e (total supply)."
      },
      "dropFailedMessage(uint16,bytes,uint64)": {
        "notice": "Clear failed messages from the storage."
      },
      "isEligibleToSend(address,uint16,uint256)": {
        "notice": "Checks the eligibility of a sender to initiate a cross-chain token transfer."
      },
      "oracle()": {
        "notice": "The address of ResilientOracle contract wrapped in its interface."
      },
      "pause()": {
        "notice": "Triggers stopped state of the bridge."
      },
      "removeTrustedRemote(uint16)": {
        "notice": "Remove trusted remote from storage."
      },
      "renounceOwnership()": {
        "notice": "Empty implementation of renounce ownership to avoid any mishappening."
      },
      "sendAndCall(address,uint16,bytes32,uint256,bytes,uint64,(address,address,bytes))": {
        "notice": "Initiates a cross-chain token transfer and triggers a call on the destination chain."
      },
      "setMaxDailyLimit(uint16,uint256)": {
        "notice": "Sets the limit of daily (24 Hour) transactions amount."
      },
      "setMaxDailyReceiveLimit(uint16,uint256)": {
        "notice": "Sets the maximum daily limit for receiving transactions."
      },
      "setMaxSingleReceiveTransactionLimit(uint16,uint256)": {
        "notice": "Sets the maximum limit for a single receive transaction."
      },
      "setMaxSingleTransactionLimit(uint16,uint256)": {
        "notice": "Sets the limit of single transaction amount."
      },
      "setOracle(address)": {
        "notice": "Set the address of the ResilientOracle contract."
      },
      "setWhitelist(address,bool)": {
        "notice": "Sets the whitelist address to skip checks on transaction limit."
      },
      "sweepToken(address,address,uint256)": {
        "notice": "A public function to sweep accidental ERC-20 transfers to this contract. Tokens are sent to user"
      },
      "token()": {
        "notice": "Return's the address of the inner token of this bridge."
      },
      "unpause()": {
        "notice": "Triggers resume state of the bridge."
      },
      "updateSendAndCallEnabled(bool)": {
        "notice": "It enables or disables sendAndCall functionality for the bridge."
      },
      "whitelist(address)": {
        "notice": "Address on which cap check and bound limit is not applicable."
      }
    },
    "notice": "XVSProxyOFTDest contract builds upon the functionality of its parent contract, BaseXVSProxyOFT, and focuses on managing token transfers to the destination chain. It provides functions to check eligibility and perform the actual token transfers while maintaining strict access controls and pausing mechanisms.",
    "version": 1
  },
  "storageLayout": {
    "storage": [
      {
        "astId": 5506,
        "contract": "contracts/Bridge/XVSProxyOFTDest.sol:XVSProxyOFTDest",
        "label": "_paused",
        "offset": 0,
        "slot": "0",
        "type": "t_bool"
      },
      {
        "astId": 5383,
        "contract": "contracts/Bridge/XVSProxyOFTDest.sol:XVSProxyOFTDest",
        "label": "_owner",
        "offset": 1,
        "slot": "0",
        "type": "t_address"
      },
      {
        "astId": 455,
        "contract": "contracts/Bridge/XVSProxyOFTDest.sol:XVSProxyOFTDest",
        "label": "trustedRemoteLookup",
        "offset": 0,
        "slot": "1",
        "type": "t_mapping(t_uint16,t_bytes_storage)"
      },
      {
        "astId": 461,
        "contract": "contracts/Bridge/XVSProxyOFTDest.sol:XVSProxyOFTDest",
        "label": "minDstGasLookup",
        "offset": 0,
        "slot": "2",
        "type": "t_mapping(t_uint16,t_mapping(t_uint16,t_uint256))"
      },
      {
        "astId": 465,
        "contract": "contracts/Bridge/XVSProxyOFTDest.sol:XVSProxyOFTDest",
        "label": "payloadSizeLimitLookup",
        "offset": 0,
        "slot": "3",
        "type": "t_mapping(t_uint16,t_uint256)"
      },
      {
        "astId": 467,
        "contract": "contracts/Bridge/XVSProxyOFTDest.sol:XVSProxyOFTDest",
        "label": "precrime",
        "offset": 0,
        "slot": "4",
        "type": "t_address"
      },
      {
        "astId": 997,
        "contract": "contracts/Bridge/XVSProxyOFTDest.sol:XVSProxyOFTDest",
        "label": "failedMessages",
        "offset": 0,
        "slot": "5",
        "type": "t_mapping(t_uint16,t_mapping(t_bytes_memory_ptr,t_mapping(t_uint64,t_bytes32)))"
      },
      {
        "astId": 3161,
        "contract": "contracts/Bridge/XVSProxyOFTDest.sol:XVSProxyOFTDest",
        "label": "creditedPackets",
        "offset": 0,
        "slot": "6",
        "type": "t_mapping(t_uint16,t_mapping(t_bytes_memory_ptr,t_mapping(t_uint64,t_bool)))"
      },
      {
        "astId": 9391,
        "contract": "contracts/Bridge/XVSProxyOFTDest.sol:XVSProxyOFTDest",
        "label": "sendAndCallEnabled",
        "offset": 0,
        "slot": "7",
        "type": "t_bool"
      },
      {
        "astId": 9395,
        "contract": "contracts/Bridge/XVSProxyOFTDest.sol:XVSProxyOFTDest",
        "label": "oracle",
        "offset": 1,
        "slot": "7",
        "type": "t_contract(ResilientOracleInterface)8694"
      },
      {
        "astId": 9400,
        "contract": "contracts/Bridge/XVSProxyOFTDest.sol:XVSProxyOFTDest",
        "label": "chainIdToMaxSingleTransactionLimit",
        "offset": 0,
        "slot": "8",
        "type": "t_mapping(t_uint16,t_uint256)"
      },
      {
        "astId": 9405,
        "contract": "contracts/Bridge/XVSProxyOFTDest.sol:XVSProxyOFTDest",
        "label": "chainIdToMaxDailyLimit",
        "offset": 0,
        "slot": "9",
        "type": "t_mapping(t_uint16,t_uint256)"
      },
      {
        "astId": 9410,
        "contract": "contracts/Bridge/XVSProxyOFTDest.sol:XVSProxyOFTDest",
        "label": "chainIdToLast24HourTransferred",
        "offset": 0,
        "slot": "10",
        "type": "t_mapping(t_uint16,t_uint256)"
      },
      {
        "astId": 9415,
        "contract": "contracts/Bridge/XVSProxyOFTDest.sol:XVSProxyOFTDest",
        "label": "chainIdToLast24HourWindowStart",
        "offset": 0,
        "slot": "11",
        "type": "t_mapping(t_uint16,t_uint256)"
      },
      {
        "astId": 9420,
        "contract": "contracts/Bridge/XVSProxyOFTDest.sol:XVSProxyOFTDest",
        "label": "chainIdToMaxSingleReceiveTransactionLimit",
        "offset": 0,
        "slot": "12",
        "type": "t_mapping(t_uint16,t_uint256)"
      },
      {
        "astId": 9425,
        "contract": "contracts/Bridge/XVSProxyOFTDest.sol:XVSProxyOFTDest",
        "label": "chainIdToMaxDailyReceiveLimit",
        "offset": 0,
        "slot": "13",
        "type": "t_mapping(t_uint16,t_uint256)"
      },
      {
        "astId": 9430,
        "contract": "contracts/Bridge/XVSProxyOFTDest.sol:XVSProxyOFTDest",
        "label": "chainIdToLast24HourReceived",
        "offset": 0,
        "slot": "14",
        "type": "t_mapping(t_uint16,t_uint256)"
      },
      {
        "astId": 9435,
        "contract": "contracts/Bridge/XVSProxyOFTDest.sol:XVSProxyOFTDest",
        "label": "chainIdToLast24HourReceiveWindowStart",
        "offset": 0,
        "slot": "15",
        "type": "t_mapping(t_uint16,t_uint256)"
      },
      {
        "astId": 9440,
        "contract": "contracts/Bridge/XVSProxyOFTDest.sol:XVSProxyOFTDest",
        "label": "whitelist",
        "offset": 0,
        "slot": "16",
        "type": "t_mapping(t_address,t_bool)"
      }
    ],
    "types": {
      "t_address": {
        "encoding": "inplace",
        "label": "address",
        "numberOfBytes": "20"
      },
      "t_bool": {
        "encoding": "inplace",
        "label": "bool",
        "numberOfBytes": "1"
      },
      "t_bytes32": {
        "encoding": "inplace",
        "label": "bytes32",
        "numberOfBytes": "32"
      },
      "t_bytes_memory_ptr": {
        "encoding": "bytes",
        "label": "bytes",
        "numberOfBytes": "32"
      },
      "t_bytes_storage": {
        "encoding": "bytes",
        "label": "bytes",
        "numberOfBytes": "32"
      },
      "t_contract(ResilientOracleInterface)8694": {
        "encoding": "inplace",
        "label": "contract ResilientOracleInterface",
        "numberOfBytes": "20"
      },
      "t_mapping(t_address,t_bool)": {
        "encoding": "mapping",
        "key": "t_address",
        "label": "mapping(address => bool)",
        "numberOfBytes": "32",
        "value": "t_bool"
      },
      "t_mapping(t_bytes_memory_ptr,t_mapping(t_uint64,t_bool))": {
        "encoding": "mapping",
        "key": "t_bytes_memory_ptr",
        "label": "mapping(bytes => mapping(uint64 => bool))",
        "numberOfBytes": "32",
        "value": "t_mapping(t_uint64,t_bool)"
      },
      "t_mapping(t_bytes_memory_ptr,t_mapping(t_uint64,t_bytes32))": {
        "encoding": "mapping",
        "key": "t_bytes_memory_ptr",
        "label": "mapping(bytes => mapping(uint64 => bytes32))",
        "numberOfBytes": "32",
        "value": "t_mapping(t_uint64,t_bytes32)"
      },
      "t_mapping(t_uint16,t_bytes_storage)": {
        "encoding": "mapping",
        "key": "t_uint16",
        "label": "mapping(uint16 => bytes)",
        "numberOfBytes": "32",
        "value": "t_bytes_storage"
      },
      "t_mapping(t_uint16,t_mapping(t_bytes_memory_ptr,t_mapping(t_uint64,t_bool)))": {
        "encoding": "mapping",
        "key": "t_uint16",
        "label": "mapping(uint16 => mapping(bytes => mapping(uint64 => bool)))",
        "numberOfBytes": "32",
        "value": "t_mapping(t_bytes_memory_ptr,t_mapping(t_uint64,t_bool))"
      },
      "t_mapping(t_uint16,t_mapping(t_bytes_memory_ptr,t_mapping(t_uint64,t_bytes32)))": {
        "encoding": "mapping",
        "key": "t_uint16",
        "label": "mapping(uint16 => mapping(bytes => mapping(uint64 => bytes32)))",
        "numberOfBytes": "32",
        "value": "t_mapping(t_bytes_memory_ptr,t_mapping(t_uint64,t_bytes32))"
      },
      "t_mapping(t_uint16,t_mapping(t_uint16,t_uint256))": {
        "encoding": "mapping",
        "key": "t_uint16",
        "label": "mapping(uint16 => mapping(uint16 => uint256))",
        "numberOfBytes": "32",
        "value": "t_mapping(t_uint16,t_uint256)"
      },
      "t_mapping(t_uint16,t_uint256)": {
        "encoding": "mapping",
        "key": "t_uint16",
        "label": "mapping(uint16 => uint256)",
        "numberOfBytes": "32",
        "value": "t_uint256"
      },
      "t_mapping(t_uint64,t_bool)": {
        "encoding": "mapping",
        "key": "t_uint64",
        "label": "mapping(uint64 => bool)",
        "numberOfBytes": "32",
        "value": "t_bool"
      },
      "t_mapping(t_uint64,t_bytes32)": {
        "encoding": "mapping",
        "key": "t_uint64",
        "label": "mapping(uint64 => bytes32)",
        "numberOfBytes": "32",
        "value": "t_bytes32"
      },
      "t_uint16": {
        "encoding": "inplace",
        "label": "uint16",
        "numberOfBytes": "2"
      },
      "t_uint256": {
        "encoding": "inplace",
        "label": "uint256",
        "numberOfBytes": "32"
      },
      "t_uint64": {
        "encoding": "inplace",
        "label": "uint64",
        "numberOfBytes": "8"
      }
    }
  }
}