{
  "address": "0xce124Ac8D4C0C910af05ce030273dd6Deb9b3B7C",
  "abi": [
    {
      "inputs": [
        {
          "internalType": "address",
          "name": "TokenBridge_",
          "type": "address"
        }
      ],
      "stateMutability": "nonpayable",
      "type": "constructor"
    },
    {
      "inputs": [
        {
          "internalType": "address",
          "name": "sender",
          "type": "address"
        },
        {
          "internalType": "address",
          "name": "calledContract",
          "type": "address"
        },
        {
          "internalType": "string",
          "name": "methodSignature",
          "type": "string"
        }
      ],
      "name": "Unauthorized",
      "type": "error"
    },
    {
      "inputs": [],
      "name": "ZeroAddressNotAllowed",
      "type": "error"
    },
    {
      "anonymous": false,
      "inputs": [
        {
          "indexed": false,
          "internalType": "string",
          "name": "signature",
          "type": "string"
        },
        {
          "indexed": false,
          "internalType": "bool",
          "name": "active",
          "type": "bool"
        }
      ],
      "name": "FunctionRegistryChanged",
      "type": "event"
    },
    {
      "anonymous": false,
      "inputs": [
        {
          "indexed": false,
          "internalType": "uint8",
          "name": "version",
          "type": "uint8"
        }
      ],
      "name": "Initialized",
      "type": "event"
    },
    {
      "anonymous": false,
      "inputs": [
        {
          "indexed": false,
          "internalType": "address",
          "name": "oldAccessControlManager",
          "type": "address"
        },
        {
          "indexed": false,
          "internalType": "address",
          "name": "newAccessControlManager",
          "type": "address"
        }
      ],
      "name": "NewAccessControlManager",
      "type": "event"
    },
    {
      "anonymous": false,
      "inputs": [
        {
          "indexed": true,
          "internalType": "address",
          "name": "previousOwner",
          "type": "address"
        },
        {
          "indexed": true,
          "internalType": "address",
          "name": "newOwner",
          "type": "address"
        }
      ],
      "name": "OwnershipTransferStarted",
      "type": "event"
    },
    {
      "anonymous": false,
      "inputs": [
        {
          "indexed": true,
          "internalType": "address",
          "name": "previousOwner",
          "type": "address"
        },
        {
          "indexed": true,
          "internalType": "address",
          "name": "newOwner",
          "type": "address"
        }
      ],
      "name": "OwnershipTransferred",
      "type": "event"
    },
    {
      "stateMutability": "nonpayable",
      "type": "fallback"
    },
    {
      "inputs": [],
      "name": "acceptOwnership",
      "outputs": [],
      "stateMutability": "nonpayable",
      "type": "function"
    },
    {
      "inputs": [],
      "name": "accessControlManager",
      "outputs": [
        {
          "internalType": "contract IAccessControlManagerV8",
          "name": "",
          "type": "address"
        }
      ],
      "stateMutability": "view",
      "type": "function"
    },
    {
      "inputs": [
        {
          "internalType": "bytes4",
          "name": "",
          "type": "bytes4"
        }
      ],
      "name": "functionRegistry",
      "outputs": [
        {
          "internalType": "string",
          "name": "",
          "type": "string"
        }
      ],
      "stateMutability": "view",
      "type": "function"
    },
    {
      "inputs": [
        {
          "internalType": "address",
          "name": "accessControlManager_",
          "type": "address"
        }
      ],
      "name": "initialize",
      "outputs": [],
      "stateMutability": "nonpayable",
      "type": "function"
    },
    {
      "inputs": [
        {
          "internalType": "uint16",
          "name": "remoteChainId_",
          "type": "uint16"
        },
        {
          "internalType": "bytes",
          "name": "remoteAddress_",
          "type": "bytes"
        }
      ],
      "name": "isTrustedRemote",
      "outputs": [
        {
          "internalType": "bool",
          "name": "",
          "type": "bool"
        }
      ],
      "stateMutability": "nonpayable",
      "type": "function"
    },
    {
      "inputs": [],
      "name": "owner",
      "outputs": [
        {
          "internalType": "address",
          "name": "",
          "type": "address"
        }
      ],
      "stateMutability": "view",
      "type": "function"
    },
    {
      "inputs": [],
      "name": "pendingOwner",
      "outputs": [
        {
          "internalType": "address",
          "name": "",
          "type": "address"
        }
      ],
      "stateMutability": "view",
      "type": "function"
    },
    {
      "inputs": [],
      "name": "renounceOwnership",
      "outputs": [],
      "stateMutability": "nonpayable",
      "type": "function"
    },
    {
      "inputs": [
        {
          "internalType": "address",
          "name": "accessControlManager_",
          "type": "address"
        }
      ],
      "name": "setAccessControlManager",
      "outputs": [],
      "stateMutability": "nonpayable",
      "type": "function"
    },
    {
      "inputs": [
        {
          "internalType": "uint16",
          "name": "remoteChainId_",
          "type": "uint16"
        },
        {
          "internalType": "bytes",
          "name": "remoteAddress_",
          "type": "bytes"
        }
      ],
      "name": "setTrustedRemoteAddress",
      "outputs": [],
      "stateMutability": "nonpayable",
      "type": "function"
    },
    {
      "inputs": [],
      "name": "tokenBridge",
      "outputs": [
        {
          "internalType": "contract ITokenBridge",
          "name": "",
          "type": "address"
        }
      ],
      "stateMutability": "view",
      "type": "function"
    },
    {
      "inputs": [
        {
          "internalType": "address",
          "name": "newOwner_",
          "type": "address"
        }
      ],
      "name": "transferBridgeOwnership",
      "outputs": [],
      "stateMutability": "nonpayable",
      "type": "function"
    },
    {
      "inputs": [
        {
          "internalType": "address",
          "name": "newOwner",
          "type": "address"
        }
      ],
      "name": "transferOwnership",
      "outputs": [],
      "stateMutability": "nonpayable",
      "type": "function"
    },
    {
      "inputs": [
        {
          "internalType": "string[]",
          "name": "signatures_",
          "type": "string[]"
        },
        {
          "internalType": "bool[]",
          "name": "active_",
          "type": "bool[]"
        }
      ],
      "name": "upsertSignature",
      "outputs": [],
      "stateMutability": "nonpayable",
      "type": "function"
    }
  ],
  "transactionHash": "0x91ff3ca60e8a375d3b3c71669a350c97ca69677ab868d78dd89191f8097b4bbf",
  "args": [
    "0xD08843bd56a2415A49a1A8E87F3e528Eb281710B"
  ],
  "numDeployments": 1,
  "solcInputHash": "01bc9c0defec9b5353ae2c2d449e0d78",
  "bytecode": "0x60a06040523480156200001157600080fd5b50604051620016a8380380620016a8833981016040819052620000349162000149565b6200003f816200005d565b6001600160a01b0381166080526200005662000088565b506200017b565b6001600160a01b03811662000085576040516342bcdf7f60e11b815260040160405180910390fd5b50565b600054610100900460ff1615620000f55760405162461bcd60e51b815260206004820152602760248201527f496e697469616c697a61626c653a20636f6e747261637420697320696e697469604482015266616c697a696e6760c81b606482015260840160405180910390fd5b60005460ff9081161462000147576000805460ff191660ff9081179091556040519081527f7f26b83ff96e1f2b6a682f133852f6798a09c465da95921460cefb38474024989060200160405180910390a15b565b6000602082840312156200015c57600080fd5b81516001600160a01b03811681146200017457600080fd5b9392505050565b6080516114f5620001b36000396000818161016101528181610319015281816105d2015281816106b30152610b2601526114f56000f3fe608060405234801561001057600080fd5b50600436106100ea5760003560e01c80638da5cb5b1161008c578063c4d66de811610066578063c4d66de814610301578063c6328a4614610314578063e30c39781461033b578063f2fde38b1461034c576100ea565b80638da5cb5b146102b8578063a6c3d165146102dd578063b4a0bdf3146102f0576100ea565b80633f90b540116100c85780633f90b5401461028a5780634bb7453e1461029d578063715018a61461023c57806379ba5097146102b0576100ea565b80630e32cb8614610229578063180d295c1461023e5780633d8b38f614610267575b600036606060006101066000356001600160e01b03191661035f565b905080516000036101535760405162461bcd60e51b8152602060048201526012602482015271119d5b98dd1a5bdb881b9bdd08199bdd5b9960721b60448201526064015b60405180910390fd5b61015c8161040c565b6000807f00000000000000000000000000000000000000000000000000000000000000006001600160a01b03168686604051610199929190611067565b6000604051808303816000865af19150503d80600081146101d6576040519150601f19603f3d011682016040523d82523d6000602084013e6101db565b606091505b50915091508161021b5760405162461bcd60e51b815260206004820152600b60248201526a18d85b1b0819985a5b195960aa1b604482015260640161014a565b805195506020019350505050f35b61023c610237366004611077565b6104aa565b005b61025161024c3660046110a7565b6104be565b60405161025e919061111e565b60405180910390f35b61027a610275366004611131565b610558565b604051901515815260200161025e565b61023c610298366004611077565b610656565b61023c6102ab366004611209565b610712565b61023c610a1b565b6033546001600160a01b03165b6040516001600160a01b03909116815260200161025e565b61023c6102eb366004611131565b610a92565b6097546001600160a01b03166102c5565b61023c61030f366004611077565b610b96565b6102c57f000000000000000000000000000000000000000000000000000000000000000081565b6065546001600160a01b03166102c5565b61023c61035a366004611077565b610ca9565b6001600160e01b03198116600090815260c96020526040902080546060919061038790611275565b80601f01602080910402602001604051908101604052809291908181526020018280546103b390611275565b80156104005780601f106103d557610100808354040283529160200191610400565b820191906000526020600020905b8154815290600101906020018083116103e357829003601f168201915b50505050509050919050565b6097546040516318c5e8ab60e01b81526000916001600160a01b0316906318c5e8ab9061043f90339086906004016112af565b602060405180830381865afa15801561045c573d6000803e3d6000fd5b505050506040513d601f19601f8201168201806040525081019061048091906112e1565b9050806104a657333083604051634a3fa29360e01b815260040161014a939291906112fe565b5050565b6104b2610d1a565b6104bb81610d74565b50565b60c960205260009081526040902080546104d790611275565b80601f016020809104026020016040519081016040528092919081815260200182805461050390611275565b80156105505780601f1061052557610100808354040283529160200191610550565b820191906000526020600020905b81548152906001019060200180831161053357829003601f168201915b505050505081565b60008361ffff166000036105a95760405162461bcd60e51b8152602060048201526018602482015277436861696e4964206d757374206e6f74206265207a65726f60401b604482015260640161014a565b6105bb6105b68484610e32565b610e48565b604051631ec59c7b60e11b81526001600160a01b037f00000000000000000000000000000000000000000000000000000000000000001690633d8b38f69061060b9087908790879060040161135c565b6020604051808303816000875af115801561062a573d6000803e3d6000fd5b505050506040513d601f19601f8201168201806040525081019061064e91906112e1565b949350505050565b6106946040518060400160405280602081526020017f7472616e736665724272696467654f776e65727368697028616464726573732981525061040c565b60405163f2fde38b60e01b81526001600160a01b0382811660048301527f0000000000000000000000000000000000000000000000000000000000000000169063f2fde38b90602401600060405180830381600087803b1580156106f757600080fd5b505af115801561070b573d6000803e3d6000fd5b5050505050565b61071a610d1a565b828181146107795760405162461bcd60e51b815260206004820152602660248201527f496e70757420617272617973206d7573742068617665207468652073616d65206044820152650d8cadccee8d60d31b606482015260840161014a565b60005b81811015610a115760008686838181106107985761079861137a565b90506020028101906107aa9190611390565b6040516107b8929190611067565b60408051918290039091206001600160e01b03198116600090815260c96020529182208054919350906107ea90611275565b80601f016020809104026020016040519081016040528092919081815260200182805461081690611275565b80156108635780601f1061083857610100808354040283529160200191610863565b820191906000526020600020905b81548152906001019060200180831161084657829003601f168201915b5050505050905085858481811061087c5761087c61137a565b905060200201602081019061089191906113d7565b801561089c57508051155b1561094d578787848181106108b3576108b361137a565b90506020028101906108c59190611390565b6001600160e01b03198416600090815260c9602052604090206108e9929091610f98565b507f9d424e54f4d851aabd288f6cc4946e5726d6b5c0e66ea4ef159a3c40bcc470fa88888581811061091d5761091d61137a565b905060200281019061092f9190611390565b6001604051610940939291906113f4565b60405180910390a1610a07565b85858481811061095f5761095f61137a565b905060200201602081019061097491906113d7565b1580156109815750805115155b15610a07576001600160e01b03198216600090815260c9602052604081206109a89161101c565b7f9d424e54f4d851aabd288f6cc4946e5726d6b5c0e66ea4ef159a3c40bcc470fa8888858181106109db576109db61137a565b90506020028101906109ed9190611390565b60006040516109fe939291906113f4565b60405180910390a15b505060010161077c565b505050505050565b565b60655433906001600160a01b03168114610a895760405162461bcd60e51b815260206004820152602960248201527f4f776e61626c6532537465703a2063616c6c6572206973206e6f7420746865206044820152683732bb9037bbb732b960b91b606482015260840161014a565b6104bb81610e6f565b610ab360405180606001604052806025815260200161149b6025913961040c565b8261ffff16600003610b025760405162461bcd60e51b8152602060048201526018602482015277436861696e4964206d757374206e6f74206265207a65726f60401b604482015260640161014a565b610b0f6105b68383610e32565b60405163a6c3d16560e01b81526001600160a01b037f0000000000000000000000000000000000000000000000000000000000000000169063a6c3d16590610b5f9086908690869060040161135c565b600060405180830381600087803b158015610b7957600080fd5b505af1158015610b8d573d6000803e3d6000fd5b50505050505050565b600054610100900460ff1615808015610bb65750600054600160ff909116105b80610bd05750303b158015610bd0575060005460ff166001145b610c335760405162461bcd60e51b815260206004820152602e60248201527f496e697469616c697a61626c653a20636f6e747261637420697320616c72656160448201526d191e481a5b9a5d1a585b1a5e995960921b606482015260840161014a565b6000805460ff191660011790558015610c56576000805461ff0019166101001790555b610c5f82610e88565b80156104a6576000805461ff0019169055604051600181527f7f26b83ff96e1f2b6a682f133852f6798a09c465da95921460cefb3847402498906020015b60405180910390a15050565b610cb1610d1a565b606580546001600160a01b0383166001600160a01b03199091168117909155610ce26033546001600160a01b031690565b6001600160a01b03167f38d16b8cac22d99fc7c124b9cd0de2d3fa1faef420bfe791d8c362d765e2270060405160405180910390a350565b6033546001600160a01b03163314610a195760405162461bcd60e51b815260206004820181905260248201527f4f776e61626c653a2063616c6c6572206973206e6f7420746865206f776e6572604482015260640161014a565b6001600160a01b038116610dd85760405162461bcd60e51b815260206004820152602560248201527f696e76616c696420616365737320636f6e74726f6c206d616e61676572206164604482015264647265737360d81b606482015260840161014a565b609780546001600160a01b038381166001600160a01b031983168117909355604080519190921680825260208201939093527f66fd58e82f7b31a2a5c30e0888f3093efe4e111b00cd2b0c31fe014601293aa09101610c9d565b6000610e3e828461141a565b60601c9392505050565b6001600160a01b0381166104bb576040516342bcdf7f60e11b815260040160405180910390fd5b606580546001600160a01b03191690556104bb81610ec0565b600054610100900460ff16610eaf5760405162461bcd60e51b815260040161014a9061144f565b610eb7610f12565b6104bb81610f41565b603380546001600160a01b038381166001600160a01b0319831681179093556040519116919082907f8be0079c531659141344cd1fd0a4f28419497f9722a3daafe3b4186f6b6457e090600090a35050565b600054610100900460ff16610f395760405162461bcd60e51b815260040161014a9061144f565b610a19610f68565b600054610100900460ff166104b25760405162461bcd60e51b815260040161014a9061144f565b600054610100900460ff16610f8f5760405162461bcd60e51b815260040161014a9061144f565b610a1933610e6f565b828054610fa490611275565b90600052602060002090601f016020900481019282610fc6576000855561100c565b82601f10610fdf5782800160ff1982351617855561100c565b8280016001018555821561100c579182015b8281111561100c578235825591602001919060010190610ff1565b50611018929150611052565b5090565b50805461102890611275565b6000825580601f10611038575050565b601f0160209004906000526020600020908101906104bb91905b5b808211156110185760008155600101611053565b8183823760009101908152919050565b60006020828403121561108957600080fd5b81356001600160a01b03811681146110a057600080fd5b9392505050565b6000602082840312156110b957600080fd5b81356001600160e01b0319811681146110a057600080fd5b6000815180845260005b818110156110f7576020818501810151868301820152016110db565b81811115611109576000602083870101525b50601f01601f19169290920160200192915050565b6020815260006110a060208301846110d1565b60008060006040848603121561114657600080fd5b833561ffff8116811461115857600080fd5b9250602084013567ffffffffffffffff8082111561117557600080fd5b818601915086601f83011261118957600080fd5b81358181111561119857600080fd5b8760208285010111156111aa57600080fd5b6020830194508093505050509250925092565b60008083601f8401126111cf57600080fd5b50813567ffffffffffffffff8111156111e757600080fd5b6020830191508360208260051b850101111561120257600080fd5b9250929050565b6000806000806040858703121561121f57600080fd5b843567ffffffffffffffff8082111561123757600080fd5b611243888389016111bd565b9096509450602087013591508082111561125c57600080fd5b50611269878288016111bd565b95989497509550505050565b600181811c9082168061128957607f821691505b6020821081036112a957634e487b7160e01b600052602260045260246000fd5b50919050565b6001600160a01b038316815260406020820181905260009061064e908301846110d1565b80151581146104bb57600080fd5b6000602082840312156112f357600080fd5b81516110a0816112d3565b6001600160a01b0384811682528316602082015260606040820181905260009061132a908301846110d1565b95945050505050565b81835281816020850137506000828201602090810191909152601f909101601f19169091010190565b61ffff8416815260406020820152600061132a604083018486611333565b634e487b7160e01b600052603260045260246000fd5b6000808335601e198436030181126113a757600080fd5b83018035915067ffffffffffffffff8211156113c257600080fd5b60200191503681900382131561120257600080fd5b6000602082840312156113e957600080fd5b81356110a0816112d3565b604081526000611408604083018587611333565b90508215156020830152949350505050565b6bffffffffffffffffffffffff1981358181169160148510156114475780818660140360031b1b83161692505b505092915050565b6020808252602b908201527f496e697469616c697a61626c653a20636f6e7472616374206973206e6f74206960408201526a6e697469616c697a696e6760a81b60608201526080019056fe7365745472757374656452656d6f7465416464726573732875696e7431362c627974657329a26469706673582212203f0843dd02b41a85213b846d9c82ed3726a3d76103edab0571d9f9ca8a20075264736f6c634300080d0033",
  "devdoc": {
    "author": "Venus",
    "kind": "dev",
    "methods": {
      "acceptOwnership()": {
        "details": "The new owner accepts the ownership transfer."
      },
      "constructor": {
        "custom:oz-upgrades-unsafe-allow": "constructor"
      },
      "initialize(address)": {
        "params": {
          "accessControlManager_": "Address of access control manager contract."
        }
      },
      "isTrustedRemote(uint16,bytes)": {
        "custom:error": "ZeroAddressNotAllowed is thrown when remoteAddress_ contract address is zero.",
        "params": {
          "remoteAddress_": "Address of the destination bridge.",
          "remoteChainId_": "Chain Id of the destination chain."
        },
        "returns": {
          "_0": "Bool indicating whether the remote chain is trusted or not."
        }
      },
      "owner()": {
        "details": "Returns the address of the current owner."
      },
      "pendingOwner()": {
        "details": "Returns the address of the pending owner."
      },
      "setAccessControlManager(address)": {
        "custom:access": "Only Governance",
        "custom:event": "Emits NewAccessControlManager event",
        "details": "Admin function to set address of AccessControlManager",
        "params": {
          "accessControlManager_": "The new address of the AccessControlManager"
        }
      },
      "setTrustedRemoteAddress(uint16,bytes)": {
        "custom:access": "Controlled by AccessControlManager.",
        "custom:error": "ZeroAddressNotAllowed is thrown when remoteAddress_ contract address is zero.",
        "params": {
          "remoteAddress_": "Address of the destination bridge.",
          "remoteChainId_": "Chain Id of the destination chain."
        }
      },
      "transferBridgeOwnership(address)": {
        "custom:access": "Controlled by AccessControlManager.",
        "params": {
          "newOwner_": "New owner of the Token Bridge."
        }
      },
      "transferOwnership(address)": {
        "details": "Starts the ownership transfer of the contract to a new account. Replaces the pending transfer if there is one. Can only be called by the current owner."
      },
      "upsertSignature(string[],bool[])": {
        "custom:access": "Only owner.",
        "custom:event": "Emits FunctionRegistryChanged if bool value of function changes.",
        "params": {
          "active_": "bool value, should be true to add function.",
          "signatures_": "Function signature to be added or removed."
        }
      }
    },
    "stateVariables": {
      "tokenBridge": {
        "custom:oz-upgrades-unsafe-allow": "state-variable-immutable"
      }
    },
    "title": "TokenBridgeAdmin",
    "version": 1
  },
  "userdoc": {
    "errors": {
      "Unauthorized(address,address,string)": [
        {
          "notice": "Thrown when the action is prohibited by AccessControlManager"
        }
      ],
      "ZeroAddressNotAllowed()": [
        {
          "notice": "Thrown if the supplied address is a zero address where it is not allowed"
        }
      ]
    },
    "events": {
      "FunctionRegistryChanged(string,bool)": {
        "notice": "emitted when function registry updated"
      },
      "NewAccessControlManager(address,address)": {
        "notice": "Emitted when access control manager contract address is changed"
      }
    },
    "kind": "user",
    "methods": {
      "accessControlManager()": {
        "notice": "Returns the address of the access control manager contract"
      },
      "functionRegistry(bytes4)": {
        "notice": "A mapping keeps track of function signature associated with function name string."
      },
      "isTrustedRemote(uint16,bytes)": {
        "notice": "Returns true if remote address is trustedRemote corresponds to chainId_."
      },
      "renounceOwnership()": {
        "notice": "Empty implementation of renounce ownership to avoid any mishappening."
      },
      "setAccessControlManager(address)": {
        "notice": "Sets the address of AccessControlManager"
      },
      "setTrustedRemoteAddress(uint16,bytes)": {
        "notice": "Sets trusted remote on particular chain."
      },
      "transferBridgeOwnership(address)": {
        "notice": "This function transfers the ownership of the bridge from this contract to new owner."
      },
      "upsertSignature(string[],bool[])": {
        "notice": "A setter for the registry of functions that are allowed to be executed from proposals."
      }
    },
    "notice": "The TokenBridgeAdmin contract extends a parent contract AccessControlledV8 for access control, and it manages an external contract called TokenProxyOFT. It maintains a registry of function signatures and names, allowing for dynamic function handling i.e checking of access control of interaction with only owner functions.",
    "version": 1
  },
  "storageLayout": {
    "storage": [
      {
        "astId": 4452,
        "contract": "contracts/Bridge/TokenBridgeAdmin.sol:TokenBridgeAdmin",
        "label": "_initialized",
        "offset": 0,
        "slot": "0",
        "type": "t_uint8"
      },
      {
        "astId": 4455,
        "contract": "contracts/Bridge/TokenBridgeAdmin.sol:TokenBridgeAdmin",
        "label": "_initializing",
        "offset": 1,
        "slot": "0",
        "type": "t_bool"
      },
      {
        "astId": 4985,
        "contract": "contracts/Bridge/TokenBridgeAdmin.sol:TokenBridgeAdmin",
        "label": "__gap",
        "offset": 0,
        "slot": "1",
        "type": "t_array(t_uint256)50_storage"
      },
      {
        "astId": 4324,
        "contract": "contracts/Bridge/TokenBridgeAdmin.sol:TokenBridgeAdmin",
        "label": "_owner",
        "offset": 0,
        "slot": "51",
        "type": "t_address"
      },
      {
        "astId": 4444,
        "contract": "contracts/Bridge/TokenBridgeAdmin.sol:TokenBridgeAdmin",
        "label": "__gap",
        "offset": 0,
        "slot": "52",
        "type": "t_array(t_uint256)49_storage"
      },
      {
        "astId": 4233,
        "contract": "contracts/Bridge/TokenBridgeAdmin.sol:TokenBridgeAdmin",
        "label": "_pendingOwner",
        "offset": 0,
        "slot": "101",
        "type": "t_address"
      },
      {
        "astId": 4312,
        "contract": "contracts/Bridge/TokenBridgeAdmin.sol:TokenBridgeAdmin",
        "label": "__gap",
        "offset": 0,
        "slot": "102",
        "type": "t_array(t_uint256)49_storage"
      },
      {
        "astId": 8479,
        "contract": "contracts/Bridge/TokenBridgeAdmin.sol:TokenBridgeAdmin",
        "label": "_accessControlManager",
        "offset": 0,
        "slot": "151",
        "type": "t_contract(IAccessControlManagerV8)8664"
      },
      {
        "astId": 8484,
        "contract": "contracts/Bridge/TokenBridgeAdmin.sol:TokenBridgeAdmin",
        "label": "__gap",
        "offset": 0,
        "slot": "152",
        "type": "t_array(t_uint256)49_storage"
      },
      {
        "astId": 10635,
        "contract": "contracts/Bridge/TokenBridgeAdmin.sol:TokenBridgeAdmin",
        "label": "functionRegistry",
        "offset": 0,
        "slot": "201",
        "type": "t_mapping(t_bytes4,t_string_storage)"
      }
    ],
    "types": {
      "t_address": {
        "encoding": "inplace",
        "label": "address",
        "numberOfBytes": "20"
      },
      "t_array(t_uint256)49_storage": {
        "base": "t_uint256",
        "encoding": "inplace",
        "label": "uint256[49]",
        "numberOfBytes": "1568"
      },
      "t_array(t_uint256)50_storage": {
        "base": "t_uint256",
        "encoding": "inplace",
        "label": "uint256[50]",
        "numberOfBytes": "1600"
      },
      "t_bool": {
        "encoding": "inplace",
        "label": "bool",
        "numberOfBytes": "1"
      },
      "t_bytes4": {
        "encoding": "inplace",
        "label": "bytes4",
        "numberOfBytes": "4"
      },
      "t_contract(IAccessControlManagerV8)8664": {
        "encoding": "inplace",
        "label": "contract IAccessControlManagerV8",
        "numberOfBytes": "20"
      },
      "t_mapping(t_bytes4,t_string_storage)": {
        "encoding": "mapping",
        "key": "t_bytes4",
        "label": "mapping(bytes4 => string)",
        "numberOfBytes": "32",
        "value": "t_string_storage"
      },
      "t_string_storage": {
        "encoding": "bytes",
        "label": "string",
        "numberOfBytes": "32"
      },
      "t_uint256": {
        "encoding": "inplace",
        "label": "uint256",
        "numberOfBytes": "32"
      },
      "t_uint8": {
        "encoding": "inplace",
        "label": "uint8",
        "numberOfBytes": "1"
      }
    }
  }
}